{
  "contractName": "A",
  "abi": [
    {
      "constant": false,
      "inputs": [],
      "name": "n",
      "outputs": [
        {
          "name": "",
          "type": "uint256"
        }
      ],
      "payable": false,
      "stateMutability": "nonpayable",
      "type": "function"
    }
  ],
  "bytecode": "0x6080604052348015600f57600080fd5b5060a18061001e6000396000f300608060405260043610603f576000357c0100000000000000000000000000000000000000000000000000000000900463ffffffff1680632e52d606146044575b600080fd5b348015604f57600080fd5b506056606c565b6040518082815260200191505060405180910390f35b600060019050905600a165627a7a723058202e44cded5ab9f1c51feea60479d6fa5682e52efbbe355ca6ec7bb70fc85b7f260029",
  "source": "pragma solidity ^0.4.0;\n\ninterface Letter {\n    function n() public returns (uint);\n}\n\ncontract A is Letter {\n    function n()\n        public\n        returns (uint) {\n        return 1;    \n    }\n}\n\ncontract B is A {}\n\ncontract C is Letter {\n    function n()\n        public\n        returns (uint) {\n        return 2;\n    }\n    \n    function x() \n        public\n        returns (string) {\n        return \"x\";        \n    }\n}\n\ncontract Alphabet {\n    \n    Letter[] private letters;\n    \n    event Printer(uint);\n    \n    function Alphabet()\n        public {\n        letters.push(new A());\n        letters.push(new B());\n        letters.push(new C());\n    }\n    \n    function loadRemote(address _addrX,\n                        address _addrY,\n                        address _addrZ)\n        public {\n        letters.push(Letter(_addrX));\n        letters.push(Letter(_addrY));\n        letters.push(Letter(_addrZ));    \n    }\n    \n    function printLetters()\n        public {\n        for(uint i = 0; i < letters.length; i++) {\n            Printer(letters[i].n());\n        }    \n    }\n}",
  "sourcePath": "/home/liweibo/code/solidity/contracts_library/contracts_library/channel-gravy-token/contracts/willitscale/learning-solidity/tutorial-17/Alphabet.sol",
  "compiler": {
    "name": "solc",
    "version": "0.4.24+commit.e67f0147.Emscripten.clang"
  },
  "schemaVersion": "2.0.1",
  "updatedAt": "2018-08-14T06:52:16.536Z"
}