{
  "contractName": "ArrayReceiverAndReturner",
  "abi": [
    {
      "inputs": [],
      "payable": false,
      "stateMutability": "nonpayable",
      "type": "constructor"
    },
    {
      "constant": false,
      "inputs": [
        {
          "name": "incoming",
          "type": "uint8[10]"
        }
      ],
      "name": "setArray",
      "outputs": [],
      "payable": false,
      "stateMutability": "nonpayable",
      "type": "function"
    },
    {
      "constant": true,
      "inputs": [],
      "name": "getArraySettingResult",
      "outputs": [
        {
          "name": "",
          "type": "int8"
        }
      ],
      "payable": false,
      "stateMutability": "view",
      "type": "function"
    },
    {
      "constant": true,
      "inputs": [],
      "name": "getArray",
      "outputs": [
        {
          "name": "",
          "type": "uint8[10]"
        }
      ],
      "payable": false,
      "stateMutability": "view",
      "type": "function"
    },
    {
      "constant": true,
      "inputs": [
        {
          "name": "x",
          "type": "uint8"
        }
      ],
      "name": "getValue",
      "outputs": [
        {
          "name": "",
          "type": "uint8"
        }
      ],
      "payable": false,
      "stateMutability": "view",
      "type": "function"
    },
    {
      "constant": false,
      "inputs": [],
      "name": "kill",
      "outputs": [],
      "payable": false,
      "stateMutability": "nonpayable",
      "type": "function"
    }
  ],
  "bytecode": "0x6080604052600a600060146101000a81548160ff021916908360ff1602179055507fffffffffffffffffffffffffffffffffffffffffffffffffffffffffffffffff600260006101000a81548160ff021916908360000b60ff16021790555034801561006a57600080fd5b506000336000806101000a81548173ffffffffffffffffffffffffffffffffffffffff021916908373ffffffffffffffffffffffffffffffffffffffff160217905550600090505b600a8160ff1610156100fe576001808260ff16600a811015156100d157fe5b602091828204019190066101000a81548160ff021916908360ff16021790555080806001019150506100b2565b506103fe8061010e6000396000f30060806040526004361061006d576000357c0100000000000000000000000000000000000000000000000000000000900463ffffffff168063181be00d1461007257806341c0e1b5146100bc578063a311dd70146100d3578063b8c86aa614610126578063d504ea1d14610157575b600080fd5b34801561007e57600080fd5b506100a0600480360381019080803560ff1690602001909291905050506101aa565b604051808260ff1660ff16815260200191505060405180910390f35b3480156100c857600080fd5b506100d16101db565b005b3480156100df57600080fd5b50610124600480360381019080806101400190600a806020026040519081016040528092919082600a602002808284378201915050505050919291929050505061026c565b005b34801561013257600080fd5b5061013b610326565b604051808260000b60000b815260200191505060405180910390f35b34801561016357600080fd5b5061016c61033d565b6040518082600a60200280838360005b8381101561019757808201518184015260208101905061017c565b5050505090500191505060405180910390f35b600060018260ff16600a811015156101be57fe5b602091828204019190069054906101000a900460ff169050919050565b6000809054906101000a900473ffffffffffffffffffffffffffffffffffffffff1673ffffffffffffffffffffffffffffffffffffffff163373ffffffffffffffffffffffffffffffffffffffff16141561026a576000809054906101000a900473ffffffffffffffffffffffffffffffffffffffff1673ffffffffffffffffffffffffffffffffffffffff16ff5b565b600080600260006101000a81548160ff021916908360000b60ff160217905550600090505b600060149054906101000a900460ff1660ff168160ff16101561030357818160ff16600a811015156102bf57fe5b602002015160018260ff16600a811015156102d657fe5b602091828204019190066101000a81548160ff021916908360ff1602179055508080600101915050610291565b6001600260006101000a81548160ff021916908360000b60ff1602179055505050565b6000600260009054906101000a900460000b905090565b6103456103ae565b6001600a806020026040519081016040528092919082600a80156103a4576020028201916000905b82829054906101000a900460ff1660ff168152602001906001019060208260000104928301926001038202915080841161036d5790505b5050505050905090565b61014060405190810160405280600a906020820280388339808201915050905050905600a165627a7a72305820a1b14685126c92c74b3d6bc02bb1be490ce943577d95c47579e59df82d4c4f0b0029",
  "source": "contract ArrayReceiverAndReturner {\n\n    address creator;\n    uint8 arraylength = 10;\n    uint8[10] integers; // NOTE 1 see below\n    int8 setarraysuccessful = -1; // 1 success, 0 fail, -1 not yet tried\n\n    function ArrayReceiverAndReturner() \n    {\n        creator = msg.sender;\n        uint8 x = 0;\n        while(x < integers.length)\n        {\n        \tintegers[x] = 1; // initialize array to all zeros\n        \tx++;\n        }\n    }\n    \n    function setArray(uint8[10] incoming)  // NOTE 2 see below. Also, use enough gas.\n    {\n    \tsetarraysuccessful = 0;\n    \tuint8 x = 0;\n        while(x < arraylength)\n        {\n        \tintegers[x] = incoming[x]; // initialize array to all zeros\n        \tx++;\n        }\n        setarraysuccessful = 1;\n    \treturn;\n    }\n    \n    function getArraySettingResult() constant returns (int8)\n    {\n    \treturn setarraysuccessful;\n    }\n    \n    function getArray() constant returns (uint8[10])  // NOTE 3 see below\n    {\n    \treturn integers;\n    }\n    \n    function getValue(uint8 x) constant returns (uint8)\n    {\n    \treturn integers[x];\n    }\n    \n    /**********\n     Standard kill() function to recover funds \n     **********/\n    \n    function kill()\n    { \n        if (msg.sender == creator)\n        {\n            suicide(creator);  // kills this contract and sends remaining funds back to creator\n        }\n    }\n}\n\n// NOTES 1, 2, 3\n// because \"integers\" is declared as uint8[10], getArray() must return type uint8[10].\n// setArray(...) does not require uint8[10] input, but you'd then have to check to make sure the two arrays were of the same type and length.\n\n// If \"integers\" were declared as uint8[] (dynamic length), then I'd have used getArray() and setArray() with uint8[] instead. \n// setArray would then obviously require a length check for compatibility.\n\n/*\n\n> ArrayReceiverAndReturner.getValue(3);\n1\n> ArrayReceiverAndReturner.setArray.sendTransaction([0,1,2,3,4,5,6,7,8,9], {from:eth.coinbase});\n\"0xe54bf5d62f6b45f8761d5bcdd7d919bf1b51eade0ed5dc43bea828f927731fdb\"\n> ArrayReceiverAndReturner.getArraySettingResult();\n-1\n> ArrayReceiverAndReturner.getArraySettingResult();\n-1\n> ArrayReceiverAndReturner.setArray.sendTransaction([0,1,2,3,4,5,6,7,8,9], {from:eth.coinbase,gas:1000000});\n\"0x3e0bbb151e10a316fbc201ca4e78ebd4c1f6bc827f83d72cff39e5dfb0aba18d\"\n> ArrayReceiverAndReturner.getArraySettingResult();\n1\n> ArrayReceiverAndReturner.getArray();\n[0, 1, 2, 3, 4, 5, 6, 7, 8, 9]\n\n*/",
  "sourcePath": "/home/liweibo/code/solidity/contracts_library/contracts_library/channel-gravy-token/contracts/fivedogit/solidity-baby-steps/contracts/ArrayReceiverAndReturner.sol",
  "compiler": {
    "name": "solc",
    "version": "0.4.24+commit.e67f0147.Emscripten.clang"
  },
  "schemaVersion": "2.0.1",
  "updatedAt": "2018-08-14T06:52:45.252Z"
}