{
  "contractName": "Assembly",
  "abi": [
    {
      "constant": false,
      "inputs": [],
      "name": "nativeLoops",
      "outputs": [
        {
          "name": "_r",
          "type": "uint256"
        }
      ],
      "payable": false,
      "stateMutability": "nonpayable",
      "type": "function"
    },
    {
      "constant": false,
      "inputs": [],
      "name": "asmLoops",
      "outputs": [
        {
          "name": "_r",
          "type": "uint256"
        }
      ],
      "payable": false,
      "stateMutability": "nonpayable",
      "type": "function"
    },
    {
      "constant": false,
      "inputs": [
        {
          "name": "_v",
          "type": "uint256"
        }
      ],
      "name": "nativeConditional",
      "outputs": [
        {
          "name": "",
          "type": "uint256"
        }
      ],
      "payable": false,
      "stateMutability": "nonpayable",
      "type": "function"
    },
    {
      "constant": false,
      "inputs": [
        {
          "name": "_v",
          "type": "uint256"
        }
      ],
      "name": "asmConditional",
      "outputs": [
        {
          "name": "_r",
          "type": "uint256"
        }
      ],
      "payable": false,
      "stateMutability": "nonpayable",
      "type": "function"
    },
    {
      "constant": false,
      "inputs": [
        {
          "name": "_v",
          "type": "uint256"
        }
      ],
      "name": "asmReturns",
      "outputs": [
        {
          "name": "",
          "type": "uint256"
        }
      ],
      "payable": false,
      "stateMutability": "nonpayable",
      "type": "function"
    }
  ],
  "bytecode": "0x608060405234801561001057600080fd5b5061026b806100206000396000f30060806040526004361061006d576000357c0100000000000000000000000000000000000000000000000000000000900463ffffffff168063355556331461007257806351dfa9f7146100b35780639c81ccc6146100f4578063aa2fbfa01461011f578063e22ead3b14610160575b600080fd5b34801561007e57600080fd5b5061009d6004803603810190808035906020019092919050505061018b565b6040518082815260200191505060405180910390f35b3480156100bf57600080fd5b506100de600480360381019080803590602001909291905050506101bb565b6040518082815260200191505060405180910390f35b34801561010057600080fd5b506101096101eb565b6040518082815260200191505060405180910390f35b34801561012b57600080fd5b5061014a60048036038101908080359060200190929190505050610207565b6040518082815260200191505060405180910390f35b34801561016c57600080fd5b50610175610215565b6040518082815260200191505060405180910390f35b6000816005141561019f57603790506101b6565b81600614156101b157604290506101b6565b600b90505b919050565b600081600581146101d757600681146101e057600b91506101e5565b603791506101e5565b604291505b50919050565b6000805b600181019050600182019150600a81106101ef575090565b600060015901828152602081f35b600080600090505b600a81101561023b578180600101925050808060010191505061021d565b50905600a165627a7a723058209faff2982b38275915a03baeaf08e497c702544312d3409394c23a883ab7fd9c0029",
  "source": "pragma solidity ^0.4.0;\n\ncontract Assembly {\n    function nativeLoops() public returns (uint _r) {\n        for(uint i = 0; i < 10; i++) {\n            _r++;\n        }\n    }\n    \n    function asmLoops() public returns (uint _r) {\n        assembly {\n            let i := 0\n            loop:\n            i := add(i, 1)\n            _r := add(_r, 1)\n            jumpi(loop, lt(i, 10))\n        }\n    }\n\n    function nativeConditional(uint _v) public returns (uint) {\n        if (5 == _v) {\n            return 55;\n        } else if (6 == _v) {\n            return 66;\n        } \n        return 11;\n    }\n    \n    function asmConditional(uint _v) public returns (uint _r) {\n        assembly {\n            switch _v\n            case 5 {\n                _r := 55\n            }\n            case 6 { \n                _r := 66\n            }\n            default {\n                _r := 11\n            }\n        }\n    }\n    \n    function asmReturns(uint _v) public returns (uint) {\n        assembly {\n            let _ptr := add(msize(), 1)\n            mstore(_ptr, _v)\n            return(_ptr, 0x20)\n        }\n    }\n}",
  "sourcePath": "/home/liweibo/code/solidity/contracts_library/contracts_library/channel-gravy-token/contracts/willitscale/learning-solidity/tutorial-12/Assembly.sol",
  "compiler": {
    "name": "solc",
    "version": "0.4.24+commit.e67f0147.Emscripten.clang"
  },
  "schemaVersion": "2.0.1",
  "updatedAt": "2018-08-14T06:52:45.229Z"
}