{
  "contractName": "Assignments",
  "abi": [
    {
      "constant": false,
      "inputs": [
        {
          "name": "a",
          "type": "uint256"
        },
        {
          "name": "b",
          "type": "uint256"
        }
      ],
      "name": "returnFirstValue",
      "outputs": [
        {
          "name": "",
          "type": "uint256"
        }
      ],
      "payable": false,
      "stateMutability": "nonpayable",
      "type": "function"
    },
    {
      "constant": false,
      "inputs": [],
      "name": "caller",
      "outputs": [
        {
          "name": "",
          "type": "uint256"
        }
      ],
      "payable": false,
      "stateMutability": "nonpayable",
      "type": "function"
    },
    {
      "constant": false,
      "inputs": [
        {
          "name": "a",
          "type": "uint256"
        },
        {
          "name": "b",
          "type": "uint256"
        },
        {
          "name": "c",
          "type": "uint256"
        }
      ],
      "name": "returnAllValues",
      "outputs": [
        {
          "name": "",
          "type": "uint256"
        },
        {
          "name": "",
          "type": "uint256"
        },
        {
          "name": "",
          "type": "uint256"
        }
      ],
      "payable": false,
      "stateMutability": "nonpayable",
      "type": "function"
    },
    {
      "constant": false,
      "inputs": [],
      "name": "callerAll",
      "outputs": [
        {
          "name": "",
          "type": "uint256"
        },
        {
          "name": "",
          "type": "uint256"
        },
        {
          "name": "",
          "type": "uint256"
        }
      ],
      "payable": false,
      "stateMutability": "nonpayable",
      "type": "function"
    }
  ],
  "bytecode": "0x608060405234801561001057600080fd5b5061023e806100206000396000f300608060405260043610610062576000357c0100000000000000000000000000000000000000000000000000000000900463ffffffff1680634367612e1461006757806343e4c7d1146100b2578063f18c51fc146100eb578063fc9c8d391461014e575b600080fd5b34801561007357600080fd5b5061009c6004803603810190808035906020019092919080359060200190929190505050610179565b6040518082815260200191505060405180910390f35b3480156100be57600080fd5b506100c7610184565b60405180848152602001838152602001828152602001935050505060405180910390f35b3480156100f757600080fd5b5061012a6004803603810190808035906020019092919080359060200190929190803590602001909291905050506101e8565b60405180848152602001838152602001828152602001935050505060405180910390f35b34801561015a57600080fd5b506101636101ff565b6040518082815260200191505060405180910390f35b600082905092915050565b60008060008060008061019b6004600560066101e8565b925092509250818380935081945050506101b96005600a600f6101e8565b905050809350506101ce600a6014601e6101e8565b909150905080915050828282955095509550505050909192565b600080600085858592509250925093509350939050565b600061020d60086004610179565b9050905600a165627a7a72305820952b9d806499c7799e71c9454f13c749de3344286a72b3a1f98bac59497c17040029",
  "source": "pragma solidity ^0.4.0;\n\ncontract Assignments {\n    function returnFirstValue(uint a, uint b) returns (uint) {\n        return a;\n    }\n    \n    function caller() public returns (uint) {\n        return returnFirstValue({b:4, a:8});\n    }\n    \n    function returnAllValues(uint a, uint b, uint c) returns (uint, uint, uint) {\n        return (a,b,c);\n    }\n    \n    function callerAll() public returns (uint, uint, uint) {\n        var(x,y,z) = returnAllValues(4,5,6);\n        (x,y) = (y,x);\n        (x,) = returnAllValues(5,10,15);\n        (,z) = returnAllValues(10,20,30);\n        return (x,y,z);\n    }\n}",
  "sourcePath": "/home/liweibo/code/solidity/contracts_library/contracts_library/channel-gravy-token/contracts/willitscale/learning-solidity/tutorial-20/Assignments.sol",
  "compiler": {
    "name": "solc",
    "version": "0.4.24+commit.e67f0147.Emscripten.clang"
  },
  "schemaVersion": "2.0.1",
  "updatedAt": "2018-08-14T06:52:45.240Z"
}