{
  "contractName": "Bank",
  "abi": [
    {
      "inputs": [
        {
          "name": "amount",
          "type": "uint256"
        }
      ],
      "payable": false,
      "stateMutability": "nonpayable",
      "type": "constructor"
    },
    {
      "constant": false,
      "inputs": [
        {
          "name": "amount",
          "type": "uint256"
        }
      ],
      "name": "deposit",
      "outputs": [],
      "payable": false,
      "stateMutability": "nonpayable",
      "type": "function"
    },
    {
      "constant": false,
      "inputs": [
        {
          "name": "amount",
          "type": "uint256"
        }
      ],
      "name": "withdraw",
      "outputs": [],
      "payable": false,
      "stateMutability": "nonpayable",
      "type": "function"
    },
    {
      "constant": false,
      "inputs": [],
      "name": "balance",
      "outputs": [
        {
          "name": "",
          "type": "uint256"
        }
      ],
      "payable": false,
      "stateMutability": "nonpayable",
      "type": "function"
    },
    {
      "constant": false,
      "inputs": [
        {
          "name": "amount",
          "type": "uint256"
        }
      ],
      "name": "checkValue",
      "outputs": [
        {
          "name": "",
          "type": "bool"
        }
      ],
      "payable": false,
      "stateMutability": "nonpayable",
      "type": "function"
    },
    {
      "constant": false,
      "inputs": [],
      "name": "loan",
      "outputs": [
        {
          "name": "",
          "type": "bool"
        }
      ],
      "payable": false,
      "stateMutability": "nonpayable",
      "type": "function"
    }
  ],
  "bytecode": "0x608060405234801561001057600080fd5b506040516020806102388339810180604052810190808051906020019092919050505080600081905550506101ee8061004a6000396000f30060806040526004361061006d576000357c0100000000000000000000000000000000000000000000000000000000900463ffffffff16806318db62fb146100725780632e1a7d4d146100b7578063b69ef8a8146100e4578063b6b55f251461010f578063d285b7b41461013c575b600080fd5b34801561007e57600080fd5b5061009d6004803603810190808035906020019092919050505061016b565b604051808215151515815260200191505060405180910390f35b3480156100c357600080fd5b506100e26004803603810190808035906020019092919050505061017a565b005b3480156100f057600080fd5b506100f961019b565b6040518082815260200191505060405180910390f35b34801561011b57600080fd5b5061013a600480360381019080803590602001909291905050506101a4565b005b34801561014857600080fd5b506101516101b6565b604051808215151515815260200191505060405180910390f35b60008160005410159050919050565b6101838161016b565b15610198578060008082825403925050819055505b50565b60008054905090565b80600080828254019250508190555050565b600080600054119050905600a165627a7a723058208e8ddf8c87656e4da61a9b8e1cbe25af9caa779d01ce29ae9e04b480a16d08810029",
  "source": "pragma solidity ^0.4.0;\n\ninterface Regulator {\n    function checkValue(uint amount) returns (bool);\n    function loan() returns (bool);\n}\n\ncontract Bank is Regulator {\n    uint private value;\n    \n    function Bank(uint amount) {\n        value = amount;\n    }\n    \n    function deposit(uint amount) {\n        value += amount;\n    }\n    \n    function withdraw(uint amount) {\n        if (checkValue(amount)) {\n            value -= amount;\n        }\n    }\n    \n    function balance() returns (uint) {\n        return value;\n    }\n    \n    function checkValue(uint amount) returns (bool) {\n        // Classic mistake in the tutorial value should be above the amount\n        return value >= amount;\n    }\n    \n    function loan() returns (bool) {\n        return value > 0;\n    }\n}\n\ncontract MyFirstContract is Bank(10) {\n    string private name;\n    uint private age;\n    \n    function setName(string newName) {\n        name = newName;\n    }\n    \n    function getName() returns (string) {\n        return name;\n    }\n    \n    function setAge(uint newAge) {\n        age = newAge;\n    }\n    \n    function getAge() returns (uint) {\n        return age;\n    }\n}\n",
  "sourcePath": "/home/liweibo/code/solidity/contracts_library/contracts_library/channel-gravy-token/contracts/willitscale/learning-solidity/tutorial-02/MyFirstContract.sol",
  "compiler": {
    "name": "solc",
    "version": "0.4.24+commit.e67f0147.Emscripten.clang"
  },
  "schemaVersion": "2.0.1",
  "updatedAt": "2018-08-14T06:52:27.462Z"
}