{
  "contractName": "BasicIterator",
  "abi": [
    {
      "inputs": [],
      "payable": false,
      "stateMutability": "nonpayable",
      "type": "constructor"
    },
    {
      "constant": true,
      "inputs": [],
      "name": "getSum",
      "outputs": [
        {
          "name": "",
          "type": "uint256"
        }
      ],
      "payable": false,
      "stateMutability": "view",
      "type": "function"
    },
    {
      "constant": false,
      "inputs": [],
      "name": "kill",
      "outputs": [],
      "payable": false,
      "stateMutability": "nonpayable",
      "type": "function"
    }
  ],
  "bytecode": "0x608060405234801561001057600080fd5b506000336000806101000a81548173ffffffffffffffffffffffffffffffffffffffff021916908373ffffffffffffffffffffffffffffffffffffffff160217905550600090505b600a8160ff1610156100a4578060018260ff16600a8110151561007757fe5b602091828204019190066101000a81548160ff021916908360ff1602179055508080600101915050610058565b506101ad806100b46000396000f30060806040526004361061004c576000357c0100000000000000000000000000000000000000000000000000000000900463ffffffff16806341c0e1b514610051578063569c5f6d14610068575b600080fd5b34801561005d57600080fd5b50610066610093565b005b34801561007457600080fd5b5061007d610124565b6040518082815260200191505060405180910390f35b6000809054906101000a900473ffffffffffffffffffffffffffffffffffffffff1673ffffffffffffffffffffffffffffffffffffffff163373ffffffffffffffffffffffffffffffffffffffff161415610122576000809054906101000a900473ffffffffffffffffffffffffffffffffffffffff1673ffffffffffffffffffffffffffffffffffffffff16ff5b565b6000806000809150600090505b600a8160ff1610156101765760018160ff16600a8110151561014f57fe5b602091828204019190069054906101000a900460ff16820191508080600101915050610131565b8160ff1692505050905600a165627a7a72305820175fc462ff928d5b5864d46d92d419d2ad588293625e23094eb22aa505c043cb0029",
  "source": "/*\n\tThis is a very simple demonstration of a while loops. Same as JS/c.\n*/\n\ncontract BasicIterator {\n\n    address creator;                  // reserve one \"address\"-type spot\n    uint8[10] integers;               // reserve a chunk of storage for 10 8-bit unsigned integers in an array\n\n    function BasicIterator() \n    {\n        creator = msg.sender;         // set the creator address\n        uint8 x = 0;                  // initialize an 8-bit, unsigned integer to zero\n        while(x < integers.length)    // the variable integers was initialized to length 10\n        {\n        \tintegers[x] = x;      // set integers to [0,1,2,3,4,5,6,7,8,9] over ten iterations\n        \tx++;\n        }\n    }\n    \n    function getSum() constant returns (uint)  // \"constant\" just means this function returns something to the caller\n    {                                          // which is immediately followed by what type gets returned, in this case a full uint256\n    \tuint8 sum = 0;\n    \tuint8 x = 0;\n    \twhile(x < integers.length)\n        {\n        \tsum = sum + integers[x];\n        \tx++;\n        }\n    \treturn sum;\n    }\n    \n    /**********\n     Standard kill() function to recover funds \n     **********/\n    \n    function kill()\n    { \n        if (msg.sender == creator)\n        {\n            suicide(creator);  // kills this contract and sends remaining funds back to creator\n        }\n    }\n}\n",
  "sourcePath": "/home/liweibo/code/solidity/contracts_library/contracts_library/channel-gravy-token/contracts/fivedogit/solidity-baby-steps/contracts/BasicIterator.sol",
  "compiler": {
    "name": "solc",
    "version": "0.4.24+commit.e67f0147.Emscripten.clang"
  },
  "schemaVersion": "2.0.1",
  "updatedAt": "2018-08-14T06:52:45.250Z"
}