{
  "contractName": "BlockAnAddress",
  "abi": [
    {
      "constant": true,
      "inputs": [
        {
          "name": "",
          "type": "address"
        }
      ],
      "name": "blocked",
      "outputs": [
        {
          "name": "addressOfPerson",
          "type": "address"
        },
        {
          "name": "numberOfTimes",
          "type": "uint256"
        }
      ],
      "payable": false,
      "stateMutability": "view",
      "type": "function"
    },
    {
      "constant": false,
      "inputs": [],
      "name": "Blocked",
      "outputs": [],
      "payable": false,
      "stateMutability": "nonpayable",
      "type": "function"
    },
    {
      "constant": false,
      "inputs": [
        {
          "name": "_listOfAddress",
          "type": "address"
        }
      ],
      "name": "BlockPerson",
      "outputs": [],
      "payable": false,
      "stateMutability": "nonpayable",
      "type": "function"
    }
  ],
  "bytecode": "0x608060405234801561001057600080fd5b50610285806100206000396000f300608060405260043610610057576000357c0100000000000000000000000000000000000000000000000000000000900463ffffffff1680635175c1c91461005c578063a5baf1511461009f578063e5962195146100b6575b600080fd5b34801561006857600080fd5b5061009d600480360381019080803573ffffffffffffffffffffffffffffffffffffffff169060200190929190505050610140565b005b3480156100ab57600080fd5b506100b4610213565b005b3480156100c257600080fd5b506100f7600480360381019080803573ffffffffffffffffffffffffffffffffffffffff169060200190929190505050610215565b604051808373ffffffffffffffffffffffffffffffffffffffff1673ffffffffffffffffffffffffffffffffffffffff1681526020018281526020019250505060405180910390f35b806000808373ffffffffffffffffffffffffffffffffffffffff1673ffffffffffffffffffffffffffffffffffffffff16815260200190815260200160002060000160006101000a81548173ffffffffffffffffffffffffffffffffffffffff021916908373ffffffffffffffffffffffffffffffffffffffff16021790555060016000808373ffffffffffffffffffffffffffffffffffffffff1673ffffffffffffffffffffffffffffffffffffffff1681526020019081526020016000206001016000828254019250508190555050565b565b60006020528060005260406000206000915090508060000160009054906101000a900473ffffffffffffffffffffffffffffffffffffffff169080600101549050825600a165627a7a72305820c59250099bfbfecea1d3295b0232a08daec182c8ae8394fc0c8bcd8c6e5682a10029",
  "source": "pragma solidity ^0.4.18;\ncontract BlockAnAddress {\n   \n   struct Person {\n       address addressOfPerson;\n       uint numberOfTimes;\n   }\n    \n    mapping(address => Person) public blocked;\n    \n    function Blocked() {        \n    }\n    \n    function BlockPerson(address _listOfAddress) public  {\n       blocked[_listOfAddress].addressOfPerson = _listOfAddress;\n       blocked[_listOfAddress].numberOfTimes += 1;\n    } \n}\n",
  "sourcePath": "/home/liweibo/code/solidity/contracts_library/contracts_library/channel-gravy-token/contracts/ram1991/Solidity-Smart-contracts/BlockAnAddress.sol",
  "compiler": {
    "name": "solc",
    "version": "0.4.24+commit.e67f0147.Emscripten.clang"
  },
  "schemaVersion": "2.0.1",
  "updatedAt": "2018-08-14T06:52:45.269Z"
}