{
  "contractName": "ByteExtractor",
  "abi": [
    {
      "inputs": [],
      "payable": false,
      "stateMutability": "nonpayable",
      "type": "constructor"
    },
    {
      "constant": true,
      "inputs": [
        {
          "name": "_b8",
          "type": "bytes8"
        },
        {
          "name": "byteindex",
          "type": "uint8"
        }
      ],
      "name": "getByteFromByte8",
      "outputs": [
        {
          "name": "",
          "type": "bytes1"
        }
      ],
      "payable": false,
      "stateMutability": "view",
      "type": "function"
    },
    {
      "constant": true,
      "inputs": [
        {
          "name": "_b32",
          "type": "bytes32"
        },
        {
          "name": "byteindex",
          "type": "uint8"
        }
      ],
      "name": "getByteFromByte32",
      "outputs": [
        {
          "name": "",
          "type": "bytes1"
        }
      ],
      "payable": false,
      "stateMutability": "view",
      "type": "function"
    },
    {
      "constant": true,
      "inputs": [
        {
          "name": "_b32",
          "type": "bytes32"
        },
        {
          "name": "byteindex",
          "type": "uint8"
        }
      ],
      "name": "getUint8FromByte32",
      "outputs": [
        {
          "name": "",
          "type": "uint8"
        }
      ],
      "payable": false,
      "stateMutability": "view",
      "type": "function"
    },
    {
      "constant": true,
      "inputs": [
        {
          "name": "_b32",
          "type": "bytes32"
        },
        {
          "name": "index",
          "type": "uint8"
        }
      ],
      "name": "getDigitFromByte32",
      "outputs": [
        {
          "name": "",
          "type": "uint256"
        }
      ],
      "payable": false,
      "stateMutability": "view",
      "type": "function"
    },
    {
      "constant": true,
      "inputs": [
        {
          "name": "buint",
          "type": "uint256"
        },
        {
          "name": "index",
          "type": "uint8"
        }
      ],
      "name": "getDigitFromUint",
      "outputs": [
        {
          "name": "",
          "type": "uint256"
        }
      ],
      "payable": false,
      "stateMutability": "view",
      "type": "function"
    },
    {
      "constant": false,
      "inputs": [],
      "name": "kill",
      "outputs": [],
      "payable": false,
      "stateMutability": "nonpayable",
      "type": "function"
    }
  ],
  "bytecode": "0x608060405234801561001057600080fd5b50336000806101000a81548173ffffffffffffffffffffffffffffffffffffffff021916908373ffffffffffffffffffffffffffffffffffffffff160217905550610654806100606000396000f300608060405260043610610078576000357c0100000000000000000000000000000000000000000000000000000000900463ffffffff168063180a351b1461007d5780632de0385a1461012a57806341c0e1b5146101785780634b42d2081461018f578063aef983d0146101e7578063c4a9675814610239575b600080fd5b34801561008957600080fd5b506100d0600480360381019080803577ffffffffffffffffffffffffffffffffffffffffffffffff19169060200190929190803560ff1690602001909291905050506102cf565b60405180827effffffffffffffffffffffffffffffffffffffffffffffffffffffffffffff19167effffffffffffffffffffffffffffffffffffffffffffffffffffffffffffff1916815260200191505060405180910390f35b34801561013657600080fd5b5061016260048036038101908080359060200190929190803560ff169060200190929190505050610381565b6040518082815260200191505060405180910390f35b34801561018457600080fd5b5061018d6103e9565b005b34801561019b57600080fd5b506101cb6004803603810190808035600019169060200190929190803560ff16906020019092919050505061047a565b604051808260ff1660ff16815260200191505060405180910390f35b3480156101f357600080fd5b506102236004803603810190808035600019169060200190929190803560ff169060200190929190505050610507565b6040518082815260200191505060405180910390f35b34801561024557600080fd5b506102756004803603810190808035600019169060200190929190803560ff169060200190929190505050610579565b60405180827effffffffffffffffffffffffffffffffffffffffffffffffffffffffffffff19167effffffffffffffffffffffffffffffffffffffffffffffffffffffffffffff1916815260200191505060405180910390f35b6000806000806000806000806000601097508a78010000000000000000000000000000000000000000000000009004965060028a0260ff16880360100a955060028a0260ff16600289030360100a9450858781151561032a57fe5b069350848481151561033857fe5b0692508284039150848281151561034b57fe5b049050807f0100000000000000000000000000000000000000000000000000000000000000029850505050505050505092915050565b600080600080600080600080604096508860ff168703600a0a95508860ff166001880303600a0a9450858a8115156103b557fe5b06935084848115156103c357fe5b069250828403915084828115156103d657fe5b0490508097505050505050505092915050565b6000809054906101000a900473ffffffffffffffffffffffffffffffffffffffff1673ffffffffffffffffffffffffffffffffffffffff163373ffffffffffffffffffffffffffffffffffffffff161415610478576000809054906101000a900473ffffffffffffffffffffffffffffffffffffffff1673ffffffffffffffffffffffffffffffffffffffff16ff5b565b6000806000806000806000806000604097508a60019004965060028a0260ff16880360100a955060028a0260ff16600289030360100a945060008a60ff1614156104c6578693506104d5565b85878115156104d157fe5b0693505b84848115156104e057fe5b069250828403915084828115156104f357fe5b049050809850505050505050505092915050565b6000806000806000806000806000604097508a6001900496508960ff16880360100a95508960ff16600189030360100a9450858781151561054457fe5b069350848481151561055257fe5b0692508284039150848281151561056557fe5b049050809850505050505050505092915050565b6000806000806000806000806000604097508a60019004965060028a0260ff16880360100a955060028a0260ff16600289030360100a945060008a60ff1614156105c5578693506105d4565b85878115156105d057fe5b0693505b84848115156105df57fe5b069250828403915084828115156105f257fe5b049050807f01000000000000000000000000000000000000000000000000000000000000000298505050505050505050929150505600a165627a7a72305820cc7960f855ff09c21eee2c2377373c67d261af451d92dd9099ff6017693b47c30029",
  "source": "contract ByteExtractor {\n\n    address creator;\n\n    function ByteExtractor() {\n        creator = msg.sender;\n    }\n    \n    function getByteFromByte8(bytes8 _b8, uint8 byteindex) public constant returns(byte) {\n    \tuint numdigits = 16;\n    \tuint buint = uint(_b8);\n    \tuint upperpowervar = 16 ** (numdigits - (byteindex*2)); \t\t// @i=0 upperpowervar=16**64, @i=1 upperpowervar=16**62, @i upperpowervar=16**60\n    \tuint lowerpowervar = 16 ** (numdigits - 2 - (byteindex*2));\t\t// @i=0 upperpowervar=16**62, @i=1 upperpowervar=16**60, @i upperpowervar=16**58\n    \tuint postheadchop = buint % upperpowervar; \t\t\t\t// @i=0 _b32=a1b2c3d4... postheadchop=a1b2c3d4, @i=1 postheadchop=b2c3d4, @i=2 postheadchop=c3d4\n    \tuint remainder = postheadchop % lowerpowervar; \t\t\t// @i=0 remainder=b2c3d4, @i=1 remainder=c3d4, @i=2 remainder=d4\n    \tuint evenedout = postheadchop - remainder; \t\t\t\t// @i=0 evenedout=a1000000, @i=1 remainder=b20000, @i=2 remainder=c300\n    \tuint b = evenedout / lowerpowervar; \t\t\t\t\t// @i=0 b=a1, @i=1 b=b2, @i=2 b=c3\n    \treturn byte(b);\n    }\n    \n    //returns a byte (of the range 0-255) from a bytes32\n    function getByteFromByte32(bytes32 _b32, uint8 byteindex) public constant returns(byte) {\n    \tuint numdigits = 64;\n    \tuint buint = uint(_b32);\n    \tuint upperpowervar = 16 ** (numdigits - (byteindex*2)); \t\t// @i=0 upperpowervar=16**64 (SEE EXCEPTION BELOW), @i=1 upperpowervar=16**62, @i upperpowervar=16**60\n    \tuint lowerpowervar = 16 ** (numdigits - 2 - (byteindex*2));\t\t// @i=0 upperpowervar=16**62, @i=1 upperpowervar=16**60, @i upperpowervar=16**58\n    \tuint postheadchop;\n    \tif(byteindex == 0)\n    \t\tpostheadchop = buint; \t\t\t\t\t\t\t\t//for byteindex 0, buint is just the input number. 16^64 is out of uint range, so this exception has to be made.\n    \telse\n    \t\tpostheadchop = buint % upperpowervar; \t\t\t\t// @i=0 _b32=a1b2c3d4... postheadchop=a1b2c3d4, @i=1 postheadchop=b2c3d4, @i=2 postheadchop=c3d4\n    \tuint remainder = postheadchop % lowerpowervar; \t\t\t// @i=0 remainder=b2c3d4, @i=1 remainder=c3d4, @i=2 remainder=d4\n    \tuint evenedout = postheadchop - remainder; \t\t\t\t// @i=0 evenedout=a1000000, @i=1 remainder=b20000, @i=2 remainder=c300\n    \tuint b = evenedout / lowerpowervar; \t\t\t\t\t// @i=0 b=a1, @i=1 b=b2, @i=2 b=c3\n    \treturn byte(b);\n    }\n    \n    // returns a uint8 of the range 0-255 from a bytes32\n    function getUint8FromByte32(bytes32 _b32, uint8 byteindex) public constant returns(uint8) {\n    \tuint numdigits = 64;\n    \tuint buint = uint(_b32);\n    \tuint upperpowervar = 16 ** (numdigits - (byteindex*2)); \t\t// @i=0 upperpowervar=16**64 (SEE EXCEPTION BELOW), @i=1 upperpowervar=16**62, @i upperpowervar=16**60\n    \tuint lowerpowervar = 16 ** (numdigits - 2 - (byteindex*2));\t\t// @i=0 upperpowervar=16**62, @i=1 upperpowervar=16**60, @i upperpowervar=16**58\n    \tuint postheadchop;\n    \tif(byteindex == 0)\n    \t\tpostheadchop = buint; \t\t\t\t\t\t\t\t//for byteindex 0, buint is just the input number. 16^64 is out of uint range, so this exception has to be made.\n    \telse\n    \t\tpostheadchop = buint % upperpowervar; \t\t\t\t// @i=0 _b32=a1b2c3d4... postheadchop=a1b2c3d4, @i=1 postheadchop=b2c3d4, @i=2 postheadchop=c3d4\n    \tuint remainder = postheadchop % lowerpowervar; \t\t\t// @i=0 remainder=b2c3d4, @i=1 remainder=c3d4, @i=2 remainder=d4\n    \tuint evenedout = postheadchop - remainder; \t\t\t\t// @i=0 evenedout=a1000000, @i=1 remainder=b20000, @i=2 remainder=c300\n    \tuint b = evenedout / lowerpowervar; \t\t\t\t\t// @i=0 b=a1 (to uint), @i=1 b=b2, @i=2 b=c3\n    \treturn uint8(b);\n    }\n    \n    // returns a uint of the range 0-15\n    function getDigitFromByte32(bytes32 _b32, uint8 index) public constant returns(uint) {\n    \tuint numdigits = 64;\n    \tuint buint = uint(_b32);\n    \tuint upperpowervar = 16 ** (numdigits - index); \t\t// @i=0 upperpowervar=16**64, @i=1 upperpowervar=16**63, @i upperpowervar=16**62\n    \tuint lowerpowervar = 16 ** (numdigits - 1 - index);\t\t// @i=0 upperpowervar=16**63, @i=1 upperpowervar=16**62, @i upperpowervar=16**61\n    \tuint postheadchop = buint % upperpowervar; \t\t\t\t// @i=0 _b32=a1b2c3d4... postheadchop=a1b2c3d4, @i=1 postheadchop=b2c3d4, @i=2 postheadchop=c3d4\n    \tuint remainder = postheadchop % lowerpowervar; \t\t\t// @i=0 remainder=b2c3d4, @i=1 remainder=c3d4, @i=2 remainder=d4\n    \tuint evenedout = postheadchop - remainder; \t\t\t\t// @i=0 evenedout=a1000000, @i=1 remainder=b20000, @i=2 remainder=c300\n    \tuint b = evenedout / lowerpowervar; \t\t\t\t\t// @i=0 b=a, @i=1 b=1, @i=2 b=b\n    \treturn b;\n    }\n    \n    // does this work? Doesn't seem quite right. uint256 is much larger than bytes32, why are we guaranteeing 64 digits? Me = confused\n    function getDigitFromUint(uint buint, uint8 index) public constant returns(uint) {\n    \tuint numdigits = 64;\n    \tuint upperpowervar = 10 ** (numdigits - index); \t\t// @i=0 upperpowervar=10**64, @i=1 upperpowervar=10**63, @i upperpowervar=10**62\n    \tuint lowerpowervar = 10 ** (numdigits - 1  -index);\t\t// @i=0 upperpowervar=10**63, @i=1 upperpowervar=10**62, @i upperpowervar=10**61\n    \tuint postheadchop = buint % upperpowervar; \t\t\t\t// @i=0 _b32=a1b2c3d4... postheadchop=a1b2c3d4, @i=1 postheadchop=b2c3d4, @i=2 postheadchop=c3d4\n    \tuint remainder = postheadchop % lowerpowervar; \t\t\t// @i=0 remainder=b2c3d4, @i=1 remainder=c3d4, @i=2 remainder=d4\n    \tuint evenedout = postheadchop - remainder; \t\t\t\t// @i=0 evenedout=a1000000, @i=1 remainder=b20000, @i=2 remainder=c300\n    \tuint b = evenedout / lowerpowervar; \t\t\t\t\t// @i=0 b=a1, @i=1 b=b2, @i=2 b=c3\n    \treturn b;\n    }\n    \n    /**********\n     Standard kill() function to recover funds \n     **********/\n\n    function kill() {\n        if (msg.sender == creator) {\n            suicide(creator); // kills this contract and sends remaining funds back to creator\n        }\n    }\n}",
  "sourcePath": "/home/liweibo/code/solidity/contracts_library/contracts_library/channel-gravy-token/contracts/fivedogit/solidity-baby-steps/contracts/ByteExtractor.sol",
  "compiler": {
    "name": "solc",
    "version": "0.4.24+commit.e67f0147.Emscripten.clang"
  },
  "schemaVersion": "2.0.1",
  "updatedAt": "2018-08-14T06:52:45.257Z"
}