{
  "contractName": "C",
  "abi": [
    {
      "constant": false,
      "inputs": [],
      "name": "n",
      "outputs": [
        {
          "name": "",
          "type": "uint256"
        }
      ],
      "payable": false,
      "stateMutability": "nonpayable",
      "type": "function"
    },
    {
      "constant": false,
      "inputs": [],
      "name": "x",
      "outputs": [
        {
          "name": "",
          "type": "string"
        }
      ],
      "payable": false,
      "stateMutability": "nonpayable",
      "type": "function"
    }
  ],
  "bytecode": "0x608060405234801561001057600080fd5b5061017e806100206000396000f30060806040526004361061004c576000357c0100000000000000000000000000000000000000000000000000000000900463ffffffff1680630c55699c146100515780632e52d606146100e1575b600080fd5b34801561005d57600080fd5b5061006661010c565b6040518080602001828103825283818151815260200191508051906020019080838360005b838110156100a657808201518184015260208101905061008b565b50505050905090810190601f1680156100d35780820380516001836020036101000a031916815260200191505b509250505060405180910390f35b3480156100ed57600080fd5b506100f6610149565b6040518082815260200191505060405180910390f35b60606040805190810160405280600181526020017f7800000000000000000000000000000000000000000000000000000000000000815250905090565b600060029050905600a165627a7a723058201879fa387650c99873ab981788d4672def5fd670643b2f48220e58abf75462040029",
  "source": "pragma solidity ^0.4.0;\n\ninterface Letter {\n    function n() public returns (uint);\n}\n\ncontract A is Letter {\n    function n()\n        public\n        returns (uint) {\n        return 1;    \n    }\n}\n\ncontract B is A {}\n\ncontract C is Letter {\n    function n()\n        public\n        returns (uint) {\n        return 2;\n    }\n    \n    function x() \n        public\n        returns (string) {\n        return \"x\";        \n    }\n}\n\ncontract Alphabet {\n    \n    Letter[] private letters;\n    \n    event Printer(uint);\n    \n    function Alphabet()\n        public {\n        letters.push(new A());\n        letters.push(new B());\n        letters.push(new C());\n    }\n    \n    function loadRemote(address _addrX,\n                        address _addrY,\n                        address _addrZ)\n        public {\n        letters.push(Letter(_addrX));\n        letters.push(Letter(_addrY));\n        letters.push(Letter(_addrZ));    \n    }\n    \n    function printLetters()\n        public {\n        for(uint i = 0; i < letters.length; i++) {\n            Printer(letters[i].n());\n        }    \n    }\n}",
  "sourcePath": "/home/liweibo/code/solidity/contracts_library/contracts_library/channel-gravy-token/contracts/willitscale/learning-solidity/tutorial-17/Alphabet.sol",
  "compiler": {
    "name": "solc",
    "version": "0.4.24+commit.e67f0147.Emscripten.clang"
  },
  "schemaVersion": "2.0.1",
  "updatedAt": "2018-08-14T06:52:16.540Z"
}