{
  "contractName": "Casino",
  "abi": [
    {
      "inputs": [],
      "payable": false,
      "stateMutability": "nonpayable",
      "type": "constructor"
    },
    {
      "constant": false,
      "inputs": [
        {
          "name": "number",
          "type": "uint256"
        },
        {
          "name": "salt",
          "type": "uint256"
        }
      ],
      "name": "unsafeEntry",
      "outputs": [
        {
          "name": "",
          "type": "bool"
        }
      ],
      "payable": true,
      "stateMutability": "payable",
      "type": "function"
    },
    {
      "constant": true,
      "inputs": [
        {
          "name": "number",
          "type": "uint256"
        },
        {
          "name": "salt",
          "type": "uint256"
        }
      ],
      "name": "generateHash",
      "outputs": [
        {
          "name": "",
          "type": "uint256"
        }
      ],
      "payable": false,
      "stateMutability": "pure",
      "type": "function"
    },
    {
      "constant": false,
      "inputs": [
        {
          "name": "hash",
          "type": "uint256"
        }
      ],
      "name": "buyTicket",
      "outputs": [
        {
          "name": "",
          "type": "bool"
        }
      ],
      "payable": true,
      "stateMutability": "payable",
      "type": "function"
    },
    {
      "constant": false,
      "inputs": [
        {
          "name": "number",
          "type": "uint256"
        },
        {
          "name": "salt",
          "type": "uint256"
        }
      ],
      "name": "verifyTicket",
      "outputs": [
        {
          "name": "",
          "type": "bool"
        }
      ],
      "payable": false,
      "stateMutability": "nonpayable",
      "type": "function"
    },
    {
      "constant": false,
      "inputs": [],
      "name": "checkWinner",
      "outputs": [
        {
          "name": "",
          "type": "bool"
        }
      ],
      "payable": false,
      "stateMutability": "nonpayable",
      "type": "function"
    },
    {
      "constant": false,
      "inputs": [],
      "name": "claim",
      "outputs": [],
      "payable": false,
      "stateMutability": "nonpayable",
      "type": "function"
    }
  ],
  "bytecode": "0x60806040526103e86001556064600255606460035534801561002057600080fd5b50426000819055506107c1806100376000396000f300608060405260043610610078576000357c0100000000000000000000000000000000000000000000000000000000900463ffffffff16806303446b181461007d578063324a7d34146100cc5780634e71d92d1461011757806367dd74ca1461012e5780638404e45b14610166578063ad38867e146101a8575b600080fd5b34801561008957600080fd5b506100b260048036038101908080359060200190929190803590602001909291905050506101d7565b604051808215151515815260200191505060405180910390f35b3480156100d857600080fd5b506101016004803603810190808035906020019092919080359060200190929190505050610347565b6040518082815260200191505060405180910390f35b34801561012357600080fd5b5061012c61036d565b005b61014c6004803603810190808035906020019092919050505061048d565b604051808215151515815260200191505060405180910390f35b61018e60048036038101908080359060200190929190803590602001909291905050506105ba565b604051808215151515815260200191505060405180910390f35b3480156101b457600080fd5b506101bd6105d6565b604051808215151515815260200191505060405180910390f35b60006001546000540142101515156101ee57600080fd5b60025460015460005401014210151561020657600080fd5b6000600460003373ffffffffffffffffffffffffffffffffffffffff1673ffffffffffffffffffffffffffffffffffffffff1681526020019081526020016000205411151561025457600080fd5b828211151561026257600080fd5b600460003373ffffffffffffffffffffffffffffffffffffffff1673ffffffffffffffffffffffffffffffffffffffff168152602001908152602001600020546102ac8484610347565b1415156102b857600080fd5b3373ffffffffffffffffffffffffffffffffffffffff1682600854181860088190555060073390806001815401808255809150509060018203906000526020600020016000909192909190916101000a81548173ffffffffffffffffffffffffffffffffffffffff021916908373ffffffffffffffffffffffffffffffffffffffff1602179055505092915050565b600081830160405180828152602001915050604051809103902060019004905092915050565b600080600560003373ffffffffffffffffffffffffffffffffffffffff1673ffffffffffffffffffffffffffffffffffffffff168152602001908152602001600020541115156103bc57600080fd5b600560003373ffffffffffffffffffffffffffffffffffffffff1673ffffffffffffffffffffffffffffffffffffffff1681526020019081526020016000205490506000600560003373ffffffffffffffffffffffffffffffffffffffff1673ffffffffffffffffffffffffffffffffffffffff168152602001908152602001600020819055503373ffffffffffffffffffffffffffffffffffffffff166108fc829081150290604051600060405180830381858888f19350505050158015610489573d6000803e3d6000fd5b5050565b600060015460005401421015156104a357600080fd5b34670de0b6b3a76400001415156104b957600080fd5b6000600460003373ffffffffffffffffffffffffffffffffffffffff1673ffffffffffffffffffffffffffffffffffffffff1681526020019081526020016000205414151561050757600080fd5b81600460003373ffffffffffffffffffffffffffffffffffffffff1673ffffffffffffffffffffffffffffffffffffffff1681526020019081526020016000208190555060063390806001815401808255809150509060018203906000526020600020016000909192909190916101000a81548173ffffffffffffffffffffffffffffffffffffffff021916908373ffffffffffffffffffffffffffffffffffffffff1602179055505060019050919050565b60006105ce6105c98484610347565b61048d565b905092915050565b6000600254600154600054010142101515156105f157600080fd5b6003546002546001546000540101014210151561060d57600080fd5b600960009054906101000a900460ff16151561073f576007808054905060085481151561063657fe5b0681548110151561064357fe5b9060005260206000200160009054906101000a900473ffffffffffffffffffffffffffffffffffffffff16600960016101000a81548173ffffffffffffffffffffffffffffffffffffffff021916908373ffffffffffffffffffffffffffffffffffffffff160217905550678ac7230489e800006007805490500360056000600960019054906101000a900473ffffffffffffffffffffffffffffffffffffffff1673ffffffffffffffffffffffffffffffffffffffff1673ffffffffffffffffffffffffffffffffffffffff168152602001908152602001600020819055506001600960006101000a81548160ff0219169083151502179055505b600960019054906101000a900473ffffffffffffffffffffffffffffffffffffffff1673ffffffffffffffffffffffffffffffffffffffff163373ffffffffffffffffffffffffffffffffffffffff16149050905600a165627a7a723058203f5174e7058a806779fc1afa1863648dbdb48c1fa22153bf51aca41f76f80c610029",
  "source": "pragma solidity ^0.4.0;\n\ncontract Casino {\n    \n    uint private start;\n    \n    uint private buyPeriod = 1000;\n    uint private verifyPeriod = 100;\n    uint private checkPeriod = 100;\n    \n    mapping(address => uint) private _tickets;\n    mapping(address => uint) private _winnings;\n\n    address[] _entries;\n    address[] _verified;\n\n    uint private winnerSeed;\n    bool private hasWinner;\n    address private winner;\n    \n    function Casino()\n        public {\n        start = block.timestamp;    \n    }\n    \n    /**\n     * This should NOT be part of the contract!!\n     */\n    function unsafeEntry(uint number, uint salt) \n        public\n        payable\n        returns (bool) {\n        return buyTicket(generateHash(number, salt));\n    }\n    \n    function generateHash(uint number, uint salt)\n        public\n        pure\n        returns (uint) {\n        return uint(keccak256(number + salt));\n    }\n    \n    function buyTicket(uint hash)\n        public\n        payable\n        returns (bool) {\n        // Within the timeframe\n        require(block.timestamp < start+buyPeriod);\n        // Correct amount\n        require(1 ether == msg.value);\n        // 1 entry per address\n        require(_tickets[msg.sender] == 0);\n        _tickets[msg.sender] = hash;\n        _entries.push(msg.sender);\n        return true;\n    }\n    \n    function verifyTicket(uint number, uint salt)\n        public\n        returns (bool) {\n        // Within the timeframe\n        require(block.timestamp >= start+buyPeriod);\n        require(block.timestamp < start+buyPeriod+verifyPeriod);\n        // Has a valid entry\n        require(_tickets[msg.sender] > 0);\n        // Validate hash\n        require(salt > number);\n        require(generateHash(number, salt) == _tickets[msg.sender]);\n        winnerSeed = winnerSeed ^ salt ^ uint(msg.sender);\n        _verified.push(msg.sender);\n    }\n    \n    function checkWinner()\n        public\n        returns (bool) {\n        // Within the timeframe\n        require(block.timestamp >= start+buyPeriod+verifyPeriod);\n        require(block.timestamp < start+buyPeriod+verifyPeriod+checkPeriod);\n        if (!hasWinner) {\n            winner = _verified[winnerSeed % _verified.length];\n            _winnings[winner] = _verified.length-10 ether;\n            hasWinner = true;\n        }\n        return msg.sender == winner;\n    }\n    \n    function claim()\n        public {\n        // Has winnings to claim\n        require(_winnings[msg.sender] > 0);\n        uint claimAmount = _winnings[msg.sender];\n        _winnings[msg.sender] = 0;\n        msg.sender.transfer(claimAmount);        \n    }\n}",
  "sourcePath": "/home/liweibo/code/solidity/contracts_library/contracts_library/channel-gravy-token/contracts/willitscale/learning-solidity/tutorial-18/Casino.sol",
  "compiler": {
    "name": "solc",
    "version": "0.4.24+commit.e67f0147.Emscripten.clang"
  },
  "schemaVersion": "2.0.1",
  "updatedAt": "2018-08-14T06:52:45.243Z"
}