{
  "contractName": "CreatorBalanceChecker",
  "abi": [
    {
      "inputs": [],
      "payable": false,
      "stateMutability": "nonpayable",
      "type": "constructor"
    },
    {
      "constant": true,
      "inputs": [],
      "name": "getContractAddress",
      "outputs": [
        {
          "name": "",
          "type": "address"
        }
      ],
      "payable": false,
      "stateMutability": "view",
      "type": "function"
    },
    {
      "constant": true,
      "inputs": [],
      "name": "getCreatorBalance",
      "outputs": [
        {
          "name": "",
          "type": "uint256"
        }
      ],
      "payable": false,
      "stateMutability": "view",
      "type": "function"
    },
    {
      "constant": true,
      "inputs": [],
      "name": "getCreatorDotBalance",
      "outputs": [
        {
          "name": "",
          "type": "uint256"
        }
      ],
      "payable": false,
      "stateMutability": "view",
      "type": "function"
    },
    {
      "constant": false,
      "inputs": [],
      "name": "kill",
      "outputs": [],
      "payable": false,
      "stateMutability": "nonpayable",
      "type": "function"
    }
  ],
  "bytecode": "0x608060405234801561001057600080fd5b50336000806101000a81548173ffffffffffffffffffffffffffffffffffffffff021916908373ffffffffffffffffffffffffffffffffffffffff1602179055506000809054906101000a900473ffffffffffffffffffffffffffffffffffffffff1673ffffffffffffffffffffffffffffffffffffffff163160018190555061023a8061009f6000396000f300608060405260043610610062576000357c0100000000000000000000000000000000000000000000000000000000900463ffffffff16806332a2c5d01461006757806341c0e1b5146100be578063a4325485146100d5578063f363441f14610100575b600080fd5b34801561007357600080fd5b5061007c61012b565b604051808273ffffffffffffffffffffffffffffffffffffffff1673ffffffffffffffffffffffffffffffffffffffff16815260200191505060405180910390f35b3480156100ca57600080fd5b506100d3610133565b005b3480156100e157600080fd5b506100ea6101c4565b6040518082815260200191505060405180910390f35b34801561010c57600080fd5b506101156101ce565b6040518082815260200191505060405180910390f35b600030905090565b6000809054906101000a900473ffffffffffffffffffffffffffffffffffffffff1673ffffffffffffffffffffffffffffffffffffffff163373ffffffffffffffffffffffffffffffffffffffff1614156101c2576000809054906101000a900473ffffffffffffffffffffffffffffffffffffffff1673ffffffffffffffffffffffffffffffffffffffff16ff5b565b6000600154905090565b60008060009054906101000a900473ffffffffffffffffffffffffffffffffffffffff1673ffffffffffffffffffffffffffffffffffffffff16319050905600a165627a7a72305820d67f5fcb863bec98a9ea66c74f909704ee7cd0b9823d783723410bed5c0ea97d0029",
  "source": "/* \n\tAnother very basic contract. It demonstrates that a contract can retrieve and store the \n\tbalance of its creator address. Note that the creatorbalance value captured in the constructor is a snapshot in time.\n\tLater on, creator.balance will reflect whatever it is now.\n*/\n\ncontract CreatorBalanceChecker {\n\n    address creator;\n    uint creatorbalance; \t\t// TIP: uint is an alias for uint256. Ditto int and int256.\n\n    function CreatorBalanceChecker() public \n    {\n        creator = msg.sender; \t\t\t\t\t\t\t\t // msg is a global variable\n        creatorbalance = creator.balance;\n    }\n\n\tfunction getContractAddress() constant returns (address) \n\t{\n\t\treturn this;\n\t}\n\n\tfunction getCreatorBalance() constant returns (uint)     // Will return the creator's balance AT THE TIME THIS CONTRACT WAS CREATED\n\t{\n        return creatorbalance;\n    }\n    \n    function getCreatorDotBalance() constant returns (uint)  // Will return creator's balance NOW\n    {\n        return creator.balance;\n    }\n    \n    /**********\n     Standard kill() function to recover funds \n     **********/\n    \n    function kill()\n    { \n        if (msg.sender == creator)\n            suicide(creator);  // kills this contract and sends remaining funds back to creator\n    }\n        \n}",
  "sourcePath": "/home/liweibo/code/solidity/contracts_library/contracts_library/channel-gravy-token/contracts/fivedogit/solidity-baby-steps/contracts/CreatorBalanceChecker.sol",
  "compiler": {
    "name": "solc",
    "version": "0.4.24+commit.e67f0147.Emscripten.clang"
  },
  "schemaVersion": "2.0.1",
  "updatedAt": "2018-08-14T06:52:45.249Z"
}