{
  "contractName": "Debugging",
  "abi": [
    {
      "constant": false,
      "inputs": [],
      "name": "assignment",
      "outputs": [],
      "payable": false,
      "stateMutability": "nonpayable",
      "type": "function"
    },
    {
      "constant": false,
      "inputs": [],
      "name": "memoryAlloc",
      "outputs": [],
      "payable": false,
      "stateMutability": "nonpayable",
      "type": "function"
    },
    {
      "constant": false,
      "inputs": [],
      "name": "storageAlloc",
      "outputs": [],
      "payable": false,
      "stateMutability": "nonpayable",
      "type": "function"
    }
  ],
  "bytecode": "0x608060405234801561001057600080fd5b5061019e806100206000396000f300608060405260043610610057576000357c0100000000000000000000000000000000000000000000000000000000900463ffffffff1680634386cca51461005c57806371ca2ecf14610073578063c3e2b5e61461008a575b600080fd5b34801561006857600080fd5b506100716100a1565b005b34801561007f57600080fd5b5061008861010e565b005b34801561009657600080fd5b5061009f610128565b005b600060029080600181540180825580915050906001820390600052602060002001600090919290919091505550600060039080600181540180825580915050906001820390600052602060002001600090919290919091505550600460008054905014151561010c57fe5b565b6000806001915060029050808214151561012457fe5b5050565b60606040805190810160405280600481526020017f74657374000000000000000000000000000000000000000000000000000000008152509050600a815114151561016f57fe5b505600a165627a7a72305820cccc5aeeedbab405c667466666415ed508e35f37138add02da13f85ab1a1805a0029",
  "source": "pragma solidity ^0.4.0;\n\ncontract Debugging {\n    \n    uint[] private vars;\n    \n    function assignment() {\n        uint myVal1 = 1;\n        uint myVal2 = 2;\n        assert(myVal1 == myVal2);\n    }\n    \n    function memoryAlloc() {\n        string memory myString = \"test\";\n        assert(bytes(myString).length == 10);\n    }\n    \n    function storageAlloc() {\n        vars.push(2);\n        vars.push(3);\n        assert(vars.length == 4);\n    }\n    \n}\n",
  "sourcePath": "/home/liweibo/code/solidity/contracts_library/contracts_library/channel-gravy-token/contracts/willitscale/learning-solidity/tutorial-08/Debugging.sol",
  "compiler": {
    "name": "solc",
    "version": "0.4.24+commit.e67f0147.Emscripten.clang"
  },
  "schemaVersion": "2.0.1",
  "updatedAt": "2018-08-14T06:52:45.237Z"
}