{
  "contractName": "EtherTransferFrom",
  "abi": [
    {
      "inputs": [],
      "payable": false,
      "stateMutability": "nonpayable",
      "type": "constructor"
    },
    {
      "payable": true,
      "stateMutability": "payable",
      "type": "fallback"
    },
    {
      "constant": false,
      "inputs": [],
      "name": "getBalance",
      "outputs": [
        {
          "name": "",
          "type": "uint256"
        }
      ],
      "payable": false,
      "stateMutability": "nonpayable",
      "type": "function"
    },
    {
      "constant": false,
      "inputs": [],
      "name": "getBalanceOfInstance",
      "outputs": [
        {
          "name": "",
          "type": "uint256"
        }
      ],
      "payable": false,
      "stateMutability": "nonpayable",
      "type": "function"
    }
  ],
  "bytecode": "0x608060405234801561001057600080fd5b5061001961007a565b604051809103906000f080158015610035573d6000803e3d6000fd5b506000806101000a81548173ffffffffffffffffffffffffffffffffffffffff021916908373ffffffffffffffffffffffffffffffffffffffff160217905550610089565b60405160d2806102a583390190565b61020d806100986000396000f30060806040526004361061004c576000357c0100000000000000000000000000000000000000000000000000000000900463ffffffff16806312065fe0146100a5578063d7e0e776146100d0575b6000809054906101000a900473ffffffffffffffffffffffffffffffffffffffff1673ffffffffffffffffffffffffffffffffffffffff166108fc349081150290604051600060405180830381858888f1935050505050005b3480156100b157600080fd5b506100ba6100fb565b6040518082815260200191505060405180910390f35b3480156100dc57600080fd5b506100e561011a565b6040518082815260200191505060405180910390f35b60003073ffffffffffffffffffffffffffffffffffffffff1631905090565b60008060009054906101000a900473ffffffffffffffffffffffffffffffffffffffff1673ffffffffffffffffffffffffffffffffffffffff166312065fe06040518163ffffffff167c0100000000000000000000000000000000000000000000000000000000028152600401602060405180830381600087803b1580156101a157600080fd5b505af11580156101b5573d6000803e3d6000fd5b505050506040513d60208110156101cb57600080fd5b81019080805190602001909291905050509050905600a165627a7a723058205b06625443a918e75caa8a190095ff6120bb1871f0d3e6218a323a018e3e9abe00296080604052348015600f57600080fd5b5060b48061001e6000396000f300608060405260043610603f576000357c0100000000000000000000000000000000000000000000000000000000900463ffffffff16806312065fe0146041575b005b348015604c57600080fd5b5060536069565b6040518082815260200191505060405180910390f35b60003073ffffffffffffffffffffffffffffffffffffffff16319050905600a165627a7a723058203313e5cc2c0309fbd9ea72ddba001f0e06d322fb785da882afd98b92ad3cb3a70029",
  "source": "pragma solidity ^0.4.0;\n\nimport \"./EtherTransferTo.sol\";\n\ncontract EtherTransferFrom {\n    \n    EtherTransferTo private _instance;\n    \n    function EtherTransferFrom() public {\n        // _instance = EtherTransferTo(address(this));\n        _instance = new EtherTransferTo();\n    }\n    \n    function getBalance() public returns (uint) {\n        return address(this).balance;\n    }\n    \n    function getBalanceOfInstance() public returns (uint) {\n        //return address(_instance).balance;\n        return _instance.getBalance();\n    }\n    \n    function () public payable {\n        //msg.sender.send(msg.value);\n        address(_instance).send(msg.value);\n    }\n}",
  "sourcePath": "/home/liweibo/code/solidity/contracts_library/contracts_library/channel-gravy-token/contracts/willitscale/learning-solidity/tutorial-14/EtherTransferFrom.sol",
  "compiler": {
    "name": "solc",
    "version": "0.4.24+commit.e67f0147.Emscripten.clang"
  },
  "schemaVersion": "2.0.1",
  "updatedAt": "2018-08-14T06:52:45.239Z"
}