{
  "contractName": "ExampleImplementer",
  "abi": [
    {
      "constant": true,
      "inputs": [
        {
          "name": "addr",
          "type": "address"
        },
        {
          "name": "interfaceHash",
          "type": "bytes32"
        }
      ],
      "name": "canImplementInterfaceForAddress",
      "outputs": [
        {
          "name": "",
          "type": "bytes32"
        }
      ],
      "payable": false,
      "stateMutability": "view",
      "type": "function"
    }
  ],
  "bytecode": "0x608060405234801561001057600080fd5b5061018b806100206000396000f300608060405260043610610041576000357c0100000000000000000000000000000000000000000000000000000000900463ffffffff168063f008325014610046575b600080fd5b34801561005257600080fd5b50610095600480360381019080803573ffffffffffffffffffffffffffffffffffffffff16906020019092919080356000191690602001909291905050506100b3565b60405180826000191660001916815260200191505060405180910390f35b600060405160200180807f4552433832305f4143434550545f4d414749430000000000000000000000000081525060130190506040516020818303038152906040526040518082805190602001908083835b60208310151561012a5780518252602082019150602081019050602083039250610105565b6001836020036101000a03801982511681845116808217855250505050505090500191505060405180910390209050929150505600a165627a7a723058206410894958f188a8259cb060d7e91e147328156d49603c29560ed103f670a5250029",
  "source": "pragma solidity ^0.4.24;\n\nimport \"./ERC820ImplementerInterface.sol\";\n\n\ncontract ExampleImplementer is ERC820ImplementerInterface {\n    function canImplementInterfaceForAddress(address addr, bytes32 interfaceHash) public view returns(bytes32) {\n        return ERC820_ACCEPT_MAGIC;\n    }\n}\n",
  "sourcePath": "/home/liweibo/code/solidity/contracts_library/contracts_library/channel-gravy-token/contracts/jbaylina/eip820/ExampleImplementer.sol",
  "compiler": {
    "name": "solc",
    "version": "0.4.24+commit.e67f0147.Emscripten.clang"
  },
  "schemaVersion": "2.0.1",
  "updatedAt": "2018-08-14T06:52:27.461Z"
}