{
  "contractName": "ExampleTokensSender",
  "abi": [
    {
      "constant": false,
      "inputs": [],
      "name": "renounceOwnership",
      "outputs": [],
      "payable": false,
      "stateMutability": "nonpayable",
      "type": "function"
    },
    {
      "constant": true,
      "inputs": [],
      "name": "owner",
      "outputs": [
        {
          "name": "",
          "type": "address"
        }
      ],
      "payable": false,
      "stateMutability": "view",
      "type": "function"
    },
    {
      "constant": false,
      "inputs": [
        {
          "name": "_newOwner",
          "type": "address"
        }
      ],
      "name": "transferOwnership",
      "outputs": [],
      "payable": false,
      "stateMutability": "nonpayable",
      "type": "function"
    },
    {
      "constant": true,
      "inputs": [],
      "name": "notified",
      "outputs": [
        {
          "name": "",
          "type": "bool"
        }
      ],
      "payable": false,
      "stateMutability": "view",
      "type": "function"
    },
    {
      "inputs": [
        {
          "name": "_setInterface",
          "type": "bool"
        }
      ],
      "payable": false,
      "stateMutability": "nonpayable",
      "type": "constructor"
    },
    {
      "anonymous": false,
      "inputs": [
        {
          "indexed": true,
          "name": "previousOwner",
          "type": "address"
        }
      ],
      "name": "OwnershipRenounced",
      "type": "event"
    },
    {
      "anonymous": false,
      "inputs": [
        {
          "indexed": true,
          "name": "previousOwner",
          "type": "address"
        },
        {
          "indexed": true,
          "name": "newOwner",
          "type": "address"
        }
      ],
      "name": "OwnershipTransferred",
      "type": "event"
    },
    {
      "constant": false,
      "inputs": [
        {
          "name": "operator",
          "type": "address"
        },
        {
          "name": "from",
          "type": "address"
        },
        {
          "name": "to",
          "type": "address"
        },
        {
          "name": "amount",
          "type": "uint256"
        },
        {
          "name": "userData",
          "type": "bytes"
        },
        {
          "name": "operatorData",
          "type": "bytes"
        }
      ],
      "name": "tokensToSend",
      "outputs": [],
      "payable": false,
      "stateMutability": "nonpayable",
      "type": "function"
    },
    {
      "constant": false,
      "inputs": [],
      "name": "acceptTokensToSend",
      "outputs": [],
      "payable": false,
      "stateMutability": "nonpayable",
      "type": "function"
    },
    {
      "constant": false,
      "inputs": [],
      "name": "rejectTokensToSend",
      "outputs": [],
      "payable": false,
      "stateMutability": "nonpayable",
      "type": "function"
    },
    {
      "constant": true,
      "inputs": [
        {
          "name": "addr",
          "type": "address"
        },
        {
          "name": "interfaceHash",
          "type": "bytes32"
        }
      ],
      "name": "canImplementInterfaceForAddress",
      "outputs": [
        {
          "name": "",
          "type": "bytes32"
        }
      ],
      "payable": false,
      "stateMutability": "view",
      "type": "function"
    }
  ],
  "bytecode": "0x608060405273a691627805d5fae718381ed95e04d00e20a1fea66000806101000a81548173ffffffffffffffffffffffffffffffffffffffff021916908373ffffffffffffffffffffffffffffffffffffffff16021790555034801561006457600080fd5b50604051602080610b268339810180604052810190808051906020019092919050505033600160006101000a81548173ffffffffffffffffffffffffffffffffffffffff021916908373ffffffffffffffffffffffffffffffffffffffff160217905550801561011d5761011c6040805190810160405280601281526020017f455243373737546f6b656e7353656e646572000000000000000000000000000081525030610158640100000000026401000000009004565b5b60018060146101000a81548160ff0219169083151502179055506000600160156101000a81548160ff02191690831515021790555050610348565b6000826040516020018082805190602001908083835b602083101515610193578051825260208201915060208101905060208303925061016e565b6001836020036101000a0380198251168184511680821785525050505050509050019150506040516020818303038152906040526040518082805190602001908083835b6020831015156101fc57805182526020820191506020810190506020830392506101d7565b6001836020036101000a038019825116818451168082178552505050505050905001915050604051809103902090506000809054906101000a900473ffffffffffffffffffffffffffffffffffffffff1673ffffffffffffffffffffffffffffffffffffffff166329965a1d3083856040518463ffffffff167c0100000000000000000000000000000000000000000000000000000000028152600401808473ffffffffffffffffffffffffffffffffffffffff1673ffffffffffffffffffffffffffffffffffffffff16815260200183600019166000191681526020018273ffffffffffffffffffffffffffffffffffffffff1673ffffffffffffffffffffffffffffffffffffffff1681526020019350505050600060405180830381600087803b15801561032b57600080fd5b505af115801561033f573d6000803e3d6000fd5b50505050505050565b6107cf806103576000396000f30060806040526004361061008e576000357c0100000000000000000000000000000000000000000000000000000000900463ffffffff1680632522671b14610093578063715018a6146100aa57806375ab9782146100c15780637c907597146101da5780638da5cb5b146101f1578063f008325014610248578063f2fde38b146102b5578063f438da1e146102f8575b600080fd5b34801561009f57600080fd5b506100a8610327565b005b3480156100b657600080fd5b506100bf6103a0565b005b3480156100cd57600080fd5b506101d8600480360381019080803573ffffffffffffffffffffffffffffffffffffffff169060200190929190803573ffffffffffffffffffffffffffffffffffffffff169060200190929190803573ffffffffffffffffffffffffffffffffffffffff16906020019092919080359060200190929190803590602001908201803590602001908080601f0160208091040260200160405190810160405280939291908181526020018383808284378201915050505050509192919290803590602001908201803590602001908080601f01602080910402602001604051908101604052809392919081815260200183838082843782019150505050505091929192905050506104a5565b005b3480156101e657600080fd5b506101ef6104e2565b005b3480156101fd57600080fd5b5061020661055a565b604051808273ffffffffffffffffffffffffffffffffffffffff1673ffffffffffffffffffffffffffffffffffffffff16815260200191505060405180910390f35b34801561025457600080fd5b50610297600480360381019080803573ffffffffffffffffffffffffffffffffffffffff1690602001909291908035600019169060200190929190505050610580565b60405180826000191660001916815260200191505060405180910390f35b3480156102c157600080fd5b506102f6600480360381019080803573ffffffffffffffffffffffffffffffffffffffff16906020019092919050505061062c565b005b34801561030457600080fd5b5061030d610694565b604051808215151515815260200191505060405180910390f35b600160009054906101000a900473ffffffffffffffffffffffffffffffffffffffff1673ffffffffffffffffffffffffffffffffffffffff163373ffffffffffffffffffffffffffffffffffffffff1614151561038357600080fd5b6000600160146101000a81548160ff021916908315150217905550565b600160009054906101000a900473ffffffffffffffffffffffffffffffffffffffff1673ffffffffffffffffffffffffffffffffffffffff163373ffffffffffffffffffffffffffffffffffffffff161415156103fc57600080fd5b600160009054906101000a900473ffffffffffffffffffffffffffffffffffffffff1673ffffffffffffffffffffffffffffffffffffffff167ff8df31144d9c2f0f6b59d69b8b98abd5459d07f2742c4df920b25aae33c6482060405160405180910390a26000600160006101000a81548173ffffffffffffffffffffffffffffffffffffffff021916908373ffffffffffffffffffffffffffffffffffffffff160217905550565b600160149054906101000a900460ff1615156104c057600080fd5b60018060156101000a81548160ff021916908315150217905550505050505050565b600160009054906101000a900473ffffffffffffffffffffffffffffffffffffffff1673ffffffffffffffffffffffffffffffffffffffff163373ffffffffffffffffffffffffffffffffffffffff1614151561053e57600080fd5b60018060146101000a81548160ff021916908315150217905550565b600160009054906101000a900473ffffffffffffffffffffffffffffffffffffffff1681565b600060405160200180807f4552433832305f4143434550545f4d414749430000000000000000000000000081525060130190506040516020818303038152906040526040518082805190602001908083835b6020831015156105f757805182526020820191506020810190506020830392506105d2565b6001836020036101000a0380198251168184511680821785525050505050509050019150506040518091039020905092915050565b600160009054906101000a900473ffffffffffffffffffffffffffffffffffffffff1673ffffffffffffffffffffffffffffffffffffffff163373ffffffffffffffffffffffffffffffffffffffff1614151561068857600080fd5b610691816106a7565b50565b600160159054906101000a900460ff1681565b600073ffffffffffffffffffffffffffffffffffffffff168173ffffffffffffffffffffffffffffffffffffffff16141515156106e357600080fd5b8073ffffffffffffffffffffffffffffffffffffffff16600160009054906101000a900473ffffffffffffffffffffffffffffffffffffffff1673ffffffffffffffffffffffffffffffffffffffff167f8be0079c531659141344cd1fd0a4f28419497f9722a3daafe3b4186f6b6457e060405160405180910390a380600160006101000a81548173ffffffffffffffffffffffffffffffffffffffff021916908373ffffffffffffffffffffffffffffffffffffffff160217905550505600a165627a7a72305820930dd70fb74a6ed198f3148f11138f88514b55c45a51ea1578b4e9cbbe8f65bc0029",
  "source": "/* This Source Code Form is subject to the terms of the Mozilla Public\n * License, v. 2.0. If a copy of the MPL was not distributed with this\n * file, You can obtain one at http://mozilla.org/MPL/2.0/.\n *\n * This code has not been reviewed.\n * Do not use or deploy this code before reviewing it personally first.\n */\n// pragma solidity 0.4.21;\n\nimport { ERC820Implementer } from \"../../../jbaylina/eip820/ERC820Implementer.sol\";\nimport { ERC820ImplementerInterface } from \"../../../jbaylina/eip820/ERC820ImplementerInterface.sol\";\nimport { Ownable } from \"../../../OpenZeppelin/openzeppelin-solidity/ownership/Ownable.sol\";\nimport { ERC777TokensSender } from \"../ERC777TokensSender.sol\";\n\n\ncontract ExampleTokensSender is ERC820Implementer, ERC820ImplementerInterface, ERC777TokensSender, Ownable {\n\n    bool private allowTokensToSend;\n    bool public notified;\n\n    function ExampleTokensSender(bool _setInterface) public {\n        if (_setInterface) { setInterfaceImplementation(\"ERC777TokensSender\", this); }\n        allowTokensToSend = true;\n        notified = false;\n    }\n\n    function tokensToSend(\n        address operator,   // solhint-disable no-unused-vars\n        address from,\n        address to,\n        uint amount,\n        bytes userData,\n        bytes operatorData\n    )  // solhint-enable no-unused-vars\n    public {\n        require(allowTokensToSend);\n        notified = true;\n    }\n\n    function acceptTokensToSend() public onlyOwner { allowTokensToSend = true; }\n\n    function rejectTokensToSend() public onlyOwner { allowTokensToSend = false; }\n\n    // solhint-disable-next-line no-unused-vars\n    function canImplementInterfaceForAddress(address addr, bytes32 interfaceHash) public view returns(bytes32) {\n        return ERC820_ACCEPT_MAGIC;\n    }\n\n}\n",
  "sourcePath": "/home/liweibo/code/solidity/contracts_library/contracts_library/channel-gravy-token/contracts/jacquesd/ERC777/examples/ExampleTokensSender.sol",
  "compiler": {
    "name": "solc",
    "version": "0.4.24+commit.e67f0147.Emscripten.clang"
  },
  "schemaVersion": "2.0.1",
  "updatedAt": "2018-08-14T06:52:27.457Z"
}