{
  "contractName": "ExternalContract",
  "abi": [
    {
      "constant": false,
      "inputs": [
        {
          "name": "x",
          "type": "string"
        }
      ],
      "name": "externalCall",
      "outputs": [
        {
          "name": "",
          "type": "uint256"
        }
      ],
      "payable": false,
      "stateMutability": "nonpayable",
      "type": "function"
    },
    {
      "constant": false,
      "inputs": [
        {
          "name": "x",
          "type": "string"
        }
      ],
      "name": "publicCall",
      "outputs": [
        {
          "name": "",
          "type": "uint256"
        }
      ],
      "payable": false,
      "stateMutability": "nonpayable",
      "type": "function"
    }
  ],
  "bytecode": "0x608060405234801561001057600080fd5b50610160806100206000396000f30060806040526004361061004c576000357c0100000000000000000000000000000000000000000000000000000000900463ffffffff168063c2f416c714610051578063c652b7c8146100a0575b600080fd5b34801561005d57600080fd5b5061008a60048036038101908080359060200190820180359060200191909192939192939050505061011d565b6040518082815260200191505060405180910390f35b3480156100ac57600080fd5b50610107600480360381019080803590602001908201803590602001908080601f0160208091040260200160405190810160405280939291908181526020018383808284378201915050505050509192919290505050610129565b6040518082815260200191505060405180910390f35b6000607b905092915050565b6000607b90509190505600a165627a7a723058207802f50adcc4c733a271ac6a278dd60671218d2c925d71c3a2de8b8f8dbe7eb40029",
  "source": "pragma solidity ^0.4.0;\n\ncontract ExternalContract {\n    function externalCall(string x) external returns (uint) {\n        return 123;\n    }\n    \n    function publicCall(string x) public returns (uint) {\n        return 123;\n    }\n}",
  "sourcePath": "/home/liweibo/code/solidity/contracts_library/contracts_library/channel-gravy-token/contracts/willitscale/learning-solidity/tutorial-15/ExternalContract.sol",
  "compiler": {
    "name": "solc",
    "version": "0.4.24+commit.e67f0147.Emscripten.clang"
  },
  "schemaVersion": "2.0.1",
  "updatedAt": "2018-08-14T06:52:45.236Z"
}