{
  "contractName": "Findaddress",
  "abi": [
    {
      "inputs": [],
      "payable": false,
      "stateMutability": "nonpayable",
      "type": "constructor"
    },
    {
      "constant": true,
      "inputs": [],
      "name": "getOwnerAddress",
      "outputs": [
        {
          "name": "",
          "type": "address"
        }
      ],
      "payable": false,
      "stateMutability": "view",
      "type": "function"
    },
    {
      "constant": false,
      "inputs": [],
      "name": "kill",
      "outputs": [],
      "payable": false,
      "stateMutability": "nonpayable",
      "type": "function"
    }
  ],
  "bytecode": "0x608060405234801561001057600080fd5b50336000806101000a81548173ffffffffffffffffffffffffffffffffffffffff021916908373ffffffffffffffffffffffffffffffffffffffff160217905550610184806100606000396000f30060806040526004361061004c576000357c0100000000000000000000000000000000000000000000000000000000900463ffffffff1680630c4f65bd1461005157806341c0e1b5146100a8575b600080fd5b34801561005d57600080fd5b506100666100bf565b604051808273ffffffffffffffffffffffffffffffffffffffff1673ffffffffffffffffffffffffffffffffffffffff16815260200191505060405180910390f35b3480156100b457600080fd5b506100bd6100e8565b005b60008060009054906101000a900473ffffffffffffffffffffffffffffffffffffffff16905090565b6000809054906101000a900473ffffffffffffffffffffffffffffffffffffffff1673ffffffffffffffffffffffffffffffffffffffff163373ffffffffffffffffffffffffffffffffffffffff161415610156573373ffffffffffffffffffffffffffffffffffffffff16ff5b5600a165627a7a7230582092402d91069132baf26519746f2eb78d76e1d5f2fdeac027f73a58952ad109320029",
  "source": "pragma solidity ^0.4.0;\n\n\ncontract Findaddress {\n    address owner;\n    \n    function Findaddress() {\n        owner = msg.sender;\n    }\n    \n    function getOwnerAddress() public constant returns(address) {\n        return owner;\n    }\n    \n     function kill() public {\n        if(msg.sender == owner) \n            suicide(msg.sender);\n    }\n}\n",
  "sourcePath": "/home/liweibo/code/solidity/contracts_library/contracts_library/channel-gravy-token/contracts/ram1991/Solidity-Smart-contracts/Findaddress.sol",
  "compiler": {
    "name": "solc",
    "version": "0.4.24+commit.e67f0147.Emscripten.clang"
  },
  "schemaVersion": "2.0.1",
  "updatedAt": "2018-08-14T06:52:45.268Z"
}