{
  "contractName": "Greeter",
  "abi": [
    {
      "inputs": [
        {
          "name": "_greeting",
          "type": "string"
        }
      ],
      "payable": false,
      "stateMutability": "nonpayable",
      "type": "constructor"
    },
    {
      "constant": true,
      "inputs": [],
      "name": "greet",
      "outputs": [
        {
          "name": "",
          "type": "string"
        }
      ],
      "payable": false,
      "stateMutability": "view",
      "type": "function"
    },
    {
      "constant": true,
      "inputs": [],
      "name": "getBlockNumber",
      "outputs": [
        {
          "name": "",
          "type": "uint256"
        }
      ],
      "payable": false,
      "stateMutability": "view",
      "type": "function"
    },
    {
      "constant": false,
      "inputs": [
        {
          "name": "_newgreeting",
          "type": "string"
        }
      ],
      "name": "setGreeting",
      "outputs": [],
      "payable": false,
      "stateMutability": "nonpayable",
      "type": "function"
    },
    {
      "constant": false,
      "inputs": [],
      "name": "kill",
      "outputs": [],
      "payable": false,
      "stateMutability": "nonpayable",
      "type": "function"
    }
  ],
  "bytecode": "0x608060405234801561001057600080fd5b5060405161050c38038061050c83398101806040528101908080518201929190505050336000806101000a81548173ffffffffffffffffffffffffffffffffffffffff021916908373ffffffffffffffffffffffffffffffffffffffff1602179055508060019080519060200190610089929190610090565b5050610135565b828054600181600116156101000203166002900490600052602060002090601f016020900481019282601f106100d157805160ff19168380011785556100ff565b828001600101855582156100ff579182015b828111156100fe5782518255916020019190600101906100e3565b5b50905061010c9190610110565b5090565b61013291905b8082111561012e576000816000905550600101610116565b5090565b90565b6103c8806101446000396000f300608060405260043610610062576000357c0100000000000000000000000000000000000000000000000000000000900463ffffffff16806341c0e1b51461006757806342cbb15c1461007e578063a4136862146100a9578063cfae321714610112575b600080fd5b34801561007357600080fd5b5061007c6101a2565b005b34801561008a57600080fd5b50610093610233565b6040518082815260200191505060405180910390f35b3480156100b557600080fd5b50610110600480360381019080803590602001908201803590602001908080601f016020809104026020016040519081016040528093929190818152602001838380828437820191505050505050919291929050505061023b565b005b34801561011e57600080fd5b50610127610255565b6040518080602001828103825283818151815260200191508051906020019080838360005b8381101561016757808201518184015260208101905061014c565b50505050905090810190601f1680156101945780820380516001836020036101000a031916815260200191505b509250505060405180910390f35b6000809054906101000a900473ffffffffffffffffffffffffffffffffffffffff1673ffffffffffffffffffffffffffffffffffffffff163373ffffffffffffffffffffffffffffffffffffffff161415610231576000809054906101000a900473ffffffffffffffffffffffffffffffffffffffff1673ffffffffffffffffffffffffffffffffffffffff16ff5b565b600043905090565b80600190805190602001906102519291906102f7565b5050565b606060018054600181600116156101000203166002900480601f0160208091040260200160405190810160405280929190818152602001828054600181600116156101000203166002900480156102ed5780601f106102c2576101008083540402835291602001916102ed565b820191906000526020600020905b8154815290600101906020018083116102d057829003601f168201915b5050505050905090565b828054600181600116156101000203166002900490600052602060002090601f016020900481019282601f1061033857805160ff1916838001178555610366565b82800160010185558215610366579182015b8281111561036557825182559160200191906001019061034a565b5b5090506103739190610377565b5090565b61039991905b8082111561039557600081600090555060010161037d565b5090565b905600a165627a7a723058208bf8a5a13ff5c4cb35efcc144c4e9624fd66747a131c3a4d4005295ea4e38dc50029",
  "source": "/* \n\tThe following is an extremely basic example of a solidity contract. \n\tIt takes a string upon creation and then repeats it when greet() is called.\n*/\n\ncontract Greeter         // The contract definition. A constructor of the same name will be automatically called on contract creation. \n{\n    address creator;     // At first, an empty \"address\"-type variable of the name \"creator\". Will be set in the constructor.\n    string greeting;     // At first, an empty \"string\"-type variable of the name \"greeting\". Will be set in constructor and can be changed.\n\n    function Greeter(string _greeting) public   // The constructor. It accepts a string input and saves it to the contract's \"greeting\" variable.\n    {\n        creator = msg.sender;\n        greeting = _greeting;\n    }\n\n    function greet() constant returns (string)          \n    {\n        return greeting;\n    }\n    \n    function getBlockNumber() constant returns (uint) // this doesn't have anything to do with the act of greeting\n    {\t\t\t\t\t\t\t\t\t\t\t\t\t// just demonstrating return of some global variable\n        return block.number;\n    }\n    \n    function setGreeting(string _newgreeting) \n    {\n        greeting = _newgreeting;\n    }\n    \n     /**********\n     Standard kill() function to recover funds \n     **********/\n    \n    function kill()\n    { \n        if (msg.sender == creator)  // only allow this action if the account sending the signal is the creator\n            suicide(creator);       // kills this contract and sends remaining funds back to creator\n    }\n\n}\n",
  "sourcePath": "/home/liweibo/code/solidity/contracts_library/contracts_library/channel-gravy-token/contracts/fivedogit/solidity-baby-steps/contracts/Greeter.sol",
  "compiler": {
    "name": "solc",
    "version": "0.4.24+commit.e67f0147.Emscripten.clang"
  },
  "schemaVersion": "2.0.1",
  "updatedAt": "2018-08-14T06:52:45.261Z"
}