{
  "contractName": "IncrementValue",
  "abi": [
    {
      "inputs": [],
      "payable": false,
      "stateMutability": "nonpayable",
      "type": "constructor"
    },
    {
      "constant": false,
      "inputs": [],
      "name": "increment",
      "outputs": [],
      "payable": false,
      "stateMutability": "nonpayable",
      "type": "function"
    },
    {
      "constant": true,
      "inputs": [],
      "name": "getIncrementedValue",
      "outputs": [
        {
          "name": "",
          "type": "uint256"
        }
      ],
      "payable": false,
      "stateMutability": "view",
      "type": "function"
    },
    {
      "constant": false,
      "inputs": [],
      "name": "kill",
      "outputs": [],
      "payable": false,
      "stateMutability": "nonpayable",
      "type": "function"
    }
  ],
  "bytecode": "0x608060405234801561001057600080fd5b50336000806101000a81548173ffffffffffffffffffffffffffffffffffffffff021916908373ffffffffffffffffffffffffffffffffffffffff160217905550600a60018190555061018e806100686000396000f300608060405260043610610057576000357c0100000000000000000000000000000000000000000000000000000000900463ffffffff16806321ee656c1461005c57806341c0e1b514610087578063d09de08a1461009e575b600080fd5b34801561006857600080fd5b506100716100b5565b6040518082815260200191505060405180910390f35b34801561009357600080fd5b5061009c6100bf565b005b3480156100aa57600080fd5b506100b3610150565b005b6000600154905090565b6000809054906101000a900473ffffffffffffffffffffffffffffffffffffffff1673ffffffffffffffffffffffffffffffffffffffff163373ffffffffffffffffffffffffffffffffffffffff16141561014e576000809054906101000a900473ffffffffffffffffffffffffffffffffffffffff1673ffffffffffffffffffffffffffffffffffffffff16ff5b565b600180600082825401925050819055505600a165627a7a72305820b1652501b75fdcd5fa79ec98d2c250d82132b8cf1af5529683eecaeae8b5928f0029",
  "source": "pragma solidity ^0.4.18;\ncontract IncrementValue {\n    address owner;\n    uint variable;\n    \n    function IncrementValue() public {\n        owner = msg.sender;\n        variable = 10;\n    }\n    function increment() public {\n       variable += 1;\n    }\n    function getIncrementedValue() public constant returns(uint) {\n        return variable;\n    }\n    function kill() public {\n        if(msg.sender == owner) \n        selfdestruct(owner);\n        }\n}\n",
  "sourcePath": "/home/liweibo/code/solidity/contracts_library/contracts_library/channel-gravy-token/contracts/ram1991/Solidity-Smart-contracts/IncrementValue.sol",
  "compiler": {
    "name": "solc",
    "version": "0.4.24+commit.e67f0147.Emscripten.clang"
  },
  "schemaVersion": "2.0.1",
  "updatedAt": "2018-08-14T06:52:45.268Z"
}