{
  "contractName": "MsgValueToBytes20",
  "abi": [
    {
      "constant": false,
      "inputs": [],
      "name": "kill",
      "outputs": [],
      "payable": false,
      "stateMutability": "nonpayable",
      "type": "function"
    },
    {
      "anonymous": false,
      "inputs": [
        {
          "indexed": false,
          "name": "",
          "type": "string"
        }
      ],
      "name": "mortalCalled",
      "type": "event"
    },
    {
      "constant": false,
      "inputs": [],
      "name": "convertMsgValueToBytes20",
      "outputs": [],
      "payable": false,
      "stateMutability": "nonpayable",
      "type": "function"
    },
    {
      "constant": true,
      "inputs": [],
      "name": "getInitialval",
      "outputs": [
        {
          "name": "",
          "type": "uint256"
        }
      ],
      "payable": false,
      "stateMutability": "view",
      "type": "function"
    },
    {
      "constant": true,
      "inputs": [],
      "name": "getUint80val",
      "outputs": [
        {
          "name": "",
          "type": "uint80"
        }
      ],
      "payable": false,
      "stateMutability": "view",
      "type": "function"
    },
    {
      "constant": true,
      "inputs": [],
      "name": "getFinalval",
      "outputs": [
        {
          "name": "",
          "type": "bytes20"
        }
      ],
      "payable": false,
      "stateMutability": "view",
      "type": "function"
    }
  ],
  "bytecode": "0x6080604052336000806101000a81548173ffffffffffffffffffffffffffffffffffffffff021916908373ffffffffffffffffffffffffffffffffffffffff16021790555061038c806100536000396000f30060806040526004361061006d576000357c0100000000000000000000000000000000000000000000000000000000900463ffffffff1680631ff8ac8a146100725780633515519c146100bb57806341c0e1b5146100e6578063988483d4146100fd578063ab98458e14610114575b600080fd5b34801561007e57600080fd5b50610087610157565b60405180826bffffffffffffffffffffffff19166bffffffffffffffffffffffff1916815260200191505060405180910390f35b3480156100c757600080fd5b506100d061017a565b6040518082815260200191505060405180910390f35b3480156100f257600080fd5b506100fb610184565b005b34801561010957600080fd5b5061011261027d565b005b34801561012057600080fd5b50610129610340565b604051808269ffffffffffffffffffff1669ffffffffffffffffffff16815260200191505060405180910390f35b60006002600a9054906101000a90046c0100000000000000000000000002905090565b6000600154905090565b7f4d4423829102daac268046d4c3df5a721440ae3e69a9c7add4240f774d806a2460405180806020018281038252600c8152602001807f6d6f7274616c43616c6c6564000000000000000000000000000000000000000081525060200191505060405180910390a16000809054906101000a900473ffffffffffffffffffffffffffffffffffffffff1673ffffffffffffffffffffffffffffffffffffffff163373ffffffffffffffffffffffffffffffffffffffff16141561027b576000809054906101000a900473ffffffffffffffffffffffffffffffffffffffff1673ffffffffffffffffffffffffffffffffffffffff16ff5b565b34600181905550600034118061029d57506a010000000000000000000034105b1561033e5734600260006101000a81548169ffffffffffffffffffff021916908369ffffffffffffffffffff160217905550600260009054906101000a900469ffffffffffffffffffff1669ffffffffffffffffffff166c01000000000000000000000000026002600a6101000a81548173ffffffffffffffffffffffffffffffffffffffff02191690836c01000000000000000000000000900402179055505b565b6000600260009054906101000a900469ffffffffffffffffffff169050905600a165627a7a7230582036663090e3d4f1dac9e1654c29555b0d950d2a0c22fe56bd86be5d413a801ead0029",
  "source": "import \"./Mortal.sol\";\n\ncontract MsgValueToBytes20 is Mortal {\n\n\tuint initialval;\n\tuint80 uint80val; \n\tbytes20 finalval;\n    \n    function convertMsgValueToBytes20() \n    {\n    \tinitialval = msg.value;\n    \tif(msg.value > 0 || msg.value < 1208925819614629174706176) // 1 wei up to (2^80 - 1) wei is the valid uint80 range\n    \t{\n    \t\tuint80val = uint80(msg.value);\n    \t\tfinalval = bytes20(uint80val);\n    \t}\n    }\n    \n    function getInitialval() constant returns (uint)\n    {\n    \treturn initialval;\n    }\n    \n    function getUint80val() constant returns (uint80)\n    {\n    \treturn uint80val;\n    }\n    \n    function getFinalval() constant returns (bytes20)\n    {\n    \treturn finalval;\n    }\n    \n}\n\n\n/*\n\nmsgvaluetobytes20.convertMsgValueToBytes20.sendTransaction({from:eth.coinbase,value:web3.toWei(.001,\"ether\")});\n\n> msgvaluetobytes20.getInitialval();\n10000\n> msgvaluetobytes20.getUint80val();\n10000\n> msgvaluetobytes20.getFinalval();\n\"0x0000000000000000000000000000000000002710\"\n\n*/",
  "sourcePath": "/home/liweibo/code/solidity/contracts_library/contracts_library/channel-gravy-token/contracts/fivedogit/solidity-baby-steps/contracts/MsgValueToBytes20.sol",
  "compiler": {
    "name": "solc",
    "version": "0.4.24+commit.e67f0147.Emscripten.clang"
  },
  "schemaVersion": "2.0.1",
  "updatedAt": "2018-08-14T06:52:45.244Z"
}