{
  "contractName": "MultipleConstructorTest",
  "abi": [
    {
      "inputs": [],
      "payable": false,
      "stateMutability": "nonpayable",
      "type": "constructor"
    },
    {
      "constant": true,
      "inputs": [],
      "name": "getFirst",
      "outputs": [
        {
          "name": "",
          "type": "bool"
        }
      ],
      "payable": false,
      "stateMutability": "view",
      "type": "function"
    },
    {
      "constant": true,
      "inputs": [],
      "name": "getSecond",
      "outputs": [
        {
          "name": "",
          "type": "bool"
        }
      ],
      "payable": false,
      "stateMutability": "view",
      "type": "function"
    },
    {
      "constant": false,
      "inputs": [],
      "name": "kill",
      "outputs": [],
      "payable": false,
      "stateMutability": "nonpayable",
      "type": "function"
    }
  ],
  "bytecode": "0x608060405260008060146101000a81548160ff02191690831515021790555060008060156101000a81548160ff02191690831515021790555034801561004457600080fd5b50336000806101000a81548173ffffffffffffffffffffffffffffffffffffffff021916908373ffffffffffffffffffffffffffffffffffffffff1602179055506001600060146101000a81548160ff0219169083151502179055506101ba806100af6000396000f300608060405260043610610057576000357c0100000000000000000000000000000000000000000000000000000000900463ffffffff1680631b03316f1461005c5780631e2231431461008b57806341c0e1b5146100ba575b600080fd5b34801561006857600080fd5b506100716100d1565b604051808215151515815260200191505060405180910390f35b34801561009757600080fd5b506100a06100e7565b604051808215151515815260200191505060405180910390f35b3480156100c657600080fd5b506100cf6100fd565b005b60008060159054906101000a900460ff16905090565b60008060149054906101000a900460ff16905090565b6000809054906101000a900473ffffffffffffffffffffffffffffffffffffffff1673ffffffffffffffffffffffffffffffffffffffff163373ffffffffffffffffffffffffffffffffffffffff16141561018c576000809054906101000a900473ffffffffffffffffffffffffffffffffffffffff1673ffffffffffffffffffffffffffffffffffffffff16ff5b5600a165627a7a723058201a4a583a62dca5714d1975b0d92d402e8fb2390eac8a89e334d5e4086f9605080029",
  "source": "// Just testing to see if you can have multiple constructors. Nope!\n\ncontract MultipleConstructorTest {\n\n    address creator;\n    bool first = false;\n    bool second = false;\n\n    function MultipleConstructorTest() \n    {\n        creator = msg.sender; \t\t\t\t\t\t\t\t\n        first = true;\n    }\n  \n// Having two constructors with same number of arguments (zero, in this case) doesn't work. Won't compile.    \n//    function MultipleConstructorTest() private \n//    {\n//        second = true; \t\t\t\t\t\t\t\t\n//    }  \n  \n// Merely setting the second to private doesn't work. Won't compile.    \n//    function MultipleConstructorTest() private \n//    {\n//        second = true; \t\t\t\t\t\t\t\t\n//    }\n\t\n// Returning a value won't do it, either. Won't compile.\t\n//    function MultipleConstructorTest() returns (bool) \n//    {\n//        second = true;\n//    }\t\n\n// Adding a parameter doesn't work. Won't compile.\n//    function MultipleConstructorTest(bool irrelevantvalue) \n//    {\n//        second = true;\n//    }\n\t\n\tfunction getFirst() constant returns (bool)\n\t{\n\t\treturn first;\n\t}\n\t\n\tfunction getSecond() constant returns (bool)\n\t{\n\t\treturn second;\n\t}\n\t\n    /**********\n     Standard kill() function to recover funds \n     **********/\n    \n    function kill()\n    { \n        if (msg.sender == creator)\n            suicide(creator);  // kills this contract and sends remaining funds back to creator\n    }\n}\n",
  "sourcePath": "/home/liweibo/code/solidity/contracts_library/contracts_library/channel-gravy-token/contracts/fivedogit/solidity-baby-steps/contracts/MultipleConstructorTest.sol",
  "compiler": {
    "name": "solc",
    "version": "0.4.24+commit.e67f0147.Emscripten.clang"
  },
  "schemaVersion": "2.0.1",
  "updatedAt": "2018-08-14T06:52:45.247Z"
}