{
  "contractName": "MultiSigWallet",
  "abi": [
    {
      "inputs": [],
      "payable": false,
      "stateMutability": "nonpayable",
      "type": "constructor"
    },
    {
      "payable": true,
      "stateMutability": "payable",
      "type": "fallback"
    },
    {
      "anonymous": false,
      "inputs": [
        {
          "indexed": false,
          "name": "from",
          "type": "address"
        },
        {
          "indexed": false,
          "name": "amount",
          "type": "uint256"
        }
      ],
      "name": "DepositFunds",
      "type": "event"
    },
    {
      "anonymous": false,
      "inputs": [
        {
          "indexed": false,
          "name": "from",
          "type": "address"
        },
        {
          "indexed": false,
          "name": "to",
          "type": "address"
        },
        {
          "indexed": false,
          "name": "amount",
          "type": "uint256"
        },
        {
          "indexed": false,
          "name": "transactionId",
          "type": "uint256"
        }
      ],
      "name": "TransactionCreated",
      "type": "event"
    },
    {
      "anonymous": false,
      "inputs": [
        {
          "indexed": false,
          "name": "from",
          "type": "address"
        },
        {
          "indexed": false,
          "name": "to",
          "type": "address"
        },
        {
          "indexed": false,
          "name": "amount",
          "type": "uint256"
        },
        {
          "indexed": false,
          "name": "transactionId",
          "type": "uint256"
        }
      ],
      "name": "TransactionCompleted",
      "type": "event"
    },
    {
      "anonymous": false,
      "inputs": [
        {
          "indexed": false,
          "name": "by",
          "type": "address"
        },
        {
          "indexed": false,
          "name": "transactionId",
          "type": "uint256"
        }
      ],
      "name": "TransactionSigned",
      "type": "event"
    },
    {
      "constant": false,
      "inputs": [
        {
          "name": "owner",
          "type": "address"
        }
      ],
      "name": "addOwner",
      "outputs": [],
      "payable": false,
      "stateMutability": "nonpayable",
      "type": "function"
    },
    {
      "constant": false,
      "inputs": [
        {
          "name": "owner",
          "type": "address"
        }
      ],
      "name": "removeOwner",
      "outputs": [],
      "payable": false,
      "stateMutability": "nonpayable",
      "type": "function"
    },
    {
      "constant": false,
      "inputs": [
        {
          "name": "amount",
          "type": "uint256"
        }
      ],
      "name": "withdraw",
      "outputs": [],
      "payable": false,
      "stateMutability": "nonpayable",
      "type": "function"
    },
    {
      "constant": false,
      "inputs": [
        {
          "name": "to",
          "type": "address"
        },
        {
          "name": "amount",
          "type": "uint256"
        }
      ],
      "name": "transferTo",
      "outputs": [],
      "payable": false,
      "stateMutability": "nonpayable",
      "type": "function"
    },
    {
      "constant": true,
      "inputs": [],
      "name": "getPendingTransactions",
      "outputs": [
        {
          "name": "",
          "type": "uint256[]"
        }
      ],
      "payable": false,
      "stateMutability": "view",
      "type": "function"
    },
    {
      "constant": false,
      "inputs": [
        {
          "name": "transactionId",
          "type": "uint256"
        }
      ],
      "name": "signTransaction",
      "outputs": [],
      "payable": false,
      "stateMutability": "nonpayable",
      "type": "function"
    },
    {
      "constant": false,
      "inputs": [
        {
          "name": "transactionId",
          "type": "uint256"
        }
      ],
      "name": "deleteTransaction",
      "outputs": [],
      "payable": false,
      "stateMutability": "nonpayable",
      "type": "function"
    },
    {
      "constant": true,
      "inputs": [],
      "name": "walletBalance",
      "outputs": [
        {
          "name": "",
          "type": "uint256"
        }
      ],
      "payable": false,
      "stateMutability": "view",
      "type": "function"
    }
  ],
  "bytecode": "0x608060405234801561001057600080fd5b50336000806101000a81548173ffffffffffffffffffffffffffffffffffffffff021916908373ffffffffffffffffffffffffffffffffffffffff160217905550611025806100606000396000f30060806040526004361061008d576000357c0100000000000000000000000000000000000000000000000000000000900463ffffffff168062e9c006146100fa578063173825d9146101275780632ccb1b301461016a5780632e1a7d4d146101b75780635d9ec210146101e45780637065cb4814610211578063cd0a314b14610254578063d11db83f1461027f575b7fd241e73300212f6df233a8e6d3146b88a9d4964e06621d54b5ff6afeba7b1b883334604051808373ffffffffffffffffffffffffffffffffffffffff1673ffffffffffffffffffffffffffffffffffffffff1681526020018281526020019250505060405180910390a1005b34801561010657600080fd5b50610125600480360381019080803590602001909291905050506102eb565b005b34801561013357600080fd5b50610168600480360381019080803573ffffffffffffffffffffffffffffffffffffffff1690602001909291905050506104f7565b005b34801561017657600080fd5b506101b5600480360381019080803573ffffffffffffffffffffffffffffffffffffffff169060200190929190803590602001909291905050506105ae565b005b3480156101c357600080fd5b506101e2600480360381019080803590602001909291905050506108db565b005b3480156101f057600080fd5b5061020f600480360381019080803590602001909291905050506108e8565b005b34801561021d57600080fd5b50610252600480360381019080803573ffffffffffffffffffffffffffffffffffffffff169060200190929190505050610d6f565b005b34801561026057600080fd5b50610269610e25565b6040518082815260200191505060405180910390f35b34801561028b57600080fd5b50610294610e44565b6040518080602001828103825283818151815260200191508051906020019060200280838360005b838110156102d75780820151818401526020810190506102bc565b505050509050019250505060405180910390f35b6000806000809054906101000a900473ffffffffffffffffffffffffffffffffffffffff1673ffffffffffffffffffffffffffffffffffffffff163373ffffffffffffffffffffffffffffffffffffffff161480610397575060018060003373ffffffffffffffffffffffffffffffffffffffff1673ffffffffffffffffffffffffffffffffffffffff16815260200190815260200160002060009054906101000a900460ff1660ff16145b15156103a257600080fd5b60009150600090505b600480549050811015610437578160ff1660011415610403576004818154811015156103d357fe5b90600052602060002001546004600183038154811015156103f057fe5b906000526020600020018190555061042a565b60048181548110151561041257fe5b906000526020600020015483141561042957600191505b5b80806001019150506103ab565b600460016004805490500381548110151561044e57fe5b906000526020600020016000905560048054809190600190036104719190610f50565b5060036000848152602001908152602001600020600080820160006101000a81549073ffffffffffffffffffffffffffffffffffffffff02191690556001820160006101000a81549073ffffffffffffffffffffffffffffffffffffffff021916905560028201600090556003820160006101000a81549060ff02191690555050505050565b6000809054906101000a900473ffffffffffffffffffffffffffffffffffffffff1673ffffffffffffffffffffffffffffffffffffffff163373ffffffffffffffffffffffffffffffffffffffff1614151561055257600080fd5b6000600160008373ffffffffffffffffffffffffffffffffffffffff1673ffffffffffffffffffffffffffffffffffffffff16815260200190815260200160002060006101000a81548160ff021916908360ff16021790555050565b60006105b8610f7c565b6000809054906101000a900473ffffffffffffffffffffffffffffffffffffffff1673ffffffffffffffffffffffffffffffffffffffff163373ffffffffffffffffffffffffffffffffffffffff161480610661575060018060003373ffffffffffffffffffffffffffffffffffffffff1673ffffffffffffffffffffffffffffffffffffffff16815260200190815260200160002060009054906101000a900460ff1660ff16145b151561066c57600080fd5b823073ffffffffffffffffffffffffffffffffffffffff16311015151561069257600080fd5b6002600081548092919060010191905055915033816000019073ffffffffffffffffffffffffffffffffffffffff16908173ffffffffffffffffffffffffffffffffffffffff168152505083816020019073ffffffffffffffffffffffffffffffffffffffff16908173ffffffffffffffffffffffffffffffffffffffff1681525050828160400181815250506000816060019060ff16908160ff1681525050806003600084815260200190815260200160002060008201518160000160006101000a81548173ffffffffffffffffffffffffffffffffffffffff021916908373ffffffffffffffffffffffffffffffffffffffff16021790555060208201518160010160006101000a81548173ffffffffffffffffffffffffffffffffffffffff021916908373ffffffffffffffffffffffffffffffffffffffff1602179055506040820151816002015560608201518160030160006101000a81548160ff021916908360ff16021790555090505060048290806001815401808255809150509060018203906000526020600020016000909192909190915055507f41d8c89c4a25824354aa1f198d80d06f2f93f903a2d180d1ea20429a4678c4a433858585604051808573ffffffffffffffffffffffffffffffffffffffff1673ffffffffffffffffffffffffffffffffffffffff1681526020018473ffffffffffffffffffffffffffffffffffffffff1673ffffffffffffffffffffffffffffffffffffffff16815260200183815260200182815260200194505050505060405180910390a150505050565b6108e533826105ae565b50565b60008060009054906101000a900473ffffffffffffffffffffffffffffffffffffffff1673ffffffffffffffffffffffffffffffffffffffff163373ffffffffffffffffffffffffffffffffffffffff161480610993575060018060003373ffffffffffffffffffffffffffffffffffffffff1673ffffffffffffffffffffffffffffffffffffffff16815260200190815260200160002060009054906101000a900460ff1660ff16145b151561099e57600080fd5b6003600083815260200190815260200160002090508060000160009054906101000a900473ffffffffffffffffffffffffffffffffffffffff1673ffffffffffffffffffffffffffffffffffffffff166000141515156109fd57600080fd5b8060000160009054906101000a900473ffffffffffffffffffffffffffffffffffffffff1673ffffffffffffffffffffffffffffffffffffffff163373ffffffffffffffffffffffffffffffffffffffff1614151515610a5c57600080fd5b60018160040160003373ffffffffffffffffffffffffffffffffffffffff1673ffffffffffffffffffffffffffffffffffffffff16815260200190815260200160002060009054906101000a900460ff1660ff1614151515610abd57600080fd5b60018160040160003373ffffffffffffffffffffffffffffffffffffffff1673ffffffffffffffffffffffffffffffffffffffff16815260200190815260200160002060006101000a81548160ff021916908360ff16021790555080600301600081819054906101000a900460ff168092919060010191906101000a81548160ff021916908360ff160217905550507fac63e7e1dc16bccf900879686e74ca33eeb175b670e3aaa9d7e4ccf3781b7a7a3383604051808373ffffffffffffffffffffffffffffffffffffffff1673ffffffffffffffffffffffffffffffffffffffff1681526020018281526020019250505060405180910390a160028160030160009054906101000a900460ff1660ff16101515610d6b5780600201543073ffffffffffffffffffffffffffffffffffffffff163110151515610bff57600080fd5b8060010160009054906101000a900473ffffffffffffffffffffffffffffffffffffffff1673ffffffffffffffffffffffffffffffffffffffff166108fc82600201549081150290604051600060405180830381858888f19350505050158015610c6d573d6000803e3d6000fd5b507f394c4e679790fab24fd86614fd812811c9c835e4c475bdfc3d26fd0d6f7ca6fd8160000160009054906101000a900473ffffffffffffffffffffffffffffffffffffffff168260010160009054906101000a900473ffffffffffffffffffffffffffffffffffffffff16836002015485604051808573ffffffffffffffffffffffffffffffffffffffff1673ffffffffffffffffffffffffffffffffffffffff1681526020018473ffffffffffffffffffffffffffffffffffffffff1673ffffffffffffffffffffffffffffffffffffffff16815260200183815260200182815260200194505050505060405180910390a1610d6a826102eb565b5b5050565b6000809054906101000a900473ffffffffffffffffffffffffffffffffffffffff1673ffffffffffffffffffffffffffffffffffffffff163373ffffffffffffffffffffffffffffffffffffffff16141515610dca57600080fd5b60018060008373ffffffffffffffffffffffffffffffffffffffff1673ffffffffffffffffffffffffffffffffffffffff16815260200190815260200160002060006101000a81548160ff021916908360ff16021790555050565b60003073ffffffffffffffffffffffffffffffffffffffff1631905090565b60606000809054906101000a900473ffffffffffffffffffffffffffffffffffffffff1673ffffffffffffffffffffffffffffffffffffffff163373ffffffffffffffffffffffffffffffffffffffff161480610eef575060018060003373ffffffffffffffffffffffffffffffffffffffff1673ffffffffffffffffffffffffffffffffffffffff16815260200190815260200160002060009054906101000a900460ff1660ff16145b1515610efa57600080fd5b6004805480602002602001604051908101604052809291908181526020018280548015610f4657602002820191906000526020600020905b815481526020019060010190808311610f32575b5050505050905090565b815481835581811115610f7757818360005260206000209182019101610f769190610fd4565b5b505050565b608060405190810160405280600073ffffffffffffffffffffffffffffffffffffffff168152602001600073ffffffffffffffffffffffffffffffffffffffff16815260200160008152602001600060ff1681525090565b610ff691905b80821115610ff2576000816000905550600101610fda565b5090565b905600a165627a7a7230582091c6789eb7265d0c92fa29724eac479510085b3f00abe23039264cc0f33d4f0c0029",
  "source": "pragma solidity ^0.4.0;\n\ncontract MultiSigWallet {\n\n    address private _owner;\n    mapping(address => uint8) private _owners;\n\n    uint constant MIN_SIGNATURES = 2;\n    uint private _transactionIdx;\n\n    struct Transaction {\n      address from;\n      address to;\n      uint amount;\n      uint8 signatureCount;\n      mapping (address => uint8) signatures;\n    }\n\n    mapping (uint => Transaction) private _transactions;\n    uint[] private _pendingTransactions;\n\n    modifier isOwner() {\n        require(msg.sender == _owner);\n        _;\n    }\n\n    modifier validOwner() {\n        require(msg.sender == _owner || _owners[msg.sender] == 1);\n        _;\n    }\n\n    event DepositFunds(address from, uint amount);\n    event TransactionCreated(address from, address to, uint amount, uint transactionId);\n    event TransactionCompleted(address from, address to, uint amount, uint transactionId);\n    event TransactionSigned(address by, uint transactionId);\n\n    function MultiSigWallet()\n        public {\n        _owner = msg.sender;\n    }\n\n    function addOwner(address owner)\n        isOwner\n        public {\n        _owners[owner] = 1;\n    }\n\n    function removeOwner(address owner)\n        isOwner\n        public {\n        _owners[owner] = 0;\n    }\n\n    function ()\n        public\n        payable {\n        DepositFunds(msg.sender, msg.value);\n    }\n\n    function withdraw(uint amount)\n        public {\n        transferTo(msg.sender, amount);\n    }\n\n    function transferTo(address to, uint amount)\n        validOwner\n        public {\n        require(address(this).balance >= amount);\n        uint transactionId = _transactionIdx++;\n\n        Transaction memory transaction;\n        transaction.from = msg.sender;\n        transaction.to = to;\n        transaction.amount = amount;\n        transaction.signatureCount = 0;\n\n        _transactions[transactionId] = transaction;\n        _pendingTransactions.push(transactionId);\n\n        TransactionCreated(msg.sender, to, amount, transactionId);\n    }\n\n    function getPendingTransactions()\n      view\n      validOwner\n      public\n      returns (uint[]) {\n      return _pendingTransactions;\n    }\n\n    function signTransaction(uint transactionId)\n      validOwner\n      public {\n\n      Transaction storage transaction = _transactions[transactionId];\n\n      // Transaction must exist\n      require(0x0 != transaction.from);\n      // Creator cannot sign the transaction\n      require(msg.sender != transaction.from);\n      // Cannot sign a transaction more than once\n      require(transaction.signatures[msg.sender] != 1);\n\n      transaction.signatures[msg.sender] = 1;\n      transaction.signatureCount++;\n\n      TransactionSigned(msg.sender, transactionId);\n\n      if (transaction.signatureCount >= MIN_SIGNATURES) {\n        require(address(this).balance >= transaction.amount);\n        transaction.to.transfer(transaction.amount);\n        TransactionCompleted(transaction.from, transaction.to, transaction.amount, transactionId);\n        deleteTransaction(transactionId);\n      }\n    }\n\n    function deleteTransaction(uint transactionId)\n      validOwner\n      public {\n      uint8 replace = 0;\n      for(uint i = 0; i < _pendingTransactions.length; i++) {\n        if (1 == replace) {\n          _pendingTransactions[i-1] = _pendingTransactions[i];\n        } else if (transactionId == _pendingTransactions[i]) {\n          replace = 1;\n        }\n      }\n      delete _pendingTransactions[_pendingTransactions.length - 1];\n      _pendingTransactions.length--;\n      delete _transactions[transactionId];\n    }\n\n    function walletBalance()\n      constant\n      public\n      returns (uint) {\n      return address(this).balance;\n    }\n}\n",
  "sourcePath": "/home/liweibo/code/solidity/contracts_library/contracts_library/channel-gravy-token/contracts/willitscale/learning-solidity/tutorial-25/MultiSigWallet.sol",
  "compiler": {
    "name": "solc",
    "version": "0.4.24+commit.e67f0147.Emscripten.clang"
  },
  "schemaVersion": "2.0.1",
  "updatedAt": "2018-08-14T06:52:45.226Z"
}