{
  "contractName": "Owned",
  "abi": [
    {
      "constant": true,
      "inputs": [],
      "name": "owner",
      "outputs": [
        {
          "name": "",
          "type": "address"
        }
      ],
      "payable": false,
      "stateMutability": "view",
      "type": "function"
    },
    {
      "constant": true,
      "inputs": [],
      "name": "newOwnerCandidate",
      "outputs": [
        {
          "name": "",
          "type": "address"
        }
      ],
      "payable": false,
      "stateMutability": "view",
      "type": "function"
    },
    {
      "inputs": [],
      "payable": false,
      "stateMutability": "nonpayable",
      "type": "constructor"
    },
    {
      "anonymous": false,
      "inputs": [
        {
          "indexed": true,
          "name": "by",
          "type": "address"
        },
        {
          "indexed": true,
          "name": "to",
          "type": "address"
        }
      ],
      "name": "OwnershipRequested",
      "type": "event"
    },
    {
      "anonymous": false,
      "inputs": [
        {
          "indexed": true,
          "name": "from",
          "type": "address"
        },
        {
          "indexed": true,
          "name": "to",
          "type": "address"
        }
      ],
      "name": "OwnershipTransferred",
      "type": "event"
    },
    {
      "anonymous": false,
      "inputs": [],
      "name": "OwnershipRemoved",
      "type": "event"
    },
    {
      "constant": false,
      "inputs": [
        {
          "name": "_newOwnerCandidate",
          "type": "address"
        }
      ],
      "name": "proposeOwnership",
      "outputs": [],
      "payable": false,
      "stateMutability": "nonpayable",
      "type": "function"
    },
    {
      "constant": false,
      "inputs": [],
      "name": "acceptOwnership",
      "outputs": [],
      "payable": false,
      "stateMutability": "nonpayable",
      "type": "function"
    },
    {
      "constant": false,
      "inputs": [
        {
          "name": "_newOwner",
          "type": "address"
        }
      ],
      "name": "changeOwnership",
      "outputs": [],
      "payable": false,
      "stateMutability": "nonpayable",
      "type": "function"
    },
    {
      "constant": false,
      "inputs": [
        {
          "name": "_dac",
          "type": "address"
        }
      ],
      "name": "removeOwnership",
      "outputs": [],
      "payable": false,
      "stateMutability": "nonpayable",
      "type": "function"
    }
  ],
  "bytecode": "0x608060405234801561001057600080fd5b50336000806101000a81548173ffffffffffffffffffffffffffffffffffffffff021916908373ffffffffffffffffffffffffffffffffffffffff160217905550610a92806100606000396000f300608060405260043610610078576000357c0100000000000000000000000000000000000000000000000000000000900463ffffffff1680632af4c31e1461007d578063666a3427146100c0578063710bf3221461010357806379ba5097146101465780638da5cb5b1461015d578063d091b550146101b4575b600080fd5b34801561008957600080fd5b506100be600480360381019080803573ffffffffffffffffffffffffffffffffffffffff16906020019092919050505061020b565b005b3480156100cc57600080fd5b50610101600480360381019080803573ffffffffffffffffffffffffffffffffffffffff169060200190929190505050610485565b005b34801561010f57600080fd5b50610144600480360381019080803573ffffffffffffffffffffffffffffffffffffffff16906020019092919050505061068a565b005b34801561015257600080fd5b5061015b61080e565b005b34801561016957600080fd5b50610172610a1b565b604051808273ffffffffffffffffffffffffffffffffffffffff1673ffffffffffffffffffffffffffffffffffffffff16815260200191505060405180910390f35b3480156101c057600080fd5b506101c9610a40565b604051808273ffffffffffffffffffffffffffffffffffffffff1673ffffffffffffffffffffffffffffffffffffffff16815260200191505060405180910390f35b60008060009054906101000a900473ffffffffffffffffffffffffffffffffffffffff1673ffffffffffffffffffffffffffffffffffffffff163373ffffffffffffffffffffffffffffffffffffffff161415156102d1576040517f08c379a00000000000000000000000000000000000000000000000000000000081526004018080602001828103825260118152602001807f6572725f6f776e65644e6f744f776e657200000000000000000000000000000081525060200191505060405180910390fd5b60008273ffffffffffffffffffffffffffffffffffffffff1614151515610360576040517f08c379a00000000000000000000000000000000000000000000000000000000081526004018080602001828103825260178152602001807f6572725f6f776e6564496e76616c69644164647265737300000000000000000081525060200191505060405180910390fd5b6000809054906101000a900473ffffffffffffffffffffffffffffffffffffffff169050816000806101000a81548173ffffffffffffffffffffffffffffffffffffffff021916908373ffffffffffffffffffffffffffffffffffffffff1602179055506000600160006101000a81548173ffffffffffffffffffffffffffffffffffffffff021916908373ffffffffffffffffffffffffffffffffffffffff1602179055506000809054906101000a900473ffffffffffffffffffffffffffffffffffffffff1673ffffffffffffffffffffffffffffffffffffffff168173ffffffffffffffffffffffffffffffffffffffff167f8be0079c531659141344cd1fd0a4f28419497f9722a3daafe3b4186f6b6457e060405160405180910390a35050565b6000809054906101000a900473ffffffffffffffffffffffffffffffffffffffff1673ffffffffffffffffffffffffffffffffffffffff163373ffffffffffffffffffffffffffffffffffffffff16141515610549576040517f08c379a00000000000000000000000000000000000000000000000000000000081526004018080602001828103825260118152602001807f6572725f6f776e65644e6f744f776e657200000000000000000000000000000081525060200191505060405180910390fd5b610dac8173ffffffffffffffffffffffffffffffffffffffff161415156105d8576040517f08c379a00000000000000000000000000000000000000000000000000000000081526004018080602001828103825260138152602001807f6572725f6f776e6564496e76616c69644461630000000000000000000000000081525060200191505060405180910390fd5b60008060006101000a81548173ffffffffffffffffffffffffffffffffffffffff021916908373ffffffffffffffffffffffffffffffffffffffff1602179055506000600160006101000a81548173ffffffffffffffffffffffffffffffffffffffff021916908373ffffffffffffffffffffffffffffffffffffffff1602179055507f94e8b32e01b9eedfddd778ffbd051a7718cdc14781702884561162dca6f74dbb60405160405180910390a150565b6000809054906101000a900473ffffffffffffffffffffffffffffffffffffffff1673ffffffffffffffffffffffffffffffffffffffff163373ffffffffffffffffffffffffffffffffffffffff1614151561074e576040517f08c379a00000000000000000000000000000000000000000000000000000000081526004018080602001828103825260118152602001807f6572725f6f776e65644e6f744f776e657200000000000000000000000000000081525060200191505060405180910390fd5b80600160006101000a81548173ffffffffffffffffffffffffffffffffffffffff021916908373ffffffffffffffffffffffffffffffffffffffff160217905550600160009054906101000a900473ffffffffffffffffffffffffffffffffffffffff1673ffffffffffffffffffffffffffffffffffffffff163373ffffffffffffffffffffffffffffffffffffffff167f13a4b3bc0d5234dd3d87c9f1557d8faefa37986da62c36ba49309e2fb2c9aec460405160405180910390a350565b6000600160009054906101000a900473ffffffffffffffffffffffffffffffffffffffff1673ffffffffffffffffffffffffffffffffffffffff163373ffffffffffffffffffffffffffffffffffffffff161415156108d5576040517f08c379a00000000000000000000000000000000000000000000000000000000081526004018080602001828103825260158152602001807f6572725f6f776e65644e6f7443616e646964617465000000000000000000000081525060200191505060405180910390fd5b6000809054906101000a900473ffffffffffffffffffffffffffffffffffffffff169050600160009054906101000a900473ffffffffffffffffffffffffffffffffffffffff166000806101000a81548173ffffffffffffffffffffffffffffffffffffffff021916908373ffffffffffffffffffffffffffffffffffffffff1602179055506000600160006101000a81548173ffffffffffffffffffffffffffffffffffffffff021916908373ffffffffffffffffffffffffffffffffffffffff1602179055506000809054906101000a900473ffffffffffffffffffffffffffffffffffffffff1673ffffffffffffffffffffffffffffffffffffffff168173ffffffffffffffffffffffffffffffffffffffff167f8be0079c531659141344cd1fd0a4f28419497f9722a3daafe3b4186f6b6457e060405160405180910390a350565b6000809054906101000a900473ffffffffffffffffffffffffffffffffffffffff1681565b600160009054906101000a900473ffffffffffffffffffffffffffffffffffffffff16815600a165627a7a72305820ba6e6ccfb7c34ed2d61454962350f458b76089217ad060f2a2554855a51600f70029",
  "source": "pragma solidity ^0.4.22;\n\n\n/// @title Owned\n/// @author Adrià Massanet <adria@codecontext.io>\n/// @notice The Owned contract has an owner address, and provides basic \n///  authorization control functions, this simplifies & the implementation of\n///  user permissions; this contract has three work flows for a change in\n///  ownership, the first requires the new owner to validate that they have the\n///  ability to accept ownership, the second allows the ownership to be\n///  directly transfered without requiring acceptance, and the third allows for\n///  the ownership to be removed to allow for decentralization \ncontract Owned {\n\n    address public owner;\n    address public newOwnerCandidate;\n\n    event OwnershipRequested(address indexed by, address indexed to);\n    event OwnershipTransferred(address indexed from, address indexed to);\n    event OwnershipRemoved();\n\n    /// @dev The constructor sets the `msg.sender` as the`owner` of the contract\n    constructor() public {\n        owner = msg.sender;\n    }\n\n    /// @dev `owner` is the only address that can call a function with this\n    /// modifier\n    modifier onlyOwner() {\n        require (msg.sender == owner,\"err_ownedNotOwner\");\n        _;\n    }\n    \n    /// @dev In this 1st option for ownership transfer `proposeOwnership()` must\n    ///  be called first by the current `owner` then `acceptOwnership()` must be\n    ///  called by the `newOwnerCandidate`\n    /// @notice `onlyOwner` Proposes to transfer control of the contract to a\n    ///  new owner\n    /// @param _newOwnerCandidate The address being proposed as the new owner\n    function proposeOwnership(address _newOwnerCandidate) public onlyOwner {\n        newOwnerCandidate = _newOwnerCandidate;\n\n        emit OwnershipRequested(msg.sender, newOwnerCandidate);\n    }\n\n    /// @notice Can only be called by the `newOwnerCandidate`, accepts the\n    ///  transfer of ownership\n    function acceptOwnership() public {\n        require(msg.sender == newOwnerCandidate,\"err_ownedNotCandidate\");\n\n        address oldOwner = owner;\n        owner = newOwnerCandidate;\n        newOwnerCandidate = 0x0;\n\n        emit OwnershipTransferred(oldOwner, owner);\n    }\n\n    /// @dev In this 2nd option for ownership transfer `changeOwnership()` can\n    ///  be called and it will immediately assign ownership to the `newOwner`\n    /// @notice `owner` can step down and assign some other address to this role\n    /// @param _newOwner The address of the new owner\n    function changeOwnership(address _newOwner) public onlyOwner {\n        require(_newOwner != 0x0,\"err_ownedInvalidAddress\");\n\n        address oldOwner = owner;\n        owner = _newOwner;\n        newOwnerCandidate = 0x0;\n\n        emit OwnershipTransferred(oldOwner, owner);\n    }\n\n    /// @dev In this 3rd option for ownership transfer `removeOwnership()` can\n    ///  be called and it will immediately assign ownership to the 0x0 address;\n    ///  it requires a 0xdece be input as a parameter to prevent accidental use\n    /// @notice Decentralizes the contract, this operation cannot be undone \n    /// @param _dac `0xdac` has to be entered for this function to work\n    function removeOwnership(address _dac) public onlyOwner {\n        require(_dac == 0xdac,\"err_ownedInvalidDac\");\n\n        owner = 0x0;\n        newOwnerCandidate = 0x0;\n\n        emit OwnershipRemoved();\n    }\n} \n",
  "sourcePath": "/home/liweibo/code/solidity/contracts_library/contracts_library/channel-gravy-token/contracts/Giveth/common-contract-deps/Owned.sol",
  "compiler": {
    "name": "solc",
    "version": "0.4.24+commit.e67f0147.Emscripten.clang"
  },
  "schemaVersion": "2.0.1",
  "updatedAt": "2018-08-14T06:52:27.416Z"
}