{
  "contractName": "ProductSales",
  "abi": [
    {
      "inputs": [],
      "payable": true,
      "stateMutability": "payable",
      "type": "constructor"
    },
    {
      "constant": false,
      "inputs": [],
      "name": "buy",
      "outputs": [],
      "payable": true,
      "stateMutability": "payable",
      "type": "function"
    }
  ],
  "bytecode": "0x60806040526040805190810160405280600881526020017f6970686f6e6520580000000000000000000000000000000000000000000000008152506001908051906020019061004f9291906100bc565b50678ac7230489e800006002556000600360006101000a81548160ff021916908315150217905550336000806101000a81548173ffffffffffffffffffffffffffffffffffffffff021916908373ffffffffffffffffffffffffffffffffffffffff160217905550610161565b828054600181600116156101000203166002900490600052602060002090601f016020900481019282601f106100fd57805160ff191683800117855561012b565b8280016001018555821561012b579182015b8281111561012a57825182559160200191906001019061010f565b5b509050610138919061013c565b5090565b61015e91905b8082111561015a576000816000905550600101610142565b5090565b90565b61016d806101706000396000f300608060405260043610610041576000357c0100000000000000000000000000000000000000000000000000000000900463ffffffff168063a6f2ae3a14610046575b600080fd5b61004e610050565b005b6002543410151561013a576000809054906101000a900473ffffffffffffffffffffffffffffffffffffffff1673ffffffffffffffffffffffffffffffffffffffff166108fc3073ffffffffffffffffffffffffffffffffffffffff16319081150290604051600060405180830381858888f193505050501580156100d9573d6000803e3d6000fd5b50336000806101000a81548173ffffffffffffffffffffffffffffffffffffffff021916908373ffffffffffffffffffffffffffffffffffffffff1602179055506001600360006101000a81548160ff02191690831515021790555061013f565b600080fd5b5600a165627a7a72305820a3914cc3a2826e9b45a6057cd388c1873246f5d5666204397c991f55623feebf0029",
  "source": "pragma solidity ^0.4.0;\n\ncontract ProductSales {\n    address owner;\n    string productName = 'iphone X';\n    uint value = 10 ether;\n    bool productSold = false;\n\n\n    function ProductSales() public payable {\n        owner = msg.sender;\n    }\n\n    function buy() public payable {\n        if(msg.value >= value) {\n        owner.transfer(this.balance);\n        owner = msg.sender;\n        productSold = true;\n        }\n    else {\n        revert();\n        }\n    }\n}\n",
  "sourcePath": "/home/liweibo/code/solidity/contracts_library/contracts_library/channel-gravy-token/contracts/ram1991/Solidity-Smart-contracts/ProductSales.sol",
  "compiler": {
    "name": "solc",
    "version": "0.4.24+commit.e67f0147.Emscripten.clang"
  },
  "schemaVersion": "2.0.1",
  "updatedAt": "2018-08-14T06:52:45.269Z"
}