{
  "contractName": "RBACWithAdmin",
  "abi": [
    {
      "constant": true,
      "inputs": [
        {
          "name": "_operator",
          "type": "address"
        },
        {
          "name": "_role",
          "type": "string"
        }
      ],
      "name": "checkRole",
      "outputs": [],
      "payable": false,
      "stateMutability": "view",
      "type": "function"
    },
    {
      "constant": true,
      "inputs": [
        {
          "name": "_operator",
          "type": "address"
        },
        {
          "name": "_role",
          "type": "string"
        }
      ],
      "name": "hasRole",
      "outputs": [
        {
          "name": "",
          "type": "bool"
        }
      ],
      "payable": false,
      "stateMutability": "view",
      "type": "function"
    },
    {
      "constant": true,
      "inputs": [],
      "name": "ROLE_ADMIN",
      "outputs": [
        {
          "name": "",
          "type": "string"
        }
      ],
      "payable": false,
      "stateMutability": "view",
      "type": "function"
    },
    {
      "inputs": [],
      "payable": false,
      "stateMutability": "nonpayable",
      "type": "constructor"
    },
    {
      "anonymous": false,
      "inputs": [
        {
          "indexed": true,
          "name": "operator",
          "type": "address"
        },
        {
          "indexed": false,
          "name": "role",
          "type": "string"
        }
      ],
      "name": "RoleAdded",
      "type": "event"
    },
    {
      "anonymous": false,
      "inputs": [
        {
          "indexed": true,
          "name": "operator",
          "type": "address"
        },
        {
          "indexed": false,
          "name": "role",
          "type": "string"
        }
      ],
      "name": "RoleRemoved",
      "type": "event"
    },
    {
      "constant": false,
      "inputs": [
        {
          "name": "_account",
          "type": "address"
        },
        {
          "name": "_roleName",
          "type": "string"
        }
      ],
      "name": "adminAddRole",
      "outputs": [],
      "payable": false,
      "stateMutability": "nonpayable",
      "type": "function"
    },
    {
      "constant": false,
      "inputs": [
        {
          "name": "_account",
          "type": "address"
        },
        {
          "name": "_roleName",
          "type": "string"
        }
      ],
      "name": "adminRemoveRole",
      "outputs": [],
      "payable": false,
      "stateMutability": "nonpayable",
      "type": "function"
    }
  ],
  "bytecode": "0x608060405234801561001057600080fd5b5061005f336040805190810160405280600581526020017f61646d696e000000000000000000000000000000000000000000000000000000815250610064640100000000026401000000009004565b610203565b6100ee826000836040518082805190602001908083835b6020831015156100a0578051825260208201915060208101905060208303925061007b565b6001836020036101000a03801982511681845116808217855250505050505090500191505090815260200160405180910390206101a564010000000002610851179091906401000000009004565b8173ffffffffffffffffffffffffffffffffffffffff167fbfec83d64eaa953f2708271a023ab9ee82057f8f3578d548c1a4ba0b5b700489826040518080602001828103825283818151815260200191508051906020019080838360005b8381101561016757808201518184015260208101905061014c565b50505050905090810190601f1680156101945780820380516001836020036101000a031916815260200191505b509250505060405180910390a25050565b60018260000160008373ffffffffffffffffffffffffffffffffffffffff1673ffffffffffffffffffffffffffffffffffffffff16815260200190815260200160002060006101000a81548160ff0219169083151502179055505050565b6108db806102126000396000f30060806040526004361061006d576000357c0100000000000000000000000000000000000000000000000000000000900463ffffffff1680630988ca8c14610072578063217fe6c6146100fb57806388cee87e1461019c578063b25fa92c14610225578063d391014b146102ae575b600080fd5b34801561007e57600080fd5b506100f9600480360381019080803573ffffffffffffffffffffffffffffffffffffffff169060200190929190803590602001908201803590602001908080601f016020809104026020016040519081016040528093929190818152602001838380828437820191505050505050919291929050505061033e565b005b34801561010757600080fd5b50610182600480360381019080803573ffffffffffffffffffffffffffffffffffffffff169060200190929190803590602001908201803590602001908080601f01602080910402602001604051908101604052809392919081815260200183838082843782019150505050505091929192905050506103bf565b604051808215151515815260200191505060405180910390f35b3480156101a857600080fd5b50610223600480360381019080803573ffffffffffffffffffffffffffffffffffffffff169060200190929190803590602001908201803590602001908080601f0160208091040260200160405190810160405280939291908181526020018383808284378201915050505050509192919290505050610446565b005b34801561023157600080fd5b506102ac600480360381019080803573ffffffffffffffffffffffffffffffffffffffff169060200190929190803590602001908201803590602001908080601f0160208091040260200160405190810160405280939291908181526020018383808284378201915050505050509192919290505050610493565b005b3480156102ba57600080fd5b506102c36104e0565b6040518080602001828103825283818151815260200191508051906020019080838360005b838110156103035780820151818401526020810190506102e8565b50505050905090810190601f1680156103305780820380516001836020036101000a031916815260200191505b509250505060405180910390f35b6103bb826000836040518082805190602001908083835b60208310151561037a5780518252602082019150602081019050602083039250610355565b6001836020036101000a038019825116818451168082178552505050505050905001915050908152602001604051809103902061051990919063ffffffff16565b5050565b600061043e836000846040518082805190602001908083835b6020831015156103fd57805182526020820191506020810190506020830392506103d8565b6001836020036101000a038019825116818451168082178552505050505050905001915050908152602001604051809103902061053290919063ffffffff16565b905092915050565b610485336040805190810160405280600581526020017f61646d696e00000000000000000000000000000000000000000000000000000081525061033e565b61048f828261058b565b5050565b6104d2336040805190810160405280600581526020017f61646d696e00000000000000000000000000000000000000000000000000000081525061033e565b6104dc82826106bf565b5050565b6040805190810160405280600581526020017f61646d696e00000000000000000000000000000000000000000000000000000081525081565b6105238282610532565b151561052e57600080fd5b5050565b60008260000160008373ffffffffffffffffffffffffffffffffffffffff1673ffffffffffffffffffffffffffffffffffffffff16815260200190815260200160002060009054906101000a900460ff16905092915050565b610608826000836040518082805190602001908083835b6020831015156105c757805182526020820191506020810190506020830392506105a2565b6001836020036101000a03801982511681845116808217855250505050505090500191505090815260200160405180910390206107f390919063ffffffff16565b8173ffffffffffffffffffffffffffffffffffffffff167fd211483f91fc6eff862467f8de606587a30c8fc9981056f051b897a418df803a826040518080602001828103825283818151815260200191508051906020019080838360005b83811015610681578082015181840152602081019050610666565b50505050905090810190601f1680156106ae5780820380516001836020036101000a031916815260200191505b509250505060405180910390a25050565b61073c826000836040518082805190602001908083835b6020831015156106fb57805182526020820191506020810190506020830392506106d6565b6001836020036101000a038019825116818451168082178552505050505050905001915050908152602001604051809103902061085190919063ffffffff16565b8173ffffffffffffffffffffffffffffffffffffffff167fbfec83d64eaa953f2708271a023ab9ee82057f8f3578d548c1a4ba0b5b700489826040518080602001828103825283818151815260200191508051906020019080838360005b838110156107b557808201518184015260208101905061079a565b50505050905090810190601f1680156107e25780820380516001836020036101000a031916815260200191505b509250505060405180910390a25050565b60008260000160008373ffffffffffffffffffffffffffffffffffffffff1673ffffffffffffffffffffffffffffffffffffffff16815260200190815260200160002060006101000a81548160ff0219169083151502179055505050565b60018260000160008373ffffffffffffffffffffffffffffffffffffffff1673ffffffffffffffffffffffffffffffffffffffff16815260200190815260200160002060006101000a81548160ff02191690831515021790555050505600a165627a7a7230582073d3f85db17c22569eb6d8c9ad606e6ac238ecd3c9d8f570ff5d287ea06107020029",
  "source": "pragma solidity ^0.4.24;\n\nimport \"../access/rbac/RBAC.sol\";\n\n\n/**\n * @title RBACWithAdmin\n * @author Matt Condon (@Shrugs)\n * @dev It's recommended that you define constants in the contract,\n * like ROLE_ADMIN below, to avoid typos.\n * @notice RBACWithAdmin is probably too expansive and powerful for your\n * application; an admin is actually able to change any address to any role\n * which is a very large API surface. It's recommended that you follow a strategy\n * of strictly defining the abilities of your roles\n * and the API-surface of your contract.\n * This is just an example for example's sake.\n */\ncontract RBACWithAdmin is RBAC {\n  /**\n   * A constant role name for indicating admins.\n   */\n  string public constant ROLE_ADMIN = \"admin\";\n\n  /**\n   * @dev modifier to scope access to admins\n   * // reverts\n   */\n  modifier onlyAdmin()\n  {\n    checkRole(msg.sender, ROLE_ADMIN);\n    _;\n  }\n\n  /**\n   * @dev constructor. Sets msg.sender as admin by default\n   */\n  constructor()\n    public\n  {\n    addRole(msg.sender, ROLE_ADMIN);\n  }\n\n  /**\n   * @dev add a role to an account\n   * @param _account the account that will have the role\n   * @param _roleName the name of the role\n   */\n  function adminAddRole(address _account, string _roleName)\n    public\n    onlyAdmin\n  {\n    addRole(_account, _roleName);\n  }\n\n  /**\n   * @dev remove a role from an account\n   * @param _account the account that will no longer have the role\n   * @param _roleName the name of the role\n   */\n  function adminRemoveRole(address _account, string _roleName)\n    public\n    onlyAdmin\n  {\n    removeRole(_account, _roleName);\n  }\n}\n",
  "sourcePath": "/home/liweibo/code/solidity/contracts_library/contracts_library/channel-gravy-token/contracts/OpenZeppelin/openzeppelin-solidity/examples/RBACWithAdmin.sol",
  "compiler": {
    "name": "solc",
    "version": "0.4.24+commit.e67f0147.Emscripten.clang"
  },
  "schemaVersion": "2.0.1",
  "updatedAt": "2018-08-14T06:52:16.375Z"
}