{
  "contractName": "ReentrancyMock",
  "abi": [
    {
      "constant": true,
      "inputs": [],
      "name": "counter",
      "outputs": [
        {
          "name": "",
          "type": "uint256"
        }
      ],
      "payable": false,
      "stateMutability": "view",
      "type": "function"
    },
    {
      "inputs": [],
      "payable": false,
      "stateMutability": "nonpayable",
      "type": "constructor"
    },
    {
      "constant": false,
      "inputs": [],
      "name": "callback",
      "outputs": [],
      "payable": false,
      "stateMutability": "nonpayable",
      "type": "function"
    },
    {
      "constant": false,
      "inputs": [
        {
          "name": "_n",
          "type": "uint256"
        }
      ],
      "name": "countLocalRecursive",
      "outputs": [],
      "payable": false,
      "stateMutability": "nonpayable",
      "type": "function"
    },
    {
      "constant": false,
      "inputs": [
        {
          "name": "_n",
          "type": "uint256"
        }
      ],
      "name": "countThisRecursive",
      "outputs": [],
      "payable": false,
      "stateMutability": "nonpayable",
      "type": "function"
    },
    {
      "constant": false,
      "inputs": [
        {
          "name": "_attacker",
          "type": "address"
        }
      ],
      "name": "countAndCall",
      "outputs": [],
      "payable": false,
      "stateMutability": "nonpayable",
      "type": "function"
    }
  ],
  "bytecode": "0x6080604052600160005534801561001557600080fd5b5060006001819055506104ad8061002d6000396000f30060806040526004361061006d576000357c0100000000000000000000000000000000000000000000000000000000900463ffffffff168063083b27321461007257806361bc221a146100895780638c5344fa146100b457806396ffa690146100e1578063b672ad8b1461010e575b600080fd5b34801561007e57600080fd5b50610087610151565b005b34801561009557600080fd5b5061009e610183565b6040518082815260200191505060405180910390f35b3480156100c057600080fd5b506100df60048036038101908080359060200190929190505050610189565b005b3480156100ed57600080fd5b5061010c600480360381019080803590602001909291905050506102f4565b005b34801561011a57600080fd5b5061014f600480360381019080803573ffffffffffffffffffffffffffffffffffffffff16906020019092919050505061033d565b005b600060016000808282540192505081905550600054905061017061046f565b6000548114151561018057600080fd5b50565b60015481565b60008060016000808282540192505081905550600054905060008311156102df576101b261046f565b3073ffffffffffffffffffffffffffffffffffffffff1660018403604051602401808281526020019150506040516020818303038152906040527f8c5344fa000000000000000000000000000000000000000000000000000000007bffffffffffffffffffffffffffffffffffffffffffffffffffffffff19166020820180517bffffffffffffffffffffffffffffffffffffffffffffffffffffffff838183161783525050505060405180828051906020019080838360005b8381101561028757808201518184015260208101905061026c565b50505050905090810190601f1680156102b45780820380516001836020036101000a031916815260200191505b509150506000604051808303816000865af19150509150600115158215151415156102de57600080fd5b5b600054811415156102ef57600080fd5b505050565b600060016000808282540192505081905550600054905060008211156103295761031c61046f565b610328600183036102f4565b5b6000548114151561033957600080fd5b5050565b60008060016000808282540192505081905550600054905061035d61046f565b60405180807f63616c6c6261636b282900000000000000000000000000000000000000000000815250600a019050604051809103902091508273ffffffffffffffffffffffffffffffffffffffff16630a2df1ed836040518263ffffffff167c010000000000000000000000000000000000000000000000000000000002815260040180827bffffffffffffffffffffffffffffffffffffffffffffffffffffffff19167bffffffffffffffffffffffffffffffffffffffffffffffffffffffff19168152602001915050600060405180830381600087803b15801561044257600080fd5b505af1158015610456573d6000803e3d6000fd5b505050506000548114151561046a57600080fd5b505050565b600180600082825401925050819055505600a165627a7a7230582056ddac1bf7266d18b2e3a757d4bc7a64461672fb66f4b04be1f734d495154b9d0029",
  "source": "pragma solidity ^0.4.24;\n\nimport \"../ReentrancyGuard.sol\";\nimport \"./ReentrancyAttack.sol\";\n\n\ncontract ReentrancyMock is ReentrancyGuard {\n\n  uint256 public counter;\n\n  constructor() public {\n    counter = 0;\n  }\n\n  function callback() external nonReentrant {\n    count();\n  }\n\n  function countLocalRecursive(uint256 _n) public nonReentrant {\n    if (_n > 0) {\n      count();\n      countLocalRecursive(_n - 1);\n    }\n  }\n\n  function countThisRecursive(uint256 _n) public nonReentrant {\n    if (_n > 0) {\n      count();\n      // solium-disable-next-line security/no-low-level-calls\n      bool result = address(this).call(abi.encodeWithSignature(\"countThisRecursive(uint256)\", _n - 1));\n      require(result == true);\n    }\n  }\n\n  function countAndCall(ReentrancyAttack _attacker) public nonReentrant {\n    count();\n    bytes4 func = bytes4(keccak256(\"callback()\"));\n    _attacker.callSender(func);\n  }\n\n  function count() private {\n    counter += 1;\n  }\n\n}\n",
  "sourcePath": "/home/liweibo/code/solidity/contracts_library/contracts_library/channel-gravy-token/contracts/OpenZeppelin/openzeppelin-solidity/mocks/ReentrancyMock.sol",
  "compiler": {
    "name": "solc",
    "version": "0.4.24+commit.e67f0147.Emscripten.clang"
  },
  "schemaVersion": "2.0.1",
  "updatedAt": "2018-08-14T06:52:16.412Z"
}