{
  "contractName": "ReentrancyAttack",
  "abi": [
    {
      "constant": false,
      "inputs": [
        {
          "name": "_data",
          "type": "bytes4"
        }
      ],
      "name": "callSender",
      "outputs": [],
      "payable": false,
      "stateMutability": "nonpayable",
      "type": "function"
    }
  ],
  "bytecode": "0x608060405234801561001057600080fd5b506101b6806100206000396000f300608060405260043610610041576000357c0100000000000000000000000000000000000000000000000000000000900463ffffffff1680630a2df1ed14610046575b600080fd5b34801561005257600080fd5b5061009060048036038101908080357bffffffffffffffffffffffffffffffffffffffffffffffffffffffff19169060200190929190505050610092565b005b3373ffffffffffffffffffffffffffffffffffffffff1681604051602401604051602081830303815290604052907bffffffffffffffffffffffffffffffffffffffffffffffffffffffff19166020820180517bffffffffffffffffffffffffffffffffffffffffffffffffffffffff838183161783525050505060405180828051906020019080838360005b8381101561013a57808201518184015260208101905061011f565b50505050905090810190601f1680156101675780820380516001836020036101000a031916815260200191505b509150506000604051808303816000865af1915050151561018757600080fd5b505600a165627a7a72305820af21d005c0794e964038ce874176c115cb587f4ecdfdc0d3542100619815ecd00029",
  "source": "pragma solidity ^0.4.24;\n\n\ncontract ReentrancyAttack {\n\n  function callSender(bytes4 _data) public {\n    // solium-disable-next-line security/no-low-level-calls\n    require(msg.sender.call(abi.encodeWithSelector(_data)));\n  }\n\n}\n",
  "sourcePath": "/home/liweibo/code/solidity/contracts_library/contracts_library/channel-gravy-token/contracts/OpenZeppelin/openzeppelin-solidity/mocks/ReentrancyAttack.sol",
  "compiler": {
    "name": "solc",
    "version": "0.4.24+commit.e67f0147.Emscripten.clang"
  },
  "schemaVersion": "2.0.1",
  "updatedAt": "2018-08-14T06:52:16.408Z"
}