{
  "contractName": "ReferenceToken",
  "abi": [
    {
      "constant": true,
      "inputs": [],
      "name": "defaultOperators",
      "outputs": [
        {
          "name": "",
          "type": "address[]"
        }
      ],
      "payable": false,
      "stateMutability": "view",
      "type": "function"
    },
    {
      "constant": true,
      "inputs": [],
      "name": "name",
      "outputs": [
        {
          "name": "",
          "type": "string"
        }
      ],
      "payable": false,
      "stateMutability": "view",
      "type": "function"
    },
    {
      "constant": false,
      "inputs": [
        {
          "name": "_spender",
          "type": "address"
        },
        {
          "name": "_amount",
          "type": "uint256"
        }
      ],
      "name": "approve",
      "outputs": [
        {
          "name": "success",
          "type": "bool"
        }
      ],
      "payable": false,
      "stateMutability": "nonpayable",
      "type": "function"
    },
    {
      "constant": true,
      "inputs": [],
      "name": "totalSupply",
      "outputs": [
        {
          "name": "",
          "type": "uint256"
        }
      ],
      "payable": false,
      "stateMutability": "view",
      "type": "function"
    },
    {
      "constant": false,
      "inputs": [
        {
          "name": "_from",
          "type": "address"
        },
        {
          "name": "_to",
          "type": "address"
        },
        {
          "name": "_amount",
          "type": "uint256"
        }
      ],
      "name": "transferFrom",
      "outputs": [
        {
          "name": "success",
          "type": "bool"
        }
      ],
      "payable": false,
      "stateMutability": "nonpayable",
      "type": "function"
    },
    {
      "constant": true,
      "inputs": [],
      "name": "decimals",
      "outputs": [
        {
          "name": "",
          "type": "uint8"
        }
      ],
      "payable": false,
      "stateMutability": "view",
      "type": "function"
    },
    {
      "constant": true,
      "inputs": [],
      "name": "granularity",
      "outputs": [
        {
          "name": "",
          "type": "uint256"
        }
      ],
      "payable": false,
      "stateMutability": "view",
      "type": "function"
    },
    {
      "constant": false,
      "inputs": [
        {
          "name": "_from",
          "type": "address"
        },
        {
          "name": "_to",
          "type": "address"
        },
        {
          "name": "_amount",
          "type": "uint256"
        },
        {
          "name": "_userData",
          "type": "bytes"
        },
        {
          "name": "_operatorData",
          "type": "bytes"
        }
      ],
      "name": "operatorSend",
      "outputs": [],
      "payable": false,
      "stateMutability": "nonpayable",
      "type": "function"
    },
    {
      "constant": true,
      "inputs": [
        {
          "name": "_tokenHolder",
          "type": "address"
        }
      ],
      "name": "balanceOf",
      "outputs": [
        {
          "name": "",
          "type": "uint256"
        }
      ],
      "payable": false,
      "stateMutability": "view",
      "type": "function"
    },
    {
      "constant": false,
      "inputs": [],
      "name": "renounceOwnership",
      "outputs": [],
      "payable": false,
      "stateMutability": "nonpayable",
      "type": "function"
    },
    {
      "constant": true,
      "inputs": [],
      "name": "owner",
      "outputs": [
        {
          "name": "",
          "type": "address"
        }
      ],
      "payable": false,
      "stateMutability": "view",
      "type": "function"
    },
    {
      "constant": false,
      "inputs": [
        {
          "name": "_operator",
          "type": "address"
        }
      ],
      "name": "authorizeOperator",
      "outputs": [],
      "payable": false,
      "stateMutability": "nonpayable",
      "type": "function"
    },
    {
      "constant": true,
      "inputs": [],
      "name": "symbol",
      "outputs": [
        {
          "name": "",
          "type": "string"
        }
      ],
      "payable": false,
      "stateMutability": "view",
      "type": "function"
    },
    {
      "constant": false,
      "inputs": [
        {
          "name": "_to",
          "type": "address"
        },
        {
          "name": "_amount",
          "type": "uint256"
        },
        {
          "name": "_userData",
          "type": "bytes"
        }
      ],
      "name": "send",
      "outputs": [],
      "payable": false,
      "stateMutability": "nonpayable",
      "type": "function"
    },
    {
      "constant": false,
      "inputs": [
        {
          "name": "_to",
          "type": "address"
        },
        {
          "name": "_amount",
          "type": "uint256"
        }
      ],
      "name": "transfer",
      "outputs": [
        {
          "name": "success",
          "type": "bool"
        }
      ],
      "payable": false,
      "stateMutability": "nonpayable",
      "type": "function"
    },
    {
      "constant": true,
      "inputs": [
        {
          "name": "_operator",
          "type": "address"
        },
        {
          "name": "_tokenHolder",
          "type": "address"
        }
      ],
      "name": "isOperatorFor",
      "outputs": [
        {
          "name": "",
          "type": "bool"
        }
      ],
      "payable": false,
      "stateMutability": "view",
      "type": "function"
    },
    {
      "constant": true,
      "inputs": [
        {
          "name": "_owner",
          "type": "address"
        },
        {
          "name": "_spender",
          "type": "address"
        }
      ],
      "name": "allowance",
      "outputs": [
        {
          "name": "remaining",
          "type": "uint256"
        }
      ],
      "payable": false,
      "stateMutability": "view",
      "type": "function"
    },
    {
      "constant": false,
      "inputs": [
        {
          "name": "_newOwner",
          "type": "address"
        }
      ],
      "name": "transferOwnership",
      "outputs": [],
      "payable": false,
      "stateMutability": "nonpayable",
      "type": "function"
    },
    {
      "constant": false,
      "inputs": [
        {
          "name": "_operator",
          "type": "address"
        }
      ],
      "name": "revokeOperator",
      "outputs": [],
      "payable": false,
      "stateMutability": "nonpayable",
      "type": "function"
    },
    {
      "inputs": [
        {
          "name": "_name",
          "type": "string"
        },
        {
          "name": "_symbol",
          "type": "string"
        },
        {
          "name": "_granularity",
          "type": "uint256"
        },
        {
          "name": "_defaultOperators",
          "type": "address[]"
        },
        {
          "name": "_burnOperator",
          "type": "address"
        }
      ],
      "payable": false,
      "stateMutability": "nonpayable",
      "type": "constructor"
    },
    {
      "anonymous": false,
      "inputs": [
        {
          "indexed": true,
          "name": "previousOwner",
          "type": "address"
        }
      ],
      "name": "OwnershipRenounced",
      "type": "event"
    },
    {
      "anonymous": false,
      "inputs": [
        {
          "indexed": true,
          "name": "previousOwner",
          "type": "address"
        },
        {
          "indexed": true,
          "name": "newOwner",
          "type": "address"
        }
      ],
      "name": "OwnershipTransferred",
      "type": "event"
    },
    {
      "anonymous": false,
      "inputs": [
        {
          "indexed": true,
          "name": "operator",
          "type": "address"
        },
        {
          "indexed": true,
          "name": "from",
          "type": "address"
        },
        {
          "indexed": true,
          "name": "to",
          "type": "address"
        },
        {
          "indexed": false,
          "name": "amount",
          "type": "uint256"
        },
        {
          "indexed": false,
          "name": "holderData",
          "type": "bytes"
        },
        {
          "indexed": false,
          "name": "operatorData",
          "type": "bytes"
        }
      ],
      "name": "Sent",
      "type": "event"
    },
    {
      "anonymous": false,
      "inputs": [
        {
          "indexed": true,
          "name": "operator",
          "type": "address"
        },
        {
          "indexed": true,
          "name": "to",
          "type": "address"
        },
        {
          "indexed": false,
          "name": "amount",
          "type": "uint256"
        },
        {
          "indexed": false,
          "name": "operatorData",
          "type": "bytes"
        }
      ],
      "name": "Minted",
      "type": "event"
    },
    {
      "anonymous": false,
      "inputs": [
        {
          "indexed": true,
          "name": "operator",
          "type": "address"
        },
        {
          "indexed": true,
          "name": "from",
          "type": "address"
        },
        {
          "indexed": false,
          "name": "amount",
          "type": "uint256"
        },
        {
          "indexed": false,
          "name": "holderData",
          "type": "bytes"
        },
        {
          "indexed": false,
          "name": "operatorData",
          "type": "bytes"
        }
      ],
      "name": "Burned",
      "type": "event"
    },
    {
      "anonymous": false,
      "inputs": [
        {
          "indexed": true,
          "name": "operator",
          "type": "address"
        },
        {
          "indexed": true,
          "name": "tokenHolder",
          "type": "address"
        }
      ],
      "name": "AuthorizedOperator",
      "type": "event"
    },
    {
      "anonymous": false,
      "inputs": [
        {
          "indexed": true,
          "name": "operator",
          "type": "address"
        },
        {
          "indexed": true,
          "name": "tokenHolder",
          "type": "address"
        }
      ],
      "name": "RevokedOperator",
      "type": "event"
    },
    {
      "anonymous": false,
      "inputs": [
        {
          "indexed": true,
          "name": "from",
          "type": "address"
        },
        {
          "indexed": true,
          "name": "to",
          "type": "address"
        },
        {
          "indexed": false,
          "name": "amount",
          "type": "uint256"
        }
      ],
      "name": "Transfer",
      "type": "event"
    },
    {
      "anonymous": false,
      "inputs": [
        {
          "indexed": true,
          "name": "owner",
          "type": "address"
        },
        {
          "indexed": true,
          "name": "spender",
          "type": "address"
        },
        {
          "indexed": false,
          "name": "amount",
          "type": "uint256"
        }
      ],
      "name": "Approval",
      "type": "event"
    },
    {
      "constant": false,
      "inputs": [],
      "name": "disableERC20",
      "outputs": [],
      "payable": false,
      "stateMutability": "nonpayable",
      "type": "function"
    },
    {
      "constant": false,
      "inputs": [],
      "name": "enableERC20",
      "outputs": [],
      "payable": false,
      "stateMutability": "nonpayable",
      "type": "function"
    },
    {
      "constant": false,
      "inputs": [
        {
          "name": "_tokenHolder",
          "type": "address"
        },
        {
          "name": "_amount",
          "type": "uint256"
        },
        {
          "name": "_operatorData",
          "type": "bytes"
        }
      ],
      "name": "mint",
      "outputs": [],
      "payable": false,
      "stateMutability": "nonpayable",
      "type": "function"
    },
    {
      "constant": false,
      "inputs": [
        {
          "name": "_amount",
          "type": "uint256"
        },
        {
          "name": "_holderData",
          "type": "bytes"
        }
      ],
      "name": "burn",
      "outputs": [],
      "payable": false,
      "stateMutability": "nonpayable",
      "type": "function"
    },
    {
      "constant": false,
      "inputs": [
        {
          "name": "_tokenHolder",
          "type": "address"
        },
        {
          "name": "_amount",
          "type": "uint256"
        },
        {
          "name": "_holderData",
          "type": "bytes"
        },
        {
          "name": "_operatorData",
          "type": "bytes"
        }
      ],
      "name": "operatorBurn",
      "outputs": [],
      "payable": false,
      "stateMutability": "nonpayable",
      "type": "function"
    }
  ],
  "bytecode": "0x608060405273a691627805d5fae718381ed95e04d00e20a1fea66000806101000a81548173ffffffffffffffffffffffffffffffffffffffff021916908373ffffffffffffffffffffffffffffffffffffffff1602179055503480156200006557600080fd5b506040516200360d3803806200360d8339810180604052810190808051820192919060200180518201929190602001805190602001909291908051820192919060200180519060200190929190505050848484848383838360008460019080519060200190620000d792919062000524565b508360029080519060200190620000f092919062000524565b506000600481905550600183101515156200010a57600080fd5b82600381905550816007908051906020019062000129929190620005ab565b50600090505b600780549050811015620001dd576001600860006007848154811015156200015357fe5b9060005260206000200160009054906101000a900473ffffffffffffffffffffffffffffffffffffffff1673ffffffffffffffffffffffffffffffffffffffff1673ffffffffffffffffffffffffffffffffffffffff16815260200190815260200160002060006101000a81548160ff02191690831515021790555080806001019150506200012f565b6200022d6040805190810160405280600b81526020017f455243373737546f6b656e000000000000000000000000000000000000000000815250306200032e640100000000026401000000009004565b50505050506001600a60006101000a81548160ff0219169083151502179055506200029d6040805190810160405280600a81526020017f4552433230546f6b656e00000000000000000000000000000000000000000000815250306200032e640100000000026401000000009004565b5050505033600d60006101000a81548173ffffffffffffffffffffffffffffffffffffffff021916908373ffffffffffffffffffffffffffffffffffffffff16021790555080600e60006101000a81548173ffffffffffffffffffffffffffffffffffffffff021916908373ffffffffffffffffffffffffffffffffffffffff1602179055505050505050620006a8565b6000826040516020018082805190602001908083835b6020831015156200036b578051825260208201915060208101905060208303925062000344565b6001836020036101000a0380198251168184511680821785525050505050509050019150506040516020818303038152906040526040518082805190602001908083835b602083101515620003d65780518252602082019150602081019050602083039250620003af565b6001836020036101000a038019825116818451168082178552505050505050905001915050604051809103902090506000809054906101000a900473ffffffffffffffffffffffffffffffffffffffff1673ffffffffffffffffffffffffffffffffffffffff166329965a1d3083856040518463ffffffff167c0100000000000000000000000000000000000000000000000000000000028152600401808473ffffffffffffffffffffffffffffffffffffffff1673ffffffffffffffffffffffffffffffffffffffff16815260200183600019166000191681526020018273ffffffffffffffffffffffffffffffffffffffff1673ffffffffffffffffffffffffffffffffffffffff1681526020019350505050600060405180830381600087803b1580156200050657600080fd5b505af11580156200051b573d6000803e3d6000fd5b50505050505050565b828054600181600116156101000203166002900490600052602060002090601f016020900481019282601f106200056757805160ff191683800117855562000598565b8280016001018555821562000598579182015b82811115620005975782518255916020019190600101906200057a565b5b509050620005a791906200063a565b5090565b82805482825590600052602060002090810192821562000627579160200282015b82811115620006265782518260006101000a81548173ffffffffffffffffffffffffffffffffffffffff021916908373ffffffffffffffffffffffffffffffffffffffff16021790555091602001919060010190620005cc565b5b50905062000636919062000662565b5090565b6200065f91905b808211156200065b57600081600090555060010162000641565b5090565b90565b620006a591905b80821115620006a157600081816101000a81549073ffffffffffffffffffffffffffffffffffffffff02191690555060010162000669565b5090565b90565b612f5580620006b86000396000f30060806040526004361061013e576000357c0100000000000000000000000000000000000000000000000000000000900463ffffffff16806306e485381461014357806306fdde03146101af578063070c87f91461023f578063095ea7b31461025657806318160ddd146102bb57806323b872dd146102e6578063313ce5671461036b578063556f0dc71461039c57806362ad1b83146103c757806370a08231146104c0578063715018a6146105175780638da5cb5b1461052e57806394d008ef14610585578063959b8c3f1461061857806395d89b411461065b5780639bd9bbc6146106eb578063a9059cbb1461077e578063d95b6371146107e3578063dd62ed3e1461085e578063f2fde38b146108d5578063f922f21614610918578063fad8b32a1461092f578063fc673c4f14610972578063fe9d930314610a4b575b600080fd5b34801561014f57600080fd5b50610158610abe565b6040518080602001828103825283818151815260200191508051906020019060200280838360005b8381101561019b578082015181840152602081019050610180565b505050509050019250505060405180910390f35b3480156101bb57600080fd5b506101c4610b4c565b6040518080602001828103825283818151815260200191508051906020019080838360005b838110156102045780820151818401526020810190506101e9565b50505050905090810190601f1680156102315780820380516001836020036101000a031916815260200191505b509250505060405180910390f35b34801561024b57600080fd5b50610254610bee565b005b34801561026257600080fd5b506102a1600480360381019080803573ffffffffffffffffffffffffffffffffffffffff16906020019092919080359060200190929190505050610ca6565b604051808215151515815260200191505060405180910390f35b3480156102c757600080fd5b506102d0610db3565b6040518082815260200191505060405180910390f35b3480156102f257600080fd5b50610351600480360381019080803573ffffffffffffffffffffffffffffffffffffffff169060200190929190803573ffffffffffffffffffffffffffffffffffffffff16906020019092919080359060200190929190505050610dbd565b604051808215151515815260200191505060405180910390f35b34801561037757600080fd5b50610380610faf565b604051808260ff1660ff16815260200191505060405180910390f35b3480156103a857600080fd5b506103b1610fd3565b6040518082815260200191505060405180910390f35b3480156103d357600080fd5b506104be600480360381019080803573ffffffffffffffffffffffffffffffffffffffff169060200190929190803573ffffffffffffffffffffffffffffffffffffffff16906020019092919080359060200190929190803590602001908201803590602001908080601f0160208091040260200160405190810160405280939291908181526020018383808284378201915050505050509192919290803590602001908201803590602001908080601f0160208091040260200160405190810160405280939291908181526020018383808284378201915050505050509192919290505050610fdd565b005b3480156104cc57600080fd5b50610501600480360381019080803573ffffffffffffffffffffffffffffffffffffffff169060200190929190505050611009565b6040518082815260200191505060405180910390f35b34801561052357600080fd5b5061052c611052565b005b34801561053a57600080fd5b50610543611157565b604051808273ffffffffffffffffffffffffffffffffffffffff1673ffffffffffffffffffffffffffffffffffffffff16815260200191505060405180910390f35b34801561059157600080fd5b50610616600480360381019080803573ffffffffffffffffffffffffffffffffffffffff16906020019092919080359060200190929190803590602001908201803590602001908080601f016020809104026020016040519081016040528093929190818152602001838380828437820191505050505050919291929050505061117d565b005b34801561062457600080fd5b50610659600480360381019080803573ffffffffffffffffffffffffffffffffffffffff1690602001909291905050506113f0565b005b34801561066757600080fd5b5061067061160a565b6040518080602001828103825283818151815260200191508051906020019080838360005b838110156106b0578082015181840152602081019050610695565b50505050905090810190601f1680156106dd5780820380516001836020036101000a031916815260200191505b509250505060405180910390f35b3480156106f757600080fd5b5061077c600480360381019080803573ffffffffffffffffffffffffffffffffffffffff16906020019092919080359060200190929190803590602001908201803590602001908080601f01602080910402602001604051908101604052809392919081815260200183838082843782019150505050505091929192905050506116ac565b005b34801561078a57600080fd5b506107c9600480360381019080803573ffffffffffffffffffffffffffffffffffffffff169060200190929190803590602001909291905050506116d1565b604051808215151515815260200191505060405180910390f35b3480156107ef57600080fd5b50610844600480360381019080803573ffffffffffffffffffffffffffffffffffffffff169060200190929190803573ffffffffffffffffffffffffffffffffffffffff169060200190929190505050611728565b604051808215151515815260200191505060405180910390f35b34801561086a57600080fd5b506108bf600480360381019080803573ffffffffffffffffffffffffffffffffffffffff169060200190929190803573ffffffffffffffffffffffffffffffffffffffff1690602001909291905050506118d9565b6040518082815260200191505060405180910390f35b3480156108e157600080fd5b50610916600480360381019080803573ffffffffffffffffffffffffffffffffffffffff16906020019092919050505061197b565b005b34801561092457600080fd5b5061092d6119e3565b005b34801561093b57600080fd5b50610970600480360381019080803573ffffffffffffffffffffffffffffffffffffffff169060200190929190505050611a9c565b005b34801561097e57600080fd5b50610a49600480360381019080803573ffffffffffffffffffffffffffffffffffffffff16906020019092919080359060200190929190803590602001908201803590602001908080601f0160208091040260200160405190810160405280939291908181526020018383808284378201915050505050509192919290803590602001908201803590602001908080601f0160208091040260200160405190810160405280939291908181526020018383808284378201915050505050509192919290505050611cb6565b005b348015610a5757600080fd5b50610abc60048036038101908080359060200190929190803590602001908201803590602001908080601f0160208091040260200160405190810160405280939291908181526020018383808284378201915050505050509192919290505050611d24565b005b60606007805480602002602001604051908101604052809291908181526020018280548015610b4257602002820191906000526020600020905b8160009054906101000a900473ffffffffffffffffffffffffffffffffffffffff1673ffffffffffffffffffffffffffffffffffffffff1681526020019060010190808311610af8575b5050505050905090565b606060018054600181600116156101000203166002900480601f016020809104026020016040519081016040528092919081815260200182805460018160011615610100020316600290048015610be45780601f10610bb957610100808354040283529160200191610be4565b820191906000526020600020905b815481529060010190602001808311610bc757829003601f168201915b5050505050905090565b600d60009054906101000a900473ffffffffffffffffffffffffffffffffffffffff1673ffffffffffffffffffffffffffffffffffffffff163373ffffffffffffffffffffffffffffffffffffffff16141515610c4a57600080fd5b6001600a60006101000a81548160ff021916908315150217905550610ca46040805190810160405280600a81526020017f4552433230546f6b656e0000000000000000000000000000000000000000000081525030611d8e565b565b6000600a60009054906101000a900460ff161515610cc357600080fd5b81600c60003373ffffffffffffffffffffffffffffffffffffffff1673ffffffffffffffffffffffffffffffffffffffff16815260200190815260200160002060008573ffffffffffffffffffffffffffffffffffffffff1673ffffffffffffffffffffffffffffffffffffffff168152602001908152602001600020819055508273ffffffffffffffffffffffffffffffffffffffff163373ffffffffffffffffffffffffffffffffffffffff167f8c5be1e5ebec7d5bd14f71427d1e84f3dd0314c0f7b2291e5b200ac8c7c3b925846040518082815260200191505060405180910390a36001905092915050565b6000600454905090565b6000600a60009054906101000a900460ff161515610dda57600080fd5b600c60008573ffffffffffffffffffffffffffffffffffffffff1673ffffffffffffffffffffffffffffffffffffffff16815260200190815260200160002060003373ffffffffffffffffffffffffffffffffffffffff1673ffffffffffffffffffffffffffffffffffffffff168152602001908152602001600020548211151515610e6557600080fd5b610ef482600c60008773ffffffffffffffffffffffffffffffffffffffff1673ffffffffffffffffffffffffffffffffffffffff16815260200190815260200160002060003373ffffffffffffffffffffffffffffffffffffffff1673ffffffffffffffffffffffffffffffffffffffff16815260200190815260200160002054611f7e90919063ffffffff16565b600c60008673ffffffffffffffffffffffffffffffffffffffff1673ffffffffffffffffffffffffffffffffffffffff16815260200190815260200160002060003373ffffffffffffffffffffffffffffffffffffffff1673ffffffffffffffffffffffffffffffffffffffff16815260200190815260200160002081905550610fa433858585602060405190810160405280600081525060206040519081016040528060008152506000611f9f565b600190509392505050565b6000600a60009054906101000a900460ff161515610fcc57600080fd5b6012905090565b6000600354905090565b610fe73386611728565b1515610ff257600080fd5b6110023386868686866001611f9f565b5050505050565b6000600560008373ffffffffffffffffffffffffffffffffffffffff1673ffffffffffffffffffffffffffffffffffffffff168152602001908152602001600020549050919050565b600d60009054906101000a900473ffffffffffffffffffffffffffffffffffffffff1673ffffffffffffffffffffffffffffffffffffffff163373ffffffffffffffffffffffffffffffffffffffff161415156110ae57600080fd5b600d60009054906101000a900473ffffffffffffffffffffffffffffffffffffffff1673ffffffffffffffffffffffffffffffffffffffff167ff8df31144d9c2f0f6b59d69b8b98abd5459d07f2742c4df920b25aae33c6482060405160405180910390a26000600d60006101000a81548173ffffffffffffffffffffffffffffffffffffffff021916908373ffffffffffffffffffffffffffffffffffffffff160217905550565b600d60009054906101000a900473ffffffffffffffffffffffffffffffffffffffff1681565b600d60009054906101000a900473ffffffffffffffffffffffffffffffffffffffff1673ffffffffffffffffffffffffffffffffffffffff163373ffffffffffffffffffffffffffffffffffffffff161415156111d957600080fd5b6111e282612032565b6111f78260045461206b90919063ffffffff16565b60048190555061124f82600560008673ffffffffffffffffffffffffffffffffffffffff1673ffffffffffffffffffffffffffffffffffffffff1681526020019081526020016000205461206b90919063ffffffff16565b600560008573ffffffffffffffffffffffffffffffffffffffff1673ffffffffffffffffffffffffffffffffffffffff168152602001908152602001600020819055506112b33360008585602060405190810160405280600081525086600161208c565b8273ffffffffffffffffffffffffffffffffffffffff163373ffffffffffffffffffffffffffffffffffffffff167fbcd28e05e57d4bcd5bfcc92a4661d412893e6112c44a2e25d96cfdfc30d5f22e84846040518083815260200180602001828103825283818151815260200191508051906020019080838360005b8381101561134a57808201518184015260208101905061132f565b50505050905090810190601f1680156113775780820380516001836020036101000a031916815260200191505b50935050505060405180910390a3600a60009054906101000a900460ff16156113eb578273ffffffffffffffffffffffffffffffffffffffff1660007fddf252ad1be2c89b69c2b068fc378daa952ba7f163c4a11628f55a4df523b3ef846040518082815260200191505060405180910390a35b505050565b3373ffffffffffffffffffffffffffffffffffffffff168173ffffffffffffffffffffffffffffffffffffffff161415151561142b57600080fd5b600860008273ffffffffffffffffffffffffffffffffffffffff1673ffffffffffffffffffffffffffffffffffffffff16815260200190815260200160002060009054906101000a900460ff1615611517576000600960008373ffffffffffffffffffffffffffffffffffffffff1673ffffffffffffffffffffffffffffffffffffffff16815260200190815260200160002060003373ffffffffffffffffffffffffffffffffffffffff1673ffffffffffffffffffffffffffffffffffffffff16815260200190815260200160002060006101000a81548160ff0219169083151502179055506115ad565b6001600660008373ffffffffffffffffffffffffffffffffffffffff1673ffffffffffffffffffffffffffffffffffffffff16815260200190815260200160002060003373ffffffffffffffffffffffffffffffffffffffff1673ffffffffffffffffffffffffffffffffffffffff16815260200190815260200160002060006101000a81548160ff0219169083151502179055505b3373ffffffffffffffffffffffffffffffffffffffff168173ffffffffffffffffffffffffffffffffffffffff167ff4caeb2d6ca8932a215a353d0703c326ec2d81fc68170f320eb2ab49e9df61f960405160405180910390a350565b606060028054600181600116156101000203166002900480601f0160208091040260200160405190810160405280929190818152602001828054600181600116156101000203166002900480156116a25780601f10611677576101008083540402835291602001916116a2565b820191906000526020600020905b81548152906001019060200180831161168557829003601f168201915b5050505050905090565b6116cc333385858560206040519081016040528060008152506001611f9f565b505050565b6000600a60009054906101000a900460ff1615156116ee57600080fd5b61171e33338585602060405190810160405280600081525060206040519081016040528060008152506000611f9f565b6001905092915050565b60008173ffffffffffffffffffffffffffffffffffffffff168373ffffffffffffffffffffffffffffffffffffffff1614806117ea5750600660008473ffffffffffffffffffffffffffffffffffffffff1673ffffffffffffffffffffffffffffffffffffffff16815260200190815260200160002060008373ffffffffffffffffffffffffffffffffffffffff1673ffffffffffffffffffffffffffffffffffffffff16815260200190815260200160002060009054906101000a900460ff165b806118d15750600860008473ffffffffffffffffffffffffffffffffffffffff1673ffffffffffffffffffffffffffffffffffffffff16815260200190815260200160002060009054906101000a900460ff1680156118d05750600960008473ffffffffffffffffffffffffffffffffffffffff1673ffffffffffffffffffffffffffffffffffffffff16815260200190815260200160002060008373ffffffffffffffffffffffffffffffffffffffff1673ffffffffffffffffffffffffffffffffffffffff16815260200190815260200160002060009054906101000a900460ff16155b5b905092915050565b6000600a60009054906101000a900460ff1615156118f657600080fd5b600c60008473ffffffffffffffffffffffffffffffffffffffff1673ffffffffffffffffffffffffffffffffffffffff16815260200190815260200160002060008373ffffffffffffffffffffffffffffffffffffffff1673ffffffffffffffffffffffffffffffffffffffff16815260200190815260200160002054905092915050565b600d60009054906101000a900473ffffffffffffffffffffffffffffffffffffffff1673ffffffffffffffffffffffffffffffffffffffff163373ffffffffffffffffffffffffffffffffffffffff161415156119d757600080fd5b6119e081612316565b50565b600d60009054906101000a900473ffffffffffffffffffffffffffffffffffffffff1673ffffffffffffffffffffffffffffffffffffffff163373ffffffffffffffffffffffffffffffffffffffff16141515611a3f57600080fd5b6000600a60006101000a81548160ff021916908315150217905550611a9a6040805190810160405280600a81526020017f4552433230546f6b656e000000000000000000000000000000000000000000008152506000611d8e565b565b3373ffffffffffffffffffffffffffffffffffffffff168173ffffffffffffffffffffffffffffffffffffffff1614151515611ad757600080fd5b600860008273ffffffffffffffffffffffffffffffffffffffff1673ffffffffffffffffffffffffffffffffffffffff16815260200190815260200160002060009054906101000a900460ff1615611bc3576001600960008373ffffffffffffffffffffffffffffffffffffffff1673ffffffffffffffffffffffffffffffffffffffff16815260200190815260200160002060003373ffffffffffffffffffffffffffffffffffffffff1673ffffffffffffffffffffffffffffffffffffffff16815260200190815260200160002060006101000a81548160ff021916908315150217905550611c59565b6000600660008373ffffffffffffffffffffffffffffffffffffffff1673ffffffffffffffffffffffffffffffffffffffff16815260200190815260200160002060003373ffffffffffffffffffffffffffffffffffffffff1673ffffffffffffffffffffffffffffffffffffffff16815260200190815260200160002060006101000a81548160ff0219169083151502179055505b3373ffffffffffffffffffffffffffffffffffffffff168173ffffffffffffffffffffffffffffffffffffffff167f50546e66e5f44d728365dc3908c63bc5cfeeab470722c1677e3073a6ac294aa160405160405180910390a350565b600e60009054906101000a900473ffffffffffffffffffffffffffffffffffffffff1673ffffffffffffffffffffffffffffffffffffffff163373ffffffffffffffffffffffffffffffffffffffff16141515611d1257600080fd5b611d1e84848484612412565b50505050565b600d60009054906101000a900473ffffffffffffffffffffffffffffffffffffffff1673ffffffffffffffffffffffffffffffffffffffff163373ffffffffffffffffffffffffffffffffffffffff16141515611d8057600080fd5b611d8a828261243a565b5050565b6000826040516020018082805190602001908083835b602083101515611dc95780518252602082019150602081019050602083039250611da4565b6001836020036101000a0380198251168184511680821785525050505050509050019150506040516020818303038152906040526040518082805190602001908083835b602083101515611e325780518252602082019150602081019050602083039250611e0d565b6001836020036101000a038019825116818451168082178552505050505050905001915050604051809103902090506000809054906101000a900473ffffffffffffffffffffffffffffffffffffffff1673ffffffffffffffffffffffffffffffffffffffff166329965a1d3083856040518463ffffffff167c0100000000000000000000000000000000000000000000000000000000028152600401808473ffffffffffffffffffffffffffffffffffffffff1673ffffffffffffffffffffffffffffffffffffffff16815260200183600019166000191681526020018273ffffffffffffffffffffffffffffffffffffffff1673ffffffffffffffffffffffffffffffffffffffff1681526020019350505050600060405180830381600087803b158015611f6157600080fd5b505af1158015611f75573d6000803e3d6000fd5b50505050505050565b600080838311151515611f9057600080fd5b82840390508091505092915050565b611fae8787878787878761245b565b600a60009054906101000a900460ff1615612029578473ffffffffffffffffffffffffffffffffffffffff168673ffffffffffffffffffffffffffffffffffffffff167fddf252ad1be2c89b69c2b068fc378daa952ba7f163c4a11628f55a4df523b3ef866040518082815260200191505060405180910390a35b50505050505050565b8061205c60035461204e6003548561279490919063ffffffff16565b6127be90919063ffffffff16565b14151561206857600080fd5b50565b600080828401905083811015151561208257600080fd5b8091505092915050565b60006120cd866040805190810160405280601581526020017f455243373737546f6b656e73526563697069656e7400000000000000000000008152506127fc565b905060008173ffffffffffffffffffffffffffffffffffffffff161415156122f0578073ffffffffffffffffffffffffffffffffffffffff166223de298989898989896040518763ffffffff167c0100000000000000000000000000000000000000000000000000000000028152600401808773ffffffffffffffffffffffffffffffffffffffff1673ffffffffffffffffffffffffffffffffffffffff1681526020018673ffffffffffffffffffffffffffffffffffffffff1673ffffffffffffffffffffffffffffffffffffffff1681526020018573ffffffffffffffffffffffffffffffffffffffff1673ffffffffffffffffffffffffffffffffffffffff1681526020018481526020018060200180602001838103835285818151815260200191508051906020019080838360005b8381101561221b578082015181840152602081019050612200565b50505050905090810190601f1680156122485780820380516001836020036101000a031916815260200191505b50838103825284818151815260200191508051906020019080838360005b83811015612281578082015181840152602081019050612266565b50505050905090810190601f1680156122ae5780820380516001836020036101000a031916815260200191505b5098505050505050505050600060405180830381600087803b1580156122d357600080fd5b505af11580156122e7573d6000803e3d6000fd5b5050505061230c565b811561230b576122ff866129e0565b151561230a57600080fd5b5b5b5050505050505050565b600073ffffffffffffffffffffffffffffffffffffffff168173ffffffffffffffffffffffffffffffffffffffff161415151561235257600080fd5b8073ffffffffffffffffffffffffffffffffffffffff16600d60009054906101000a900473ffffffffffffffffffffffffffffffffffffffff1673ffffffffffffffffffffffffffffffffffffffff167f8be0079c531659141344cd1fd0a4f28419497f9722a3daafe3b4186f6b6457e060405160405180910390a380600d60006101000a81548173ffffffffffffffffffffffffffffffffffffffff021916908373ffffffffffffffffffffffffffffffffffffffff16021790555050565b61241c3385611728565b151561242757600080fd5b6124343385858585612a1c565b50505050565b612457333384846020604051908101604052806000815250612a1c565b5050565b61246484612032565b612472878787878787612a96565b600073ffffffffffffffffffffffffffffffffffffffff168573ffffffffffffffffffffffffffffffffffffffff16141515156124ae57600080fd5b83600560008873ffffffffffffffffffffffffffffffffffffffff1673ffffffffffffffffffffffffffffffffffffffff16815260200190815260200160002054101515156124fc57600080fd5b61254e84600560008973ffffffffffffffffffffffffffffffffffffffff1673ffffffffffffffffffffffffffffffffffffffff16815260200190815260200160002054611f7e90919063ffffffff16565b600560008873ffffffffffffffffffffffffffffffffffffffff1673ffffffffffffffffffffffffffffffffffffffff168152602001908152602001600020819055506125e384600560008873ffffffffffffffffffffffffffffffffffffffff1673ffffffffffffffffffffffffffffffffffffffff1681526020019081526020016000205461206b90919063ffffffff16565b600560008773ffffffffffffffffffffffffffffffffffffffff1673ffffffffffffffffffffffffffffffffffffffff168152602001908152602001600020819055506126358787878787878761208c565b8473ffffffffffffffffffffffffffffffffffffffff168673ffffffffffffffffffffffffffffffffffffffff168873ffffffffffffffffffffffffffffffffffffffff167f06b541ddaa720db2b10a4d0cdac39b8d360425fc073085fac19bc82614677987878787604051808481526020018060200180602001838103835285818151815260200191508051906020019080838360005b838110156126e85780820151818401526020810190506126cd565b50505050905090810190601f1680156127155780820380516001836020036101000a031916815260200191505b50838103825284818151815260200191508051906020019080838360005b8381101561274e578082015181840152602081019050612733565b50505050905090810190601f16801561277b5780820380516001836020036101000a031916815260200191505b509550505050505060405180910390a450505050505050565b6000806000831115156127a657600080fd5b82848115156127b157fe5b0490508091505092915050565b60008060008414156127d357600091506127f5565b82840290508284828115156127e457fe5b041415156127f157600080fd5b8091505b5092915050565b600080826040516020018082805190602001908083835b6020831015156128385780518252602082019150602081019050602083039250612813565b6001836020036101000a0380198251168184511680821785525050505050509050019150506040516020818303038152906040526040518082805190602001908083835b6020831015156128a1578051825260208201915060208101905060208303925061287c565b6001836020036101000a038019825116818451168082178552505050505050905001915050604051809103902090506000809054906101000a900473ffffffffffffffffffffffffffffffffffffffff1673ffffffffffffffffffffffffffffffffffffffff1663aabbb8ca85836040518363ffffffff167c0100000000000000000000000000000000000000000000000000000000028152600401808373ffffffffffffffffffffffffffffffffffffffff1673ffffffffffffffffffffffffffffffffffffffff168152602001826000191660001916815260200192505050602060405180830381600087803b15801561299c57600080fd5b505af11580156129b0573d6000803e3d6000fd5b505050506040513d60208110156129c657600080fd5b810190808051906020019092919050505091505092915050565b60008060008373ffffffffffffffffffffffffffffffffffffffff161415612a0b5760009150612a16565b823b90506000811491505b50919050565b612a298585858585612d04565b600a60009054906101000a900460ff1615612a8f5760008473ffffffffffffffffffffffffffffffffffffffff167fddf252ad1be2c89b69c2b068fc378daa952ba7f163c4a11628f55a4df523b3ef856040518082815260200191505060405180910390a35b5050505050565b6000612ad7866040805190810160405280601281526020017f455243373737546f6b656e7353656e64657200000000000000000000000000008152506127fc565b905060008173ffffffffffffffffffffffffffffffffffffffff161415612afd57612cfb565b8073ffffffffffffffffffffffffffffffffffffffff166375ab97828888888888886040518763ffffffff167c0100000000000000000000000000000000000000000000000000000000028152600401808773ffffffffffffffffffffffffffffffffffffffff1673ffffffffffffffffffffffffffffffffffffffff1681526020018673ffffffffffffffffffffffffffffffffffffffff1673ffffffffffffffffffffffffffffffffffffffff1681526020018573ffffffffffffffffffffffffffffffffffffffff1673ffffffffffffffffffffffffffffffffffffffff1681526020018481526020018060200180602001838103835285818151815260200191508051906020019080838360005b83811015612c2a578082015181840152602081019050612c0f565b50505050905090810190601f168015612c575780820380516001836020036101000a031916815260200191505b50838103825284818151815260200191508051906020019080838360005b83811015612c90578082015181840152602081019050612c75565b50505050905090810190601f168015612cbd5780820380516001836020036101000a031916815260200191505b5098505050505050505050600060405180830381600087803b158015612ce257600080fd5b505af1158015612cf6573d6000803e3d6000fd5b505050505b50505050505050565b612d0d83612032565b82612d1785611009565b10151515612d2457600080fd5b612d7683600560008773ffffffffffffffffffffffffffffffffffffffff1673ffffffffffffffffffffffffffffffffffffffff16815260200190815260200160002054611f7e90919063ffffffff16565b600560008673ffffffffffffffffffffffffffffffffffffffff1673ffffffffffffffffffffffffffffffffffffffff16815260200190815260200160002081905550612dce83600454611f7e90919063ffffffff16565b600481905550612de385856000868686612a96565b8373ffffffffffffffffffffffffffffffffffffffff168573ffffffffffffffffffffffffffffffffffffffff167fa78a9be3a7b862d26933ad85fb11d80ef66b8f972d7cbba06621d583943a4098858585604051808481526020018060200180602001838103835285818151815260200191508051906020019080838360005b83811015612e7f578082015181840152602081019050612e64565b50505050905090810190601f168015612eac5780820380516001836020036101000a031916815260200191505b50838103825284818151815260200191508051906020019080838360005b83811015612ee5578082015181840152602081019050612eca565b50505050905090810190601f168015612f125780820380516001836020036101000a031916815260200191505b509550505050505060405180910390a350505050505600a165627a7a72305820dc136adbd18f6eb06501689d68241a499b28459a9a130186319b6209a6cbc4100029",
  "source": "/* This Source Code Form is subject to the terms of the Mozilla Public\n* License, v. 2.0. If a copy of the MPL was not distributed with this\n* file, You can obtain one at http://mozilla.org/MPL/2.0/. */\n// pragma solidity 0.4.21;\n\n/// @title ERC777 ReferenceToken Contract\n/// @author Jordi Baylina, Jacques Dafflon\n/// @dev This token contract's goal is to give an example implementation\n///  of ERC777 with ERC20 compatiblity using the base ERC777 and ERC20\n///  implementations provided with the erc777 package.\n///  This contract does not define any standard, but can be taken as a reference\n///  implementation in case of any ambiguity into the standard\n\n\nimport { ERC777ERC20BaseToken } from \"../ERC777ERC20BaseToken.sol\";\nimport { Ownable } from \"../../../OpenZeppelin/openzeppelin-solidity/ownership/Ownable.sol\";\n\n\ncontract ReferenceToken is ERC777ERC20BaseToken, Ownable {\n\n    address private mBurnOperator;\n\n    function ReferenceToken(\n        string _name,\n        string _symbol,\n        uint256 _granularity,\n        address[] _defaultOperators,\n        address _burnOperator\n    ) public ERC777ERC20BaseToken(_name, _symbol, _granularity, _defaultOperators) {\n        mBurnOperator = _burnOperator;\n    }\n\n    /// @notice Disables the ERC20 interface. This function can only be called\n    ///  by the owner.\n    function disableERC20() public onlyOwner {\n        mErc20compatible = false;\n        setInterfaceImplementation(\"ERC20Token\", 0x0);\n    }\n\n    /// @notice Re enables the ERC20 interface. This function can only be called\n    ///  by the owner.\n    function enableERC20() public onlyOwner {\n        mErc20compatible = true;\n        setInterfaceImplementation(\"ERC20Token\", this);\n    }\n\n    /* -- Mint And Burn Functions (not part of the ERC777 standard, only the Events/tokensReceived call are) -- */\n    //\n    /// @notice Generates `_amount` tokens to be assigned to `_tokenHolder`\n    ///  Sample mint function to showcase the use of the `Minted` event and the logic to notify the recipient.\n    /// @param _tokenHolder The address that will be assigned the new tokens\n    /// @param _amount The quantity of tokens generated\n    /// @param _operatorData Data that will be passed to the recipient as a first transfer\n    function mint(address _tokenHolder, uint256 _amount, bytes _operatorData) public onlyOwner {\n        requireMultiple(_amount);\n        mTotalSupply = mTotalSupply.add(_amount);\n        mBalances[_tokenHolder] = mBalances[_tokenHolder].add(_amount);\n\n        callRecipient(msg.sender, 0x0, _tokenHolder, _amount, \"\", _operatorData, true);\n\n        Minted(msg.sender, _tokenHolder, _amount, _operatorData);\n        if (mErc20compatible) { Transfer(0x0, _tokenHolder, _amount); }\n    }\n\n    /// @notice Burns `_amount` tokens from `_tokenHolder`\n    ///  Silly example of overriding the `burn` function to only let the owner burn its tokens.\n    ///  Do not forget to override the `burn` function in your token contract if you want to prevent users from\n    ///  burning their tokens.\n    /// @param _amount The quantity of tokens to burn\n    function burn(uint256 _amount, bytes _holderData) public onlyOwner {\n        super.burn(_amount, _holderData);\n    }\n\n    /// @notice Burns `_amount` tokens from `_tokenHolder` by `_operator`\n    ///  Silly example of overriding the `operatorBurn` function to only let a specific operator burn tokens.\n    ///  Do not forget to override the `operatorBurn` function in your token contract if you want to prevent users from\n    ///  burning their tokens.\n    /// @param _tokenHolder The address that will lose the tokens\n    /// @param _amount The quantity of tokens to burn\n    function operatorBurn(address _tokenHolder, uint256 _amount, bytes _holderData, bytes _operatorData) public {\n        require(msg.sender == mBurnOperator);\n        super.operatorBurn(_tokenHolder, _amount, _holderData, _operatorData);\n    }\n}\n",
  "sourcePath": "/home/liweibo/code/solidity/contracts_library/contracts_library/channel-gravy-token/contracts/jacquesd/ERC777/examples/ReferenceToken.sol",
  "compiler": {
    "name": "solc",
    "version": "0.4.24+commit.e67f0147.Emscripten.clang"
  },
  "schemaVersion": "2.0.1",
  "updatedAt": "2018-08-14T06:52:16.478Z"
}