{
  "contractName": "ReplicatorB",
  "abi": [
    {
      "constant": false,
      "inputs": [],
      "name": "Replicator",
      "outputs": [],
      "payable": false,
      "stateMutability": "nonpayable",
      "type": "function"
    },
    {
      "constant": true,
      "inputs": [],
      "name": "getBlockCreatedOn",
      "outputs": [
        {
          "name": "",
          "type": "uint256"
        }
      ],
      "payable": false,
      "stateMutability": "view",
      "type": "function"
    },
    {
      "constant": false,
      "inputs": [],
      "name": "kill",
      "outputs": [],
      "payable": false,
      "stateMutability": "nonpayable",
      "type": "function"
    }
  ],
  "bytecode": "0x608060405234801561001057600080fd5b506101c5806100206000396000f300608060405260043610610057576000357c0100000000000000000000000000000000000000000000000000000000900463ffffffff16806341c0e1b51461005c5780637096177414610073578063a15afb481461009e575b600080fd5b34801561006857600080fd5b506100716100b5565b005b34801561007f57600080fd5b50610088610146565b6040518082815260200191505060405180910390f35b3480156100aa57600080fd5b506100b3610150565b005b6000809054906101000a900473ffffffffffffffffffffffffffffffffffffffff1673ffffffffffffffffffffffffffffffffffffffff163373ffffffffffffffffffffffffffffffffffffffff161415610144576000809054906101000a900473ffffffffffffffffffffffffffffffffffffffff1673ffffffffffffffffffffffffffffffffffffffff16ff5b565b6000600154905090565b336000806101000a81548173ffffffffffffffffffffffffffffffffffffffff021916908373ffffffffffffffffffffffffffffffffffffffff160217905550436001819055505600a165627a7a723058207275fa0a92d0e84a50ddd1aadd5e253f33f90909b4bddb80061072c02ed4ebc50029",
  "source": "\ncontract ReplicatorB {\n\n    address creator;\n    uint blockCreatedOn;\n\n    function Replicator() \n    {\n        creator = msg.sender;\n       // next = new ReplicatorA();    // Replicator B can't instantiate A because it doesn't yet know about A\n       \t\t\t\t\t\t\t\t   // At the time of this writing (Sept 2015), It's impossible to create cyclical relationships\n       \t\t\t\t\t\t\t\t   // either with self-replicating contracts or A-B-A-B \n        blockCreatedOn = block.number;\n    }\n\t\n\tfunction getBlockCreatedOn() constant returns (uint)\n\t{\n\t\treturn blockCreatedOn;\n\t}\n\t\n    /**********\n     Standard kill() function to recover funds \n     **********/\n    \n    function kill()\n    { \n        if (msg.sender == creator)\n        {\n            suicide(creator);  // kills this contract and sends remaining funds back to creator\n        }\n    }\n}",
  "sourcePath": "/home/liweibo/code/solidity/contracts_library/contracts_library/channel-gravy-token/contracts/fivedogit/solidity-baby-steps/contracts/ReplicatorB.sol",
  "compiler": {
    "name": "solc",
    "version": "0.4.24+commit.e67f0147.Emscripten.clang"
  },
  "schemaVersion": "2.0.1",
  "updatedAt": "2018-08-14T06:52:45.258Z"
}