{
  "contractName": "ReplicatorA",
  "abi": [
    {
      "constant": false,
      "inputs": [],
      "name": "Replicator",
      "outputs": [],
      "payable": false,
      "stateMutability": "nonpayable",
      "type": "function"
    },
    {
      "constant": true,
      "inputs": [],
      "name": "getBAddress",
      "outputs": [
        {
          "name": "",
          "type": "address"
        }
      ],
      "payable": false,
      "stateMutability": "view",
      "type": "function"
    },
    {
      "constant": true,
      "inputs": [],
      "name": "getBlockCreatedOn",
      "outputs": [
        {
          "name": "",
          "type": "uint256"
        }
      ],
      "payable": false,
      "stateMutability": "view",
      "type": "function"
    },
    {
      "constant": false,
      "inputs": [],
      "name": "kill",
      "outputs": [],
      "payable": false,
      "stateMutability": "nonpayable",
      "type": "function"
    }
  ],
  "bytecode": "0x608060405234801561001057600080fd5b506104ab806100206000396000f300608060405260043610610062576000357c0100000000000000000000000000000000000000000000000000000000900463ffffffff16806319a278b91461006757806341c0e1b5146100be57806370961774146100d5578063a15afb4814610100575b600080fd5b34801561007357600080fd5b5061007c610117565b604051808273ffffffffffffffffffffffffffffffffffffffff1673ffffffffffffffffffffffffffffffffffffffff16815260200191505060405180910390f35b3480156100ca57600080fd5b506100d3610141565b005b3480156100e157600080fd5b506100ea6101d2565b6040518082815260200191505060405180910390f35b34801561010c57600080fd5b506101156101dc565b005b6000600160009054906101000a900473ffffffffffffffffffffffffffffffffffffffff16905090565b6000809054906101000a900473ffffffffffffffffffffffffffffffffffffffff1673ffffffffffffffffffffffffffffffffffffffff163373ffffffffffffffffffffffffffffffffffffffff1614156101d0576000809054906101000a900473ffffffffffffffffffffffffffffffffffffffff1673ffffffffffffffffffffffffffffffffffffffff16ff5b565b6000600254905090565b336000806101000a81548173ffffffffffffffffffffffffffffffffffffffff021916908373ffffffffffffffffffffffffffffffffffffffff16021790555061022461028a565b604051809103906000f080158015610240573d6000803e3d6000fd5b50600160006101000a81548173ffffffffffffffffffffffffffffffffffffffff021916908373ffffffffffffffffffffffffffffffffffffffff16021790555043600281905550565b6040516101e58061029b833901905600608060405234801561001057600080fd5b506101c5806100206000396000f300608060405260043610610057576000357c0100000000000000000000000000000000000000000000000000000000900463ffffffff16806341c0e1b51461005c5780637096177414610073578063a15afb481461009e575b600080fd5b34801561006857600080fd5b506100716100b5565b005b34801561007f57600080fd5b50610088610146565b6040518082815260200191505060405180910390f35b3480156100aa57600080fd5b506100b3610150565b005b6000809054906101000a900473ffffffffffffffffffffffffffffffffffffffff1673ffffffffffffffffffffffffffffffffffffffff163373ffffffffffffffffffffffffffffffffffffffff161415610144576000809054906101000a900473ffffffffffffffffffffffffffffffffffffffff1673ffffffffffffffffffffffffffffffffffffffff16ff5b565b6000600154905090565b336000806101000a81548173ffffffffffffffffffffffffffffffffffffffff021916908373ffffffffffffffffffffffffffffffffffffffff160217905550436001819055505600a165627a7a723058207275fa0a92d0e84a50ddd1aadd5e253f33f90909b4bddb80061072c02ed4ebc50029a165627a7a723058202b8b7705c2922c6f53b2b254deecf13e1c727a9dd1511982c76f074a392530330029",
  "source": "import './ReplicatorB.sol';\n\ncontract ReplicatorA {\n\n    address creator;\n\taddress baddress;\n\tuint blockCreatedOn;\n\n    function Replicator() \n    {\n        creator = msg.sender;\n        baddress = new ReplicatorB();\t\t // This works just fine because A already knows about B\n        blockCreatedOn = block.number;\n    }\n\n\tfunction getBAddress() constant returns (address)\n\t{\n\t\treturn baddress;\n\t}\n\t\n\tfunction getBlockCreatedOn() constant returns (uint)\n\t{\n\t\treturn blockCreatedOn;\n\t}\n\t\n    /**********\n     Standard kill() function to recover funds \n     **********/\n    \n    function kill()\n    { \n        if (msg.sender == creator)\n        {\n            suicide(creator);  // kills this contract and sends remaining funds back to creator\n        }\n    }\n}\n",
  "sourcePath": "/home/liweibo/code/solidity/contracts_library/contracts_library/channel-gravy-token/contracts/fivedogit/solidity-baby-steps/contracts/ReplicatorA.sol",
  "compiler": {
    "name": "solc",
    "version": "0.4.24+commit.e67f0147.Emscripten.clang"
  },
  "schemaVersion": "2.0.1",
  "updatedAt": "2018-08-14T06:52:45.259Z"
}