{
  "contractName": "StateModifiers",
  "abi": [
    {
      "constant": false,
      "inputs": [],
      "name": "stateAccess",
      "outputs": [
        {
          "name": "",
          "type": "uint256"
        }
      ],
      "payable": false,
      "stateMutability": "nonpayable",
      "type": "function"
    },
    {
      "constant": true,
      "inputs": [],
      "name": "constantAccess",
      "outputs": [
        {
          "name": "",
          "type": "uint256"
        }
      ],
      "payable": false,
      "stateMutability": "view",
      "type": "function"
    },
    {
      "constant": true,
      "inputs": [],
      "name": "viewAccess",
      "outputs": [
        {
          "name": "",
          "type": "uint256"
        }
      ],
      "payable": false,
      "stateMutability": "view",
      "type": "function"
    },
    {
      "constant": true,
      "inputs": [],
      "name": "pureAccess",
      "outputs": [
        {
          "name": "",
          "type": "uint256"
        }
      ],
      "payable": false,
      "stateMutability": "pure",
      "type": "function"
    }
  ],
  "bytecode": "0x608060405234801561001057600080fd5b5061016b806100206000396000f300608060405260043610610062576000357c0100000000000000000000000000000000000000000000000000000000900463ffffffff168063387766bc1461006757806384799b0d1461009257806398f053c4146100bd578063ae2c2d9c146100e8575b600080fd5b34801561007357600080fd5b5061007c610113565b6040518082815260200191505060405180910390f35b34801561009e57600080fd5b506100a761011b565b6040518082815260200191505060405180910390f35b3480156100c957600080fd5b506100d2610124565b6040518082815260200191505060405180910390f35b3480156100f457600080fd5b506100fd610136565b6040518082815260200191505060405180910390f35b600043905090565b60008054905090565b6000600a600081905550600054905090565b600060379050905600a165627a7a723058207f046dcb7db2d002f92315289169dc5201ecd4b3dad27a5fa6d19dcee15911ac0029",
  "source": "pragma solidity ^0.4.0;\n\ncontract StateModifiers {\n    uint private constant varConstantValue = 55;\n    uint private stateValue;\n    \n    function stateAccess() public returns (uint) {\n        stateValue = 10;\n        return stateValue;\n    }\n    \n    function constantAccess() public constant returns (uint) {\n        return block.number;\n    }\n    \n    function viewAccess() public view returns (uint) {\n        return stateValue;\n    }\n    \n    function pureAccess() public pure returns (uint) {\n        return varConstantValue;\n    }\n}",
  "sourcePath": "/home/liweibo/code/solidity/contracts_library/contracts_library/channel-gravy-token/contracts/willitscale/learning-solidity/tutorial-23/StateModifiers.sol",
  "compiler": {
    "name": "solc",
    "version": "0.4.24+commit.e67f0147.Emscripten.clang"
  },
  "schemaVersion": "2.0.1",
  "updatedAt": "2018-08-14T06:52:45.238Z"
}