{
  "contractName": "StructAndForLoopTester",
  "abi": [
    {
      "inputs": [],
      "payable": false,
      "stateMutability": "nonpayable",
      "type": "constructor"
    },
    {
      "constant": true,
      "inputs": [
        {
          "name": "x",
          "type": "uint8"
        },
        {
          "name": "y",
          "type": "uint8"
        }
      ],
      "name": "getElevation",
      "outputs": [
        {
          "name": "",
          "type": "uint8"
        }
      ],
      "payable": false,
      "stateMutability": "view",
      "type": "function"
    },
    {
      "constant": false,
      "inputs": [],
      "name": "kill",
      "outputs": [],
      "payable": false,
      "stateMutability": "nonpayable",
      "type": "function"
    }
  ],
  "bytecode": "0x60806040526009600060146101000a81548160ff021916908360ff16021790555034801561002c57600080fd5b50600080336000806101000a81548173ffffffffffffffffffffffffffffffffffffffff021916908373ffffffffffffffffffffffffffffffffffffffff160217905550600091505b600060149054906101000a900460ff1660ff168260ff16101561012757600090505b600060149054906101000a900460ff1660ff168160ff16101561011a578082600060149054906101000a900460ff16020160018260ff166009811015156100da57fe5b601202018360ff166009811015156100ee57fe5b6002020160010160146101000a81548160ff021916908360ff1602179055508080600101915050610097565b8180600101925050610075565b50506101c1806101386000396000f30060806040526004361061004c576000357c0100000000000000000000000000000000000000000000000000000000900463ffffffff1680634166c1fd1461005157806341c0e1b5146100a8575b600080fd5b34801561005d57600080fd5b5061008c600480360381019080803560ff169060200190929190803560ff1690602001909291905050506100bf565b604051808260ff1660ff16815260200191505060405180910390f35b3480156100b457600080fd5b506100bd610104565b005b600060018360ff166009811015156100d357fe5b601202018260ff166009811015156100e757fe5b6002020160010160149054906101000a900460ff16905092915050565b6000809054906101000a900473ffffffffffffffffffffffffffffffffffffffff1673ffffffffffffffffffffffffffffffffffffffff163373ffffffffffffffffffffffffffffffffffffffff161415610193576000809054906101000a900473ffffffffffffffffffffffffffffffffffffffff1673ffffffffffffffffffffffffffffffffffffffff16ff5b5600a165627a7a72305820cdbd7f653474b97eec1e6d9d346d3b86726d8a58d409889223395aa4f06cb9ca0029",
  "source": "// This contract creates a 9x9 map of Tile objects. \n// Each tile has an elevation value (as well as an owner and descriptorContract which aren't used here)\n// \n// In the constructor, the elevations are set to standard values via for loops.\n\ncontract StructAndForLoopTester {\n\n    address creator;\n    uint8 mapsize = 9;\n    Tile[9][9] tiles; \n    \n    struct Tile \n    {\n        address owner;\n        address descriptorContract;\n        uint8 elevation;\n    }\n    \n    function StructAndForLoopTester() \n    {\n        creator = msg.sender;\n        for(uint8 y = 0; y < mapsize; y++)\n    \t{\n        \tfor(uint8 x = 0; x < mapsize; x++)\n        \t{\n        \t\ttiles[x][y].elevation = mapsize*y + x; // row 0: 0, 1, 2, 3, 4...   row 1: 9, 10, 11, 12\n        \t}\t\n        }\t\n    }\n    \n    function getElevation(uint8 x, uint8 y) constant returns (uint8)\n    {\n    \treturn tiles[x][y].elevation;\n    }\n    \n    /**********\n     Standard kill() function to recover funds \n     **********/\n    \n    function kill()\n    { \n        if (msg.sender == creator)\n        {\n            suicide(creator);  // kills this contract and sends remaining funds back to creator\n        }\n    }\n}",
  "sourcePath": "/home/liweibo/code/solidity/contracts_library/contracts_library/channel-gravy-token/contracts/fivedogit/solidity-baby-steps/contracts/StructAndForLoopTester.sol",
  "compiler": {
    "name": "solc",
    "version": "0.4.24+commit.e67f0147.Emscripten.clang"
  },
  "schemaVersion": "2.0.1",
  "updatedAt": "2018-08-14T06:52:45.250Z"
}