{
  "contractName": "TestStrings",
  "abi": [
    {
      "constant": false,
      "inputs": [
        {
          "name": "_base",
          "type": "string"
        }
      ],
      "name": "testConcat",
      "outputs": [
        {
          "name": "",
          "type": "string"
        }
      ],
      "payable": false,
      "stateMutability": "nonpayable",
      "type": "function"
    },
    {
      "constant": false,
      "inputs": [
        {
          "name": "_base",
          "type": "string"
        }
      ],
      "name": "needleInHaystack",
      "outputs": [
        {
          "name": "",
          "type": "int256"
        }
      ],
      "payable": false,
      "stateMutability": "nonpayable",
      "type": "function"
    }
  ],
  "bytecode": "0x608060405234801561001057600080fd5b506105b2806100206000396000f30060806040526004361061004c576000357c0100000000000000000000000000000000000000000000000000000000900463ffffffff16806334131269146100515780637b3ee316146100ce575b600080fd5b34801561005d57600080fd5b506100b8600480360381019080803590602001908201803590602001908080601f01602080910402602001604051908101604052809392919081815260200183838082843782019150505050505091929192905050506101b0565b6040518082815260200191505060405180910390f35b3480156100da57600080fd5b50610135600480360381019080803590602001908201803590602001908080601f0160208091040260200160405190810160405280939291908181526020018383808284378201915050505050509192919290505050610201565b6040518080602001828103825283818151815260200191508051906020019080838360005b8381101561017557808201518184015260208101905061015a565b50505050905090810190601f1680156101a25780820380516001836020036101000a031916815260200191505b509250505060405180910390f35b60006101fa6040805190810160405280600181526020017f74000000000000000000000000000000000000000000000000000000000000008152508361025290919063ffffffff16565b9050919050565b606061024b6040805190810160405280600781526020017f5f73756666697800000000000000000000000000000000000000000000000000815250836103b990919063ffffffff16565b9050919050565b600060608060008592508491506001825114151561026c57fe5b600090505b825181101561038c5781600081518110151561028957fe5b9060200101517f010000000000000000000000000000000000000000000000000000000000000090047f0100000000000000000000000000000000000000000000000000000000000000027effffffffffffffffffffffffffffffffffffffffffffffffffffffffffffff1916838281518110151561030457fe5b9060200101517f010000000000000000000000000000000000000000000000000000000000000090047f0100000000000000000000000000000000000000000000000000000000000000027effffffffffffffffffffffffffffffffffffffffffffffffffffffffffffff1916141561037f578093506103b0565b8080600101915050610271565b7fffffffffffffffffffffffffffffffffffffffffffffffffffffffffffffffff93505b50505092915050565b606080606080606060008088955087945084518651016040519080825280601f01601f1916602001820160405280156104015781602001602082028038833980820191505090505b509350839250600091505b85518210156104bf57858281518110151561042357fe5b9060200101517f010000000000000000000000000000000000000000000000000000000000000090047f010000000000000000000000000000000000000000000000000000000000000002838280600101935081518110151561048257fe5b9060200101907effffffffffffffffffffffffffffffffffffffffffffffffffffffffffffff1916908160001a905350818060010192505061040c565b600091505b84518210156105775784828151811015156104db57fe5b9060200101517f010000000000000000000000000000000000000000000000000000000000000090047f010000000000000000000000000000000000000000000000000000000000000002838280600101935081518110151561053a57fe5b9060200101907effffffffffffffffffffffffffffffffffffffffffffffffffffffffffffff1916908160001a90535081806001019250506104c4565b829650505050505050929150505600a165627a7a72305820274945070311bb8e81b105c56037e1e914b39d7c30c462a8307b8eb519ee889f0029",
  "source": "pragma solidity ^0.4.0;\n\nimport \"./Strings.sol\";\n\ncontract TestStrings {\n    \n    using Strings for string;\n    \n    function testConcat(string _base) returns (string) {\n        return _base.concat(\"_suffix\");\n    }\n    \n    function needleInHaystack(string _base) returns (int) {\n        return _base.strpos(\"t\");\n    }\n}\n",
  "sourcePath": "/home/liweibo/code/solidity/contracts_library/contracts_library/channel-gravy-token/contracts/willitscale/learning-solidity/tutorial-07/TestStrings.sol",
  "compiler": {
    "name": "solc",
    "version": "0.4.24+commit.e67f0147.Emscripten.clang"
  },
  "schemaVersion": "2.0.1",
  "updatedAt": "2018-08-14T06:52:45.224Z"
}