{
  "contractName": "TimeBased",
  "abi": [
    {
      "constant": true,
      "inputs": [
        {
          "name": "",
          "type": "address"
        }
      ],
      "name": "_balanceOf",
      "outputs": [
        {
          "name": "",
          "type": "uint256"
        }
      ],
      "payable": false,
      "stateMutability": "view",
      "type": "function"
    },
    {
      "constant": true,
      "inputs": [
        {
          "name": "",
          "type": "address"
        }
      ],
      "name": "_expiryOf",
      "outputs": [
        {
          "name": "",
          "type": "uint256"
        }
      ],
      "payable": false,
      "stateMutability": "view",
      "type": "function"
    },
    {
      "constant": false,
      "inputs": [],
      "name": "lease",
      "outputs": [
        {
          "name": "",
          "type": "bool"
        }
      ],
      "payable": true,
      "stateMutability": "payable",
      "type": "function"
    },
    {
      "constant": false,
      "inputs": [
        {
          "name": "_addr",
          "type": "address"
        }
      ],
      "name": "balanceOf",
      "outputs": [
        {
          "name": "",
          "type": "uint256"
        }
      ],
      "payable": false,
      "stateMutability": "nonpayable",
      "type": "function"
    },
    {
      "constant": false,
      "inputs": [],
      "name": "balanceOf",
      "outputs": [
        {
          "name": "",
          "type": "uint256"
        }
      ],
      "payable": false,
      "stateMutability": "nonpayable",
      "type": "function"
    },
    {
      "constant": false,
      "inputs": [],
      "name": "expiryOf",
      "outputs": [
        {
          "name": "",
          "type": "uint256"
        }
      ],
      "payable": false,
      "stateMutability": "nonpayable",
      "type": "function"
    },
    {
      "constant": false,
      "inputs": [
        {
          "name": "_addr",
          "type": "address"
        }
      ],
      "name": "expiryOf",
      "outputs": [
        {
          "name": "",
          "type": "uint256"
        }
      ],
      "payable": false,
      "stateMutability": "nonpayable",
      "type": "function"
    }
  ],
  "bytecode": "0x608060405261025860025534801561001657600080fd5b506106dd806100266000396000f300608060405260043610610083576000357c0100000000000000000000000000000000000000000000000000000000900463ffffffff16806359c6d24b1461008857806370a08231146100b3578063722713f71461010a5780638497fab914610135578063c998eef41461018c578063cca3e832146101ae578063dc99dc3514610205575b600080fd5b34801561009457600080fd5b5061009d61025c565b6040518082815260200191505060405180910390f35b3480156100bf57600080fd5b506100f4600480360381019080803573ffffffffffffffffffffffffffffffffffffffff16906020019092919050505061026c565b6040518082815260200191505060405180910390f35b34801561011657600080fd5b5061011f610388565b6040518082815260200191505060405180910390f35b34801561014157600080fd5b50610176600480360381019080803573ffffffffffffffffffffffffffffffffffffffff169060200190929190505050610398565b6040518082815260200191505060405180910390f35b6101946104b5565b604051808215151515815260200191505060405180910390f35b3480156101ba57600080fd5b506101ef600480360381019080803573ffffffffffffffffffffffffffffffffffffffff169060200190929190505050610681565b6040518082815260200191505060405180910390f35b34801561021157600080fd5b50610246600480360381019080803573ffffffffffffffffffffffffffffffffffffffff169060200190929190505050610699565b6040518082815260200191505060405180910390f35b600061026733610398565b905090565b60008142600160008373ffffffffffffffffffffffffffffffffffffffff1673ffffffffffffffffffffffffffffffffffffffff16815260200190815260200160002054101515610341576000600160008373ffffffffffffffffffffffffffffffffffffffff1673ffffffffffffffffffffffffffffffffffffffff1681526020019081526020016000208190555060008060008373ffffffffffffffffffffffffffffffffffffffff1673ffffffffffffffffffffffffffffffffffffffff168152602001908152602001600020819055505b6000808473ffffffffffffffffffffffffffffffffffffffff1673ffffffffffffffffffffffffffffffffffffffff16815260200190815260200160002054915050919050565b60006103933361026c565b905090565b60008142600160008373ffffffffffffffffffffffffffffffffffffffff1673ffffffffffffffffffffffffffffffffffffffff1681526020019081526020016000205410151561046d576000600160008373ffffffffffffffffffffffffffffffffffffffff1673ffffffffffffffffffffffffffffffffffffffff1681526020019081526020016000208190555060008060008373ffffffffffffffffffffffffffffffffffffffff1673ffffffffffffffffffffffffffffffffffffffff168152602001908152602001600020819055505b600160008473ffffffffffffffffffffffffffffffffffffffff1673ffffffffffffffffffffffffffffffffffffffff16815260200190815260200160002054915050919050565b60003342600160008373ffffffffffffffffffffffffffffffffffffffff1673ffffffffffffffffffffffffffffffffffffffff1681526020019081526020016000205410151561058a576000600160008373ffffffffffffffffffffffffffffffffffffffff1673ffffffffffffffffffffffffffffffffffffffff1681526020019081526020016000208190555060008060008373ffffffffffffffffffffffffffffffffffffffff1673ffffffffffffffffffffffffffffffffffffffff168152602001908152602001600020819055505b670de0b6b3a7640000341415156105a057600080fd5b60008060003373ffffffffffffffffffffffffffffffffffffffff1673ffffffffffffffffffffffffffffffffffffffff168152602001908152602001600020541415156105ed57600080fd5b60016000803373ffffffffffffffffffffffffffffffffffffffff1673ffffffffffffffffffffffffffffffffffffffff168152602001908152602001600020819055506002544201600160003373ffffffffffffffffffffffffffffffffffffffff1673ffffffffffffffffffffffffffffffffffffffff16815260200190815260200160002081905550600191505090565b60006020528060005260406000206000915090505481565b600160205280600052604060002060009150905054815600a165627a7a72305820bc8ec6aed942364ee5d418ead2fd84e394a592d4e1d91f232a03f7ebf7893dcd0029",
  "source": "pragma solidity ^0.4.0;\n\ncontract TimeBased {\n    \n    mapping(address => uint) public _balanceOf;\n    mapping(address => uint) public _expiryOf;\n    \n    uint private leaseTime = 600;\n    \n    modifier expire(address _addr) {\n        if (_expiryOf[_addr] >= block.timestamp) {\n            _expiryOf[_addr] = 0;\n            _balanceOf[_addr] = 0;\n        }\n        _;\n    }\n    \n    function lease()\n        public\n        payable\n        expire(msg.sender)\n        returns (bool) {\n        require(msg.value == 1 ether);\n        require(_balanceOf[msg.sender] == 0);\n        _balanceOf[msg.sender] = 1;\n        _expiryOf[msg.sender] = block.timestamp + leaseTime;\n        return true;\n    }\n    \n    function balanceOf() \n        public\n        returns (uint) {\n        return balanceOf(msg.sender);        \n    }\n    \n    function balanceOf(address _addr)\n        public\n        expire(_addr)\n        returns (uint) {\n        return _balanceOf[_addr];\n    }\n    \n    function expiryOf() \n        public\n        returns (uint) {\n        return expiryOf(msg.sender);        \n    }\n    \n    function expiryOf(address _addr)\n        public\n        expire(_addr)\n        returns (uint) {\n        return _expiryOf[_addr];\n    }\n}",
  "sourcePath": "/home/liweibo/code/solidity/contracts_library/contracts_library/channel-gravy-token/contracts/willitscale/learning-solidity/tutorial-16/TimeBased.sol",
  "compiler": {
    "name": "solc",
    "version": "0.4.24+commit.e67f0147.Emscripten.clang"
  },
  "schemaVersion": "2.0.1",
  "updatedAt": "2018-08-14T06:52:45.240Z"
}