{
  "contractName": "TwoDArray",
  "abi": [
    {
      "inputs": [],
      "payable": false,
      "stateMutability": "nonpayable",
      "type": "constructor"
    },
    {
      "constant": true,
      "inputs": [
        {
          "name": "x",
          "type": "uint8"
        },
        {
          "name": "y",
          "type": "uint8"
        }
      ],
      "name": "getValue",
      "outputs": [
        {
          "name": "",
          "type": "uint8"
        }
      ],
      "payable": false,
      "stateMutability": "view",
      "type": "function"
    },
    {
      "constant": false,
      "inputs": [],
      "name": "kill",
      "outputs": [],
      "payable": false,
      "stateMutability": "nonpayable",
      "type": "function"
    }
  ],
  "bytecode": "0x6080604052600a600060146101000a81548160ff021916908360ff16021790555034801561002c57600080fd5b50600080336000806101000a81548173ffffffffffffffffffffffffffffffffffffffff021916908373ffffffffffffffffffffffffffffffffffffffff16021790555060009150600090505b600060149054906101000a900460ff1660ff168160ff16101561012957600091505b600060149054906101000a900460ff1660ff168260ff16101561011c578181600060149054906101000a900460ff16020160018360ff16600a811015156100de57fe5b018260ff16600a811015156100ef57fe5b602091828204019190066101000a81548160ff021916908360ff160217905550818060010192505061009b565b8080600101915050610079565b50506101bf8061013a6000396000f30060806040526004361061004c576000357c0100000000000000000000000000000000000000000000000000000000900463ffffffff1680630e13b9af1461005157806341c0e1b5146100a8575b600080fd5b34801561005d57600080fd5b5061008c600480360381019080803560ff169060200190929190803560ff1690602001909291905050506100bf565b604051808260ff1660ff16815260200191505060405180910390f35b3480156100b457600080fd5b506100bd610102565b005b600060018360ff16600a811015156100d357fe5b018260ff16600a811015156100e457fe5b602091828204019190069054906101000a900460ff16905092915050565b6000809054906101000a900473ffffffffffffffffffffffffffffffffffffffff1673ffffffffffffffffffffffffffffffffffffffff163373ffffffffffffffffffffffffffffffffffffffff161415610191576000809054906101000a900473ffffffffffffffffffffffffffffffffffffffff1673ffffffffffffffffffffffffffffffffffffffff16ff5b5600a165627a7a723058208d3f97f219363cf896e3f50e63f7a3abf979ad7599d246c2714f1785ad9ac6d10029",
  "source": "contract TwoDArray {\n\n    address creator;\n    uint8 arraylength = 10;\n    uint8[10][10] integers; // compiler says this line can't yet know about arraylength variable in the line above\n\n    function TwoDArray() \n    {\n        creator = msg.sender;\n        uint8 x = 0;\n        uint8 y = 0;\n        while(y < arraylength)\n \t\t{\n        \tx = 0;\n \t\t    while(x < arraylength)\n        \t{\n \t\t    \tintegers[x][y] = arraylength*y + x; // row 0: 0, 1   row 1: 2, 3\n        \t\tx++;\n        \t}\n        \ty++;\n        }\n    }\n    \n    function getValue(uint8 x, uint8 y) constant returns (uint8)\n    {\n    \treturn integers[x][y];\n    }\n    \n    /**********\n     Standard kill() function to recover funds \n     **********/\n    \n    function kill()\n    { \n        if (msg.sender == creator)\n        {\n            suicide(creator);  // kills this contract and sends remaining funds back to creator\n        }\n    }\n}",
  "sourcePath": "/home/liweibo/code/solidity/contracts_library/contracts_library/channel-gravy-token/contracts/fivedogit/solidity-baby-steps/contracts/TwoDArray.sol",
  "compiler": {
    "name": "solc",
    "version": "0.4.24+commit.e67f0147.Emscripten.clang"
  },
  "schemaVersion": "2.0.1",
  "updatedAt": "2018-08-14T06:52:45.255Z"
}