{
  "contractName": "ValueIncrementer",
  "abi": [
    {
      "inputs": [],
      "payable": false,
      "stateMutability": "nonpayable",
      "type": "constructor"
    },
    {
      "constant": false,
      "inputs": [],
      "name": "increment",
      "outputs": [],
      "payable": false,
      "stateMutability": "nonpayable",
      "type": "function"
    },
    {
      "constant": true,
      "inputs": [],
      "name": "getIteration",
      "outputs": [
        {
          "name": "",
          "type": "uint256"
        }
      ],
      "payable": false,
      "stateMutability": "view",
      "type": "function"
    },
    {
      "constant": false,
      "inputs": [],
      "name": "kill",
      "outputs": [],
      "payable": false,
      "stateMutability": "nonpayable",
      "type": "function"
    }
  ],
  "bytecode": "0x608060405234801561001057600080fd5b50336000806101000a81548173ffffffffffffffffffffffffffffffffffffffff021916908373ffffffffffffffffffffffffffffffffffffffff1602179055506000600181905550610189806100686000396000f300608060405260043610610057576000357c0100000000000000000000000000000000000000000000000000000000900463ffffffff16806341c0e1b51461005c578063d09de08a14610073578063fc2c3e081461008a575b600080fd5b34801561006857600080fd5b506100716100b5565b005b34801561007f57600080fd5b50610088610146565b005b34801561009657600080fd5b5061009f610153565b6040518082815260200191505060405180910390f35b6000809054906101000a900473ffffffffffffffffffffffffffffffffffffffff1673ffffffffffffffffffffffffffffffffffffffff163373ffffffffffffffffffffffffffffffffffffffff161415610144576000809054906101000a900473ffffffffffffffffffffffffffffffffffffffff1673ffffffffffffffffffffffffffffffffffffffff16ff5b565b6001805401600181905550565b60006001549050905600a165627a7a7230582040af65661e9edd0bbe3e2d1297fc936f3f7f3d087f2dbee9367bf1e3a81086930029",
  "source": "// This contract demonstrates a simple non-constant (transactional) function you can call from geth.\n// increment() takes no parameters and merely increments the \"iteration\" value. \n\ncontract ValueIncrementer {\n\n    address creator;\n    uint iteration;\n\n    function ValueIncrementer() public \n    {\n        creator = msg.sender; \n        iteration = 0;\n    }\n\n    function increment() \n    {\n        iteration = iteration + 1;\n    }\n    \n    function getIteration() constant returns (uint) \n    {\n        return iteration;\n    }\n    \n    /**********\n     Standard kill() function to recover funds \n    **********/\n    \n    function kill() \n    { \n        if (msg.sender == creator)\n            suicide(creator);  // kills this contract and sends remaining funds back to creator\n    }\n    \n}",
  "sourcePath": "/home/liweibo/code/solidity/contracts_library/contracts_library/channel-gravy-token/contracts/fivedogit/solidity-baby-steps/contracts/ValueIncrementer.sol",
  "compiler": {
    "name": "solc",
    "version": "0.4.24+commit.e67f0147.Emscripten.clang"
  },
  "schemaVersion": "2.0.1",
  "updatedAt": "2018-08-14T06:52:45.249Z"
}