{
  "contractName": "WhitelistMock",
  "abi": [
    {
      "constant": true,
      "inputs": [
        {
          "name": "_operator",
          "type": "address"
        },
        {
          "name": "_role",
          "type": "string"
        }
      ],
      "name": "checkRole",
      "outputs": [],
      "payable": false,
      "stateMutability": "view",
      "type": "function"
    },
    {
      "constant": true,
      "inputs": [],
      "name": "ROLE_WHITELISTED",
      "outputs": [
        {
          "name": "",
          "type": "string"
        }
      ],
      "payable": false,
      "stateMutability": "view",
      "type": "function"
    },
    {
      "constant": true,
      "inputs": [
        {
          "name": "_operator",
          "type": "address"
        },
        {
          "name": "_role",
          "type": "string"
        }
      ],
      "name": "hasRole",
      "outputs": [
        {
          "name": "",
          "type": "bool"
        }
      ],
      "payable": false,
      "stateMutability": "view",
      "type": "function"
    },
    {
      "constant": false,
      "inputs": [
        {
          "name": "_operators",
          "type": "address[]"
        }
      ],
      "name": "removeAddressesFromWhitelist",
      "outputs": [],
      "payable": false,
      "stateMutability": "nonpayable",
      "type": "function"
    },
    {
      "constant": false,
      "inputs": [
        {
          "name": "_operator",
          "type": "address"
        }
      ],
      "name": "removeAddressFromWhitelist",
      "outputs": [],
      "payable": false,
      "stateMutability": "nonpayable",
      "type": "function"
    },
    {
      "constant": false,
      "inputs": [],
      "name": "renounceOwnership",
      "outputs": [],
      "payable": false,
      "stateMutability": "nonpayable",
      "type": "function"
    },
    {
      "constant": false,
      "inputs": [
        {
          "name": "_operator",
          "type": "address"
        }
      ],
      "name": "addAddressToWhitelist",
      "outputs": [],
      "payable": false,
      "stateMutability": "nonpayable",
      "type": "function"
    },
    {
      "constant": true,
      "inputs": [],
      "name": "owner",
      "outputs": [
        {
          "name": "",
          "type": "address"
        }
      ],
      "payable": false,
      "stateMutability": "view",
      "type": "function"
    },
    {
      "constant": true,
      "inputs": [
        {
          "name": "_operator",
          "type": "address"
        }
      ],
      "name": "whitelist",
      "outputs": [
        {
          "name": "",
          "type": "bool"
        }
      ],
      "payable": false,
      "stateMutability": "view",
      "type": "function"
    },
    {
      "constant": false,
      "inputs": [
        {
          "name": "_operators",
          "type": "address[]"
        }
      ],
      "name": "addAddressesToWhitelist",
      "outputs": [],
      "payable": false,
      "stateMutability": "nonpayable",
      "type": "function"
    },
    {
      "constant": false,
      "inputs": [
        {
          "name": "_newOwner",
          "type": "address"
        }
      ],
      "name": "transferOwnership",
      "outputs": [],
      "payable": false,
      "stateMutability": "nonpayable",
      "type": "function"
    },
    {
      "anonymous": false,
      "inputs": [
        {
          "indexed": true,
          "name": "operator",
          "type": "address"
        },
        {
          "indexed": false,
          "name": "role",
          "type": "string"
        }
      ],
      "name": "RoleAdded",
      "type": "event"
    },
    {
      "anonymous": false,
      "inputs": [
        {
          "indexed": true,
          "name": "operator",
          "type": "address"
        },
        {
          "indexed": false,
          "name": "role",
          "type": "string"
        }
      ],
      "name": "RoleRemoved",
      "type": "event"
    },
    {
      "anonymous": false,
      "inputs": [
        {
          "indexed": true,
          "name": "previousOwner",
          "type": "address"
        }
      ],
      "name": "OwnershipRenounced",
      "type": "event"
    },
    {
      "anonymous": false,
      "inputs": [
        {
          "indexed": true,
          "name": "previousOwner",
          "type": "address"
        },
        {
          "indexed": true,
          "name": "newOwner",
          "type": "address"
        }
      ],
      "name": "OwnershipTransferred",
      "type": "event"
    },
    {
      "constant": true,
      "inputs": [],
      "name": "onlyWhitelistedCanDoThis",
      "outputs": [],
      "payable": false,
      "stateMutability": "view",
      "type": "function"
    }
  ],
  "bytecode": "0x6080604052336000806101000a81548173ffffffffffffffffffffffffffffffffffffffff021916908373ffffffffffffffffffffffffffffffffffffffff160217905550610f76806100536000396000f3006080604052600436106100ba576000357c0100000000000000000000000000000000000000000000000000000000900463ffffffff1680630988ca8c146100bf57806318b919e914610148578063217fe6c6146101d857806324953eaa14610279578063286dd3f5146102df578063715018a6146103225780637b9417c8146103395780638da5cb5b1461037c5780639b19251a146103d3578063e2ec6ec31461042e578063e9cac38914610494578063f2fde38b146104ab575b600080fd5b3480156100cb57600080fd5b50610146600480360381019080803573ffffffffffffffffffffffffffffffffffffffff169060200190929190803590602001908201803590602001908080601f01602080910402602001604051908101604052809392919081815260200183838082843782019150505050505091929192905050506104ee565b005b34801561015457600080fd5b5061015d61056f565b6040518080602001828103825283818151815260200191508051906020019080838360005b8381101561019d578082015181840152602081019050610182565b50505050905090810190601f1680156101ca5780820380516001836020036101000a031916815260200191505b509250505060405180910390f35b3480156101e457600080fd5b5061025f600480360381019080803573ffffffffffffffffffffffffffffffffffffffff169060200190929190803590602001908201803590602001908080601f01602080910402602001604051908101604052809392919081815260200183838082843782019150505050505091929192905050506105a8565b604051808215151515815260200191505060405180910390f35b34801561028557600080fd5b506102dd6004803603810190808035906020019082018035906020019080806020026020016040519081016040528093929190818152602001838360200280828437820191505050505050919291929050505061062f565b005b3480156102eb57600080fd5b50610320600480360381019080803573ffffffffffffffffffffffffffffffffffffffff1690602001909291905050506106cb565b005b34801561032e57600080fd5b50610337610768565b005b34801561034557600080fd5b5061037a600480360381019080803573ffffffffffffffffffffffffffffffffffffffff16906020019092919050505061086a565b005b34801561038857600080fd5b50610391610907565b604051808273ffffffffffffffffffffffffffffffffffffffff1673ffffffffffffffffffffffffffffffffffffffff16815260200191505060405180910390f35b3480156103df57600080fd5b50610414600480360381019080803573ffffffffffffffffffffffffffffffffffffffff16906020019092919050505061092c565b604051808215151515815260200191505060405180910390f35b34801561043a57600080fd5b5061049260048036038101908080359060200190820180359060200190808060200260200160405190810160405280939291908181526020018383602002808284378201915050505050509192919290505050610974565b005b3480156104a057600080fd5b506104a9610a10565b005b3480156104b757600080fd5b506104ec600480360381019080803573ffffffffffffffffffffffffffffffffffffffff169060200190929190505050610a53565b005b61056b826001836040518082805190602001908083835b60208310151561052a5780518252602082019150602081019050602083039250610505565b6001836020036101000a0380198251168184511680821785525050505050509050019150509081526020016040518091039020610aba90919063ffffffff16565b5050565b6040805190810160405280600981526020017f77686974656c697374000000000000000000000000000000000000000000000081525081565b6000610627836001846040518082805190602001908083835b6020831015156105e657805182526020820191506020810190506020830392506105c1565b6001836020036101000a0380198251168184511680821785525050505050509050019150509081526020016040518091039020610ad390919063ffffffff16565b905092915050565b60008060009054906101000a900473ffffffffffffffffffffffffffffffffffffffff1673ffffffffffffffffffffffffffffffffffffffff163373ffffffffffffffffffffffffffffffffffffffff1614151561068c57600080fd5b600090505b81518110156106c7576106ba82828151811015156106ab57fe5b906020019060200201516106cb565b8080600101915050610691565b5050565b6000809054906101000a900473ffffffffffffffffffffffffffffffffffffffff1673ffffffffffffffffffffffffffffffffffffffff163373ffffffffffffffffffffffffffffffffffffffff1614151561072657600080fd5b610765816040805190810160405280600981526020017f77686974656c6973740000000000000000000000000000000000000000000000815250610b2c565b50565b6000809054906101000a900473ffffffffffffffffffffffffffffffffffffffff1673ffffffffffffffffffffffffffffffffffffffff163373ffffffffffffffffffffffffffffffffffffffff161415156107c357600080fd5b6000809054906101000a900473ffffffffffffffffffffffffffffffffffffffff1673ffffffffffffffffffffffffffffffffffffffff167ff8df31144d9c2f0f6b59d69b8b98abd5459d07f2742c4df920b25aae33c6482060405160405180910390a260008060006101000a81548173ffffffffffffffffffffffffffffffffffffffff021916908373ffffffffffffffffffffffffffffffffffffffff160217905550565b6000809054906101000a900473ffffffffffffffffffffffffffffffffffffffff1673ffffffffffffffffffffffffffffffffffffffff163373ffffffffffffffffffffffffffffffffffffffff161415156108c557600080fd5b610904816040805190810160405280600981526020017f77686974656c6973740000000000000000000000000000000000000000000000815250610c60565b50565b6000809054906101000a900473ffffffffffffffffffffffffffffffffffffffff1681565b600061096d826040805190810160405280600981526020017f77686974656c69737400000000000000000000000000000000000000000000008152506105a8565b9050919050565b60008060009054906101000a900473ffffffffffffffffffffffffffffffffffffffff1673ffffffffffffffffffffffffffffffffffffffff163373ffffffffffffffffffffffffffffffffffffffff161415156109d157600080fd5b600090505b8151811015610a0c576109ff82828151811015156109f057fe5b9060200190602002015161086a565b80806001019150506109d6565b5050565b33610a50816040805190810160405280600981526020017f77686974656c69737400000000000000000000000000000000000000000000008152506104ee565b50565b6000809054906101000a900473ffffffffffffffffffffffffffffffffffffffff1673ffffffffffffffffffffffffffffffffffffffff163373ffffffffffffffffffffffffffffffffffffffff16141515610aae57600080fd5b610ab781610d94565b50565b610ac48282610ad3565b1515610acf57600080fd5b5050565b60008260000160008373ffffffffffffffffffffffffffffffffffffffff1673ffffffffffffffffffffffffffffffffffffffff16815260200190815260200160002060009054906101000a900460ff16905092915050565b610ba9826001836040518082805190602001908083835b602083101515610b685780518252602082019150602081019050602083039250610b43565b6001836020036101000a0380198251168184511680821785525050505050509050019150509081526020016040518091039020610e8e90919063ffffffff16565b8173ffffffffffffffffffffffffffffffffffffffff167fd211483f91fc6eff862467f8de606587a30c8fc9981056f051b897a418df803a826040518080602001828103825283818151815260200191508051906020019080838360005b83811015610c22578082015181840152602081019050610c07565b50505050905090810190601f168015610c4f5780820380516001836020036101000a031916815260200191505b509250505060405180910390a25050565b610cdd826001836040518082805190602001908083835b602083101515610c9c5780518252602082019150602081019050602083039250610c77565b6001836020036101000a0380198251168184511680821785525050505050509050019150509081526020016040518091039020610eec90919063ffffffff16565b8173ffffffffffffffffffffffffffffffffffffffff167fbfec83d64eaa953f2708271a023ab9ee82057f8f3578d548c1a4ba0b5b700489826040518080602001828103825283818151815260200191508051906020019080838360005b83811015610d56578082015181840152602081019050610d3b565b50505050905090810190601f168015610d835780820380516001836020036101000a031916815260200191505b509250505060405180910390a25050565b600073ffffffffffffffffffffffffffffffffffffffff168173ffffffffffffffffffffffffffffffffffffffff1614151515610dd057600080fd5b8073ffffffffffffffffffffffffffffffffffffffff166000809054906101000a900473ffffffffffffffffffffffffffffffffffffffff1673ffffffffffffffffffffffffffffffffffffffff167f8be0079c531659141344cd1fd0a4f28419497f9722a3daafe3b4186f6b6457e060405160405180910390a3806000806101000a81548173ffffffffffffffffffffffffffffffffffffffff021916908373ffffffffffffffffffffffffffffffffffffffff16021790555050565b60008260000160008373ffffffffffffffffffffffffffffffffffffffff1673ffffffffffffffffffffffffffffffffffffffff16815260200190815260200160002060006101000a81548160ff0219169083151502179055505050565b60018260000160008373ffffffffffffffffffffffffffffffffffffffff1673ffffffffffffffffffffffffffffffffffffffff16815260200190815260200160002060006101000a81548160ff02191690831515021790555050505600a165627a7a72305820dad7a486557d869e7a7dbe138c83727d2b71b20caec7ecea5272c970449613710029",
  "source": "pragma solidity ^0.4.24;\n\nimport \"../access/Whitelist.sol\";\n\n\ncontract WhitelistMock is Whitelist {\n\n  function onlyWhitelistedCanDoThis()\n    external\n    onlyIfWhitelisted(msg.sender)\n    view\n  {\n  }\n}\n",
  "sourcePath": "/home/liweibo/code/solidity/contracts_library/contracts_library/channel-gravy-token/contracts/OpenZeppelin/openzeppelin-solidity/mocks/WhitelistMock.sol",
  "compiler": {
    "name": "solc",
    "version": "0.4.24+commit.e67f0147.Emscripten.clang"
  },
  "schemaVersion": "2.0.1",
  "updatedAt": "2018-08-14T06:52:16.418Z"
}