{
  "contractName": "AlarmService",
  "abi": [
    {
      "constant": false,
      "inputs": [
        {
          "name": "_time",
          "type": "uint256"
        }
      ],
      "name": "set",
      "outputs": [
        {
          "name": "",
          "type": "bool"
        }
      ],
      "payable": false,
      "stateMutability": "nonpayable",
      "type": "function"
    },
    {
      "constant": false,
      "inputs": [
        {
          "name": "_time",
          "type": "uint256"
        }
      ],
      "name": "call",
      "outputs": [],
      "payable": false,
      "stateMutability": "nonpayable",
      "type": "function"
    }
  ],
  "bytecode": "0x608060405234801561001057600080fd5b506104ec806100206000396000f30060806040526004361061004c576000357c0100000000000000000000000000000000000000000000000000000000900463ffffffff1680632b0969261461005157806360fe47b11461007e575b600080fd5b34801561005d57600080fd5b5061007c600480360381019080803590602001909291905050506100c3565b005b34801561008a57600080fd5b506100a960048036038101908080359060200190929190505050610263565b604051808215151515815260200191505060405180910390f35b6000806000808481526020019081526020016000209150600090505b818054905081101561025e5781818154811015156100f957fe5b906000526020600020906002020160000160009054906101000a900473ffffffffffffffffffffffffffffffffffffffff1673ffffffffffffffffffffffffffffffffffffffff1663e98a5654838381548110151561015457fe5b90600052602060002090600202016001016040518263ffffffff167c010000000000000000000000000000000000000000000000000000000002815260040180806020018281038252838181546001816001161561010002031660029004815260200191508054600181600116156101000203166002900480156102195780601f106101ee57610100808354040283529160200191610219565b820191906000526020600020905b8154815290600101906020018083116101fc57829003601f168201915b505092505050600060405180830381600087803b15801561023957600080fd5b505af115801561024d573d6000803e3d6000fd5b5050505080806001019150506100df565b505050565b600080338160000160006101000a81548173ffffffffffffffffffffffffffffffffffffffff021916908373ffffffffffffffffffffffffffffffffffffffff1602179055506000368260010191906102bd929190610394565b5060008084815260200190815260200160002081908060018154018082558091505090600182039060005260206000209060020201600090919290919091506000820160009054906101000a900473ffffffffffffffffffffffffffffffffffffffff168160000160006101000a81548173ffffffffffffffffffffffffffffffffffffffff021916908373ffffffffffffffffffffffffffffffffffffffff1602179055506001820181600101908054600181600116156101000203166002900461038a929190610414565b5050505050919050565b828054600181600116156101000203166002900490600052602060002090601f016020900481019282601f106103d557803560ff1916838001178555610403565b82800160010185558215610403579182015b828111156104025782358255916020019190600101906103e7565b5b509050610410919061049b565b5090565b828054600181600116156101000203166002900490600052602060002090601f016020900481019282601f1061044d578054855561048a565b8280016001018555821561048a57600052602060002091601f016020900482015b8281111561048957825482559160010191906001019061046e565b5b509050610497919061049b565b5090565b6104bd91905b808211156104b95760008160009055506001016104a1565b5090565b905600a165627a7a723058207023490d82311d63c775fc5d17b51188a25acaf04d03912e1fa0eea4b7bc9eea0029",
  "source": "pragma solidity ^0.4.0;\n\ninterface AlarmWakeUp {\n    function callback(bytes _data) public;\n}\n\ncontract AlarmService {\n    \n    struct TimeEvent {\n        address addr;\n        bytes data;\n    }\n    \n    mapping(uint => TimeEvent[]) private _events;\n    \n    function set(uint _time) \n        public \n        returns (bool) {\n        TimeEvent _timeEvent;\n        _timeEvent.addr = msg.sender;\n        _timeEvent.data = msg.data;\n        _events[_time].push(_timeEvent);\n    }\n    \n    function call(uint _time) \n        public {\n        TimeEvent[] timeEvents = _events[_time];\n        for(uint i = 0; i < timeEvents.length; i++) {\n            AlarmWakeUp(timeEvents[i].addr).callback(timeEvents[i].data);\n        }\n    }\n}\n\ncontract AlarmTrigger is AlarmWakeUp {\n    \n    AlarmService private _alarmService;\n    \n    function AlarmTrigger() {\n        _alarmService = new AlarmService();\n    }\n    \n    function callback(bytes _data) \n        public {\n        // Do something\n    }\n    \n    function setAlarm() \n        public {\n        _alarmService.set(block.timestamp+60);\n    }\n    \n}",
  "sourcePath": "/home/liweibo/code/solidity/contracts_library/contracts_library/contracts/willitscale/learning-solidity/tutorial-16/AlarmTrigger.sol",
  "compiler": {
    "name": "solc",
    "version": "0.4.24+commit.e67f0147.Emscripten.clang"
  },
  "schemaVersion": "2.0.1",
  "updatedAt": "2018-08-14T07:39:20.661Z"
}