{
  "contractName": "Alphabet",
  "abi": [
    {
      "inputs": [],
      "payable": false,
      "stateMutability": "nonpayable",
      "type": "constructor"
    },
    {
      "anonymous": false,
      "inputs": [
        {
          "indexed": false,
          "name": "",
          "type": "uint256"
        }
      ],
      "name": "Printer",
      "type": "event"
    },
    {
      "constant": false,
      "inputs": [
        {
          "name": "_addrX",
          "type": "address"
        },
        {
          "name": "_addrY",
          "type": "address"
        },
        {
          "name": "_addrZ",
          "type": "address"
        }
      ],
      "name": "loadRemote",
      "outputs": [],
      "payable": false,
      "stateMutability": "nonpayable",
      "type": "function"
    },
    {
      "constant": false,
      "inputs": [],
      "name": "printLetters",
      "outputs": [],
      "payable": false,
      "stateMutability": "nonpayable",
      "type": "function"
    }
  ],
  "bytecode": "0x608060405234801561001057600080fd5b50600061001b6101b4565b604051809103906000f080158015610037573d6000803e3d6000fd5b5090806001815401808255809150509060018203906000526020600020016000909192909190916101000a81548173ffffffffffffffffffffffffffffffffffffffff021916908373ffffffffffffffffffffffffffffffffffffffff1602179055505060006100a56101c3565b604051809103906000f0801580156100c1573d6000803e3d6000fd5b5090806001815401808255809150509060018203906000526020600020016000909192909190916101000a81548173ffffffffffffffffffffffffffffffffffffffff021916908373ffffffffffffffffffffffffffffffffffffffff16021790555050600061012f6101d2565b604051809103906000f08015801561014b573d6000803e3d6000fd5b5090806001815401808255809150509060018203906000526020600020016000909192909190916101000a81548173ffffffffffffffffffffffffffffffffffffffff021916908373ffffffffffffffffffffffffffffffffffffffff160217905550506101e2565b60405160bf8061057083390190565b60405160bf8061062f83390190565b60405161019e806106ee83390190565b61037f806101f16000396000f30060806040526004361061004c576000357c0100000000000000000000000000000000000000000000000000000000900463ffffffff168063231b4e6714610051578063d90cde1f146100d4575b600080fd5b34801561005d57600080fd5b506100d2600480360381019080803573ffffffffffffffffffffffffffffffffffffffff169060200190929190803573ffffffffffffffffffffffffffffffffffffffff169060200190929190803573ffffffffffffffffffffffffffffffffffffffff1690602001909291905050506100eb565b005b3480156100e057600080fd5b506100e9610222565b005b60008390806001815401808255809150509060018203906000526020600020016000909192909190916101000a81548173ffffffffffffffffffffffffffffffffffffffff021916908373ffffffffffffffffffffffffffffffffffffffff1602179055505060008290806001815401808255809150509060018203906000526020600020016000909192909190916101000a81548173ffffffffffffffffffffffffffffffffffffffff021916908373ffffffffffffffffffffffffffffffffffffffff1602179055505060008190806001815401808255809150509060018203906000526020600020016000909192909190916101000a81548173ffffffffffffffffffffffffffffffffffffffff021916908373ffffffffffffffffffffffffffffffffffffffff16021790555050505050565b60008090505b600080549050811015610350577fc0e9722be443f04a37f6da03fd9aeaf907175f31b06d8580e699b9f91c88d9a260008281548110151561026557fe5b9060005260206000200160009054906101000a900473ffffffffffffffffffffffffffffffffffffffff1673ffffffffffffffffffffffffffffffffffffffff16632e52d6066040518163ffffffff167c0100000000000000000000000000000000000000000000000000000000028152600401602060405180830381600087803b1580156102f357600080fd5b505af1158015610307573d6000803e3d6000fd5b505050506040513d602081101561031d57600080fd5b81019080805190602001909291905050506040518082815260200191505060405180910390a18080600101915050610228565b505600a165627a7a72305820584ef7238bdf1b049f807da36dd0356f75580e5a5db614f2fd9a244532c5e79c00296080604052348015600f57600080fd5b5060a18061001e6000396000f300608060405260043610603f576000357c0100000000000000000000000000000000000000000000000000000000900463ffffffff1680632e52d606146044575b600080fd5b348015604f57600080fd5b506056606c565b6040518082815260200191505060405180910390f35b600060019050905600a165627a7a72305820098f35e0897040c39975b25f12cb5f683622d749dfdd77d8afe986440f2fcb2900296080604052348015600f57600080fd5b5060a18061001e6000396000f300608060405260043610603f576000357c0100000000000000000000000000000000000000000000000000000000900463ffffffff1680632e52d606146044575b600080fd5b348015604f57600080fd5b506056606c565b6040518082815260200191505060405180910390f35b600060019050905600a165627a7a723058205315f4d35e504a163ea9977d518b40bf2460af2a852e58bebbeae81e76b976fe0029608060405234801561001057600080fd5b5061017e806100206000396000f30060806040526004361061004c576000357c0100000000000000000000000000000000000000000000000000000000900463ffffffff1680630c55699c146100515780632e52d606146100e1575b600080fd5b34801561005d57600080fd5b5061006661010c565b6040518080602001828103825283818151815260200191508051906020019080838360005b838110156100a657808201518184015260208101905061008b565b50505050905090810190601f1680156100d35780820380516001836020036101000a031916815260200191505b509250505060405180910390f35b3480156100ed57600080fd5b506100f6610149565b6040518082815260200191505060405180910390f35b60606040805190810160405280600181526020017f7800000000000000000000000000000000000000000000000000000000000000815250905090565b600060029050905600a165627a7a723058206046e3f04fbfc3749504ca5a5884d98b55d398af4e42a2401c5158dc5ad990440029",
  "source": "pragma solidity ^0.4.0;\n\ninterface Letter {\n    function n() public returns (uint);\n}\n\ncontract A is Letter {\n    function n()\n        public\n        returns (uint) {\n        return 1;    \n    }\n}\n\ncontract B is A {}\n\ncontract C is Letter {\n    function n()\n        public\n        returns (uint) {\n        return 2;\n    }\n    \n    function x() \n        public\n        returns (string) {\n        return \"x\";        \n    }\n}\n\ncontract Alphabet {\n    \n    Letter[] private letters;\n    \n    event Printer(uint);\n    \n    function Alphabet()\n        public {\n        letters.push(new A());\n        letters.push(new B());\n        letters.push(new C());\n    }\n    \n    function loadRemote(address _addrX,\n                        address _addrY,\n                        address _addrZ)\n        public {\n        letters.push(Letter(_addrX));\n        letters.push(Letter(_addrY));\n        letters.push(Letter(_addrZ));    \n    }\n    \n    function printLetters()\n        public {\n        for(uint i = 0; i < letters.length; i++) {\n            Printer(letters[i].n());\n        }    \n    }\n}",
  "sourcePath": "/home/liweibo/code/solidity/contracts_library/contracts_library/contracts/willitscale/learning-solidity/tutorial-17/Alphabet.sol",
  "compiler": {
    "name": "solc",
    "version": "0.4.24+commit.e67f0147.Emscripten.clang"
  },
  "schemaVersion": "2.0.1",
  "updatedAt": "2018-08-14T07:39:20.663Z"
}