{
  "contractName": "ArrayPasser",
  "abi": [
    {
      "inputs": [
        {
          "name": "incmap",
          "type": "uint8[9]"
        }
      ],
      "payable": false,
      "stateMutability": "nonpayable",
      "type": "constructor"
    },
    {
      "constant": true,
      "inputs": [],
      "name": "getElevations",
      "outputs": [
        {
          "name": "",
          "type": "uint8[3][3]"
        }
      ],
      "payable": false,
      "stateMutability": "view",
      "type": "function"
    }
  ],
  "bytecode": "0x60806040526003600060146101000a81548160ff021916908360ff16021790555034801561002c57600080fd5b5060405161012080610382833981018060405281019080919050506000806000336000806101000a81548173ffffffffffffffffffffffffffffffffffffffff021916908373ffffffffffffffffffffffffffffffffffffffff16021790555060009250600091505b600060149054906101000a900460ff1660ff168260ff16101561014c57600090505b600060149054906101000a900460ff1660ff168160ff16101561013f57838360ff166009811015156100e557fe5b602002015160018260ff166003811015156100fc57fe5b600302018360ff1660038110151561011057fe5b0160000160006101000a81548160ff021916908360ff16021790555060018301925080806001019150506100b7565b8180600101925050610095565b505050506102238061015f6000396000f300608060405260043610610041576000357c0100000000000000000000000000000000000000000000000000000000900463ffffffff168063049b785214610046575b600080fd5b34801561005257600080fd5b5061005b6100bc565b604051808260036000925b818410156100ac5782846020020151600360200280838360005b8381101561009b578082015181840152602081019050610080565b505050509050019260010192610066565b9250505091505060405180910390f35b6100c46101a5565b6100cc6101a5565b600080600091505b600060149054906101000a900460ff1660ff168260ff16101561019c57600090505b600060149054906101000a900460ff1660ff168160ff16101561018f5760018160ff1660038110151561012557fe5b600302018260ff1660038110151561013957fe5b0160000160009054906101000a900460ff16838260ff1660038110151561015c57fe5b60200201518360ff1660038110151561017157fe5b602002019060ff16908160ff168152505080806001019150506100f6565b81806001019250506100d4565b82935050505090565b610120604051908101604052806003905b6101be6101d4565b8152602001906001900390816101b65790505090565b6060604051908101604052806003906020820280388339808201915050905050905600a165627a7a7230582039fabfd51554ae2fd89de796c8f150f49b2c6a99afe0f79719dc163e71bb29dd0029",
  "source": "// import \"./Mortal\";\n\n// contract Descriptor {\n    \n// \tfunction getDescription() constant returns (uint16[3]){\t\n// \t\tuint16[3] somevar;\n// \t\treturn somevar;\n// \t}\n// }\n\ncontract ArrayPasser /* is Mortal */ {\n\n    address creator;\n    \n    /***\n     * 1. Declare a 3x3 map of Tiles\n     ***/\n    uint8 mapsize = 3;\n    Tile[3][3] tiles; \n\n    struct Tile \n    {\n        /***\n         * 2. A tile is comprised of the owner, elevation and a pointer to a \n         *      contract that explains what the tile looks like\n         ****/\n        uint8 elevation;\n        //Descriptor descriptor;\n    }\n    \n    /***\n     * 3. Upon construction, initialize the internal map elevations.\n     *      The Descriptors start uninitialized.\n     ***/\n    function ArrayPasser(uint8[9] incmap) \n    {\n        creator = msg.sender;\n        uint8 counter = 0;\n        for(uint8 y = 0; y < mapsize; y++)\n       \t{\n           \tfor(uint8 x = 0; x < mapsize; x++)\n           \t{\n           \t\ttiles[x][y].elevation = incmap[counter]; \n           \t\tcounter = counter + 1;\n           \t}\t\n        }\t\n    }\n   \n    /***\n     * 4. After contract mined, check the map elevations\n     ***/\n    function getElevations() constant returns (uint8[3][3])\n    {\n        uint8[3][3] memory elevations;\n        for(uint8 y = 0; y < mapsize; y++)\n        {\n        \tfor(uint8 x = 0; x < mapsize; x++)\n        \t{\n        \t\televations[x][y] = tiles[x][y].elevation; \n        \t}\t\n        }\t\n    \treturn elevations;\n    }\n}",
  "sourcePath": "/home/liweibo/code/solidity/contracts_library/contracts_library/contracts/fivedogit/solidity-baby-steps/contracts/ArrayPasser.sol",
  "compiler": {
    "name": "solc",
    "version": "0.4.24+commit.e67f0147.Emscripten.clang"
  },
  "schemaVersion": "2.0.1",
  "updatedAt": "2018-08-14T07:39:20.620Z"
}