{
  "contractName": "Assembly",
  "abi": [
    {
      "constant": false,
      "inputs": [],
      "name": "nativeLoops",
      "outputs": [
        {
          "name": "_r",
          "type": "uint256"
        }
      ],
      "payable": false,
      "stateMutability": "nonpayable",
      "type": "function"
    },
    {
      "constant": false,
      "inputs": [],
      "name": "asmLoops",
      "outputs": [
        {
          "name": "_r",
          "type": "uint256"
        }
      ],
      "payable": false,
      "stateMutability": "nonpayable",
      "type": "function"
    },
    {
      "constant": false,
      "inputs": [],
      "name": "inlineAsmLoops",
      "outputs": [
        {
          "name": "_r",
          "type": "uint256"
        }
      ],
      "payable": false,
      "stateMutability": "nonpayable",
      "type": "function"
    }
  ],
  "bytecode": "0x608060405234801561001057600080fd5b5061016d806100206000396000f300608060405260043610610057576000357c0100000000000000000000000000000000000000000000000000000000900463ffffffff1680635d7d73411461005c5780639c81ccc614610087578063e22ead3b146100b2575b600080fd5b34801561006857600080fd5b506100716100dd565b6040518082815260200191505060405180910390f35b34801561009357600080fd5b5061009c6100fb565b6040518082815260200191505060405180910390f35b3480156100be57600080fd5b506100c7610117565b6040518082815260200191505060405180910390f35b600080600a5b8160010191508260010192508082106100e357505090565b6000805b600181019050600182019150600a81106100ff575090565b600080600090505b600a81101561013d578180600101925050808060010191505061011f565b50905600a165627a7a72305820fbc7f7a906cef49a02ae75fcfa985e20bcd15131aca2eb323d6161e1973831a90029",
  "source": "pragma solidity ^0.4.0;\n\ncontract Assembly {\n    function nativeLoops() public returns (uint _r) {\n        for(uint i = 0; i < 10; i++) {\n            _r++;\n        }\n    }\n    \n    function asmLoops() public returns (uint _r) {\n        assembly {\n            let i := 0\n            loop:\n            i := add(i, 1)\n            _r := add(_r, 1)\n            jumpi(loop, lt(i, 10))\n        }\n    }\n    \n    function inlineAsmLoops() public returns (uint _r) {\n        assembly {\n            0 // i\n            10 // max\n            \n            loop:\n            // i := add(i, 1)\n            dup2 \n            1\n            add\n            swap2\n            pop\n            \n            // _r := add(_r, 1)\n            dup3 \n            1\n            add\n            swap3\n            pop\n            \n            // lt(i, 10)\n            dup1\n            dup3\n            lt\n            \n            // jumpi(loop, lt(i, 10))\n            loop\n            jumpi\n            \n            pop\n            pop\n        }\n    }\n}",
  "sourcePath": "/home/liweibo/code/solidity/contracts_library/contracts_library/contracts/willitscale/learning-solidity/tutorial-13/Assembly.sol",
  "compiler": {
    "name": "solc",
    "version": "0.4.24+commit.e67f0147.Emscripten.clang"
  },
  "schemaVersion": "2.0.1",
  "updatedAt": "2018-08-14T07:39:20.661Z"
}