{
  "contractName": "Bank2",
  "abi": [
    {
      "inputs": [],
      "payable": false,
      "stateMutability": "nonpayable",
      "type": "constructor"
    },
    {
      "constant": false,
      "inputs": [],
      "name": "depositAmount",
      "outputs": [
        {
          "name": "",
          "type": "uint256"
        }
      ],
      "payable": true,
      "stateMutability": "payable",
      "type": "function"
    },
    {
      "constant": true,
      "inputs": [],
      "name": "numberOfTimesAmountDeposited",
      "outputs": [
        {
          "name": "",
          "type": "uint256"
        }
      ],
      "payable": false,
      "stateMutability": "view",
      "type": "function"
    },
    {
      "constant": false,
      "inputs": [],
      "name": "kill",
      "outputs": [],
      "payable": false,
      "stateMutability": "nonpayable",
      "type": "function"
    }
  ],
  "bytecode": "0x608060405234801561001057600080fd5b50336000806101000a81548173ffffffffffffffffffffffffffffffffffffffff021916908373ffffffffffffffffffffffffffffffffffffffff16021790555060006001819055506101a6806100686000396000f300608060405260043610610057576000357c0100000000000000000000000000000000000000000000000000000000900463ffffffff168063419759f51461005c57806341c0e1b51461007a578063b239325214610091575b600080fd5b6100646100bc565b6040518082815260200191505060405180910390f35b34801561008657600080fd5b5061008f6100df565b005b34801561009d57600080fd5b506100a6610170565b6040518082815260200191505060405180910390f35b6000803411156100d25760018054016001819055505b6100da610170565b905090565b6000809054906101000a900473ffffffffffffffffffffffffffffffffffffffff1673ffffffffffffffffffffffffffffffffffffffff163373ffffffffffffffffffffffffffffffffffffffff16141561016e576000809054906101000a900473ffffffffffffffffffffffffffffffffffffffff1673ffffffffffffffffffffffffffffffffffffffff16ff5b565b60006001549050905600a165627a7a7230582092caaf277b956c0fecf1d9bce3679c259ade7c20211b540a7883eeee97be9b5e0029",
  "source": "pragma solidity ^0.4.18;\ncontract Bank2 {\n    address owner;\n    uint amount;\n\n    function Bank2() public {\n        owner = msg.sender;\n        amount = 0;\n    }\n\n    function depositAmount() payable returns(uint) {\n        if(msg.value >0)\n            amount = amount + 1;\n        return numberOfTimesAmountDeposited();\n    }\n\n    function numberOfTimesAmountDeposited() constant returns (uint) {\n        return amount;\n    }\n\n    function kill() {\n        if(msg.sender == owner)\n            selfdestruct(owner); \n    }\n}\n  \n",
  "sourcePath": "/home/liweibo/code/solidity/contracts_library/contracts_library/contracts/ram1991/Solidity-Smart-contracts/Bank2.sol",
  "compiler": {
    "name": "solc",
    "version": "0.4.24+commit.e67f0147.Emscripten.clang"
  },
  "schemaVersion": "2.0.1",
  "updatedAt": "2018-08-14T07:39:20.652Z"
}