{
  "contractName": "Bank",
  "abi": [
    {
      "inputs": [
        {
          "name": "amount",
          "type": "uint256"
        }
      ],
      "payable": false,
      "stateMutability": "nonpayable",
      "type": "constructor"
    },
    {
      "constant": false,
      "inputs": [
        {
          "name": "amount",
          "type": "uint256"
        }
      ],
      "name": "deposit",
      "outputs": [],
      "payable": false,
      "stateMutability": "nonpayable",
      "type": "function"
    },
    {
      "constant": false,
      "inputs": [
        {
          "name": "amount",
          "type": "uint256"
        }
      ],
      "name": "withdraw",
      "outputs": [],
      "payable": false,
      "stateMutability": "nonpayable",
      "type": "function"
    },
    {
      "constant": false,
      "inputs": [],
      "name": "balance",
      "outputs": [
        {
          "name": "",
          "type": "uint256"
        }
      ],
      "payable": false,
      "stateMutability": "nonpayable",
      "type": "function"
    },
    {
      "constant": false,
      "inputs": [
        {
          "name": "amount",
          "type": "uint256"
        }
      ],
      "name": "checkValue",
      "outputs": [
        {
          "name": "",
          "type": "bool"
        }
      ],
      "payable": false,
      "stateMutability": "nonpayable",
      "type": "function"
    },
    {
      "constant": false,
      "inputs": [],
      "name": "loan",
      "outputs": [
        {
          "name": "",
          "type": "bool"
        }
      ],
      "payable": false,
      "stateMutability": "nonpayable",
      "type": "function"
    }
  ],
  "bytecode": "0x608060405234801561001057600080fd5b50604051602080610331833981018060405281019080805190602001909291905050508060008190555033600160006101000a81548173ffffffffffffffffffffffffffffffffffffffff021916908373ffffffffffffffffffffffffffffffffffffffff160217905550506102a68061008b6000396000f30060806040526004361061006d576000357c0100000000000000000000000000000000000000000000000000000000900463ffffffff16806318db62fb146100725780632e1a7d4d146100b7578063b69ef8a8146100e4578063b6b55f251461010f578063d285b7b41461013c575b600080fd5b34801561007e57600080fd5b5061009d6004803603810190808035906020019092919050505061016b565b604051808215151515815260200191505060405180910390f35b3480156100c357600080fd5b506100e26004803603810190808035906020019092919050505061017a565b005b3480156100f057600080fd5b506100f96101f7565b6040518082815260200191505060405180910390f35b34801561011b57600080fd5b5061013a60048036038101908080359060200190929190505050610200565b005b34801561014857600080fd5b5061015161026e565b604051808215151515815260200191505060405180910390f35b60008160005410159050919050565b3373ffffffffffffffffffffffffffffffffffffffff16600160009054906101000a900473ffffffffffffffffffffffffffffffffffffffff1673ffffffffffffffffffffffffffffffffffffffff161415156101d657600080fd5b6101df8161016b565b156101f4578060008082825403925050819055505b50565b60008054905090565b3373ffffffffffffffffffffffffffffffffffffffff16600160009054906101000a900473ffffffffffffffffffffffffffffffffffffffff1673ffffffffffffffffffffffffffffffffffffffff1614151561025c57600080fd5b80600080828254019250508190555050565b600080600054119050905600a165627a7a72305820abbbffd5d87d2bc50a9cfd15211a171b162950a817f36c8fc2a92e3c2b33735a0029",
  "source": "pragma solidity ^0.4.0;\n\ninterface Regulator {\n    function checkValue(uint amount) returns (bool);\n    function loan() returns (bool);\n}\n\ncontract Bank is Regulator {\n    uint private value;\n    address private owner;\n    \n    modifier ownerFunc {\n        require(owner == msg.sender);\n        _;\n    }\n\n    function Bank(uint amount) {\n        value = amount;\n        owner = msg.sender;\n    }\n    \n    function deposit(uint amount) ownerFunc {\n        value += amount;\n    }\n    \n    function withdraw(uint amount) ownerFunc {\n        if (checkValue(amount)) {\n            value -= amount;\n        }\n    }\n    \n    function balance() returns (uint) {\n        return value;\n    }\n    \n    function checkValue(uint amount) returns (bool) {\n        // Classic mistake in the tutorial value should be above the amount\n        return value >= amount;\n    }\n    \n    function loan() returns (bool) {\n        return value > 0;\n    }\n}\n\ncontract MyFirstContract is Bank(10) {\n    string private name;\n    uint private age;\n    \n    function setName(string newName) {\n        name = newName;\n    }\n    \n    function getName() returns (string) {\n        return name;\n    }\n    \n    function setAge(uint newAge) {\n        age = newAge;\n    }\n    \n    function getAge() returns (uint) {\n        return age;\n    }\n}\n\ncontract TestThrows {\n    function testAssert() {\n        assert(1 == 2);\n    }\n    \n    function testRequire() {\n        require(2 == 1);\n    }\n    \n    function testRevert() {\n        revert();\n    }\n    \n    function testThrow() {\n        throw;\n    }\n}\n\n",
  "sourcePath": "/home/liweibo/code/solidity/contracts_library/contracts_library/contracts/willitscale/learning-solidity/tutorial-03/MyFirstContract.sol",
  "compiler": {
    "name": "solc",
    "version": "0.4.24+commit.e67f0147.Emscripten.clang"
  },
  "schemaVersion": "2.0.1",
  "updatedAt": "2018-08-14T07:39:20.657Z"
}