{
  "contractName": "BasicInfoGetter",
  "abi": [
    {
      "inputs": [],
      "payable": false,
      "stateMutability": "nonpayable",
      "type": "constructor"
    },
    {
      "constant": true,
      "inputs": [],
      "name": "getCurrentMinerAddress",
      "outputs": [
        {
          "name": "",
          "type": "address"
        }
      ],
      "payable": false,
      "stateMutability": "view",
      "type": "function"
    },
    {
      "constant": true,
      "inputs": [],
      "name": "getCurrentDifficulty",
      "outputs": [
        {
          "name": "",
          "type": "uint256"
        }
      ],
      "payable": false,
      "stateMutability": "view",
      "type": "function"
    },
    {
      "constant": true,
      "inputs": [],
      "name": "getCurrentGaslimit",
      "outputs": [
        {
          "name": "",
          "type": "uint256"
        }
      ],
      "payable": false,
      "stateMutability": "view",
      "type": "function"
    },
    {
      "constant": true,
      "inputs": [],
      "name": "getCurrentBlockNumber",
      "outputs": [
        {
          "name": "",
          "type": "uint256"
        }
      ],
      "payable": false,
      "stateMutability": "view",
      "type": "function"
    },
    {
      "constant": true,
      "inputs": [],
      "name": "getBlockTimestamp",
      "outputs": [
        {
          "name": "",
          "type": "uint256"
        }
      ],
      "payable": false,
      "stateMutability": "view",
      "type": "function"
    },
    {
      "constant": true,
      "inputs": [],
      "name": "getMsgData",
      "outputs": [
        {
          "name": "",
          "type": "bytes"
        }
      ],
      "payable": false,
      "stateMutability": "view",
      "type": "function"
    },
    {
      "constant": true,
      "inputs": [],
      "name": "getMsgSender",
      "outputs": [
        {
          "name": "",
          "type": "address"
        }
      ],
      "payable": false,
      "stateMutability": "view",
      "type": "function"
    },
    {
      "constant": true,
      "inputs": [],
      "name": "getMsgValue",
      "outputs": [
        {
          "name": "",
          "type": "uint256"
        }
      ],
      "payable": false,
      "stateMutability": "view",
      "type": "function"
    },
    {
      "constant": true,
      "inputs": [],
      "name": "getMsgGas",
      "outputs": [
        {
          "name": "",
          "type": "uint256"
        }
      ],
      "payable": false,
      "stateMutability": "view",
      "type": "function"
    },
    {
      "constant": true,
      "inputs": [],
      "name": "getTxGasprice",
      "outputs": [
        {
          "name": "",
          "type": "uint256"
        }
      ],
      "payable": false,
      "stateMutability": "view",
      "type": "function"
    },
    {
      "constant": true,
      "inputs": [],
      "name": "getTxOrigin",
      "outputs": [
        {
          "name": "",
          "type": "address"
        }
      ],
      "payable": false,
      "stateMutability": "view",
      "type": "function"
    },
    {
      "constant": true,
      "inputs": [],
      "name": "getContractAddress",
      "outputs": [
        {
          "name": "",
          "type": "address"
        }
      ],
      "payable": false,
      "stateMutability": "view",
      "type": "function"
    },
    {
      "constant": true,
      "inputs": [],
      "name": "getContractBalance",
      "outputs": [
        {
          "name": "",
          "type": "uint256"
        }
      ],
      "payable": false,
      "stateMutability": "view",
      "type": "function"
    },
    {
      "constant": false,
      "inputs": [],
      "name": "kill",
      "outputs": [],
      "payable": false,
      "stateMutability": "nonpayable",
      "type": "function"
    }
  ],
  "bytecode": "0x608060405234801561001057600080fd5b50336000806101000a81548173ffffffffffffffffffffffffffffffffffffffff021916908373ffffffffffffffffffffffffffffffffffffffff16021790555061059f806100606000396000f3006080604052600436106100d0576000357c0100000000000000000000000000000000000000000000000000000000900463ffffffff16806332a2c5d0146100d557806341c0e1b51461012c5780636f9fb98a146101435780636fd902e11461016e57806377e5bf8414610199578063796b89b9146101c45780637a6ce2e1146101ef57806392b7d5b9146102465780639d5c606114610271578063a1188e561461029c578063a17042cc146102c7578063b8077e28146102f2578063c8e7ca2e14610349578063f8f46b5f146103d9575b600080fd5b3480156100e157600080fd5b506100ea610430565b604051808273ffffffffffffffffffffffffffffffffffffffff1673ffffffffffffffffffffffffffffffffffffffff16815260200191505060405180910390f35b34801561013857600080fd5b50610141610438565b005b34801561014f57600080fd5b506101586104c9565b6040518082815260200191505060405180910390f35b34801561017a57600080fd5b506101836104e8565b6040518082815260200191505060405180910390f35b3480156101a557600080fd5b506101ae6104f0565b6040518082815260200191505060405180910390f35b3480156101d057600080fd5b506101d96104f8565b6040518082815260200191505060405180910390f35b3480156101fb57600080fd5b50610204610500565b604051808273ffffffffffffffffffffffffffffffffffffffff1673ffffffffffffffffffffffffffffffffffffffff16815260200191505060405180910390f35b34801561025257600080fd5b5061025b610508565b6040518082815260200191505060405180910390f35b34801561027d57600080fd5b50610286610510565b6040518082815260200191505060405180910390f35b3480156102a857600080fd5b506102b1610518565b6040518082815260200191505060405180910390f35b3480156102d357600080fd5b506102dc610520565b6040518082815260200191505060405180910390f35b3480156102fe57600080fd5b50610307610528565b604051808273ffffffffffffffffffffffffffffffffffffffff1673ffffffffffffffffffffffffffffffffffffffff16815260200191505060405180910390f35b34801561035557600080fd5b5061035e610530565b6040518080602001828103825283818151815260200191508051906020019080838360005b8381101561039e578082015181840152602081019050610383565b50505050905090810190601f1680156103cb5780820380516001836020036101000a031916815260200191505b509250505060405180910390f35b3480156103e557600080fd5b506103ee61056b565b604051808273ffffffffffffffffffffffffffffffffffffffff1673ffffffffffffffffffffffffffffffffffffffff16815260200191505060405180910390f35b600030905090565b6000809054906101000a900473ffffffffffffffffffffffffffffffffffffffff1673ffffffffffffffffffffffffffffffffffffffff163373ffffffffffffffffffffffffffffffffffffffff1614156104c7576000809054906101000a900473ffffffffffffffffffffffffffffffffffffffff1673ffffffffffffffffffffffffffffffffffffffff16ff5b565b60003073ffffffffffffffffffffffffffffffffffffffff1631905090565b600043905090565b60003a905090565b600042905090565b600033905090565b600045905090565b60005a905090565b600044905090565b600034905090565b600032905090565b60606000368080601f016020809104026020016040519081016040528093929190818152602001838380828437820191505050505050905090565b6000419050905600a165627a7a72305820db54aa0055674027ca9a3abc0b7bd0c9058d7c2737f1c98993fe58dfb359671c0029",
  "source": "/*\n\tThis is a demonstration of the various global variables available to contracts.\n\tThis list is probably not exhaustive, especially weeks and months from now. (9/2015)\n*/\n\ncontract BasicInfoGetter {\n\n    address creator;\n\n    function BasicInfoGetter() public \n    {\n        creator = msg.sender; \t\t\t\t\t\t\t\t    \n    }\n\t\n\tfunction getCurrentMinerAddress() constant returns (address) // get CURRENT block miner's address, \n\t{\t\t\t\t\t\t\t\t\t\t\t\t\t\t     // not necessarily the address of the miner when this block was born\n\t\treturn block.coinbase;\n\t}\n\t\n\tfunction getCurrentDifficulty() constant returns (uint)\n\t{\n\t\treturn block.difficulty;\n\t}\n\t\n\tfunction getCurrentGaslimit() constant returns (uint)  // the most gas that can be spent on any given transaction right now\n\t{\t\t\t\t\t\t\t\t\t\t\t\t\t  \n\t\treturn block.gaslimit;\n\t}\n\t\n\tfunction getCurrentBlockNumber() constant returns (uint)\n\t{\n\t\treturn block.number;\n\t}\n    \n    function getBlockTimestamp() constant returns (uint) // returns current block timestamp in SECONDS (not ms) from epoch\n    {\t\t\t\t\t\t\t\t\t\t\t\t\t\n    \treturn block.timestamp; \t\t\t\t\t\t // also \"now\" == \"block.timestamp\", as in \"return now;\"\n    }\n    \n    function getMsgData() constant returns (bytes) \t\t// The data of a call to this function. Always returns \"0xc8e7ca2e\" for me.\n    {\t\t\t\t\t\t\t\t\t\t            // adding an input parameter would probably change it with each diff call?\n    \treturn msg.data;\n    }\n    \n    function getMsgSender() constant returns (address)  // Returns the address of whomever made this call\n    {\t\t\t\t\t\t\t\t\t\t\t\t\t// (i.e. not necessarily the creator of the contract)\n    \treturn msg.sender;\n    }\n    \n    function getMsgValue() constant returns (uint)\t\t// returns amt of wei sent with this call\n    {\n    \treturn msg.value;\n    }\n    \n    /***  A note about gas and gasprice:\n     \n     Every transaction must specify a quantity of \"gas\" that it is willing to consume (called startgas), \n     and the fee that it is willing to pay per unit gas (gasprice). At the start of execution, \n     startgas * gasprice ether are removed from the transaction sender's account. \n     Whatever is not used is immediately refunded.\n     \n     */\n    \n    function getMsgGas() constant returns (uint)        \n    {\t\t\t\t\t\t\t\t\t\t\t\t\t\n    \treturn msg.gas;\n    }\n    \n\tfunction getTxGasprice() constant returns (uint) \t// \"gasprice\" is the amount of gas the sender was *willing* to pay. 50000000 for me. (geth default)\n    {\t\t\t\t\t\t\t\t\t\t\t     \t\n    \treturn tx.gasprice;\n    }\n    \n    function getTxOrigin() constant returns (address) \t// returns sender of the transaction\n    {\t\t\t\t\t\t\t\t\t\t\t   \t\t// What if there is a chain of calls? I think it returns the first sender, whoever provided the gas.\n    \treturn tx.origin;\n    }\n    \n\tfunction getContractAddress() constant returns (address) \n\t{\n\t\treturn this;\n\t}\n    \n    function getContractBalance() constant returns (uint) \n    {\n    \treturn this.balance;\n    }\n    \n    /**********\n     Standard kill() function to recover funds \n     **********/\n    \n    function kill()\n    { \n        if (msg.sender == creator)\n            suicide(creator);  // kills this contract and sends remaining funds back to creator\n    }\n        \n}\n\n\n/*\n\nvar abi = [{\n    \"constant\": true,\n    \"inputs\": [],\n    \"name\": \"getContractAddress\",\n    \"outputs\": [{\n        \"name\": \"\",\n        \"type\": \"address\"\n    }],\n    \"type\": \"function\"\n}, {\n    \"constant\": false,\n    \"inputs\": [],\n    \"name\": \"kill\",\n    \"outputs\": [{\n        \"name\": \"\",\n        \"type\": \"bool\"\n    }],\n    \"type\": \"function\"\n}, {\n    \"constant\": true,\n    \"inputs\": [],\n    \"name\": \"getContractBalance\",\n    \"outputs\": [{\n        \"name\": \"\",\n        \"type\": \"uint256\"\n    }],\n    \"type\": \"function\"\n}, {\n    \"constant\": true,\n    \"inputs\": [],\n    \"name\": \"getCurrentBlockNumber\",\n    \"outputs\": [{\n        \"name\": \"\",\n        \"type\": \"uint256\"\n    }],\n    \"type\": \"function\"\n}, {\n    \"constant\": true,\n    \"inputs\": [],\n    \"name\": \"getTxGasprice\",\n    \"outputs\": [{\n        \"name\": \"\",\n        \"type\": \"uint256\"\n    }],\n    \"type\": \"function\"\n}, {\n    \"constant\": true,\n    \"inputs\": [],\n    \"name\": \"getBlockTimestamp\",\n    \"outputs\": [{\n        \"name\": \"\",\n        \"type\": \"uint256\"\n    }],\n    \"type\": \"function\"\n}, {\n    \"constant\": true,\n    \"inputs\": [],\n    \"name\": \"getMsgSender\",\n    \"outputs\": [{\n        \"name\": \"\",\n        \"type\": \"address\"\n    }],\n    \"type\": \"function\"\n}, {\n    \"constant\": true,\n    \"inputs\": [],\n    \"name\": \"getCurrentGaslimit\",\n    \"outputs\": [{\n        \"name\": \"\",\n        \"type\": \"uint256\"\n    }],\n    \"type\": \"function\"\n}, {\n    \"constant\": true,\n    \"inputs\": [],\n    \"name\": \"getMsgGas\",\n    \"outputs\": [{\n        \"name\": \"\",\n        \"type\": \"uint256\"\n    }],\n    \"type\": \"function\"\n}, {\n    \"constant\": true,\n    \"inputs\": [],\n    \"name\": \"getCurrentDifficulty\",\n    \"outputs\": [{\n        \"name\": \"\",\n        \"type\": \"uint256\"\n    }],\n    \"type\": \"function\"\n}, {\n    \"constant\": true,\n    \"inputs\": [],\n    \"name\": \"getMsgValue\",\n    \"outputs\": [{\n        \"name\": \"\",\n        \"type\": \"uint256\"\n    }],\n    \"type\": \"function\"\n}, {\n    \"constant\": true,\n    \"inputs\": [],\n    \"name\": \"getTxOrigin\",\n    \"outputs\": [{\n        \"name\": \"\",\n        \"type\": \"address\"\n    }],\n    \"type\": \"function\"\n}, {\n    \"constant\": true,\n    \"inputs\": [],\n    \"name\": \"getMsgData\",\n    \"outputs\": [{\n        \"name\": \"\",\n        \"type\": \"bytes\"\n    }],\n    \"type\": \"function\"\n}, {\n    \"constant\": true,\n    \"inputs\": [],\n    \"name\": \"getCurrentMinerAddress\",\n    \"outputs\": [{\n        \"name\": \"\",\n        \"type\": \"address\"\n    }],\n    \"type\": \"function\"\n}, {\n    \"inputs\": [],\n    \"type\": \"constructor\"\n}];\n*/",
  "sourcePath": "/home/liweibo/code/solidity/contracts_library/contracts_library/contracts/fivedogit/solidity-baby-steps/contracts/BasicInfoGetter.sol",
  "compiler": {
    "name": "solc",
    "version": "0.4.24+commit.e67f0147.Emscripten.clang"
  },
  "schemaVersion": "2.0.1",
  "updatedAt": "2018-08-14T07:39:20.621Z"
}