{
  "contractName": "Basic",
  "abi": [
    {
      "inputs": [],
      "payable": false,
      "stateMutability": "nonpayable",
      "type": "constructor"
    },
    {
      "constant": true,
      "inputs": [],
      "name": "getMinersAddress",
      "outputs": [
        {
          "name": "",
          "type": "address"
        }
      ],
      "payable": false,
      "stateMutability": "view",
      "type": "function"
    },
    {
      "constant": true,
      "inputs": [],
      "name": "getCurrentBlockDifficulty",
      "outputs": [
        {
          "name": "",
          "type": "uint256"
        }
      ],
      "payable": false,
      "stateMutability": "view",
      "type": "function"
    },
    {
      "constant": true,
      "inputs": [],
      "name": "getCurrentBlockGasLimit",
      "outputs": [
        {
          "name": "",
          "type": "uint256"
        }
      ],
      "payable": false,
      "stateMutability": "view",
      "type": "function"
    },
    {
      "constant": true,
      "inputs": [],
      "name": "getCurrentBlockNumber",
      "outputs": [
        {
          "name": "",
          "type": "uint256"
        }
      ],
      "payable": false,
      "stateMutability": "view",
      "type": "function"
    },
    {
      "constant": true,
      "inputs": [],
      "name": "getCurrentBlockTimeStamp",
      "outputs": [
        {
          "name": "",
          "type": "uint256"
        }
      ],
      "payable": false,
      "stateMutability": "view",
      "type": "function"
    },
    {
      "constant": true,
      "inputs": [],
      "name": "getMessageData",
      "outputs": [
        {
          "name": "",
          "type": "bytes"
        }
      ],
      "payable": false,
      "stateMutability": "view",
      "type": "function"
    },
    {
      "constant": true,
      "inputs": [],
      "name": "getOwnerAddress",
      "outputs": [
        {
          "name": "",
          "type": "address"
        }
      ],
      "payable": false,
      "stateMutability": "view",
      "type": "function"
    },
    {
      "constant": true,
      "inputs": [],
      "name": "getMessageValue",
      "outputs": [
        {
          "name": "",
          "type": "uint256"
        }
      ],
      "payable": false,
      "stateMutability": "view",
      "type": "function"
    },
    {
      "constant": true,
      "inputs": [],
      "name": "getCurrentTimeStamp",
      "outputs": [
        {
          "name": "",
          "type": "uint256"
        }
      ],
      "payable": false,
      "stateMutability": "view",
      "type": "function"
    },
    {
      "constant": true,
      "inputs": [],
      "name": "getTransactionGasPrice",
      "outputs": [
        {
          "name": "",
          "type": "uint256"
        }
      ],
      "payable": false,
      "stateMutability": "view",
      "type": "function"
    },
    {
      "constant": true,
      "inputs": [],
      "name": "getTransactionOrigin",
      "outputs": [
        {
          "name": "",
          "type": "address"
        }
      ],
      "payable": false,
      "stateMutability": "view",
      "type": "function"
    },
    {
      "constant": true,
      "inputs": [],
      "name": "getCurrentAddress",
      "outputs": [
        {
          "name": "",
          "type": "address"
        }
      ],
      "payable": false,
      "stateMutability": "view",
      "type": "function"
    },
    {
      "constant": true,
      "inputs": [],
      "name": "getCurrentBlance",
      "outputs": [
        {
          "name": "",
          "type": "uint256"
        }
      ],
      "payable": false,
      "stateMutability": "view",
      "type": "function"
    },
    {
      "constant": false,
      "inputs": [],
      "name": "kill",
      "outputs": [],
      "payable": false,
      "stateMutability": "nonpayable",
      "type": "function"
    }
  ],
  "bytecode": "0x608060405234801561001057600080fd5b50336000806101000a81548173ffffffffffffffffffffffffffffffffffffffff021916908373ffffffffffffffffffffffffffffffffffffffff16021790555061059f806100606000396000f3006080604052600436106100d0576000357c0100000000000000000000000000000000000000000000000000000000900463ffffffff1680630c4f65bd146100d557806337ddefdb1461012c57806341c0e1b51461018357806347d52d861461019a5780634c7ecd4e146101c55780636fd902e1146101f057806372425d9d1461021b5780637cfc2891146102465780637e5e219c1461027157806386d516e81461029c578063d9af94af146102c7578063e20c6d3d146102f2578063e717ea6114610382578063f0fca67d146103d9575b600080fd5b3480156100e157600080fd5b506100ea610430565b604051808273ffffffffffffffffffffffffffffffffffffffff1673ffffffffffffffffffffffffffffffffffffffff16815260200191505060405180910390f35b34801561013857600080fd5b50610141610438565b604051808273ffffffffffffffffffffffffffffffffffffffff1673ffffffffffffffffffffffffffffffffffffffff16815260200191505060405180910390f35b34801561018f57600080fd5b50610198610440565b005b3480156101a657600080fd5b506101af6104d1565b6040518082815260200191505060405180910390f35b3480156101d157600080fd5b506101da6104d9565b6040518082815260200191505060405180910390f35b3480156101fc57600080fd5b506102056104e1565b6040518082815260200191505060405180910390f35b34801561022757600080fd5b506102306104e9565b6040518082815260200191505060405180910390f35b34801561025257600080fd5b5061025b6104f1565b6040518082815260200191505060405180910390f35b34801561027d57600080fd5b50610286610510565b6040518082815260200191505060405180910390f35b3480156102a857600080fd5b506102b1610518565b6040518082815260200191505060405180910390f35b3480156102d357600080fd5b506102dc610520565b6040518082815260200191505060405180910390f35b3480156102fe57600080fd5b50610307610528565b6040518080602001828103825283818151815260200191508051906020019080838360005b8381101561034757808201518184015260208101905061032c565b50505050905090810190601f1680156103745780820380516001836020036101000a031916815260200191505b509250505060405180910390f35b34801561038e57600080fd5b50610397610563565b604051808273ffffffffffffffffffffffffffffffffffffffff1673ffffffffffffffffffffffffffffffffffffffff16815260200191505060405180910390f35b3480156103e557600080fd5b506103ee61056b565b604051808273ffffffffffffffffffffffffffffffffffffffff1673ffffffffffffffffffffffffffffffffffffffff16815260200191505060405180910390f35b600033905090565b600032905090565b6000809054906101000a900473ffffffffffffffffffffffffffffffffffffffff1673ffffffffffffffffffffffffffffffffffffffff163373ffffffffffffffffffffffffffffffffffffffff1614156104cf576000809054906101000a900473ffffffffffffffffffffffffffffffffffffffff1673ffffffffffffffffffffffffffffffffffffffff16ff5b565b600034905090565b60003a905090565b600043905090565b600044905090565b60003073ffffffffffffffffffffffffffffffffffffffff1631905090565b600042905090565b600045905090565b600042905090565b60606000368080601f016020809104026020016040519081016040528093929190818152602001838380828437820191505050505050905090565b600030905090565b6000419050905600a165627a7a723058202c5966d3fdb7c81c52cbf22a3bac476a93262b7a98f6255196c2c736ea7d1e950029",
  "source": "pragma solidity ^0.4.18;\n\ncontract Basic {\n    \n    address owner;\n    \n    function Basic () {\n    owner = msg.sender;\n    \n    }\n    \n    function getMinersAddress() constant returns(address){\n        return block.coinbase;\n    }\n    function getCurrentBlockDifficulty() constant returns(uint){\n        return block.difficulty;\n    }\n    function getCurrentBlockGasLimit() constant returns(uint){\n        return block.gaslimit;\n    }\n    function getCurrentBlockNumber() constant returns(uint){\n        return block.number;\n    }\n    function getCurrentBlockTimeStamp() constant returns(uint){\n        return block.timestamp;\n    }\n    function getMessageData() constant returns(bytes){\n        return msg.data;\n    }\n    function getOwnerAddress() constant returns(address){\n        return msg.sender;\n    }\n    function getMessageValue() constant returns(uint){\n        return msg.value;\n    }\n    function getCurrentTimeStamp() constant returns(uint){\n        return now;\n    }\n     function getTransactionGasPrice() constant returns(uint){\n        return tx.gasprice;\n     }\n     function getTransactionOrigin() constant returns(address){\n        return tx.origin;\n     }\n     function getCurrentAddress() constant returns(address){\n        return this;\n     }\n     function getCurrentBlance() constant returns(uint){\n        return this.balance;\n     }\n     \n     function kill() {\n     if(msg.sender == owner)\n     selfdestruct(owner);\n     }\n}\n     \n",
  "sourcePath": "/home/liweibo/code/solidity/contracts_library/contracts_library/contracts/ram1991/Solidity-Smart-contracts/Basic.sol",
  "compiler": {
    "name": "solc",
    "version": "0.4.24+commit.e67f0147.Emscripten.clang"
  },
  "schemaVersion": "2.0.1",
  "updatedAt": "2018-08-14T07:39:20.652Z"
}