{
  "contractName": "Bytes32Passer",
  "abi": [
    {
      "inputs": [],
      "payable": false,
      "stateMutability": "nonpayable",
      "type": "constructor"
    },
    {
      "constant": false,
      "inputs": [],
      "name": "getDescription",
      "outputs": [],
      "payable": false,
      "stateMutability": "nonpayable",
      "type": "function"
    },
    {
      "constant": true,
      "inputs": [],
      "name": "getSavedVar",
      "outputs": [
        {
          "name": "",
          "type": "bytes32"
        }
      ],
      "payable": false,
      "stateMutability": "view",
      "type": "function"
    },
    {
      "constant": true,
      "inputs": [],
      "name": "getSavedBytes",
      "outputs": [
        {
          "name": "",
          "type": "bytes"
        }
      ],
      "payable": false,
      "stateMutability": "view",
      "type": "function"
    },
    {
      "constant": true,
      "inputs": [],
      "name": "getSavedString",
      "outputs": [
        {
          "name": "",
          "type": "string"
        }
      ],
      "payable": false,
      "stateMutability": "view",
      "type": "function"
    },
    {
      "constant": false,
      "inputs": [],
      "name": "kill",
      "outputs": [],
      "payable": false,
      "stateMutability": "nonpayable",
      "type": "function"
    }
  ],
  "bytecode": "0x608060405234801561001057600080fd5b50336000806101000a81548173ffffffffffffffffffffffffffffffffffffffff021916908373ffffffffffffffffffffffffffffffffffffffff16021790555061075b806100606000396000f30060806040526004361061006d576000357c0100000000000000000000000000000000000000000000000000000000900463ffffffff1680631a0925411461007257806341c0e1b5146100895780636df3edef146100a0578063812cddf214610130578063930ed251146101c0575b600080fd5b34801561007e57600080fd5b506100876101f3565b005b34801561009557600080fd5b5061009e6103db565b005b3480156100ac57600080fd5b506100b561046c565b6040518080602001828103825283818151815260200191508051906020019080838360005b838110156100f55780820151818401526020810190506100da565b50505050905090810190601f1680156101225780820380516001836020036101000a031916815260200191505b509250505060405180910390f35b34801561013c57600080fd5b5061014561050e565b6040518080602001828103825283818151815260200191508051906020019080838360005b8381101561018557808201518184015260208101905061016a565b50505050905090810190601f1680156101b25780820380516001836020036101000a031916815260200191505b509250505060405180910390f35b3480156101cc57600080fd5b506101d56105b0565b60405180826000191660001916815260200191505060405180910390f35b6000600460009054906101000a900473ffffffffffffffffffffffffffffffffffffffff1673ffffffffffffffffffffffffffffffffffffffff16631a0925416040518163ffffffff167c0100000000000000000000000000000000000000000000000000000000028152600401602060405180830381600087803b15801561027b57600080fd5b505af115801561028f573d6000803e3d6000fd5b505050506040513d60208110156102a557600080fd5b810190808051906020019092919050505060028160001916905550600090505b60208160ff1610156103b4576001805460018160011615610100020316600290048091906001016102f691906105ba565b506002548160ff1660208110151561030a57fe5b1a7f01000000000000000000000000000000000000000000000000000000000000000260018260ff16815460018160011615610100020316600290048110151561035057fe5b81546001161561036f5790600052602060002090602091828204019190065b601f036101000a81548160ff021916907f01000000000000000000000000000000000000000000000000000000000000008404021790555080806001019150506102c5565b6001600390805460018160011615610100020316600290046103d7929190610683565b5050565b6000809054906101000a900473ffffffffffffffffffffffffffffffffffffffff1673ffffffffffffffffffffffffffffffffffffffff163373ffffffffffffffffffffffffffffffffffffffff16141561046a576000809054906101000a900473ffffffffffffffffffffffffffffffffffffffff1673ffffffffffffffffffffffffffffffffffffffff16ff5b565b606060018054600181600116156101000203166002900480601f0160208091040260200160405190810160405280929190818152602001828054600181600116156101000203166002900480156105045780601f106104d957610100808354040283529160200191610504565b820191906000526020600020905b8154815290600101906020018083116104e757829003601f168201915b5050505050905090565b606060038054600181600116156101000203166002900480601f0160208091040260200160405190810160405280929190818152602001828054600181600116156101000203166002900480156105a65780601f1061057b576101008083540402835291602001916105a6565b820191906000526020600020905b81548152906001019060200180831161058957829003601f168201915b5050505050905090565b6000600254905090565b81546001816001161561010002031660029004825481601f106106155782601f106105fa575b826008026101000360020a8091040282800117835561067e565b60ff191683600052602060002055818001600101835561067e565b82601f10610645575082600052602060002080549082601f016020900481019061063f919061070a565b506105e0565b5081800160010183558181111561067e57601f016020900481601f0160209004836000526020600020918201910161067d919061070a565b5b505050565b828054600181600116156101000203166002900490600052602060002090601f016020900481019282601f106106bc57805485556106f9565b828001600101855582156106f957600052602060002091601f016020900482015b828111156106f85782548255916001019190600101906106dd565b5b509050610706919061070a565b5090565b61072c91905b80821115610728576000816000905550600101610710565b5090565b905600a165627a7a72305820f7e7f249af0cc814d03fb2aa8be8711396234ed4f93b1a52aae8ffa05a8d6b880029",
  "source": "// In addition to testing contract-to-contract variable passing, \n// this contract tests assignment of a string to a bytes32 type. \n// the result of \"savedvar\" is \"0x1a09254100000000000000000000000000000000000000000000000000000000\"\n// but I don't currently understand why, and would like to know how to \n// convert that hex back into \"tencharsme\"\n\ncontract Descriptor {\n    \n\tfunction getDescription() constant returns (bytes32){\t\n\t\tbytes32 somevar;\n\t\tsomevar = \"tencharsme\"; \n\t\treturn somevar;\n\t}\n}\n\ncontract Bytes32Passer {\n\n    address creator;\n    bytes savedbytes;\n    bytes32 savedvar;\n    string savedstring;\n    Descriptor descriptor;\n\n    function Bytes32Passer() \n    {\n        creator = msg.sender;\n    }\n    \n    function getDescription()\n    {\n    \tsavedvar = descriptor.getDescription();  // get the description from the descriptor\n    \tuint8 x = 0;\n    \twhile(x < 32)\n    \t{\n    \t\tsavedbytes.length++;\n    \t\tsavedbytes[x] = savedvar[x];\n    \t\tx++;\n    \t}\t\n    \tsavedstring = string(savedbytes); // convert bytes to string\n    \treturn; \n    }\n    \n    function getSavedVar() constant returns (bytes32)\n    {\n    \treturn savedvar;\n    }\n    \n    function getSavedBytes() constant returns (bytes)\n    {\n    \treturn savedbytes;\n    }\n    \n    function getSavedString() constant returns (string)\n    {\n    \treturn savedstring;\n    }\n    \n    /**********\n     Standard kill() function to recover funds \n     **********/\n    function kill()\n    { \n        if (msg.sender == creator)\n        {\n            suicide(creator);  // kills this contract and sends remaining funds back to creator\n        }\n    }\n}\n",
  "sourcePath": "/home/liweibo/code/solidity/contracts_library/contracts_library/contracts/fivedogit/solidity-baby-steps/contracts/Bytes32Passer.sol",
  "compiler": {
    "name": "solc",
    "version": "0.4.24+commit.e67f0147.Emscripten.clang"
  },
  "schemaVersion": "2.0.1",
  "updatedAt": "2018-08-14T07:39:20.622Z"
}