{
  "contractName": "CoinFlipper",
  "abi": [
    {
      "inputs": [],
      "payable": false,
      "stateMutability": "nonpayable",
      "type": "constructor"
    },
    {
      "constant": true,
      "inputs": [],
      "name": "getEndowmentBalance",
      "outputs": [
        {
          "name": "",
          "type": "uint256"
        }
      ],
      "payable": false,
      "stateMutability": "view",
      "type": "function"
    },
    {
      "constant": false,
      "inputs": [],
      "name": "betAndFlip",
      "outputs": [],
      "payable": false,
      "stateMutability": "nonpayable",
      "type": "function"
    },
    {
      "constant": true,
      "inputs": [],
      "name": "getLastBlockNumberUsed",
      "outputs": [
        {
          "name": "",
          "type": "uint256"
        }
      ],
      "payable": false,
      "stateMutability": "view",
      "type": "function"
    },
    {
      "constant": true,
      "inputs": [],
      "name": "getLastBlockHashUsed",
      "outputs": [
        {
          "name": "",
          "type": "bytes32"
        }
      ],
      "payable": false,
      "stateMutability": "view",
      "type": "function"
    },
    {
      "constant": true,
      "inputs": [],
      "name": "getResultOfLastFlip",
      "outputs": [
        {
          "name": "",
          "type": "string"
        }
      ],
      "payable": false,
      "stateMutability": "view",
      "type": "function"
    },
    {
      "constant": true,
      "inputs": [],
      "name": "getPlayerGainLossOnLastFlip",
      "outputs": [
        {
          "name": "",
          "type": "int256"
        }
      ],
      "payable": false,
      "stateMutability": "view",
      "type": "function"
    },
    {
      "constant": false,
      "inputs": [],
      "name": "kill",
      "outputs": [],
      "payable": false,
      "stateMutability": "nonpayable",
      "type": "function"
    }
  ],
  "bytecode": "0x608060405234801561001057600080fd5b50336000806101000a81548173ffffffffffffffffffffffffffffffffffffffff021916908373ffffffffffffffffffffffffffffffffffffffff1602179055506040805190810160405280600d81526020017f6e6f2077616765727320796574000000000000000000000000000000000000008152506002908051906020019061009c9291906100aa565b50600060018190555061014f565b828054600181600116156101000203166002900490600052602060002090601f016020900481019282601f106100eb57805160ff1916838001178555610119565b82800160010185558215610119579182015b828111156101185782518255916020019190600101906100fd565b5b509050610126919061012a565b5090565b61014c91905b80821115610148576000816000905550600101610130565b5090565b90565b6108688061015e6000396000f300608060405260043610610083576000357c0100000000000000000000000000000000000000000000000000000000900463ffffffff1680630efafd011461008857806325d8dcf2146100b357806334dbe44d146100ca57806341c0e1b5146100f55780635acce36b1461010c57806394c3fa2e14610137578063cee6f93c1461016a575b600080fd5b34801561009457600080fd5b5061009d6101fa565b6040518082815260200191505060405180910390f35b3480156100bf57600080fd5b506100c8610204565b005b3480156100d657600080fd5b506100df610572565b6040518082815260200191505060405180910390f35b34801561010157600080fd5b5061010a61057c565b005b34801561011857600080fd5b5061012161060d565b6040518082815260200191505060405180910390f35b34801561014357600080fd5b5061014c61062c565b60405180826000191660001916815260200191505060405180910390f35b34801561017657600080fd5b5061017f610636565b6040518080602001828103825283818151815260200191508051906020019080838360005b838110156101bf5780820151818401526020810190506101a4565b50505050905090810190601f1680156101ec5780820380516001836020036101000a031916815260200191505b509250505060405180910390f35b6000600154905090565b60008060006fffffffffffffffffffffffffffffffff3411156102b0576040805190810160405280600f81526020017f776167657220746f6f206c6172676500000000000000000000000000000000008152506002908051906020019061026c929190610797565b5060006001819055503373ffffffffffffffffffffffffffffffffffffffff166108fc349081150290604051600060405180830381858888f193505050505061056d565b3073ffffffffffffffffffffffffffffffffffffffff163160023402111561038857606060405190810160405280602b81526020017f7761676572206c6172676572207468616e20636f6e747261637427732061626981526020017f6c69747920746f2070617900000000000000000000000000000000000000000081525060029080519060200190610344929190610797565b5060006001819055503373ffffffffffffffffffffffffffffffffffffffff166108fc349081150290604051600060405180830381858888f193505050505061056d565b60003414156103ea576040805190810160405280600e81526020017f776167657220776173207a65726f000000000000000000000000000000000000815250600290805190602001906103dc929190610797565b50600060018190555061056d565b3492506001430360038190555060035440600481600019169055508260045460019004019150610419826106d8565b9050600060028281151561042957fe5b0614156104bc577fffffffffffffffffffffffffffffffffffffffffffffffffffffffffffffffff836fffffffffffffffffffffffffffffffff16026001819055506040805190810160405280600481526020017f6c6f737300000000000000000000000000000000000000000000000000000000815250600290805190602001906104b6929190610797565b5061056d565b826fffffffffffffffffffffffffffffffff166001819055506040805190810160405280600381526020017f77696e000000000000000000000000000000000000000000000000000000000081525060029080519060200190610520929190610797565b503373ffffffffffffffffffffffffffffffffffffffff166108fc600285026fffffffffffffffffffffffffffffffff169081150290604051600060405180830381858888f19350505050505b505050565b6000600354905090565b6000809054906101000a900473ffffffffffffffffffffffffffffffffffffffff1673ffffffffffffffffffffffffffffffffffffffff163373ffffffffffffffffffffffffffffffffffffffff16141561060b576000809054906101000a900473ffffffffffffffffffffffffffffffffffffffff1673ffffffffffffffffffffffffffffffffffffffff16ff5b565b60003073ffffffffffffffffffffffffffffffffffffffff1631905090565b6000600454905090565b606060028054600181600116156101000203166002900480601f0160208091040260200160405190810160405280929190818152602001828054600181600116156101000203166002900480156106ce5780601f106106a3576101008083540402835291602001916106ce565b820191906000526020600020905b8154815290600101906020018083116106b157829003601f168201915b5050505050905090565b600044414260045485604051808681526020018573ffffffffffffffffffffffffffffffffffffffff1673ffffffffffffffffffffffffffffffffffffffff166c010000000000000000000000000281526014018481526020018360001916600019168152602001826fffffffffffffffffffffffffffffffff166fffffffffffffffffffffffffffffffff16700100000000000000000000000000000000028152601001955050505050506040518091039020600190049050919050565b828054600181600116156101000203166002900490600052602060002090601f016020900481019282601f106107d857805160ff1916838001178555610806565b82800160010185558215610806579182015b828111156108055782518255916020019190600101906107ea565b5b5090506108139190610817565b5090565b61083991905b8082111561083557600081600090555060010161081d565b5090565b905600a165627a7a7230582008a775338d7c7f68312586bb176648c2fe23b351dd03ca7f25bc054c4236d8770029",
  "source": "// This contract is designed to demonstrate the generation of a random number.\n// If you submit a betAndFlip() request after block 180,000 has just been mined,\n// (i.e. when block 180,000 is the \"best block\" on stats.ethdev.gov and the most recent listed on any block explorer site), \n// then the transaction will get mined/processed in block 180,001. (most of the time, anyway... it may be a block or two later)\n// Once the transaction is mined, then block.number will become 180,002 while the flipping is underway.\n// Any attempt to get block.blockhash(180,002) will return 0x000000000...\n// That's why betAndFlip uses blocknumber - 1 for its hash.\n// At first I thought \"Wait, if we have to use the block in past, couldn't the gambler know that?\" And the answer is \"no\". \n// All the gambler knows at the time of bet submission is 180,000. We use 180,001 which is brand new and known and 180,002 is underway.\n\n// NOTE: This contract is only meant to be used by you for testing purposes. I'm not responsible for lost funds if it's not bulletproof.\n// \t\t You can change msg.sender.send(...) to creator.send(...) in betAndFlip() to make sure funds only go back to YOUR account. \n\n// NOTE: I don't know how this will behave with multiple potential bettors (or even just multiple bets) per block. It is meant for your single, one-per-block use only.\n\n// NOTE: Use more gas on the betAndFlip(). I set mine to 1,000,000 and the rest is automatically refunded (I think). At current prices 9/3/2015, it's negligible anyway.\n\ncontract CoinFlipper {\n\n    address creator;\n    int lastgainloss;\n    string lastresult;\n    uint lastblocknumberused;\n    bytes32 lastblockhashused;\n\n    function CoinFlipper() public \n    {\n        creator = msg.sender; \t\t\t\t\t\t\t\t\n        lastresult = \"no wagers yet\";\n        lastgainloss = 0;\n    }\n\t\n    function getEndowmentBalance() constant returns (uint)\n    {\n    \treturn this.balance;\n    }\n    \n    // this is probably unnecessary and gas-wasteful. The lastblockhashused should be random enough. Adding the rest of these deterministic factors doesn't change anything. \n    // This does, however, let the bettor introduce a random seed by wagering different amounts. wagering 1 ETH will produce a completely different hash than 1.000000001 ETH\n    \n    function sha(uint128 wager) constant private returns(uint256)  \t// DISCLAIMER: This is pretty random... but not truly random.\n    { \n        return uint256(sha3(block.difficulty, block.coinbase, now, lastblockhashused, wager));  \n    }\n    \n    function betAndFlip() public               \n    {\n    \tif(msg.value > 340282366920938463463374607431768211455)  \t// value can't be larger than (2^128 - 1) which is the uint128 limit\n    \t{\n    \t\tlastresult = \"wager too large\";\n    \t\tlastgainloss = 0;\n    \t\tmsg.sender.send(msg.value); // return wager\n    \t\treturn;\n    \t}\t\t  \n    \telse if((msg.value * 2) > this.balance) \t\t\t\t\t// contract has to have 2*wager funds to be able to pay out. (current balance INCLUDES the wager sent)\n    \t{\n    \t\tlastresult = \"wager larger than contract's ability to pay\";\n    \t\tlastgainloss = 0;\n    \t\tmsg.sender.send(msg.value); // return wager\n    \t\treturn;\n    \t}\n    \telse if (msg.value == 0)\n    \t{\n    \t\tlastresult = \"wager was zero\";\n    \t\tlastgainloss = 0;\n    \t\t// nothing wagered, nothing returned\n    \t\treturn;\n    \t}\n    \t\t\n    \tuint128 wager = uint128(msg.value);          \t\t\t\t// limiting to uint128 guarantees that conversion to int256 will stay positive\n    \t\n    \tlastblocknumberused = block.number - 1 ;\n    \tlastblockhashused = block.blockhash(lastblocknumberused);\n    \tuint128 lastblockhashused_uint = uint128(lastblockhashused) + wager;\n    \tuint hashymchasherton = sha(lastblockhashused_uint);\n    \t\n\t    if( hashymchasherton % 2 == 0 )\n\t   \t{\n\t    \tlastgainloss = int(wager) * -1;\n\t    \tlastresult = \"loss\";\n\t    \t// they lost. Return nothing.\n\t    \treturn;\n\t    }\n\t    else\n\t    {\n\t    \tlastgainloss = wager;\n\t    \tlastresult = \"win\";\n\t    \tmsg.sender.send(wager * 2);  // They won. Return bet and winnings.\n\t    } \t\t\n    }\n    \n  \tfunction getLastBlockNumberUsed() constant returns (uint)\n    {\n        return lastblocknumberused;\n    }\n    \n    function getLastBlockHashUsed() constant returns (bytes32)\n    {\n    \treturn lastblockhashused;\n    }\n\n    function getResultOfLastFlip() constant returns (string)\n    {\n    \treturn lastresult;\n    }\n    \n    function getPlayerGainLossOnLastFlip() constant returns (int)\n    {\n    \treturn lastgainloss;\n    }\n        \n    /**********\n     Standard kill() function to recover funds \n     **********/\n    \n    function kill()\n    { \n        if (msg.sender == creator)\n            suicide(creator);  // kills this contract and sends remaining funds back to creator\n    }\n}\n\n/*\n\nvar coinflipperContract = web3.eth.contract([{\n    \"constant\": true,\n    \"inputs\": [],\n    \"name\": \"getPlayerGainLossOnLastFlip\",\n    \"outputs\": [{\n        \"name\": \"\",\n        \"type\": \"int256\"\n    }],\n    \"type\": \"function\"\n}, {\n    \"constant\": false,\n    \"inputs\": [],\n    \"name\": \"betAndFlip\",\n    \"outputs\": [],\n    \"type\": \"function\"\n}, {\n    \"constant\": true,\n    \"inputs\": [],\n    \"name\": \"getLastBlockNumberUsed\",\n    \"outputs\": [{\n        \"name\": \"\",\n        \"type\": \"uint256\"\n    }],\n    \"type\": \"function\"\n}, {\n    \"constant\": false,\n    \"inputs\": [],\n    \"name\": \"kill\",\n    \"outputs\": [],\n    \"type\": \"function\"\n}, {\n    \"constant\": true,\n    \"inputs\": [],\n    \"name\": \"getEndowmentBalance\",\n    \"outputs\": [{\n        \"name\": \"\",\n        \"type\": \"uint256\"\n    }],\n    \"type\": \"function\"\n}, {\n    \"constant\": true,\n    \"inputs\": [],\n    \"name\": \"getLastBlockHashUsed\",\n    \"outputs\": [{\n        \"name\": \"\",\n        \"type\": \"bytes32\"\n    }],\n    \"type\": \"function\"\n}, {\n    \"constant\": true,\n    \"inputs\": [],\n    \"name\": \"getResultOfLastFlip\",\n    \"outputs\": [{\n        \"name\": \"\",\n        \"type\": \"string\"\n    }],\n    \"type\": \"function\"\n}, {\n    \"inputs\": [],\n    \"type\": \"constructor\"\n}]);\n\nvar coinflipper = coinflipperContract.new({\n    from: web3.eth.accounts[0],\n    data: '60606040525b33600060006101000a81548173ffffffffffffffffffffffffffffffffffffffff02191690830217905550604060405190810160405280600d81526020017f6e6f2077616765727320796574000000000000000000000000000000000000008152602001506003600050908051906020019082805482825590600052602060002090601f0160209004810192821560b7579182015b8281111560b6578251826000505591602001919060010190609a565b5b50905060de919060c2565b8082111560da576000818150600090555060010160c2565b5090565b505060006002600050819055505b610923806100fb6000396000f3006060604052361561007f576000357c0100000000000000000000000000000000000000000000000000000000900480630efafd011461008157806325d8dcf2146100a257806334dbe44d146100af57806341c0e1b5146100d05780635acce36b146100dd57806394c3fa2e146100fe578063cee6f93c1461011f5761007f565b005b61008c6004506107e6565b6040518082815260200191505060405180910390f35b6100ad6004506101bc565b005b6100ba600450610744565b6040518082815260200191505060405180910390f35b6100db6004506107f8565b005b6100e8600450610198565b6040518082815260200191505060405180910390f35b610109600450610756565b6040518082815260200191505060405180910390f35b61012a600450610768565b60405180806020018281038252838181518152602001915080519060200190808383829060006004602084601f0104600302600f01f150905090810190601f16801561018a5780820380516001836020036101000a031916815260200191505b509250505060405180910390f35b60003073ffffffffffffffffffffffffffffffffffffffff163190506101b9565b90565b600060006fffffffffffffffffffffffffffffffff3411156102d657604060405190810160405280600f81526020017f776167657220746f6f206c6172676500000000000000000000000000000000008152602001506003600050908051906020019082805482825590600052602060002090601f01602090048101928215610262579182015b82811115610261578251826000505591602001919060010190610243565b5b50905061028d919061026f565b80821115610289576000818150600090555060010161026f565b5090565b505060006002600050819055503373ffffffffffffffffffffffffffffffffffffffff16600034604051809050600060405180830381858888f1935050505050610740566104ee565b3073ffffffffffffffffffffffffffffffffffffffff163160023402111561041c57606060405190810160405280602b81526020017f7761676572206c6172676572207468616e20636f6e747261637427732061626981526020017f6c69747920746f207061790000000000000000000000000000000000000000008152602001506003600050908051906020019082805482825590600052602060002090601f016020900481019282156103a8579182015b828111156103a7578251826000505591602001919060010190610389565b5b5090506103d391906103b5565b808211156103cf57600081815060009055506001016103b5565b5090565b505060006002600050819055503373ffffffffffffffffffffffffffffffffffffffff16600034604051809050600060405180830381858888f1935050505050610740566104ed565b60003414156104ec57604060405190810160405280600e81526020017f776167657220776173207a65726f0000000000000000000000000000000000008152602001506003600050908051906020019082805482825590600052602060002090601f016020900481019282156104af579182015b828111156104ae578251826000505591602001919060010190610490565b5b5090506104da91906104bc565b808211156104d657600081815060009055506001016104bc565b5090565b50506000600260005081905550610740565b5b5b34915060014303600460005081905550600460005054406005600050819055506105178261088c565b90506000600282061415610623577fffffffffffffffffffffffffffffffffffffffffffffffffffffffffffffffff826fffffffffffffffffffffffffffffffff1602600260005081905550604060405190810160405280600481526020017f6c6f7373000000000000000000000000000000000000000000000000000000008152602001506003600050908051906020019082805482825590600052602060002090601f016020900481019282156105ed579182015b828111156105ec5782518260005055916020019190600101906105ce565b5b50905061061891906105fa565b8082111561061457600081815060009055506001016105fa565b5090565b50506107405661073f565b816fffffffffffffffffffffffffffffffff16600260005081905550604060405190810160405280600381526020017f77696e00000000000000000000000000000000000000000000000000000000008152602001506003600050908051906020019082805482825590600052602060002090601f016020900481019282156106c9579182015b828111156106c85782518260005055916020019190600101906106aa565b5b5090506106f491906106d6565b808211156106f057600081815060009055506001016106d6565b5090565b50503373ffffffffffffffffffffffffffffffffffffffff166000600284026fffffffffffffffffffffffffffffffff16604051809050600060405180830381858888f19350505050505b5b5050565b60006004600050549050610753565b90565b60006005600050549050610765565b90565b60206040519081016040528060008152602001506003600050805480601f016020809104026020016040519081016040528092919081815260200182805480156107d757820191906000526020600020905b8154815290600101906020018083116107ba57829003601f168201915b505050505090506107e3565b90565b600060026000505490506107f5565b90565b600060009054906101000a900473ffffffffffffffffffffffffffffffffffffffff1673ffffffffffffffffffffffffffffffffffffffff163373ffffffffffffffffffffffffffffffffffffffff16141561088957600060009054906101000a900473ffffffffffffffffffffffffffffffffffffffff1673ffffffffffffffffffffffffffffffffffffffff16ff5b5b565b600044414260056000505485604051808681526020018573ffffffffffffffffffffffffffffffffffffffff166c01000000000000000000000000028152601401848152602001838152602001826fffffffffffffffffffffffffffffffff1670010000000000000000000000000000000002815260100195505050505050604051809103902060019004905061091e565b91905056',\n    gas: 1000000,\n    value: 1000000000000000000 // endowment of 1 eth\n}, function(e, contract) {\n    if (typeof contract.address != 'undefined') {\n        console.log(e, contract);\n        console.log('Contract mined! address: ' + contract.address + ' transactionHash: ' + contract.transactionHash);\n    }\n});\n\n// ********** after deployment\n\n> coinflipper.getEndowmentBalance();\n6000000000000000000\n> coinflipper.betAndFlip.sendTransaction({from:eth.coinbase, value: 1000000000000000000}); // 1 ETH. Let's see what happens\n\"0xc78a24881c7f70d25a817dcfcdce3347ca0cd265b7ba30a60df61e5639482bcf\"\n> coinflipper.getResultOfLastFlip();\n\"no wagers yet\"\n> coinflipper.getResultOfLastFlip(); // has the tx been mined yet?\n\"no wagers yet\"\n> coinflipper.getResultOfLastFlip(); // has the tx been mined yet?\n\"no wagers yet\"\n> coinflipper.getResultOfLastFlip(); // has the tx been mined yet? I'm waiting...\n\"no wagers yet\"\n> coinflipper.getResultOfLastFlip(); // has the tx been mined yet? I'm waiting...\n\"win\"\n> coinflipper.getPlayerGainLossOnLastFlip();\n1000000000000000000\n> web3.fromWei(coinflipper.getPlayerGainLossOnLastFlip());\n1\n> coinflipper.getEndowmentBalance();\n5000000000000000000\n> coinflipper.betAndFlip.sendTransaction({from:eth.coinbase, value: 3000000000000000000}); // 3 ETH. Let's see what happens\n\"0xcae272652649e07c343674d15b40a086c559408d9c66d8022de3f54932bf3d9f\"\n> coinflipper.getResultOfLastFlip(); // has the tx been mined yet? I'm waiting...\n\"loss\"\n> coinflipper.getEndowmentBalance();\n8000000000000000000\n> web3.fromWei(coinflipper.getPlayerGainLossOnLastFlip());\n-3\n> web3.eth.getBalance(eth.coinbase);\n1806931309200681965\n> web3.fromWei(web3.eth.getBalance(eth.coinbase));\n1.806931309200681965\n> coinflipper.betAndFlip.sendTransaction({from:eth.coinbase, value: 1500000000000000000}); // 1.5 ETH. Let's see what happens\n\"0xc99add577b3180ca58b1a8219f2cd282f6b77edb63e1e384b05abc434753b1a1\"\n> coinflipper.getResultOfLastFlip(); // has the tx been mined yet? I'm waiting...\n\"win\"\n> web3.fromWei(web3.eth.getBalance(eth.coinbase));\n3.304471659200681965\n> web3.fromWei(web3.eth.getBalance(eth.coinbase));\n> coinflipper.kill.sendTransaction({from:eth.coinbase});\n\"0xed9f9e49cca76965ba32acce2b2f0b17ada467e52d55b803c26cc7132ba108fa\"\n  \n  \n // ************** after separate deployment with smaller endowment to test payout safety limit\n \n  Contract mined! address: 0xb0824b45f4a4c1ee4df356378d555c7f4366fa4c transactionHash: 0x065580a137654a816abdeb27e690e6c96f59dce92a9e8064f6f8c3c49cf0b681\n\n> coinflipper.getEndowmentBalance();   // 1 eth\n1000000000000000000\n> coinflipper.betAndFlip.sendTransaction({from:eth.coinbase, value: 3000000000000000000}); // 3 ETH, more than endowment can handle. Let's see what happens\n\"0x66b5ae12f215d1bcf1a1656f79ccedc69612dc891f35dce5dbd6ead8854f0cb1\"\n> coinflipper.getResultOfLastFlip(); // has the tx been mined yet? I'm waiting...\n\"no wagers yet\"\n> coinflipper.getResultOfLastFlip(); // has the tx been mined yet? I'm waiting...\n\"no wagers yet\"\n> coinflipper.getResultOfLastFlip(); // has the tx been mined yet? I'm waiting...\n\"no wagers yet\"\n> coinflipper.getResultOfLastFlip(); // has the tx been mined yet? I'm waiting...\n\"wager larger than contract's ability to pay\"\n> coinflipper.getEndowmentBalance();\n1000000000000000000\n> coinflipper.betAndFlip.sendTransaction({from:eth.coinbase, value: 500000000000000000}); // .5 ETH.\n\"0x16ef5f3f0778b1252dcfd3b55f09ab97382f23d8ad7489f1f1b45d88eb7588f5\"\n> coinflipper.getResultOfLastFlip(); // has the tx been mined yet? I'm waiting...\n\"loss\"\n  \n  \n  \n */",
  "sourcePath": "/home/liweibo/code/solidity/contracts_library/contracts_library/contracts/fivedogit/solidity-baby-steps/contracts/CoinFlipper.sol",
  "compiler": {
    "name": "solc",
    "version": "0.4.24+commit.e67f0147.Emscripten.clang"
  },
  "schemaVersion": "2.0.1",
  "updatedAt": "2018-08-14T07:39:20.623Z"
}