{
  "contractName": "Crowdsale2",
  "abi": [
    {
      "payable": true,
      "stateMutability": "payable",
      "type": "fallback"
    },
    {
      "anonymous": false,
      "inputs": [
        {
          "indexed": false,
          "name": "beneficiary",
          "type": "address"
        },
        {
          "indexed": false,
          "name": "amount",
          "type": "uint256"
        }
      ],
      "name": "Buy",
      "type": "event"
    },
    {
      "constant": false,
      "inputs": [
        {
          "name": "token",
          "type": "address"
        },
        {
          "name": "start",
          "type": "uint256"
        },
        {
          "name": "end",
          "type": "uint256"
        },
        {
          "name": "price",
          "type": "uint256"
        },
        {
          "name": "limit",
          "type": "uint256"
        }
      ],
      "name": "Crowdsale",
      "outputs": [],
      "payable": false,
      "stateMutability": "nonpayable",
      "type": "function"
    },
    {
      "constant": false,
      "inputs": [],
      "name": "buy",
      "outputs": [],
      "payable": true,
      "stateMutability": "payable",
      "type": "function"
    },
    {
      "constant": false,
      "inputs": [
        {
          "name": "beneficiary",
          "type": "address"
        }
      ],
      "name": "buyFor",
      "outputs": [],
      "payable": true,
      "stateMutability": "payable",
      "type": "function"
    },
    {
      "constant": false,
      "inputs": [
        {
          "name": "",
          "type": "address"
        },
        {
          "name": "_value",
          "type": "uint256"
        },
        {
          "name": "",
          "type": "bytes"
        }
      ],
      "name": "tokenFallback",
      "outputs": [],
      "payable": false,
      "stateMutability": "nonpayable",
      "type": "function"
    },
    {
      "constant": true,
      "inputs": [],
      "name": "availableBalance",
      "outputs": [
        {
          "name": "",
          "type": "uint256"
        }
      ],
      "payable": false,
      "stateMutability": "view",
      "type": "function"
    }
  ],
  "bytecode": "0x608060405234801561001057600080fd5b5061065e806100206000396000f30060806040526004361061006d576000357c0100000000000000000000000000000000000000000000000000000000900463ffffffff168063526a1152146100725780636f0b5180146100dd578063a6f2ae3a14610113578063ab2f0e511461011d578063c0ee0b8a14610148575b600080fd5b34801561007e57600080fd5b506100db600480360381019080803573ffffffffffffffffffffffffffffffffffffffff169060200190929190803590602001909291908035906020019092919080359060200190929190803590602001909291905050506101db565b005b610111600480360381019080803573ffffffffffffffffffffffffffffffffffffffff16906020019092919050505061023e565b005b61011b610538565b005b34801561012957600080fd5b50610132610543565b6040518082815260200191505060405180910390f35b34801561015457600080fd5b506101d9600480360381019080803573ffffffffffffffffffffffffffffffffffffffff16906020019092919080359060200190929190803590602001908201803590602001908080601f016020809104026020016040519081016040528093929190818152602001838380828437820191505050505050919291929050505061054d565b005b846000806101000a81548173ffffffffffffffffffffffffffffffffffffffff021916908373ffffffffffffffffffffffffffffffffffffffff160217905550836001819055508260028190555081600381905550806004819055505050505050565b60008060055411151561025057600080fd5b6001544310158015610263575060025443105b151561026e57600080fd5b813460008111151561027c57fe5b610291600354826105c890919063ffffffff16565b905080600454101515156102a157fe5b6102f381600660008573ffffffffffffffffffffffffffffffffffffffff1673ffffffffffffffffffffffffffffffffffffffff1681526020019081526020016000205461060090919063ffffffff16565b6004541015151561030057fe5b610315600354346105c890919063ffffffff16565b92506000809054906101000a900473ffffffffffffffffffffffffffffffffffffffff1673ffffffffffffffffffffffffffffffffffffffff1663a9059cbb85856040518363ffffffff167c0100000000000000000000000000000000000000000000000000000000028152600401808373ffffffffffffffffffffffffffffffffffffffff1673ffffffffffffffffffffffffffffffffffffffff16815260200182815260200192505050602060405180830381600087803b1580156103db57600080fd5b505af11580156103ef573d6000803e3d6000fd5b505050506040513d602081101561040557600080fd5b81019080805190602001909291905050505061042c8360055461061990919063ffffffff16565b60058190555061048483600660008773ffffffffffffffffffffffffffffffffffffffff1673ffffffffffffffffffffffffffffffffffffffff1681526020019081526020016000205461060090919063ffffffff16565b600660008673ffffffffffffffffffffffffffffffffffffffff1673ffffffffffffffffffffffffffffffffffffffff168152602001908152602001600020819055507fe3d4187f6ca4248660cc0ac8b8056515bac4a8132be2eca31d6d0cc170722a7e8484604051808373ffffffffffffffffffffffffffffffffffffffff1673ffffffffffffffffffffffffffffffffffffffff1681526020018281526020019250505060405180910390a150505050565b6105413361023e565b565b6000600554905090565b6000809054906101000a900473ffffffffffffffffffffffffffffffffffffffff1673ffffffffffffffffffffffffffffffffffffffff163373ffffffffffffffffffffffffffffffffffffffff161415156105a857600080fd5b6105bd8260055461060090919063ffffffff16565b600581905550505050565b600080821180156105e45750600082848115156105e157fe5b06145b15156105ec57fe5b81838115156105f757fe5b04905092915050565b6000818301905082811015151561061357fe5b92915050565b600082821115151561062757fe5b8183039050929150505600a165627a7a7230582066a54faeb4b2414698d7d910ea2780d44541ac986d2f1fc47d96fb8f6516c0030029",
  "source": "pragma solidity ^0.4.0;\n\nimport \"./ERC223ReceivingContract.sol\";\nimport \"./SafeMath.sol\";\nimport \"./ERC20.sol\";\nimport \"./Token.sol\";\n\ncontract Crowdsale2 is ERC223ReceivingContract {\n\n  using SafeMath for uint;\n\n  Token private _token;\n\n  uint private _start;\n  uint private _end;\n\n  uint private _price;\n  uint private _limit;\n  uint private _available;\n\n  mapping (address => uint) private _limits;\n\n  event Buy(address beneficiary, uint amount);\n\n  modifier available() {\n    require(_available > 0);\n    require(block.number >= _start && block.number < _end);\n    _;\n  }\n\n  modifier isToken() {\n    require(msg.sender == address(_token));\n    _;\n  }\n\n  modifier valid(address to, uint amount) {\n    assert(amount > 0);\n    amount = amount.div(_price);\n    assert(_limit >= amount);\n    assert(_limit >= _limits[to].add(amount));\n    _;\n  }\n\n  function Crowdsale(address token, uint start, uint end, uint price, uint limit)\n      public {\n      _token = Token(token);\n      _start = start;\n      _end = end;\n      _price = price;\n      _limit = limit;\n  }\n\n  function ()\n      public\n      payable {\n      // Not enough gas for the transaction so prevent users from sending ether\n      revert();\n  }\n\n  function buy()\n      public\n      payable {\n      return buyFor(msg.sender);\n  }\n\n  function buyFor(address beneficiary)\n      public\n      available\n      valid(beneficiary, msg.value)\n      payable {\n      uint amount = msg.value.div(_price);\n      _token.transfer(beneficiary, amount);\n      _available = _available.sub(amount);\n      _limits[beneficiary] = _limits[beneficiary].add(amount);\n      Buy(beneficiary, amount);\n  }\n\n  function tokenFallback(address, uint _value, bytes)\n      isToken\n      public {\n      _available = _available.add(_value);\n  }\n\n  function availableBalance()\n    view\n    public\n    returns (uint) {\n    return _available;\n  }\n}\n",
  "sourcePath": "/home/liweibo/code/solidity/contracts_library/contracts_library/contracts/willitscale/learning-solidity/tutorial-22/Crowdsale2.sol",
  "compiler": {
    "name": "solc",
    "version": "0.4.24+commit.e67f0147.Emscripten.clang"
  },
  "schemaVersion": "2.0.1",
  "updatedAt": "2018-08-14T07:39:20.666Z"
}