{
  "contractName": "DataTypes",
  "abi": [
    {
      "payable": true,
      "stateMutability": "payable",
      "type": "fallback"
    },
    {
      "constant": false,
      "inputs": [],
      "name": "assignAddress",
      "outputs": [],
      "payable": false,
      "stateMutability": "nonpayable",
      "type": "function"
    },
    {
      "constant": false,
      "inputs": [],
      "name": "arrFunc",
      "outputs": [],
      "payable": false,
      "stateMutability": "nonpayable",
      "type": "function"
    },
    {
      "constant": false,
      "inputs": [],
      "name": "structFunc",
      "outputs": [],
      "payable": false,
      "stateMutability": "nonpayable",
      "type": "function"
    },
    {
      "constant": false,
      "inputs": [],
      "name": "getBalance",
      "outputs": [
        {
          "name": "",
          "type": "uint256"
        }
      ],
      "payable": false,
      "stateMutability": "nonpayable",
      "type": "function"
    }
  ],
  "bytecode": "0x608060405260008060006101000a81548160ff0219169083151502179055507fffffffffffffffffffffffffffffffffffffffffffffffffffffffffffffff80600060016101000a81548160ff021916908360000b60ff16021790555060ff600060026101000a81548160ff021916908360ff1602179055506000600560006101000a81548160ff0219169083600281111561009757fe5b0217905550606060405190810160405280600160ff168152602001600260ff168152602001600360ff1681525060069060036100d49291906100e7565b503480156100e157600080fd5b5061015e565b828054828255906000526020600020908101928215610128579160200282015b82811115610127578251829060ff16905591602001919060010190610107565b5b5090506101359190610139565b5090565b61015b91905b8082111561015757600081600090555060010161013f565b5090565b90565b6102b38061016d6000396000f300608060405260043610610062576000357c0100000000000000000000000000000000000000000000000000000000900463ffffffff16806312065fe0146100b457806320824911146100df578063abb91d18146100f6578063cbd33d051461010d575b34601360003373ffffffffffffffffffffffffffffffffffffffff1673ffffffffffffffffffffffffffffffffffffffff16815260200190815260200160002060000160008282540192505081905550005b3480156100c057600080fd5b506100c9610124565b6040518082815260200191505060405180910390f35b3480156100eb57600080fd5b506100f461016e565b005b34801561010257600080fd5b5061010b61017b565b005b34801561011957600080fd5b506101226101cc565b005b6000601360003373ffffffffffffffffffffffffffffffffffffffff1673ffffffffffffffffffffffffffffffffffffffff16815260200190815260200160002060000154905090565b6064601160000181905550565b60066001908060018154018082558091505090600182039060005260206000200160009091929091909150555060068054905050600660008154811015156101bf57fe5b9060005260206000205050565b33600560016101000a81548173ffffffffffffffffffffffffffffffffffffffff021916908373ffffffffffffffffffffffffffffffffffffffff160217905550600560019054906101000a905050600560019054906101000a900473ffffffffffffffffffffffffffffffffffffffff1673ffffffffffffffffffffffffffffffffffffffff166108fc600a9081150290604051600060405180830381858888f19350505050158015610284573d6000803e3d6000fd5b505600a165627a7a7230582019422467401e53b97a50d898365ed06068f622e18c81335f87e4bddacb6cd1240029",
  "source": "pragma solidity ^0.4.0;\n\ncontract DataTypes {\n    \n    bool myBool = false;\n    \n    int8 myInt = -128;\n    uint8 myUInt = 255;\n    \n    string myString;\n    uint8[] myStringArr;\n\n    byte myValue;\n    bytes1 myBytes1; \n    bytes32 myBytes32;\n    \n//    fixed256x8 myFixed = 1; // 255.0\n//    ufixed myFixed = 1;\n\n    enum Action {ADD, REMOVE, UPDATE}\n    \n    Action myAction = Action.ADD;\n    \n    address myAddress;\n    \n    function assignAddress() {\n        myAddress = msg.sender;\n        myAddress.balance;\n        myAddress.transfer(10);\n    }\n    \n    uint[] myIntArr = [1,2,3];\n    \n    function arrFunc() {\n        myIntArr.push(1);\n        myIntArr.length;\n        myIntArr[0];\n    }\n    \n    uint[10] myFixedArr;\n    \n    struct Account {\n        uint balance;\n        uint dailyLimit;\n    }\n    \n    Account myAccount;\n    \n    function structFunc() {\n        myAccount.balance = 100;\n    }\n    \n    mapping (address => Account) _accounts;\n    \n    function () payable {\n        _accounts[msg.sender].balance += msg.value;\n    }\n    \n    function getBalance() returns (uint) {\n        return _accounts[msg.sender].balance;\n    }\n}\n",
  "sourcePath": "/home/liweibo/code/solidity/contracts_library/contracts_library/contracts/willitscale/learning-solidity/tutorial-06/DataTypes.sol",
  "compiler": {
    "name": "solc",
    "version": "0.4.24+commit.e67f0147.Emscripten.clang"
  },
  "schemaVersion": "2.0.1",
  "updatedAt": "2018-08-14T07:39:20.659Z"
}