{
  "contractName": "Descriptor",
  "abi": [
    {
      "constant": true,
      "inputs": [],
      "name": "getDescription",
      "outputs": [
        {
          "name": "",
          "type": "bytes32"
        }
      ],
      "payable": false,
      "stateMutability": "view",
      "type": "function"
    }
  ],
  "bytecode": "0x608060405234801561001057600080fd5b5060cd8061001f6000396000f300608060405260043610603f576000357c0100000000000000000000000000000000000000000000000000000000900463ffffffff1680631a092541146044575b600080fd5b348015604f57600080fd5b5060566074565b60405180826000191660001916815260200191505060405180910390f35b6000807f74656e63686172736d6500000000000000000000000000000000000000000000905080915050905600a165627a7a723058208dc66b23de2793cef3b20782297731cfa0d35da9d86b67804d758e28d7ebebef0029",
  "source": "// In addition to testing contract-to-contract variable passing, \n// this contract tests assignment of a string to a bytes32 type. \n// the result of \"savedvar\" is \"0x1a09254100000000000000000000000000000000000000000000000000000000\"\n// but I don't currently understand why, and would like to know how to \n// convert that hex back into \"tencharsme\"\n\ncontract Descriptor {\n    \n\tfunction getDescription() constant returns (bytes32){\t\n\t\tbytes32 somevar;\n\t\tsomevar = \"tencharsme\"; \n\t\treturn somevar;\n\t}\n}\n\ncontract Bytes32Passer {\n\n    address creator;\n    bytes savedbytes;\n    bytes32 savedvar;\n    string savedstring;\n    Descriptor descriptor;\n\n    function Bytes32Passer() \n    {\n        creator = msg.sender;\n    }\n    \n    function getDescription()\n    {\n    \tsavedvar = descriptor.getDescription();  // get the description from the descriptor\n    \tuint8 x = 0;\n    \twhile(x < 32)\n    \t{\n    \t\tsavedbytes.length++;\n    \t\tsavedbytes[x] = savedvar[x];\n    \t\tx++;\n    \t}\t\n    \tsavedstring = string(savedbytes); // convert bytes to string\n    \treturn; \n    }\n    \n    function getSavedVar() constant returns (bytes32)\n    {\n    \treturn savedvar;\n    }\n    \n    function getSavedBytes() constant returns (bytes)\n    {\n    \treturn savedbytes;\n    }\n    \n    function getSavedString() constant returns (string)\n    {\n    \treturn savedstring;\n    }\n    \n    /**********\n     Standard kill() function to recover funds \n     **********/\n    function kill()\n    { \n        if (msg.sender == creator)\n        {\n            suicide(creator);  // kills this contract and sends remaining funds back to creator\n        }\n    }\n}\n",
  "sourcePath": "/home/liweibo/code/solidity/contracts_library/contracts_library/contracts/fivedogit/solidity-baby-steps/contracts/Bytes32Passer.sol",
  "compiler": {
    "name": "solc",
    "version": "0.4.24+commit.e67f0147.Emscripten.clang"
  },
  "schemaVersion": "2.0.1",
  "updatedAt": "2018-08-14T07:39:20.622Z"
}