{
  "contractName": "Dummy",
  "abi": [
    {
      "constant": true,
      "inputs": [
        {
          "name": "v",
          "type": "bytes32"
        }
      ],
      "name": "fromBytes32toUint256",
      "outputs": [
        {
          "name": "",
          "type": "uint256"
        }
      ],
      "payable": false,
      "stateMutability": "pure",
      "type": "function"
    },
    {
      "constant": true,
      "inputs": [
        {
          "name": "v",
          "type": "bytes32"
        }
      ],
      "name": "fromBytes32toInt256",
      "outputs": [
        {
          "name": "",
          "type": "int256"
        }
      ],
      "payable": false,
      "stateMutability": "pure",
      "type": "function"
    },
    {
      "constant": true,
      "inputs": [
        {
          "name": "v",
          "type": "bytes32"
        }
      ],
      "name": "fromBytes32toBool",
      "outputs": [
        {
          "name": "",
          "type": "bool"
        }
      ],
      "payable": false,
      "stateMutability": "pure",
      "type": "function"
    },
    {
      "constant": true,
      "inputs": [
        {
          "name": "v",
          "type": "bytes32"
        }
      ],
      "name": "fromBytes32toString",
      "outputs": [
        {
          "name": "",
          "type": "string"
        }
      ],
      "payable": false,
      "stateMutability": "pure",
      "type": "function"
    },
    {
      "constant": true,
      "inputs": [
        {
          "name": "v",
          "type": "bytes32"
        }
      ],
      "name": "fromBytes32toAddress",
      "outputs": [
        {
          "name": "",
          "type": "address"
        }
      ],
      "payable": false,
      "stateMutability": "pure",
      "type": "function"
    },
    {
      "constant": true,
      "inputs": [
        {
          "name": "v",
          "type": "bytes32[]"
        }
      ],
      "name": "fromBytes32ArrtoString",
      "outputs": [
        {
          "name": "",
          "type": "string"
        }
      ],
      "payable": false,
      "stateMutability": "pure",
      "type": "function"
    },
    {
      "constant": true,
      "inputs": [
        {
          "name": "v",
          "type": "string"
        }
      ],
      "name": "fromStringtoBytes32",
      "outputs": [
        {
          "name": "",
          "type": "bytes32"
        }
      ],
      "payable": false,
      "stateMutability": "pure",
      "type": "function"
    }
  ],
  "bytecode": "0x608060405234801561001057600080fd5b50610933806100206000396000f300608060405260043610610083576000357c0100000000000000000000000000000000000000000000000000000000900463ffffffff16806360daa36b146100885780636874e9a014610132578063876e7e03146101e65780639c7e633914610257578063ed41e7641461029c578063f51ca5eb146102e1578063f78c4cd014610338575b600080fd5b34801561009457600080fd5b506100b76004803603810190808035600019169060200190929190505050610381565b6040518080602001828103825283818151815260200191508051906020019080838360005b838110156100f75780820151818401526020810190506100dc565b50505050905090810190601f1680156101245780820380516001836020036101000a031916815260200191505b509250505060405180910390f35b34801561013e57600080fd5b5061016b600480360381019080803590602001908201803590602001919091929391929390505050610393565b6040518080602001828103825283818151815260200191508051906020019080838360005b838110156101ab578082015181840152602081019050610190565b50505050905090810190601f1680156101d85780820380516001836020036101000a031916815260200191505b509250505060405180910390f35b3480156101f257600080fd5b5061021560048036038101908080356000191690602001909291905050506103d5565b604051808273ffffffffffffffffffffffffffffffffffffffff1673ffffffffffffffffffffffffffffffffffffffff16815260200191505060405180910390f35b34801561026357600080fd5b5061028660048036038101908080356000191690602001909291905050506103e7565b6040518082815260200191505060405180910390f35b3480156102a857600080fd5b506102cb60048036038101908080356000191690602001909291905050506103f9565b6040518082815260200191505060405180910390f35b3480156102ed57600080fd5b5061031a60048036038101908080359060200190820180359060200191909192939192939050505061040b565b60405180826000191660001916815260200191505060405180910390f35b34801561034457600080fd5b506103676004803603810190808035600019169060200190929190505050610450565b604051808215151515815260200191505060405180910390f35b606061038c82610462565b9050919050565b60606103cd83838080602002602001604051908101604052809392919081815260200183836020028082843782019150505050505061065e565b905092915050565b60006103e08261088b565b9050919050565b60006103f282610899565b9050919050565b6000610404826108a7565b9050919050565b600061044883838080601f0160208091040260200160405190810160405280939291908181526020018383808284378201915050505050506108b5565b905092915050565b600061045b826108e0565b9050919050565b6060806000806000606060206040519080825280601f01601f1916602001820160405280156104a05781602001602082028038833980820191505090505b50945060009350600092505b602083101561056a578260080260020a876001900402600102915060007f010000000000000000000000000000000000000000000000000000000000000002827effffffffffffffffffffffffffffffffffffffffffffffffffffffffffffff191614151561055d5781858581518110151561052457fe5b9060200101907effffffffffffffffffffffffffffffffffffffffffffffffffffffffffffff1916908160001a90535083806001019450505b82806001019350506104ac565b836040519080825280601f01601f19166020018201604052801561059d5781602001602082028038833980820191505090505b509050600092505b838310156106515784838151811015156105bb57fe5b9060200101517f010000000000000000000000000000000000000000000000000000000000000090047f010000000000000000000000000000000000000000000000000000000000000002818481518110151561061457fe5b9060200101907effffffffffffffffffffffffffffffffffffffffffffffffffffffffffffff1916908160001a90535082806001019350506105a5565b8095505050505050919050565b606080600080600080606060208851026040519080825280601f01601f1916602001820160405280156106a05781602001602082028038833980820191505090505b509550600093505b875184101561079657600092505b6020831015610789578260080260020a88858151811015156106d457fe5b906020019060200201516001900402600102915060007f010000000000000000000000000000000000000000000000000000000000000002827effffffffffffffffffffffffffffffffffffffffffffffffffffffffffffff191614151561077c5781868681518110151561074557fe5b9060200101907effffffffffffffffffffffffffffffffffffffffffffffffffffffffffffff1916908160001a9053506001850194505b82806001019350506106b6565b83806001019450506106a8565b846040519080825280601f01601f1916602001820160405280156107c95781602001602082028038833980820191505090505b509050600093505b8484101561087d5785848151811015156107e757fe5b9060200101517f010000000000000000000000000000000000000000000000000000000000000090047f010000000000000000000000000000000000000000000000000000000000000002818581518110151561084057fe5b9060200101907effffffffffffffffffffffffffffffffffffffffffffffffffffffffffffff1916908160001a90535083806001019450506107d1565b809650505050505050919050565b600081600190049050919050565b600081600190049050919050565b600081600190049050919050565b600060608290506000815114156108d257600060010291506108da565b602083015191505b50919050565b6000808260019004905060008114156108fc5760009150610901565b600191505b509190505600a165627a7a723058208aa4c922c63a8801129d353810161436c8f4ec423104acef1c2d094f594db5d20029",
  "source": "pragma solidity ^0.4.23;\n\nimport \"../FromBytes32.sol\";\nimport \"../FromBytes32Arr.sol\";\nimport \"../FromString.sol\";\n\n\ncontract Dummy {\n  function fromBytes32toUint256 (bytes32 v) external pure returns (uint256) {\n    return FromBytes32.toUint256(v);\n  }\n\n  function fromBytes32toInt256 (bytes32 v) external pure returns (int256) {\n    return FromBytes32.toInt256(v);\n  }\n\n  function fromBytes32toBool (bytes32 v) external pure returns (bool) {\n    return FromBytes32.toBool(v);\n  }\n\n  function fromBytes32toString (bytes32 v) external pure returns (string) {\n    return FromBytes32.toString(v);\n  }\n\n  function fromBytes32toAddress (bytes32 v) external pure returns (address) {\n    return FromBytes32.toAddress(v);\n  }\n\n  function fromBytes32ArrtoString (bytes32[] v) external pure returns (string) {\n    return FromBytes32Arr.toString(v);\n  }\n\n  function fromStringtoBytes32(string v) external pure returns (bytes32) {\n    return FromString.toBytes32(v);\n  }\n}",
  "sourcePath": "/home/liweibo/code/solidity/contracts_library/contracts_library/contracts/nionis/solidity-utils/test/Dummy.sol",
  "compiler": {
    "name": "solc",
    "version": "0.4.24+commit.e67f0147.Emscripten.clang"
  },
  "schemaVersion": "2.0.1",
  "updatedAt": "2018-08-14T07:39:20.651Z"
}