{
  "contractName": "EndowmentRetriever",
  "abi": [
    {
      "inputs": [],
      "payable": false,
      "stateMutability": "nonpayable",
      "type": "constructor"
    },
    {
      "constant": true,
      "inputs": [],
      "name": "getContractCreationValue",
      "outputs": [
        {
          "name": "",
          "type": "uint256"
        }
      ],
      "payable": false,
      "stateMutability": "view",
      "type": "function"
    },
    {
      "constant": false,
      "inputs": [],
      "name": "sendOneEtherHome",
      "outputs": [],
      "payable": false,
      "stateMutability": "nonpayable",
      "type": "function"
    },
    {
      "constant": false,
      "inputs": [],
      "name": "kill",
      "outputs": [],
      "payable": false,
      "stateMutability": "nonpayable",
      "type": "function"
    }
  ],
  "bytecode": "0x608060405234801561001057600080fd5b50336000806101000a81548173ffffffffffffffffffffffffffffffffffffffff021916908373ffffffffffffffffffffffffffffffffffffffff160217905550346001819055506101dd806100676000396000f300608060405260043610610057576000357c0100000000000000000000000000000000000000000000000000000000900463ffffffff16806341c0e1b51461005c5780636c6f1d9314610073578063f239e5281461009e575b600080fd5b34801561006857600080fd5b506100716100b5565b005b34801561007f57600080fd5b50610088610146565b6040518082815260200191505060405180910390f35b3480156100aa57600080fd5b506100b3610150565b005b6000809054906101000a900473ffffffffffffffffffffffffffffffffffffffff1673ffffffffffffffffffffffffffffffffffffffff163373ffffffffffffffffffffffffffffffffffffffff161415610144576000809054906101000a900473ffffffffffffffffffffffffffffffffffffffff1673ffffffffffffffffffffffffffffffffffffffff16ff5b565b6000600154905090565b6000809054906101000a900473ffffffffffffffffffffffffffffffffffffffff1673ffffffffffffffffffffffffffffffffffffffff166108fc670de0b6b3a76400009081150290604051600060405180830381858888f19350505050505600a165627a7a72305820189a8d667a2490adf7fcaf5490634e974d96c42dc32dbadfea48a231157420aa0029",
  "source": "contract EndowmentRetriever {\n\n    address creator;\n    uint contract_creation_value; // original endowment\n\n    function EndowmentRetriever() public \n    {\n        creator = msg.sender; \t\t\t\t\t\t\t\t\n        contract_creation_value = msg.value;  \t\t\t\t// the endowment of this contract in wei \n    }\n\t\n    function getContractCreationValue() constant returns (uint) // returns the original endowment of the contract\n    {\t\t\t\t\t\t\t\t\t\t              \t\t// set at creation time with \"value: <someweivalue>\"\t\n    \treturn contract_creation_value;                         // this was the \"balance\" of the contract at creation time\n    }\n    \n    function sendOneEtherHome() public         \t\n    {\t\t\t\t\t\t\n    \tcreator.send(1000000000000000000);\t\t\t\t// send 1 ETH home\n    }\n        \n    /**********\n     Standard kill() function to recover funds \n     **********/\n    \n    function kill()\n    { \n        if (msg.sender == creator)\n        {\n            suicide(creator);  // kills this contract and sends remaining funds back to creator\n        }\n    }\n        \n}\n\n\n/*\n\n********************** DEPLOYED WITH ******************************\n\nvar endowmentretrieverContract = web3.eth.contract([{\n    \"constant\": false,\n    \"inputs\": [],\n    \"name\": \"kill\",\n    \"outputs\": [],\n    \"type\": \"function\"\n}, {\n    \"constant\": true,\n    \"inputs\": [],\n    \"name\": \"getContractCreationValue\",\n    \"outputs\": [{\n        \"name\": \"\",\n        \"type\": \"uint256\"\n    }],\n    \"type\": \"function\"\n}, {\n    \"constant\": false,\n    \"inputs\": [],\n    \"name\": \"sendOneEtherHome\",\n    \"outputs\": [],\n    \"type\": \"function\"\n}, {\n    \"inputs\": [],\n    \"type\": \"constructor\"\n}]);\n\nvar endowmentretriever = endowmentretrieverContract.new({\n    from: web3.eth.accounts[0],\n    data: '60606040525b33600060006101000a81548173ffffffffffffffffffffffffffffffffffffffff02191690830217905550346001600050819055505b6101908061004a6000396000f30060606040526000357c01000000000000000000000000000000000000000000000000000000009004806341c0e1b51461004f5780636c6f1d931461005c578063f239e5281461007d5761004d565b005b61005a6004506100fc565b005b61006760045061008a565b6040518082815260200191505060405180910390f35b61008860045061009c565b005b60006001600050549050610099565b90565b600060009054906101000a900473ffffffffffffffffffffffffffffffffffffffff1673ffffffffffffffffffffffffffffffffffffffff166000670de0b6b3a7640000604051809050600060405180830381858888f19350505050505b565b600060009054906101000a900473ffffffffffffffffffffffffffffffffffffffff1673ffffffffffffffffffffffffffffffffffffffff163373ffffffffffffffffffffffffffffffffffffffff16141561018d57600060009054906101000a900473ffffffffffffffffffffffffffffffffffffffff1673ffffffffffffffffffffffffffffffffffffffff16ff5b5b56',\n    gas: 1000000,\n    value: 3000000000000000000 // START CONTRACT WITH AN ENDOWMENT OF 3 ETH\n}, function(e, contract) {\n    if (typeof contract.address != 'undefined') {\n        console.log(e, contract);\n        console.log('Contract mined! address: ' + contract.address + ' transactionHash: ' + contract.transactionHash);\n    }\n})\n\n\n********************** EXECUTION IN GETH ******************************\n\n> endowmentretriever.getContractCreationValue();\n3000000000000000000\n> web3.fromWei(endowmentretriever.getContractCreationValue());\n3\t\t\t\t\t\t\t\t\t\t\t\t\t\t\t\t\t\t\t\t\t\t    // After creation, we can verify it holds 3 ETH\n> web3.fromWei(eth.getBalance(eth.coinbase));\t\t\t\t\t\t\t\t\t\t\n6.75688459417901484\t\t\t\t\t\t\t\t\t\t\t\t\t\t\t\t\t\t\t// Our coinbase now holds 6.75 vs 9.75 before\n>  var receipt = web3.eth.getTransactionReceipt('0x1d81b2dc3c3930edd766e153c30e598994018aeac36a9beee982a392b4bc200f');\nundefined\n> receipt\n{\n  blockHash: \"0x04246ae26cb9b51128d1c87e8363d4bcefad90ea98586f606522a348d2305eee\",\n  blockNumber: 174093,\n  contractAddress: \"0x1c7c3f36d59bcaa4a7dfdf58f347ff6f675bf4d3\",\n  cumulativeGasUsed: 169243,\n  gasUsed: 169243,\n  logs: [],\n  transactionHash: \"0x1d81b2dc3c3930edd766e153c30e598994018aeac36a9beee982a392b4bc200f\",\n  transactionIndex: 0\n}\n> var tx = endowmentretriever.sendOneEtherHome.sendTransaction({from:eth.coinbase});\nundefined\n> var sentHomeReceipt = web3.eth.getTransactionReceipt(tx);\nundefined\n> sentHomeReceipt\n{\n  blockHash: \"0x19293ed30899b637510390cbfb1fe7ed8638524ebd322dc2f9889b7216b1f357\",\n  blockNumber: 174119,\n  contractAddress: null,\n  cumulativeGasUsed: 28302,\n  gasUsed: 28302,\n  logs: [],\n  transactionHash: \"0xeaea5f0bf9dd8df4a74c43b1e20bbc08d7c02b6707b0ece724df91f6ce67fb17\",\n  transactionIndex: 0\n}\n> web3.fromWei(eth.getBalance('0x1c7c3f36d59bcaa4a7dfdf58f347ff6f675bf4d3'));\n2\t\t\t\t\t\t\t\t\t\t\t\t\t\t\t\t\t\t\t\t\t\t\t// after the first exec, the balance is down to 2\n> web3.fromWei(eth.getBalance(eth.coinbase));\t\t\t\t\t\t\t\t\t\t\n7.75688459417901484\t\t\t\t\t\t\t\t\t\t\t\t\t\t\t\t\t\t\t// coinbase up to 7.75 from 6.75\n> var tx = endowmentretriever.sendOneEtherHome.sendTransaction({from:eth.coinbase});\nundefined\n> var sentHomeReceipt = web3.eth.getTransactionReceipt(tx);\nundefined\n> sentHomeReceipt\n{\n  blockHash: \"0x8fdd9829040c25e0bd902fdc35e643b1f85f326c8b58a16db5897f26619ae83a\",\n  blockNumber: 174128,\n  contractAddress: null,\n  cumulativeGasUsed: 28302,\n  gasUsed: 28302,\n  logs: [],\n  transactionHash: \"0x009c584a521bef7c209fd879cafc27be6bb86eb70f54b46568a972e694fec82c\",\n  transactionIndex: 0\n}\n> web3.fromWei(eth.getBalance('0x1c7c3f36d59bcaa4a7dfdf58f347ff6f675bf4d3'));\n1\t\t\t\t\t\t\t\t\t\t\t\t\t\t\t\t\t\t\t\t\t\t\t// after the first exec, the balance is down to 2\n> web3.fromWei(eth.getBalance(eth.coinbase));\t\t\t\t\t\t\t\t\t\t\n8.75688459417901484\t\t\t\t\t\t\t\t\t\t\t\t\t\t\t\t\t\t\t// coinbase up to 8.75 from 7.75\n> var tx = endowmentretriever.sendOneEtherHome.sendTransaction({from:eth.coinbase});\nundefined\n> var sentHomeReceipt = web3.eth.getTransactionReceipt(tx);\nundefined\n> sentHomeReceipt\n{\n  blockHash: \"0xa63fce8addb966d9d2ab4fc9e05498af1fd6e0e6dcee258d22bed1882806d770\",\n  blockNumber: 174133,\n  contractAddress: null,\n  cumulativeGasUsed: 28302,\n  gasUsed: 28302,\n  logs: [],\n  transactionHash: \"0x39b945115e98b390041cf39886d67cd1fe0c265f74f49df15651a35f822faaaa\",\n  transactionIndex: 0\n}\n> web3.fromWei(eth.getBalance(eth.coinbase));\n9.75546949417901484\t\t\t\t\t\t\t\t\t\t\t\t\t\t\t\t\t\t\t// coinbase back to original value of 9.75\n> web3.fromWei(eth.getBalance('0x1c7c3f36d59bcaa4a7dfdf58f347ff6f675bf4d3'));\n0\t\t\t\t\t\t\t\t\t\t\t\t\t\t\t\t\t\t\t\t\t\t    // contract endowment fully depleted\n> endowmentretriever.kill.sendTransaction({from:eth.coinbase});\n\"0x588fd4e3f2fad1a61af08aaaf9f3ab8c7ad677dc4510b65d666bac644e7ca352\"\n\n*/",
  "sourcePath": "/home/liweibo/code/solidity/contracts_library/contracts_library/contracts/fivedogit/solidity-baby-steps/contracts/EndowmentRetriever.sol",
  "compiler": {
    "name": "solc",
    "version": "0.4.24+commit.e67f0147.Emscripten.clang"
  },
  "schemaVersion": "2.0.1",
  "updatedAt": "2018-08-14T07:39:20.624Z"
}