{
  "contractName": "Escapable",
  "abi": [
    {
      "constant": true,
      "inputs": [],
      "name": "escapeHatchCaller",
      "outputs": [
        {
          "name": "",
          "type": "address"
        }
      ],
      "payable": false,
      "stateMutability": "view",
      "type": "function"
    },
    {
      "constant": false,
      "inputs": [
        {
          "name": "_newOwner",
          "type": "address"
        }
      ],
      "name": "changeOwnership",
      "outputs": [],
      "payable": false,
      "stateMutability": "nonpayable",
      "type": "function"
    },
    {
      "constant": false,
      "inputs": [
        {
          "name": "_dac",
          "type": "address"
        }
      ],
      "name": "removeOwnership",
      "outputs": [],
      "payable": false,
      "stateMutability": "nonpayable",
      "type": "function"
    },
    {
      "constant": false,
      "inputs": [
        {
          "name": "_newOwnerCandidate",
          "type": "address"
        }
      ],
      "name": "proposeOwnership",
      "outputs": [],
      "payable": false,
      "stateMutability": "nonpayable",
      "type": "function"
    },
    {
      "constant": false,
      "inputs": [],
      "name": "acceptOwnership",
      "outputs": [],
      "payable": false,
      "stateMutability": "nonpayable",
      "type": "function"
    },
    {
      "constant": true,
      "inputs": [],
      "name": "owner",
      "outputs": [
        {
          "name": "",
          "type": "address"
        }
      ],
      "payable": false,
      "stateMutability": "view",
      "type": "function"
    },
    {
      "constant": true,
      "inputs": [],
      "name": "newOwnerCandidate",
      "outputs": [
        {
          "name": "",
          "type": "address"
        }
      ],
      "payable": false,
      "stateMutability": "view",
      "type": "function"
    },
    {
      "constant": true,
      "inputs": [],
      "name": "escapeHatchDestination",
      "outputs": [
        {
          "name": "",
          "type": "address"
        }
      ],
      "payable": false,
      "stateMutability": "view",
      "type": "function"
    },
    {
      "inputs": [
        {
          "name": "_escapeHatchCaller",
          "type": "address"
        },
        {
          "name": "_escapeHatchDestination",
          "type": "address"
        }
      ],
      "payable": false,
      "stateMutability": "nonpayable",
      "type": "constructor"
    },
    {
      "anonymous": false,
      "inputs": [
        {
          "indexed": false,
          "name": "token",
          "type": "address"
        }
      ],
      "name": "EscapeHatchBlackistedToken",
      "type": "event"
    },
    {
      "anonymous": false,
      "inputs": [
        {
          "indexed": false,
          "name": "token",
          "type": "address"
        },
        {
          "indexed": false,
          "name": "amount",
          "type": "uint256"
        }
      ],
      "name": "EscapeHatchCalled",
      "type": "event"
    },
    {
      "anonymous": false,
      "inputs": [
        {
          "indexed": true,
          "name": "by",
          "type": "address"
        },
        {
          "indexed": true,
          "name": "to",
          "type": "address"
        }
      ],
      "name": "OwnershipRequested",
      "type": "event"
    },
    {
      "anonymous": false,
      "inputs": [
        {
          "indexed": true,
          "name": "from",
          "type": "address"
        },
        {
          "indexed": true,
          "name": "to",
          "type": "address"
        }
      ],
      "name": "OwnershipTransferred",
      "type": "event"
    },
    {
      "anonymous": false,
      "inputs": [],
      "name": "OwnershipRemoved",
      "type": "event"
    },
    {
      "constant": true,
      "inputs": [
        {
          "name": "_token",
          "type": "address"
        }
      ],
      "name": "isTokenEscapable",
      "outputs": [
        {
          "name": "",
          "type": "bool"
        }
      ],
      "payable": false,
      "stateMutability": "view",
      "type": "function"
    },
    {
      "constant": false,
      "inputs": [
        {
          "name": "_token",
          "type": "address"
        }
      ],
      "name": "escapeHatch",
      "outputs": [],
      "payable": false,
      "stateMutability": "nonpayable",
      "type": "function"
    },
    {
      "constant": false,
      "inputs": [
        {
          "name": "_newEscapeHatchCaller",
          "type": "address"
        }
      ],
      "name": "changeHatchEscapeCaller",
      "outputs": [],
      "payable": false,
      "stateMutability": "nonpayable",
      "type": "function"
    }
  ],
  "bytecode": "0x608060405234801561001057600080fd5b506040516040806115248339810180604052810190808051906020019092919080519060200190929190505050336000806101000a81548173ffffffffffffffffffffffffffffffffffffffff021916908373ffffffffffffffffffffffffffffffffffffffff16021790555081600260006101000a81548173ffffffffffffffffffffffffffffffffffffffff021916908373ffffffffffffffffffffffffffffffffffffffff16021790555080600360006101000a81548173ffffffffffffffffffffffffffffffffffffffff021916908373ffffffffffffffffffffffffffffffffffffffff1602179055505050611414806101106000396000f3006080604052600436106100af576000357c0100000000000000000000000000000000000000000000000000000000900463ffffffff1680631f6eb6e7146100b45780632af4c31e1461010b578063666a34271461014e578063710bf3221461019157806379ba5097146101d4578063892db057146101eb5780638da5cb5b14610246578063a142d6081461029d578063d091b550146102e0578063d836fbe814610337578063f5b612301461037a575b600080fd5b3480156100c057600080fd5b506100c96103d1565b604051808273ffffffffffffffffffffffffffffffffffffffff1673ffffffffffffffffffffffffffffffffffffffff16815260200191505060405180910390f35b34801561011757600080fd5b5061014c600480360381019080803573ffffffffffffffffffffffffffffffffffffffff1690602001909291905050506103f7565b005b34801561015a57600080fd5b5061018f600480360381019080803573ffffffffffffffffffffffffffffffffffffffff169060200190929190505050610671565b005b34801561019d57600080fd5b506101d2600480360381019080803573ffffffffffffffffffffffffffffffffffffffff169060200190929190505050610876565b005b3480156101e057600080fd5b506101e96109fa565b005b3480156101f757600080fd5b5061022c600480360381019080803573ffffffffffffffffffffffffffffffffffffffff169060200190929190505050610c07565b604051808215151515815260200191505060405180910390f35b34801561025257600080fd5b5061025b610c5e565b604051808273ffffffffffffffffffffffffffffffffffffffff1673ffffffffffffffffffffffffffffffffffffffff16815260200191505060405180910390f35b3480156102a957600080fd5b506102de600480360381019080803573ffffffffffffffffffffffffffffffffffffffff169060200190929190505050610c83565b005b3480156102ec57600080fd5b506102f561123c565b604051808273ffffffffffffffffffffffffffffffffffffffff1673ffffffffffffffffffffffffffffffffffffffff16815260200191505060405180910390f35b34801561034357600080fd5b50610378600480360381019080803573ffffffffffffffffffffffffffffffffffffffff169060200190929190505050611262565b005b34801561038657600080fd5b5061038f6113c2565b604051808273ffffffffffffffffffffffffffffffffffffffff1673ffffffffffffffffffffffffffffffffffffffff16815260200191505060405180910390f35b600260009054906101000a900473ffffffffffffffffffffffffffffffffffffffff1681565b60008060009054906101000a900473ffffffffffffffffffffffffffffffffffffffff1673ffffffffffffffffffffffffffffffffffffffff163373ffffffffffffffffffffffffffffffffffffffff161415156104bd576040517f08c379a00000000000000000000000000000000000000000000000000000000081526004018080602001828103825260118152602001807f6572725f6f776e65644e6f744f776e657200000000000000000000000000000081525060200191505060405180910390fd5b60008273ffffffffffffffffffffffffffffffffffffffff161415151561054c576040517f08c379a00000000000000000000000000000000000000000000000000000000081526004018080602001828103825260178152602001807f6572725f6f776e6564496e76616c69644164647265737300000000000000000081525060200191505060405180910390fd5b6000809054906101000a900473ffffffffffffffffffffffffffffffffffffffff169050816000806101000a81548173ffffffffffffffffffffffffffffffffffffffff021916908373ffffffffffffffffffffffffffffffffffffffff1602179055506000600160006101000a81548173ffffffffffffffffffffffffffffffffffffffff021916908373ffffffffffffffffffffffffffffffffffffffff1602179055506000809054906101000a900473ffffffffffffffffffffffffffffffffffffffff1673ffffffffffffffffffffffffffffffffffffffff168173ffffffffffffffffffffffffffffffffffffffff167f8be0079c531659141344cd1fd0a4f28419497f9722a3daafe3b4186f6b6457e060405160405180910390a35050565b6000809054906101000a900473ffffffffffffffffffffffffffffffffffffffff1673ffffffffffffffffffffffffffffffffffffffff163373ffffffffffffffffffffffffffffffffffffffff16141515610735576040517f08c379a00000000000000000000000000000000000000000000000000000000081526004018080602001828103825260118152602001807f6572725f6f776e65644e6f744f776e657200000000000000000000000000000081525060200191505060405180910390fd5b610dac8173ffffffffffffffffffffffffffffffffffffffff161415156107c4576040517f08c379a00000000000000000000000000000000000000000000000000000000081526004018080602001828103825260138152602001807f6572725f6f776e6564496e76616c69644461630000000000000000000000000081525060200191505060405180910390fd5b60008060006101000a81548173ffffffffffffffffffffffffffffffffffffffff021916908373ffffffffffffffffffffffffffffffffffffffff1602179055506000600160006101000a81548173ffffffffffffffffffffffffffffffffffffffff021916908373ffffffffffffffffffffffffffffffffffffffff1602179055507f94e8b32e01b9eedfddd778ffbd051a7718cdc14781702884561162dca6f74dbb60405160405180910390a150565b6000809054906101000a900473ffffffffffffffffffffffffffffffffffffffff1673ffffffffffffffffffffffffffffffffffffffff163373ffffffffffffffffffffffffffffffffffffffff1614151561093a576040517f08c379a00000000000000000000000000000000000000000000000000000000081526004018080602001828103825260118152602001807f6572725f6f776e65644e6f744f776e657200000000000000000000000000000081525060200191505060405180910390fd5b80600160006101000a81548173ffffffffffffffffffffffffffffffffffffffff021916908373ffffffffffffffffffffffffffffffffffffffff160217905550600160009054906101000a900473ffffffffffffffffffffffffffffffffffffffff1673ffffffffffffffffffffffffffffffffffffffff163373ffffffffffffffffffffffffffffffffffffffff167f13a4b3bc0d5234dd3d87c9f1557d8faefa37986da62c36ba49309e2fb2c9aec460405160405180910390a350565b6000600160009054906101000a900473ffffffffffffffffffffffffffffffffffffffff1673ffffffffffffffffffffffffffffffffffffffff163373ffffffffffffffffffffffffffffffffffffffff16141515610ac1576040517f08c379a00000000000000000000000000000000000000000000000000000000081526004018080602001828103825260158152602001807f6572725f6f776e65644e6f7443616e646964617465000000000000000000000081525060200191505060405180910390fd5b6000809054906101000a900473ffffffffffffffffffffffffffffffffffffffff169050600160009054906101000a900473ffffffffffffffffffffffffffffffffffffffff166000806101000a81548173ffffffffffffffffffffffffffffffffffffffff021916908373ffffffffffffffffffffffffffffffffffffffff1602179055506000600160006101000a81548173ffffffffffffffffffffffffffffffffffffffff021916908373ffffffffffffffffffffffffffffffffffffffff1602179055506000809054906101000a900473ffffffffffffffffffffffffffffffffffffffff1673ffffffffffffffffffffffffffffffffffffffff168173ffffffffffffffffffffffffffffffffffffffff167f8be0079c531659141344cd1fd0a4f28419497f9722a3daafe3b4186f6b6457e060405160405180910390a350565b6000600460008373ffffffffffffffffffffffffffffffffffffffff1673ffffffffffffffffffffffffffffffffffffffff16815260200190815260200160002060009054906101000a900460ff16159050919050565b6000809054906101000a900473ffffffffffffffffffffffffffffffffffffffff1681565b600080600260009054906101000a900473ffffffffffffffffffffffffffffffffffffffff1673ffffffffffffffffffffffffffffffffffffffff163373ffffffffffffffffffffffffffffffffffffffff161480610d2e57506000809054906101000a900473ffffffffffffffffffffffffffffffffffffffff1673ffffffffffffffffffffffffffffffffffffffff163373ffffffffffffffffffffffffffffffffffffffff16145b1515610da2576040517f08c379a000000000000000000000000000000000000000000000000000000000815260040180806020018281038252601a8152602001807f6572725f657363617061626c65496e76616c696443616c6c657200000000000081525060200191505060405180910390fd5b60001515600460008573ffffffffffffffffffffffffffffffffffffffff1673ffffffffffffffffffffffffffffffffffffffff16815260200190815260200160002060009054906101000a900460ff161515141515610e6a576040517f08c379a000000000000000000000000000000000000000000000000000000000815260040180806020018281038252601d8152602001807f6572725f657363617061626c65426c61636b6c6973746564546f6b656e00000081525060200191505060405180910390fd5b60008373ffffffffffffffffffffffffffffffffffffffff161415610f7c573073ffffffffffffffffffffffffffffffffffffffff16319150600360009054906101000a900473ffffffffffffffffffffffffffffffffffffffff1673ffffffffffffffffffffffffffffffffffffffff166108fc839081150290604051600060405180830381858888f19350505050158015610f0b573d6000803e3d6000fd5b507fa50dde912fa22ea0d215a0236093ac45b4d55d6ef0c604c319f900029c5d10f28383604051808373ffffffffffffffffffffffffffffffffffffffff1673ffffffffffffffffffffffffffffffffffffffff1681526020018281526020019250505060405180910390a1611237565b8290508073ffffffffffffffffffffffffffffffffffffffff166370a08231306040518263ffffffff167c0100000000000000000000000000000000000000000000000000000000028152600401808273ffffffffffffffffffffffffffffffffffffffff1673ffffffffffffffffffffffffffffffffffffffff168152602001915050602060405180830381600087803b15801561101a57600080fd5b505af115801561102e573d6000803e3d6000fd5b505050506040513d602081101561104457600080fd5b810190808051906020019092919050505091508073ffffffffffffffffffffffffffffffffffffffff1663a9059cbb600360009054906101000a900473ffffffffffffffffffffffffffffffffffffffff16846040518363ffffffff167c0100000000000000000000000000000000000000000000000000000000028152600401808373ffffffffffffffffffffffffffffffffffffffff1673ffffffffffffffffffffffffffffffffffffffff16815260200182815260200192505050602060405180830381600087803b15801561111c57600080fd5b505af1158015611130573d6000803e3d6000fd5b505050506040513d602081101561114657600080fd5b810190808051906020019092919050505015156111cb576040517f08c379a00000000000000000000000000000000000000000000000000000000081526004018080602001828103825260158152602001807f6572725f657363617061626c655472616e73666572000000000000000000000081525060200191505060405180910390fd5b7fa50dde912fa22ea0d215a0236093ac45b4d55d6ef0c604c319f900029c5d10f28383604051808373ffffffffffffffffffffffffffffffffffffffff1673ffffffffffffffffffffffffffffffffffffffff1681526020018281526020019250505060405180910390a15b505050565b600160009054906101000a900473ffffffffffffffffffffffffffffffffffffffff1681565b600260009054906101000a900473ffffffffffffffffffffffffffffffffffffffff1673ffffffffffffffffffffffffffffffffffffffff163373ffffffffffffffffffffffffffffffffffffffff16148061130a57506000809054906101000a900473ffffffffffffffffffffffffffffffffffffffff1673ffffffffffffffffffffffffffffffffffffffff163373ffffffffffffffffffffffffffffffffffffffff16145b151561137e576040517f08c379a000000000000000000000000000000000000000000000000000000000815260040180806020018281038252601a8152602001807f6572725f657363617061626c65496e76616c696443616c6c657200000000000081525060200191505060405180910390fd5b80600260006101000a81548173ffffffffffffffffffffffffffffffffffffffff021916908373ffffffffffffffffffffffffffffffffffffffff16021790555050565b600360009054906101000a900473ffffffffffffffffffffffffffffffffffffffff16815600a165627a7a7230582092fbd9b71121fd451a6fe3bb2a9fb07e4c0476a1350b90d9d7434b630d0f145e0029",
  "source": "pragma solidity ^0.4.22;\n/*\n    Copyright 2016, Jordi Baylina\n    Contributor: Adrià Massanet <adria@codecontext.io>\n\n    This program is free software: you can redistribute it and/or modify\n    it under the terms of the GNU General Public License as published by\n    the Free Software Foundation, either version 3 of the License, or\n    (at your option) any later version.\n\n    This program is distributed in the hope that it will be useful,\n    but WITHOUT ANY WARRANTY; without even the implied warranty of\n    MERCHANTABILITY or FITNESS FOR A PARTICULAR PURPOSE.  See the\n    GNU General Public License for more details.\n\n    You should have received a copy of the GNU General Public License\n    along with this program.  If not, see <http://www.gnu.org/licenses/>.\n*/\n\nimport \"./Owned.sol\";\nimport \"./ERC20.sol\";\n\n\n/// @dev `Escapable` is a base level contract built off of the `Owned`\n///  contract; it creates an escape hatch function that can be called in an\n///  emergency that will allow designated addresses to send any ether or tokens\n///  held in the contract to an `escapeHatchDestination` as long as they were\n///  not blacklisted\ncontract Escapable is Owned {\n    address public escapeHatchCaller;\n    address public escapeHatchDestination;\n    mapping (address=>bool) private escapeBlacklist; // Token contract addresses\n\n    /// @notice The Constructor assigns the `escapeHatchDestination` and the\n    ///  `escapeHatchCaller`\n    /// @param _escapeHatchCaller The address of a trusted account or contract\n    ///  to call `escapeHatch()` to send the ether in this contract to the\n    ///  `escapeHatchDestination` it would be ideal that `escapeHatchCaller`\n    ///  cannot move funds out of `escapeHatchDestination`\n    /// @param _escapeHatchDestination The address of a safe location (usu a\n    ///  Multisig) to send the ether held in this contract; if a neutral address\n    ///  is required, the WHG Multisig is an option:\n    ///  0x8Ff920020c8AD673661c8117f2855C384758C572 \n    constructor(address _escapeHatchCaller, address _escapeHatchDestination) public {\n        escapeHatchCaller = _escapeHatchCaller;\n        escapeHatchDestination = _escapeHatchDestination;\n    }\n\n    /// @dev The addresses preassigned as `escapeHatchCaller` or `owner`\n    ///  are the only addresses that can call a function with this modifier\n    modifier onlyEscapeHatchCallerOrOwner {\n        require (\n            (msg.sender == escapeHatchCaller)||(msg.sender == owner),\n            \"err_escapableInvalidCaller\"\n        );\n        _;\n    }\n\n    /// @notice Creates the blacklist of tokens that are not able to be taken\n    ///  out of the contract; can only be done at the deployment, and the logic\n    ///  to add to the blacklist will be in the constructor of a child contract\n    /// @param _token the token contract address that is to be blacklisted \n    function blacklistEscapeToken(address _token) internal {\n        escapeBlacklist[_token] = true;\n\n        emit EscapeHatchBlackistedToken(_token);\n    }\n\n    /// @notice Checks to see if `_token` is in the blacklist of tokens\n    /// @param _token the token address being queried\n    /// @return False if `_token` is in the blacklist and can't be taken out of\n    ///  the contract via the `escapeHatch()`\n    function isTokenEscapable(address _token) view public returns (bool) {\n        return !escapeBlacklist[_token];\n    }\n\n    /// @notice The `escapeHatch()` should only be called as a last resort if a\n    /// security issue is uncovered or something unexpected happened\n    /// @param _token to transfer, use 0x0 for ether\n    function escapeHatch(address _token) public onlyEscapeHatchCallerOrOwner {\n        require(escapeBlacklist[_token]==false,\"err_escapableBlacklistedToken\");\n\n        uint256 balance;\n\n        /// @dev Logic for ether\n        if (_token == 0x0) {\n            balance = address(this).balance;\n            escapeHatchDestination.transfer(balance);\n            emit EscapeHatchCalled(_token, balance);\n            return;\n        }\n        /// @dev Logic for tokens\n        ERC20 token = ERC20(_token);\n        balance = token.balanceOf(this);\n        require(token.transfer(escapeHatchDestination, balance),\"err_escapableTransfer\");\n        emit EscapeHatchCalled(_token, balance);\n    }\n\n    /// @notice Changes the address assigned to call `escapeHatch()`\n    /// @param _newEscapeHatchCaller The address of a trusted account or\n    ///  contract to call `escapeHatch()` to send the value in this contract to\n    ///  the `escapeHatchDestination`; it would be ideal that `escapeHatchCaller`\n    ///  cannot move funds out of `escapeHatchDestination`\n    function changeHatchEscapeCaller(address _newEscapeHatchCaller) public onlyEscapeHatchCallerOrOwner {\n        escapeHatchCaller = _newEscapeHatchCaller;\n    }\n\n    event EscapeHatchBlackistedToken(address token);\n    event EscapeHatchCalled(address token, uint amount);\n}\n",
  "sourcePath": "/home/liweibo/code/solidity/contracts_library/contracts_library/contracts/Giveth/common-contract-deps/Escapable.sol",
  "compiler": {
    "name": "solc",
    "version": "0.4.24+commit.e67f0147.Emscripten.clang"
  },
  "schemaVersion": "2.0.1",
  "updatedAt": "2018-08-14T07:39:20.587Z"
}