{
  "contractName": "GenericStoreRestricted",
  "abi": [
    {
      "constant": true,
      "inputs": [
        {
          "name": "_operator",
          "type": "address"
        },
        {
          "name": "_role",
          "type": "string"
        }
      ],
      "name": "checkRole",
      "outputs": [],
      "payable": false,
      "stateMutability": "view",
      "type": "function"
    },
    {
      "constant": true,
      "inputs": [
        {
          "name": "_operator",
          "type": "address"
        },
        {
          "name": "_role",
          "type": "string"
        }
      ],
      "name": "hasRole",
      "outputs": [
        {
          "name": "",
          "type": "bool"
        }
      ],
      "payable": false,
      "stateMutability": "view",
      "type": "function"
    },
    {
      "constant": true,
      "inputs": [
        {
          "name": "key",
          "type": "bytes32"
        },
        {
          "name": "index",
          "type": "uint256"
        }
      ],
      "name": "read",
      "outputs": [
        {
          "name": "",
          "type": "bytes32"
        }
      ],
      "payable": false,
      "stateMutability": "view",
      "type": "function"
    },
    {
      "constant": true,
      "inputs": [
        {
          "name": "key",
          "type": "bytes32"
        }
      ],
      "name": "getItemLength",
      "outputs": [
        {
          "name": "",
          "type": "uint256"
        }
      ],
      "payable": false,
      "stateMutability": "view",
      "type": "function"
    },
    {
      "inputs": [
        {
          "name": "_rules",
          "type": "bool[]"
        }
      ],
      "payable": false,
      "stateMutability": "nonpayable",
      "type": "constructor"
    },
    {
      "anonymous": false,
      "inputs": [
        {
          "indexed": true,
          "name": "operator",
          "type": "address"
        },
        {
          "indexed": false,
          "name": "role",
          "type": "string"
        }
      ],
      "name": "RoleAdded",
      "type": "event"
    },
    {
      "anonymous": false,
      "inputs": [
        {
          "indexed": true,
          "name": "operator",
          "type": "address"
        },
        {
          "indexed": false,
          "name": "role",
          "type": "string"
        }
      ],
      "name": "RoleRemoved",
      "type": "event"
    },
    {
      "constant": false,
      "inputs": [
        {
          "name": "key",
          "type": "bytes32"
        },
        {
          "name": "value",
          "type": "bytes32"
        }
      ],
      "name": "createSingle",
      "outputs": [
        {
          "name": "",
          "type": "bool"
        }
      ],
      "payable": false,
      "stateMutability": "nonpayable",
      "type": "function"
    },
    {
      "constant": false,
      "inputs": [
        {
          "name": "keys",
          "type": "bytes32[]"
        },
        {
          "name": "values",
          "type": "bytes32[]"
        }
      ],
      "name": "createMulti",
      "outputs": [
        {
          "name": "",
          "type": "bool"
        }
      ],
      "payable": false,
      "stateMutability": "nonpayable",
      "type": "function"
    },
    {
      "constant": false,
      "inputs": [
        {
          "name": "key",
          "type": "bytes32"
        },
        {
          "name": "value",
          "type": "bytes32"
        }
      ],
      "name": "updateSingle",
      "outputs": [
        {
          "name": "",
          "type": "bool"
        }
      ],
      "payable": false,
      "stateMutability": "nonpayable",
      "type": "function"
    },
    {
      "constant": false,
      "inputs": [
        {
          "name": "keys",
          "type": "bytes32[]"
        },
        {
          "name": "values",
          "type": "bytes32[]"
        }
      ],
      "name": "updateMulti",
      "outputs": [
        {
          "name": "",
          "type": "bool"
        }
      ],
      "payable": false,
      "stateMutability": "nonpayable",
      "type": "function"
    },
    {
      "constant": false,
      "inputs": [
        {
          "name": "key",
          "type": "bytes32"
        }
      ],
      "name": "removeSingle",
      "outputs": [
        {
          "name": "",
          "type": "bool"
        }
      ],
      "payable": false,
      "stateMutability": "nonpayable",
      "type": "function"
    },
    {
      "constant": false,
      "inputs": [
        {
          "name": "keys",
          "type": "bytes32[]"
        }
      ],
      "name": "removeMulti",
      "outputs": [
        {
          "name": "",
          "type": "bool"
        }
      ],
      "payable": false,
      "stateMutability": "nonpayable",
      "type": "function"
    }
  ],
  "bytecode": "0x60806040523480156200001157600080fd5b50604051620015a5380380620015a5833981018060405281019080805182019291905050506060604051908101604052808260008151811015156200005257fe5b90602001906020020151151581526020018260018151811015156200007357fe5b90602001906020020151151581526020018260028151811015156200009457fe5b90602001906020020151151581525060026000806002811115620000b457fe5b815260200190815260200160002060008201518160000160006101000a81548160ff02191690831515021790555060208201518160000160016101000a81548160ff02191690831515021790555060408201518160000160026101000a81548160ff0219169083151502179055509050506060604051908101604052808260038151811015156200014157fe5b90602001906020020151151581526020018260048151811015156200016257fe5b90602001906020020151151581526020018260058151811015156200018357fe5b9060200190602002015115158152506002600060016002811115620001a457fe5b815260200190815260200160002060008201518160000160006101000a81548160ff02191690831515021790555060208201518160000160016101000a81548160ff02191690831515021790555060408201518160000160026101000a81548160ff0219169083151502179055509050506060604051908101604052808260068151811015156200023157fe5b90602001906020020151151581526020018260078151811015156200025257fe5b90602001906020020151151581526020018260088151811015156200027357fe5b906020019060200201511515815250600260006002808111156200029357fe5b815260200190815260200160002060008201518160000160006101000a81548160ff02191690831515021790555060208201518160000160016101000a81548160ff02191690831515021790555060408201518160000160026101000a81548160ff0219169083151502179055509050505061129080620003156000396000f3006080604052600436106100a4576000357c0100000000000000000000000000000000000000000000000000000000900463ffffffff1680630988ca8c146100a957806312f32ffe14610132578063217fe6c61461019d57806322acd2421461023e5780633d301c9114610295578063995dd726146102ec578063bd47317614610357578063d012a1421461039c578063d4cff299146103f3578063dc132d2714610446575b600080fd5b3480156100b557600080fd5b50610130600480360381019080803573ffffffffffffffffffffffffffffffffffffffff169060200190929190803590602001908201803590602001908080601f016020809104026020016040519081016040528093929190818152602001838380828437820191505050505050919291929050505061048f565b005b34801561013e57600080fd5b50610183600480360381019080803590602001908201803590602001919091929391929390803590602001908201803590602001919091929391929390505050610510565b604051808215151515815260200191505060405180910390f35b3480156101a957600080fd5b50610224600480360381019080803573ffffffffffffffffffffffffffffffffffffffff169060200190929190803590602001908201803590602001908080601f01602080910402602001604051908101604052809392919081815260200183838082843782019150505050505091929192905050506105d9565b604051808215151515815260200191505060405180910390f35b34801561024a57600080fd5b5061027b60048036038101908080356000191690602001909291908035600019169060200190929190505050610660565b604051808215151515815260200191505060405180910390f35b3480156102a157600080fd5b506102ce6004803603810190808035600019169060200190929190803590602001909291905050506106f7565b60405180826000191660001916815260200191505060405180910390f35b3480156102f857600080fd5b5061033d600480360381019080803590602001908201803590602001919091929391929390803590602001908201803590602001919091929391929390505050610733565b604051808215151515815260200191505060405180910390f35b34801561036357600080fd5b5061038660048036038101908080356000191690602001909291905050506107fb565b6040518082815260200191505060405180910390f35b3480156103a857600080fd5b506103d960048036038101908080356000191690602001909291908035600019169060200190929190505050610822565b604051808215151515815260200191505060405180910390f35b3480156103ff57600080fd5b5061042c6004803603810190808035906020019082018035906020019190919293919293905050506108ba565b604051808215151515815260200191505060405180910390f35b34801561045257600080fd5b506104756004803603810190808035600019169060200190929190505050610950565b604051808215151515815260200191505060405180910390f35b61050c826001836040518082805190602001908083835b6020831015156104cb57805182526020820191506020810190506020830392506104a6565b6001836020036101000a03801982511681845116808217855250505050505090500191505090815260200160405180910390206109e590919063ffffffff16565b5050565b60006001600281111561051f57fe5b85858080602002602001604051908101604052809392919081815260200183836020028082843782019150505050505061055a3383836109fe565b151561056557600080fd5b6105cd878780806020026020016040519081016040528093929190818152602001838360200280828437820191505050505050868680806020026020016040519081016040528093929190818152602001838360200280828437820191505050505050610c2f565b92505050949350505050565b6000610658836001846040518082805190602001908083835b60208310151561061757805182526020820191506020810190506020830392506105f2565b6001836020036101000a0380198251168184511680821785525050505050509050019150509081526020016040518091039020610ca690919063ffffffff16565b905092915050565b600080600281111561066e57fe5b83606060016040519080825280602002602001820160405280156106a15781602001602082028038833980820191505090505b509050818160008151811015156106b457fe5b9060200190602002019060001916908160001916815250506106d73384836109fe565b15156106e257600080fd5b6106ec8686610cff565b935050505092915050565b600080600084600019166000191681526020019081526020016000208281548110151561072057fe5b9060005260206000200154905092915050565b600080600281111561074157fe5b85858080602002602001604051908101604052809392919081815260200183836020028082843782019150505050505061077c3383836109fe565b151561078757600080fd5b6107ef878780806020026020016040519081016040528093929190818152602001838360200280828437820191505050505050868680806020026020016040519081016040528093929190818152602001838360200280828437820191505050505050610d3f565b92505050949350505050565b60008060008360001916600019168152602001908152602001600020805490509050919050565b60006001600281111561083157fe5b83606060016040519080825280602002602001820160405280156108645781602001602082028038833980820191505090505b5090508181600081518110151561087757fe5b90602001906020020190600019169081600019168152505061089a3384836109fe565b15156108a557600080fd5b6108af8686610db6565b935050505092915050565b60006002808111156108c857fe5b8383808060200260200160405190810160405280939291908181526020018383602002808284378201915050505050506109033383836109fe565b151561090e57600080fd5b610946858580806020026020016040519081016040528093929190818152602001838360200280828437820191505050505050610e16565b9250505092915050565b600060028081111561095e57fe5b82606060016040519080825280602002602001820160405280156109915781602001602082028038833980820191505090505b509050818160008151811015156109a457fe5b9060200190602002019060001916908160001916815250506109c73384836109fe565b15156109d257600080fd5b6109db85610e5f565b9350505050919050565b6109ef8282610ca6565b15156109fa57600080fd5b5050565b600080600080600060606000600260008a815260200190815260200160002060000160009054906101000a900460ff169550600260008a815260200190815260200160002060000160019054906101000a900460ff169450600260008a815260200190815260200160002060000160029054906101000a900460ff16935085158015610a88575084155b8015610a92575083155b15610aa05760019650610c22565b858015610ae85750610ae78a6040805190810160405280600581526020017f61646d696e0000000000000000000000000000000000000000000000000000008152506105d9565b5b15610af65760019650610c22565b848015610b3e5750610b3d8a6040805190810160405280600681526020017f656469746f7200000000000000000000000000000000000000000000000000008152506105d9565b5b15610b4c5760019650610c22565b8315610c1d576000891415610bbc57600092505b8751831015610bb757610b8d8884815181101515610b7a57fe5b9060200190602002015160001916610e90565b9150610b998a836105d9565b1515610baa57610ba98a8361108c565b5b8280600101935050610b60565b610c14565b600090505b8751811015610c1357610bf78a610bf28a84815181101515610bdf57fe5b9060200190602002015160001916610e90565b6105d9565b1515610c065760009650610c22565b8080600101915050610bc1565b5b60019650610c22565b600096505b5050505050509392505050565b60008082518451141515610c465760009150610c9f565b600090505b8351811015610c9a57610c8c8482815181101515610c6557fe5b906020019060200201518483815181101515610c7d57fe5b90602001906020020151610db6565b508080600101915050610c4b565b600191505b5092915050565b60008260000160008373ffffffffffffffffffffffffffffffffffffffff1673ffffffffffffffffffffffffffffffffffffffff16815260200190815260200160002060009054906101000a900460ff16905092915050565b60008060008085600019166000191681526020019081526020016000208054905011151515610d2d57600080fd5b610d378383610db6565b905092915050565b60008082518451141515610d565760009150610daf565b600090505b8351811015610daa57610d9c8482815181101515610d7557fe5b906020019060200201518483815181101515610d8d57fe5b90602001906020020151610cff565b508080600101915050610d5b565b600191505b5092915050565b6000610dc183610e5f565b5060008084600019166000191681526020019081526020016000208290806001815401808255809150509060018203906000526020600020016000909192909190915090600019169055506001905092915050565b600080600090505b8251811015610e5557610e478382815181101515610e3857fe5b90602001906020020151610e5f565b508080600101915050610e1e565b6001915050919050565b600080600083600019166000191681526020019081526020016000206000610e87919061121e565b60019050919050565b6060806000806000606060206040519080825280601f01601f191660200182016040528015610ece5781602001602082028038833980820191505090505b50945060009350600092505b6020831015610f98578260080260020a876001900402600102915060007f010000000000000000000000000000000000000000000000000000000000000002827effffffffffffffffffffffffffffffffffffffffffffffffffffffffffffff1916141515610f8b57818585815181101515610f5257fe5b9060200101907effffffffffffffffffffffffffffffffffffffffffffffffffffffffffffff1916908160001a90535083806001019450505b8280600101935050610eda565b836040519080825280601f01601f191660200182016040528015610fcb5781602001602082028038833980820191505090505b509050600092505b8383101561107f578483815181101515610fe957fe5b9060200101517f010000000000000000000000000000000000000000000000000000000000000090047f010000000000000000000000000000000000000000000000000000000000000002818481518110151561104257fe5b9060200101907effffffffffffffffffffffffffffffffffffffffffffffffffffffffffffff1916908160001a9053508280600101935050610fd3565b8095505050505050919050565b611109826001836040518082805190602001908083835b6020831015156110c857805182526020820191506020810190506020830392506110a3565b6001836020036101000a03801982511681845116808217855250505050505090500191505090815260200160405180910390206111c090919063ffffffff16565b8173ffffffffffffffffffffffffffffffffffffffff167fbfec83d64eaa953f2708271a023ab9ee82057f8f3578d548c1a4ba0b5b700489826040518080602001828103825283818151815260200191508051906020019080838360005b83811015611182578082015181840152602081019050611167565b50505050905090810190601f1680156111af5780820380516001836020036101000a031916815260200191505b509250505060405180910390a25050565b60018260000160008373ffffffffffffffffffffffffffffffffffffffff1673ffffffffffffffffffffffffffffffffffffffff16815260200190815260200160002060006101000a81548160ff0219169083151502179055505050565b508054600082559060005260206000209081019061123c919061123f565b50565b61126191905b8082111561125d576000816000905550600101611245565b5090565b905600a165627a7a72305820b3df27d62d63a70013d93695773bbf1ed9f31eb6e9898e2e7e3312cbd18f0a950029",
  "source": "pragma solidity ^0.4.19;\n\nimport \"./GenericStore.sol\";\nimport \"./GenericStoreInterface.sol\";\nimport \"../../OpenZeppelin/openzeppelin-solidity/access/rbac/RBAC.sol\";\nimport \"../solidity-utils/FromBytes32.sol\";\n\n\n// restricts writes to GenericStore\ncontract GenericStoreRestricted is GenericStoreInterface, GenericStore, RBAC {\n  using FromBytes32 for bytes32;\n\n  string private constant ROLE_EDITOR = \"editor\";\n\n  // methods in which user can interact with store\n  enum Methods {\n    create,\n    update,\n    remove\n  }\n\n  // rules that need to be checked\n  struct Rules {\n    bool roleAdmin;\n    bool roleEditor;\n    bool roleKey;\n  }\n\n  // method => Rules\n  mapping(uint256 => Rules) private rules;\n\n  function GenericStoreRestricted (bool[] _rules) public {\n    // update rules\n    rules[uint256(Methods.create)] = Rules(_rules[0], _rules[1], _rules[2]);\n    rules[uint256(Methods.update)] = Rules(_rules[3], _rules[4], _rules[5]);\n    rules[uint256(Methods.remove)] = Rules(_rules[6], _rules[7], _rules[8]);\n  }\n\n  // modifiers\n  modifier firewallSingle(uint256 method, bytes32 key) {\n    bytes32[] memory keys = new bytes32[](1);\n    keys[0] = key;\n\n    require(firewallCheck(msg.sender, method, keys));\n    _;\n  }\n\n  modifier firewallMulti(uint256 method, bytes32[] keys) {\n    require(firewallCheck(msg.sender, method, keys));\n    _;\n  }\n\n  // validates sender & keys\n  function firewallCheck(address sender, uint256 method, bytes32[] keys) private returns (bool) {\n    bool roleAdmin = rules[method].roleAdmin;\n    bool roleEditor = rules[method].roleEditor;\n    bool roleKey = rules[method].roleKey;\n\n    // no rules activated, allow\n    if (!roleAdmin && !roleEditor && !roleKey) {\n      return true;\n    }\n\n    if (roleAdmin && hasRole(sender, \"admin\")) {\n      return true;\n    }\n\n    if (roleEditor && hasRole(sender, ROLE_EDITOR)) {\n      return true;\n    }\n\n    if (roleKey) {\n      if (method == 0) { // if its creating, add roles and allow creation\n        for (uint256 i = 0; i < keys.length; i++) {\n          string memory key = keys[i].toString();\n\n          // if role doesnt exist, add role\n          if (!hasRole(sender, key)) addRole(sender, key);\n        }\n      } else { // else check roles\n        for (uint256 j = 0; j < keys.length; j++) {\n          // if sender doesnt have the role, exit\n          if (!hasRole(sender, keys[j].toString())) {\n            return false;\n          }\n        }\n      }\n\n      return true;\n    }\n\n    // default to disallowing\n    return false;\n  }\n\n  // interface\n  function createSingle(bytes32 key, bytes32 value) external firewallSingle(uint256(Methods.create), key) returns (bool) {\n    return super._createSingle(key, value);\n  }\n\n  function createMulti(bytes32[] keys, bytes32[] values) external firewallMulti(uint256(Methods.create), keys) returns (bool) {\n    return super._createMulti(keys, values);\n  }\n  \n  function updateSingle(bytes32 key, bytes32 value) external firewallSingle(uint256(Methods.update), key) returns (bool) {\n    return super._updateSingle(key, value);\n  }\n\n  function updateMulti(bytes32[] keys, bytes32[] values) external firewallMulti(uint256(Methods.update), keys) returns (bool) {\n    return super._updateMulti(keys, values);\n  }\n  \n  function removeSingle(bytes32 key) external firewallSingle(uint256(Methods.remove), key) returns (bool) {\n    return super._removeSingle(key);\n  }\n\n  function removeMulti(bytes32[] keys) external firewallMulti(uint256(Methods.remove), keys) returns (bool) {\n    return super._removeMulti(keys);\n  }\n}",
  "sourcePath": "/home/liweibo/code/solidity/contracts_library/contracts_library/contracts/nionis/generic-storage/GenericStoreRestricted.sol",
  "compiler": {
    "name": "solc",
    "version": "0.4.24+commit.e67f0147.Emscripten.clang"
  },
  "schemaVersion": "2.0.1",
  "updatedAt": "2018-08-14T07:39:20.649Z"
}