{
  "contractName": "GenericStore",
  "abi": [
    {
      "constant": false,
      "inputs": [
        {
          "name": "key",
          "type": "bytes32"
        },
        {
          "name": "value",
          "type": "bytes32"
        }
      ],
      "name": "createSingle",
      "outputs": [
        {
          "name": "",
          "type": "bool"
        }
      ],
      "payable": false,
      "stateMutability": "nonpayable",
      "type": "function"
    },
    {
      "constant": false,
      "inputs": [
        {
          "name": "keys",
          "type": "bytes32[]"
        },
        {
          "name": "values",
          "type": "bytes32[]"
        }
      ],
      "name": "createMulti",
      "outputs": [
        {
          "name": "",
          "type": "bool"
        }
      ],
      "payable": false,
      "stateMutability": "nonpayable",
      "type": "function"
    },
    {
      "constant": false,
      "inputs": [
        {
          "name": "key",
          "type": "bytes32"
        },
        {
          "name": "value",
          "type": "bytes32"
        }
      ],
      "name": "updateSingle",
      "outputs": [
        {
          "name": "",
          "type": "bool"
        }
      ],
      "payable": false,
      "stateMutability": "nonpayable",
      "type": "function"
    },
    {
      "constant": false,
      "inputs": [
        {
          "name": "keys",
          "type": "bytes32[]"
        },
        {
          "name": "values",
          "type": "bytes32[]"
        }
      ],
      "name": "updateMulti",
      "outputs": [
        {
          "name": "",
          "type": "bool"
        }
      ],
      "payable": false,
      "stateMutability": "nonpayable",
      "type": "function"
    },
    {
      "constant": false,
      "inputs": [
        {
          "name": "key",
          "type": "bytes32"
        }
      ],
      "name": "removeSingle",
      "outputs": [
        {
          "name": "",
          "type": "bool"
        }
      ],
      "payable": false,
      "stateMutability": "nonpayable",
      "type": "function"
    },
    {
      "constant": false,
      "inputs": [
        {
          "name": "keys",
          "type": "bytes32[]"
        }
      ],
      "name": "removeMulti",
      "outputs": [
        {
          "name": "",
          "type": "bool"
        }
      ],
      "payable": false,
      "stateMutability": "nonpayable",
      "type": "function"
    },
    {
      "constant": true,
      "inputs": [
        {
          "name": "key",
          "type": "bytes32"
        }
      ],
      "name": "getItemLength",
      "outputs": [
        {
          "name": "",
          "type": "uint256"
        }
      ],
      "payable": false,
      "stateMutability": "view",
      "type": "function"
    },
    {
      "constant": true,
      "inputs": [
        {
          "name": "key",
          "type": "bytes32"
        },
        {
          "name": "index",
          "type": "uint256"
        }
      ],
      "name": "read",
      "outputs": [
        {
          "name": "",
          "type": "bytes32"
        }
      ],
      "payable": false,
      "stateMutability": "view",
      "type": "function"
    }
  ],
  "bytecode": "0x608060405234801561001057600080fd5b50610790806100206000396000f30060806040526004361061008e576000357c0100000000000000000000000000000000000000000000000000000000900463ffffffff16806312f32ffe1461009357806322acd242146100fe5780633d301c9114610155578063995dd726146101ac578063bd47317614610217578063d012a1421461025c578063d4cff299146102b3578063dc132d2714610306575b600080fd5b34801561009f57600080fd5b506100e460048036038101908080359060200190820180359060200191909192939192939080359060200190820180359060200191909192939192939050505061034f565b604051808215151515815260200191505060405180910390f35b34801561010a57600080fd5b5061013b600480360381019080803560001916906020019092919080356000191690602001909291905050506103c3565b604051808215151515815260200191505060405180910390f35b34801561016157600080fd5b5061018e6004803603810190808035600019169060200190929190803590602001909291905050506103d7565b60405180826000191660001916815260200191505060405180910390f35b3480156101b857600080fd5b506101fd600480360381019080803590602001908201803590602001919091929391929390803590602001908201803590602001919091929391929390505050610413565b604051808215151515815260200191505060405180910390f35b34801561022357600080fd5b506102466004803603810190808035600019169060200190929190505050610487565b6040518082815260200191505060405180910390f35b34801561026857600080fd5b50610299600480360381019080803560001916906020019092919080356000191690602001909291905050506104ae565b604051808215151515815260200191505060405180910390f35b3480156102bf57600080fd5b506102ec6004803603810190808035906020019082018035906020019190919293919293905050506104c2565b604051808215151515815260200191505060405180910390f35b34801561031257600080fd5b506103356004803603810190808035600019169060200190929190505050610504565b604051808215151515815260200191505060405180910390f35b60006103b9858580806020026020016040519081016040528093929190818152602001838360200280828437820191505050505050848480806020026020016040519081016040528093929190818152602001838360200280828437820191505050505050610516565b9050949350505050565b60006103cf838361058d565b905092915050565b600080600084600019166000191681526020019081526020016000208281548110151561040057fe5b9060005260206000200154905092915050565b600061047d8585808060200260200160405190810160405280939291908181526020018383602002808284378201915050505050508484808060200260200160405190810160405280939291908181526020018383602002808284378201915050505050506105cd565b9050949350505050565b60008060008360001916600019168152602001908152602001600020805490509050919050565b60006104ba8383610644565b905092915050565b60006104fc8383808060200260200160405190810160405280939291908181526020018383602002808284378201915050505050506106a4565b905092915050565b600061050f826106ed565b9050919050565b6000808251845114151561052d5760009150610586565b600090505b835181101561058157610573848281518110151561054c57fe5b90602001906020020151848381518110151561056457fe5b90602001906020020151610644565b508080600101915050610532565b600191505b5092915050565b600080600080856000191660001916815260200190815260200160002080549050111515156105bb57600080fd5b6105c58383610644565b905092915050565b600080825184511415156105e4576000915061063d565b600090505b83518110156106385761062a848281518110151561060357fe5b90602001906020020151848381518110151561061b57fe5b9060200190602002015161058d565b5080806001019150506105e9565b600191505b5092915050565b600061064f836106ed565b5060008084600019166000191681526020019081526020016000208290806001815401808255809150509060018203906000526020600020016000909192909190915090600019169055506001905092915050565b600080600090505b82518110156106e3576106d583828151811015156106c657fe5b906020019060200201516106ed565b5080806001019150506106ac565b6001915050919050565b600080600083600019166000191681526020019081526020016000206000610715919061071e565b60019050919050565b508054600082559060005260206000209081019061073c919061073f565b50565b61076191905b8082111561075d576000816000905550600101610745565b5090565b905600a165627a7a72305820e4152628e7faac93c9a026f449681be4144b81619618c85bb20235a01683e1310029",
  "source": "pragma solidity ^0.4.19;\n\nimport \"./GenericStoreInterface.sol\";\n\n\ncontract GenericStore is GenericStoreInterface {\n  // key => values\n  // values is an array, this is mostly needed to handle large strings\n  mapping (bytes32 => bytes32[]) internal items;\n\n  // creates item, makes sure not to overwrite already existing key\n  function _createSingle(bytes32 key, bytes32 value) internal returns (bool) {\n    require(items[key].length <= 0);\n\n    return _updateSingle(key, value);\n  }\n\n  // creates items, makes sure not to overwrite already existing keys\n  function _createMulti(bytes32[] keys, bytes32[] values) internal returns (bool) {\n    if (keys.length != values.length) return false;\n\n    for (uint256 i = 0; i < keys.length; i++) {\n      _createSingle(keys[i], values[i]);\n    }\n\n    return true;\n  }\n\n  // updates item\n  function _updateSingle(bytes32 key, bytes32 value) internal returns (bool) {\n    // remove old data\n    _removeSingle(key);\n\n    // update with new data\n    items[key].push(value);\n    \n    return true;\n  }\n\n  // updates items\n  function _updateMulti(bytes32[] keys, bytes32[] values) internal returns (bool) {\n    if (keys.length != values.length) return false;\n\n    // update with new data\n    for (uint256 i = 0; i < keys.length; i++) {\n      _updateSingle(keys[i], values[i]);\n    }\n    \n    return true;\n  }\n\n  // removes item\n  function _removeSingle(bytes32 key) internal returns (bool) {\n    delete items[key];\n    \n    return true;\n  }\n\n  // removes items\n  function _removeMulti(bytes32[] keys) internal returns (bool) {\n    for (uint256 i = 0; i < keys.length; i++) {\n      _removeSingle(keys[i]);\n    }\n    \n    return true;\n  }\n\n  // get item values\n  function getItem(bytes32 key) internal view returns (bytes32[]) {\n    return items[key];\n  }\n\n  // interface\n  function createSingle(bytes32 key, bytes32 value) external returns (bool) {\n    return _createSingle(key, value);\n  }\n\n  function createMulti(bytes32[] keys, bytes32[] values) external returns (bool) {\n    return _createMulti(keys, values);\n  }\n\n  function updateSingle(bytes32 key, bytes32 value) external returns (bool) {\n    return _updateSingle(key, value);\n  }\n\n  function updateMulti(bytes32[] keys, bytes32[] values) external returns (bool) {\n    return _updateMulti(keys, values);\n  }\n\n  function removeSingle(bytes32 key) external returns (bool) {\n    return _removeSingle(key);\n  }\n\n  function removeMulti(bytes32[] keys) external returns (bool) {\n    return _removeMulti(keys);\n  }\n\n  // length of an item\n  function getItemLength(bytes32 key) external view returns (uint256) {\n    return items[key].length;\n  }\n\n  // read item at index\n  function read(bytes32 key, uint256 index) external view returns (bytes32) {\n    return items[key][index];\n  }\n}",
  "sourcePath": "/home/liweibo/code/solidity/contracts_library/contracts_library/contracts/nionis/generic-storage/GenericStore.sol",
  "compiler": {
    "name": "solc",
    "version": "0.4.24+commit.e67f0147.Emscripten.clang"
  },
  "schemaVersion": "2.0.1",
  "updatedAt": "2018-08-14T07:39:20.644Z"
}