{
  "contractName": "IndexOf",
  "abi": [
    {
      "inputs": [],
      "payable": false,
      "stateMutability": "nonpayable",
      "type": "constructor"
    },
    {
      "constant": false,
      "inputs": [
        {
          "name": "_a",
          "type": "string"
        },
        {
          "name": "_b",
          "type": "string"
        }
      ],
      "name": "indexOf",
      "outputs": [
        {
          "name": "",
          "type": "int256"
        }
      ],
      "payable": false,
      "stateMutability": "nonpayable",
      "type": "function"
    },
    {
      "constant": true,
      "inputs": [],
      "name": "whatWasTheVal",
      "outputs": [
        {
          "name": "",
          "type": "int256"
        }
      ],
      "payable": false,
      "stateMutability": "view",
      "type": "function"
    },
    {
      "constant": false,
      "inputs": [],
      "name": "kill",
      "outputs": [],
      "payable": false,
      "stateMutability": "nonpayable",
      "type": "function"
    }
  ],
  "bytecode": "0x60806040527ffffffffffffffffffffffffffffffffffffffffffffffffffffffffffffffff660015534801561003457600080fd5b50336000806101000a81548173ffffffffffffffffffffffffffffffffffffffff021916908373ffffffffffffffffffffffffffffffffffffffff1602179055506105c3806100846000396000f300608060405260043610610057576000357c0100000000000000000000000000000000000000000000000000000000900463ffffffff168063264c8e9a1461005c57806341c0e1b5146100875780638a0807b71461009e575b600080fd5b34801561006857600080fd5b50610071610161565b6040518082815260200191505060405180910390f35b34801561009357600080fd5b5061009c61016b565b005b3480156100aa57600080fd5b5061014b600480360381019080803590602001908201803590602001908080601f0160208091040260200160405190810160405280939291908181526020018383808284378201915050505050509192919290803590602001908201803590602001908080601f01602080910402602001604051908101604052809392919081815260200183838082843782019150505050505091929192905050506101fc565b6040518082815260200191505060405180910390f35b6000600154905090565b6000809054906101000a900473ffffffffffffffffffffffffffffffffffffffff1673ffffffffffffffffffffffffffffffffffffffff163373ffffffffffffffffffffffffffffffffffffffff1614156101fa576000809054906101000a900473ffffffffffffffffffffffffffffffffffffffff1673ffffffffffffffffffffffffffffffffffffffff16ff5b565b600060608060008086935085925060018451108061021b575060018351105b80610227575083518351115b1561027b577fffffffffffffffffffffffffffffffffffffffffffffffffffffffffffffffff6001819055507fffffffffffffffffffffffffffffffffffffffffffffffffffffffffffffffff945061058d565b6fffffffffffffffffffffffffffffffff845111156102e3577fffffffffffffffffffffffffffffffffffffffffffffffffffffffffffffffff6001819055507fffffffffffffffffffffffffffffffffffffffffffffffffffffffffffffffff945061058d565b60009150600090505b83518110156105425782600081518110151561030457fe5b9060200101517f010000000000000000000000000000000000000000000000000000000000000090047f0100000000000000000000000000000000000000000000000000000000000000027effffffffffffffffffffffffffffffffffffffffffffffffffffffffffffff1916848281518110151561037f57fe5b9060200101517f010000000000000000000000000000000000000000000000000000000000000090047f0100000000000000000000000000000000000000000000000000000000000000027effffffffffffffffffffffffffffffffffffffffffffffffffffffffffffff1916141561053557600191505b82518210801561040957508351828201105b801561050a5750828281518110151561041e57fe5b9060200101517f010000000000000000000000000000000000000000000000000000000000000090047f0100000000000000000000000000000000000000000000000000000000000000027effffffffffffffffffffffffffffffffffffffffffffffffffffffffffffff19168483830181518110151561049b57fe5b9060200101517f010000000000000000000000000000000000000000000000000000000000000090047f0100000000000000000000000000000000000000000000000000000000000000027effffffffffffffffffffffffffffffffffffffffffffffffffffffffffffff1916145b1561051c5781806001019250506103f7565b8251821415610534578060018190555080945061058d565b5b80806001019150506102ec565b7fffffffffffffffffffffffffffffffffffffffffffffffffffffffffffffffff6001819055507fffffffffffffffffffffffffffffffffffffffffffffffffffffffffffffffff94505b50505050929150505600a165627a7a723058203a7ab9ba78d453960a91de65a4fbbfe4421f8fce929587a3c371e3d3105592010029",
  "source": "contract IndexOf {\n\n    address creator;\n\n    function IndexOf() \n    {\n        creator = msg.sender;\n    }\n    \n    int whatwastheval = -10; // -2 = not yet tested, as separate from -1, tested but error\n    \n    function indexOf(string _a, string _b) returns (int) // _a = string to search, _b = string we want to find\n    {\n    \tbytes memory a = bytes(_a);  \n        bytes memory b = bytes(_b);\n       \n    \tif(a.length < 1 || b.length < 1 || (b.length > a.length)) \n    \t{\n    \t\twhatwastheval = -1;\n    \t\treturn -1;\n    \t}\n    \telse if(a.length > (2**128 -1)) // since we have to be able to return -1 (if the char isn't found or input error), this function must return an \"int\" type with a max length of (2^128 - 1)\n    \t{\n    \t\twhatwastheval = -1;\n    \t\treturn -1;\t\t\t\t\t\t\t\t\t\n    \t}\n    \telse\n    \t{\n    \t\tuint subindex = 0;\n    \t\tfor (uint i = 0; i < a.length; i ++)\n    \t\t{\n    \t\t\tif (a[i] == b[0]) // found the first char of b\n    \t\t\t{\n    \t\t\t\tsubindex = 1;\n    \t\t\t\twhile(subindex < b.length && (i + subindex) < a.length && a[i + subindex] == b[subindex]) // search until the chars don't match or until we reach the end of a or b\n    \t\t\t\t{\n    \t\t\t\t\tsubindex++;\n    \t\t\t\t}\t\n    \t\t\t\tif(subindex == b.length)\n    \t\t\t\t{\t\n    \t\t\t\t\twhatwastheval = int(i);\n    \t\t\t\t\treturn int(i);\n    \t\t\t\t}\n    \t\t\t}\n    \t\t}\n    \t\twhatwastheval = -1;\n    \t\treturn -1;\n    \t}\t\n    }\n    \n    function whatWasTheVal() constant returns (int)\n    {\n    \treturn whatwastheval;\n    }\n    \n    /**********\n     Standard kill() function to recover funds \n     **********/\n    \n    function kill()\n    { \n        if (msg.sender == creator)\n        {\n            suicide(creator);  // kills this contract and sends remaining funds back to creator\n        }\n    }\n}",
  "sourcePath": "/home/liweibo/code/solidity/contracts_library/contracts_library/contracts/fivedogit/solidity-baby-steps/contracts/IndexOf.sol",
  "compiler": {
    "name": "solc",
    "version": "0.4.24+commit.e67f0147.Emscripten.clang"
  },
  "schemaVersion": "2.0.1",
  "updatedAt": "2018-08-14T07:39:20.624Z"
}