{
  "contractName": "InsecureTargetMock",
  "abi": [
    {
      "constant": false,
      "inputs": [],
      "name": "checkInvariant",
      "outputs": [
        {
          "name": "",
          "type": "bool"
        }
      ],
      "payable": false,
      "stateMutability": "nonpayable",
      "type": "function"
    }
  ],
  "bytecode": "0x6080604052348015600f57600080fd5b5060a48061001e6000396000f300608060405260043610603f576000357c0100000000000000000000000000000000000000000000000000000000900463ffffffff168063e79487da146044575b600080fd5b348015604f57600080fd5b5060566070565b604051808215151515815260200191505060405180910390f35b6000809050905600a165627a7a7230582037e5a1316ada863fc17e9fd1e3027e973cd6f78f46cf13c158640c7e622e5d760029",
  "source": "pragma solidity ^0.4.24;\n\nimport {Bounty, Target} from \"../Bounty.sol\";\n\n\ncontract InsecureTargetMock is Target {\n  function checkInvariant() public returns(bool) {\n    return false;\n  }\n}\n\n\ncontract InsecureTargetBounty is Bounty {\n  function deployContract() internal returns (address) {\n    return new InsecureTargetMock();\n  }\n}\n",
  "sourcePath": "/home/liweibo/code/solidity/contracts_library/contracts_library/contracts/OpenZeppelin/openzeppelin-solidity/mocks/InsecureTargetBounty.sol",
  "compiler": {
    "name": "solc",
    "version": "0.4.24+commit.e67f0147.Emscripten.clang"
  },
  "schemaVersion": "2.0.1",
  "updatedAt": "2018-08-14T07:39:20.599Z"
}