{
  "contractName": "IntExtended",
  "abi": [
    {
      "constant": false,
      "inputs": [
        {
          "name": "_self",
          "type": "uint256"
        }
      ],
      "name": "increment",
      "outputs": [
        {
          "name": "",
          "type": "uint256"
        }
      ],
      "payable": false,
      "stateMutability": "nonpayable",
      "type": "function"
    },
    {
      "constant": false,
      "inputs": [
        {
          "name": "_self",
          "type": "uint256"
        }
      ],
      "name": "decrement",
      "outputs": [
        {
          "name": "",
          "type": "uint256"
        }
      ],
      "payable": false,
      "stateMutability": "nonpayable",
      "type": "function"
    },
    {
      "constant": false,
      "inputs": [
        {
          "name": "_self",
          "type": "uint256"
        },
        {
          "name": "_value",
          "type": "uint256"
        }
      ],
      "name": "incrementByValue",
      "outputs": [
        {
          "name": "",
          "type": "uint256"
        }
      ],
      "payable": false,
      "stateMutability": "nonpayable",
      "type": "function"
    },
    {
      "constant": false,
      "inputs": [
        {
          "name": "_self",
          "type": "uint256"
        },
        {
          "name": "_value",
          "type": "uint256"
        }
      ],
      "name": "decrementByValue",
      "outputs": [
        {
          "name": "",
          "type": "uint256"
        }
      ],
      "payable": false,
      "stateMutability": "nonpayable",
      "type": "function"
    }
  ],
  "bytecode": "0x6101f6610030600b82828239805160001a6073146000811461002057610022565bfe5b5030600052607381538281f3007300000000000000000000000000000000000000003014608060405260043610610079576000357c0100000000000000000000000000000000000000000000000000000000900463ffffffff1680633a9ebefd1461007e5780637669a640146100bf5780637cf5dab01461010a578063dccce74d1461014b575b600080fd5b81801561008a57600080fd5b506100a960048036038101908080359060200190929190505050610196565b6040518082815260200191505060405180910390f35b8180156100cb57600080fd5b506100f460048036038101908080359060200190929190803590602001909291905050506101a3565b6040518082815260200191505060405180910390f35b81801561011657600080fd5b50610135600480360381019080803590602001909291905050506101b0565b6040518082815260200191505060405180910390f35b81801561015757600080fd5b5061018060048036038101908080359060200190929190803590602001909291905050506101bd565b6040518082815260200191505060405180910390f35b6000600182039050919050565b6000818301905092915050565b6000600182019050919050565b60008183039050929150505600a165627a7a72305820124fe629521b313d51152b26b2130061598e7a58a05c50896367d6043b6e05480029",
  "source": "pragma solidity ^0.4.0;\n\nlibrary IntExtended {\n    \n    function increment(uint _self) returns (uint) {\n        return _self+1;\n    }\n    \n    function decrement(uint _self) returns (uint) {\n        return _self-1;\n    }\n    \n    function incrementByValue(uint _self, uint _value) returns (uint) {\n        return _self + _value;\n    }\n    \n    function decrementByValue(uint _self, uint _value) returns (uint) {\n        return _self - _value;\n    }\n}\n",
  "sourcePath": "/home/liweibo/code/solidity/contracts_library/contracts_library/contracts/willitscale/learning-solidity/tutorial-04/IntExtended.sol",
  "compiler": {
    "name": "solc",
    "version": "0.4.24+commit.e67f0147.Emscripten.clang"
  },
  "schemaVersion": "2.0.1",
  "updatedAt": "2018-08-14T07:39:20.658Z"
}