{
  "contractName": "LoopDefender",
  "abi": [
    {
      "constant": true,
      "inputs": [],
      "name": "myNumber",
      "outputs": [
        {
          "name": "",
          "type": "uint256"
        }
      ],
      "payable": false,
      "stateMutability": "view",
      "type": "function"
    },
    {
      "constant": true,
      "inputs": [
        {
          "name": "",
          "type": "address"
        }
      ],
      "name": "timeCalled",
      "outputs": [
        {
          "name": "",
          "type": "uint256"
        }
      ],
      "payable": false,
      "stateMutability": "view",
      "type": "function"
    },
    {
      "constant": false,
      "inputs": [],
      "name": "updateNumber",
      "outputs": [],
      "payable": false,
      "stateMutability": "nonpayable",
      "type": "function"
    }
  ],
  "bytecode": "0x60806040526000805534801561001457600080fd5b506101e6806100246000396000f300608060405260043610610057576000357c0100000000000000000000000000000000000000000000000000000000900463ffffffff1680631b6a24811461005c57806323fd0e4014610073578063815ffd471461009e575b600080fd5b34801561006857600080fd5b506100716100f5565b005b34801561007f57600080fd5b5061008861019c565b6040518082815260200191505060405180910390f35b3480156100aa57600080fd5b506100df600480360381019080803573ffffffffffffffffffffffffffffffffffffffff1690602001909291905050506101a2565b6040518082815260200191505060405180910390f35b42600a600160003373ffffffffffffffffffffffffffffffffffffffff1673ffffffffffffffffffffffffffffffffffffffff168152602001908152602001600020540110151561014557600080fd5b42600160003373ffffffffffffffffffffffffffffffffffffffff1673ffffffffffffffffffffffffffffffffffffffff168152602001908152602001600020819055506000808154809291906001019190505550565b60005481565b600160205280600052604060002060009150905054815600a165627a7a72305820587e02131f6a3ebbe379c6ae17953cd94093dc85e7495f0e2da2054abe0108820029",
  "source": "pragma solidity ^0.4.21 ;\n\ncontract LoopDefender{\n\n\tuint public myNumber = 0;\n\tmapping (address => uint) public timeCalled;\n\n\tfunction updateNumber () public {\n\t\t// Check if the 10 seconds have been passed since the last call of the function.\n    \trequire(timeCalled[msg.sender] + 10 < now);\n    \ttimeCalled[msg.sender] = now;\n    \tmyNumber++;\n\t}\n\n}\n",
  "sourcePath": "/home/liweibo/code/solidity/contracts_library/contracts_library/contracts/ShubhamTatvamasi/LoopDefender/LoopDefender.sol",
  "compiler": {
    "name": "solc",
    "version": "0.4.24+commit.e67f0147.Emscripten.clang"
  },
  "schemaVersion": "2.0.1",
  "updatedAt": "2018-08-14T07:39:20.619Z"
}