{
  "contractName": "MathMock",
  "abi": [
    {
      "constant": true,
      "inputs": [
        {
          "name": "_a",
          "type": "uint256"
        },
        {
          "name": "_b",
          "type": "uint256"
        }
      ],
      "name": "max",
      "outputs": [
        {
          "name": "",
          "type": "uint256"
        }
      ],
      "payable": false,
      "stateMutability": "pure",
      "type": "function"
    },
    {
      "constant": true,
      "inputs": [
        {
          "name": "_a",
          "type": "uint256"
        },
        {
          "name": "_b",
          "type": "uint256"
        }
      ],
      "name": "min",
      "outputs": [
        {
          "name": "",
          "type": "uint256"
        }
      ],
      "payable": false,
      "stateMutability": "pure",
      "type": "function"
    }
  ],
  "bytecode": "0x608060405234801561001057600080fd5b5061016e806100206000396000f30060806040526004361061004c576000357c0100000000000000000000000000000000000000000000000000000000900463ffffffff1680636d5433e6146100515780637ae2b5c71461009c575b600080fd5b34801561005d57600080fd5b5061008660048036038101908080359060200190929190803590602001909291905050506100e7565b6040518082815260200191505060405180910390f35b3480156100a857600080fd5b506100d160048036038101908080359060200190929190803590602001909291905050506100fb565b6040518082815260200191505060405180910390f35b60006100f3838361010f565b905092915050565b60006101078383610129565b905092915050565b60008183101561011f5781610121565b825b905092915050565b6000818310610138578161013a565b825b9050929150505600a165627a7a72305820dd56fa19a9a1abb8d7713b165aeb1dff7e17f2469d4dab37544a474f0f2b98080029",
  "source": "pragma solidity ^0.4.24;\n\n\nimport \"../math/Math.sol\";\n\n\ncontract MathMock {\n  function max(uint256 _a, uint256 _b) public pure returns (uint256) {\n    return Math.max(_a, _b);\n  }\n\n  function min(uint256 _a, uint256 _b) public pure returns (uint256) {\n    return Math.min(_a, _b);\n  }\n}\n",
  "sourcePath": "/home/liweibo/code/solidity/contracts_library/contracts_library/contracts/OpenZeppelin/openzeppelin-solidity/mocks/MathMock.sol",
  "compiler": {
    "name": "solc",
    "version": "0.4.24+commit.e67f0147.Emscripten.clang"
  },
  "schemaVersion": "2.0.1",
  "updatedAt": "2018-08-14T07:39:20.599Z"
}