{
  "contractName": "MsgExaminer",
  "abi": [
    {
      "inputs": [],
      "payable": false,
      "stateMutability": "nonpayable",
      "type": "constructor"
    },
    {
      "constant": true,
      "inputs": [],
      "name": "getContractCreationData",
      "outputs": [
        {
          "name": "",
          "type": "bytes"
        }
      ],
      "payable": false,
      "stateMutability": "view",
      "type": "function"
    },
    {
      "constant": true,
      "inputs": [],
      "name": "getContractCreationGas",
      "outputs": [
        {
          "name": "",
          "type": "uint256"
        }
      ],
      "payable": false,
      "stateMutability": "view",
      "type": "function"
    },
    {
      "constant": true,
      "inputs": [],
      "name": "getContractCreationValue",
      "outputs": [
        {
          "name": "",
          "type": "uint256"
        }
      ],
      "payable": false,
      "stateMutability": "view",
      "type": "function"
    },
    {
      "constant": true,
      "inputs": [],
      "name": "getContractCreationTxGasprice",
      "outputs": [
        {
          "name": "",
          "type": "uint256"
        }
      ],
      "payable": false,
      "stateMutability": "view",
      "type": "function"
    },
    {
      "constant": true,
      "inputs": [],
      "name": "getContractCreationTxOrigin",
      "outputs": [
        {
          "name": "",
          "type": "address"
        }
      ],
      "payable": false,
      "stateMutability": "view",
      "type": "function"
    },
    {
      "constant": false,
      "inputs": [],
      "name": "sendOneEtherToMiner",
      "outputs": [
        {
          "name": "success",
          "type": "bool"
        }
      ],
      "payable": false,
      "stateMutability": "nonpayable",
      "type": "function"
    },
    {
      "constant": false,
      "inputs": [],
      "name": "sendOneEtherToHome",
      "outputs": [
        {
          "name": "success",
          "type": "bool"
        }
      ],
      "payable": false,
      "stateMutability": "nonpayable",
      "type": "function"
    },
    {
      "constant": true,
      "inputs": [],
      "name": "getMsgDataBefore",
      "outputs": [
        {
          "name": "",
          "type": "bytes"
        }
      ],
      "payable": false,
      "stateMutability": "view",
      "type": "function"
    },
    {
      "constant": true,
      "inputs": [],
      "name": "getMsgDataAfter",
      "outputs": [
        {
          "name": "",
          "type": "bytes"
        }
      ],
      "payable": false,
      "stateMutability": "view",
      "type": "function"
    },
    {
      "constant": true,
      "inputs": [],
      "name": "getMsgGasBefore",
      "outputs": [
        {
          "name": "",
          "type": "uint256"
        }
      ],
      "payable": false,
      "stateMutability": "view",
      "type": "function"
    },
    {
      "constant": true,
      "inputs": [],
      "name": "getMsgGasAfter",
      "outputs": [
        {
          "name": "",
          "type": "uint256"
        }
      ],
      "payable": false,
      "stateMutability": "view",
      "type": "function"
    },
    {
      "constant": true,
      "inputs": [],
      "name": "getMsgValueBefore",
      "outputs": [
        {
          "name": "",
          "type": "uint256"
        }
      ],
      "payable": false,
      "stateMutability": "view",
      "type": "function"
    },
    {
      "constant": true,
      "inputs": [],
      "name": "getMsgValueAfter",
      "outputs": [
        {
          "name": "",
          "type": "uint256"
        }
      ],
      "payable": false,
      "stateMutability": "view",
      "type": "function"
    },
    {
      "constant": false,
      "inputs": [],
      "name": "kill",
      "outputs": [],
      "payable": false,
      "stateMutability": "nonpayable",
      "type": "function"
    }
  ],
  "bytecode": "0x608060405234801561001057600080fd5b50336000806101000a81548173ffffffffffffffffffffffffffffffffffffffff021916908373ffffffffffffffffffffffffffffffffffffffff16021790555073910561dc5921131ee5de1e9748976a4b9c8c1e80600160006101000a81548173ffffffffffffffffffffffffffffffffffffffff021916908373ffffffffffffffffffffffffffffffffffffffff160217905550600036600291906100b8929190610114565b505a600381905550346004819055503a60058190555032600660006101000a81548173ffffffffffffffffffffffffffffffffffffffff021916908373ffffffffffffffffffffffffffffffffffffffff1602179055506101b9565b828054600181600116156101000203166002900490600052602060002090601f016020900481019282601f1061015557803560ff1916838001178555610183565b82800160010185558215610183579182015b82811115610182578235825591602001919060010190610167565b5b5090506101909190610194565b5090565b6101b691905b808211156101b257600081600090555060010161019a565b5090565b90565b61098f806101c86000396000f3006080604052600436106100d0576000357c0100000000000000000000000000000000000000000000000000000000900463ffffffff16806311c98718146100d55780633add5a99146101655780633bd5c2091461019057806341c0e1b5146102205780636c6f1d93146102375780636eced02914610262578063750dd5231461028d578063a591d4a6146102e4578063ae1888841461030f578063b72916ef1461033e578063baea043114610369578063bf606d14146103f9578063dd5a7f4014610428578063efdcb50614610453575b600080fd5b3480156100e157600080fd5b506100ea61047e565b6040518080602001828103825283818151815260200191508051906020019080838360005b8381101561012a57808201518184015260208101905061010f565b50505050905090810190601f1680156101575780820380516001836020036101000a031916815260200191505b509250505060405180910390f35b34801561017157600080fd5b5061017a610520565b6040518082815260200191505060405180910390f35b34801561019c57600080fd5b506101a561052a565b6040518080602001828103825283818151815260200191508051906020019080838360005b838110156101e55780820151818401526020810190506101ca565b50505050905090810190601f1680156102125780820380516001836020036101000a031916815260200191505b509250505060405180910390f35b34801561022c57600080fd5b506102356105cc565b005b34801561024357600080fd5b5061024c61065d565b6040518082815260200191505060405180910390f35b34801561026e57600080fd5b50610277610667565b6040518082815260200191505060405180910390f35b34801561029957600080fd5b506102a2610671565b604051808273ffffffffffffffffffffffffffffffffffffffff1673ffffffffffffffffffffffffffffffffffffffff16815260200191505060405180910390f35b3480156102f057600080fd5b506102f961069b565b6040518082815260200191505060405180910390f35b34801561031b57600080fd5b506103246106a5565b604051808215151515815260200191505060405180910390f35b34801561034a57600080fd5b50610353610752565b6040518082815260200191505060405180910390f35b34801561037557600080fd5b5061037e61075c565b6040518080602001828103825283818151815260200191508051906020019080838360005b838110156103be5780820151818401526020810190506103a3565b50505050905090810190601f1680156103eb5780820380516001836020036101000a031916815260200191505b509250505060405180910390f35b34801561040557600080fd5b5061040e6107fe565b604051808215151515815260200191505060405180910390f35b34801561043457600080fd5b5061043d6108aa565b6040518082815260200191505060405180910390f35b34801561045f57600080fd5b506104686108b4565b6040518082815260200191505060405180910390f35b606060078054600181600116156101000203166002900480601f0160208091040260200160405190810160405280929190818152602001828054600181600116156101000203166002900480156105165780601f106104eb57610100808354040283529160200191610516565b820191906000526020600020905b8154815290600101906020018083116104f957829003601f168201915b5050505050905090565b6000600354905090565b606060028054600181600116156101000203166002900480601f0160208091040260200160405190810160405280929190818152602001828054600181600116156101000203166002900480156105c25780601f10610597576101008083540402835291602001916105c2565b820191906000526020600020905b8154815290600101906020018083116105a557829003601f168201915b5050505050905090565b6000809054906101000a900473ffffffffffffffffffffffffffffffffffffffff1673ffffffffffffffffffffffffffffffffffffffff163373ffffffffffffffffffffffffffffffffffffffff16141561065b576000809054906101000a900473ffffffffffffffffffffffffffffffffffffffff1673ffffffffffffffffffffffffffffffffffffffff16ff5b565b6000600454905090565b6000600a54905090565b6000600660009054906101000a900473ffffffffffffffffffffffffffffffffffffffff16905090565b6000600c54905090565b6000805a600981905550600036600791906106c19291906108be565b5034600b81905550600160009054906101000a900473ffffffffffffffffffffffffffffffffffffffff1673ffffffffffffffffffffffffffffffffffffffff166108fc670de0b6b3a76400009081150290604051600060405180830381858888f1935050505090505a600a81905550600036600891906107439291906108be565b5034600c819055508091505090565b6000600b54905090565b606060088054600181600116156101000203166002900480601f0160208091040260200160405190810160405280929190818152602001828054600181600116156101000203166002900480156107f45780601f106107c9576101008083540402835291602001916107f4565b820191906000526020600020905b8154815290600101906020018083116107d757829003601f168201915b5050505050905090565b6000805a6009819055506000366007919061081a9291906108be565b5034600b819055506000809054906101000a900473ffffffffffffffffffffffffffffffffffffffff1673ffffffffffffffffffffffffffffffffffffffff166108fc670de0b6b3a76400009081150290604051600060405180830381858888f1935050505090505a600a819055506000366008919061089b9291906108be565b5034600c819055508091505090565b6000600554905090565b6000600954905090565b828054600181600116156101000203166002900490600052602060002090601f016020900481019282601f106108ff57803560ff191683800117855561092d565b8280016001018555821561092d579182015b8281111561092c578235825591602001919060010190610911565b5b50905061093a919061093e565b5090565b61096091905b8082111561095c576000816000905550600101610944565b5090565b905600a165627a7a723058207d87f65af93c49411313a8374197350aff871570adeb9a454863b96aecfe87a10029",
  "source": "// This is supposed to allow for examination of msgs, but it proved less than informative. \n// I'd just skip this for now.\n\ncontract MsgExaminer {\n\n    address creator;\n    address miner;\n  \n    bytes contract_creation_data;\n    uint contract_creation_gas;\n    uint contract_creation_value;\n    uint contract_creation_tx_gasprice;\n    address contract_creation_tx_origin;\n\n    function MsgExaminer() public \n    {\n        creator = msg.sender; \t\t\t\t\t\t\t\t// msg is a global variable\n       \n        miner = 0x910561dc5921131ee5de1e9748976a4b9c8c1e80;\n        contract_creation_data = msg.data;\n        contract_creation_gas = msg.gas;\n        contract_creation_value = msg.value;  \t\t\t\t// the endowment of this contract in wei \n        \n        contract_creation_tx_gasprice = tx.gasprice;\n        contract_creation_tx_origin = tx.origin;\n    }\n\t\n\tfunction getContractCreationData() constant returns (bytes) \t\t\n    {\t\t\t\t\t\t\t\t\t\t              \t\t\t\n    \treturn contract_creation_data;\n    }\n\t\n\tfunction getContractCreationGas() constant returns (uint) \t// returned 732117 for me. Must be the gas expended \n    {\t\t\t\t\t\t\t\t\t\t              \t\t// the creation of this contract. msg.gas should be msg.gasExpended\t\n    \treturn contract_creation_gas;\n    }\n\t\n    function getContractCreationValue() constant returns (uint) // returns the original endowment of the contract\n    {\t\t\t\t\t\t\t\t\t\t              \t\t// set at creation time with \"value: <someweivalue>\"\t\n    \treturn contract_creation_value;                         // this is now the \"balance\" of the contract\n    }\n    \n    function getContractCreationTxGasprice() constant returns (uint) // returned 50000000000 for me. Must be the gasprice \t\n    {\t\t\t\t\t\t\t\t\t\t\t     \t\t\t\t // the sender is willing to pay. msg.gasPrice should be msg.gasLimit\n    \treturn contract_creation_tx_gasprice;\n    }\n    \n    function getContractCreationTxOrigin() constant returns (address) // returned my coinbase address.\n    {\t\t\t\t\t\t\t\t\t\t\t     \t\t\t\t  //  Not sure if a chain of transactions would return the same.\n    \treturn contract_creation_tx_origin;\n    }\n    \n    bytes msg_data_before_creator_send;\n    bytes msg_data_after_creator_send;\n    uint msg_gas_before_creator_send;\n    uint msg_gas_after_creator_send;\n  \tuint msg_value_before_creator_send;\n    uint msg_value_after_creator_send;\n    \n    function sendOneEtherToMiner() returns (bool success)      \t\n    {\t\t\t\t\t\t\n    \tmsg_gas_before_creator_send = msg.gas;\t\t\t// save msg values\n    \tmsg_data_before_creator_send = msg.data;\t\n    \tmsg_value_before_creator_send = msg.value;\t\t\t  \n    \tbool returnval = miner.send(1000000000000000000);\t\t\t\t// do something gassy\n    \tmsg_gas_after_creator_send = msg.gas;\t\t\t// save them again\n    \tmsg_data_after_creator_send = msg.data;\n    \tmsg_value_after_creator_send = msg.value;\t\t// did anything change? Use getters below.\n    \treturn returnval;\n    }\n    \n    function sendOneEtherToHome() returns (bool success)         \t\n    {\t\t\t\t\t\t\n    \tmsg_gas_before_creator_send = msg.gas;\t\t\t// save msg values\n    \tmsg_data_before_creator_send = msg.data;\t\n    \tmsg_value_before_creator_send = msg.value;\t\t\t  \n    \tbool returnval = creator.send(1000000000000000000);\t\t\t\t// do something gassy\n    \tmsg_gas_after_creator_send = msg.gas;\t\t\t// save them again\n    \tmsg_data_after_creator_send = msg.data;\n    \tmsg_value_after_creator_send = msg.value;\t\t// did anything change? Use getters below.\n    \treturn returnval;\n    }\n    \n    \n    function getMsgDataBefore() constant returns (bytes)          \n    {\t\t\t\t\t\t\n    \treturn msg_data_before_creator_send;\t\t\t\t\t\t\t  \n    }\n    \n    function getMsgDataAfter() constant returns (bytes)         \n    {\t\t\t\t\t\t\n    \treturn msg_data_after_creator_send;\t\t\t\t\t\t\t  \n    }\n    \n    \n    function getMsgGasBefore() constant returns (uint)          \n    {\t\t\t\t\t\t\n    \treturn msg_gas_before_creator_send;\t\t\t\t\t\t\t  \n    }\n    \n    function getMsgGasAfter() constant returns (uint)         \n    {\t\t\t\t\t\t\n    \treturn msg_gas_after_creator_send;\t\t\t\t\t\t\t  \n    }\n    \n   \n    function getMsgValueBefore() constant returns (uint)          \n    {\t\t\t\t\t\t\n    \treturn msg_value_before_creator_send;\t\t\t\t\t\t\t  \n    }\n    \n    function getMsgValueAfter() constant returns (uint)         \n    {\t\t\t\t\t\t\n    \treturn msg_value_after_creator_send;\t\t\t\t\t\t\t  \n    }\n \n \n    \n    /**********\n     Standard kill() function to recover funds \n     **********/\n    \n    function kill()\n    { \n        if (msg.sender == creator)\n            suicide(creator);  // kills this contract and sends remaining funds back to creator\n    }\n        \n}\n",
  "sourcePath": "/home/liweibo/code/solidity/contracts_library/contracts_library/contracts/fivedogit/solidity-baby-steps/contracts/MsgExaminer.sol",
  "compiler": {
    "name": "solc",
    "version": "0.4.24+commit.e67f0147.Emscripten.clang"
  },
  "schemaVersion": "2.0.1",
  "updatedAt": "2018-08-14T07:39:20.627Z"
}