{
  "contractName": "NestedArrays",
  "abi": [
    {
      "constant": false,
      "inputs": [],
      "name": "getArray",
      "outputs": [],
      "payable": false,
      "stateMutability": "nonpayable",
      "type": "function"
    },
    {
      "constant": false,
      "inputs": [
        {
          "name": "_array",
          "type": "uint256[]"
        }
      ],
      "name": "toBytes",
      "outputs": [
        {
          "name": "_ptr",
          "type": "bytes"
        }
      ],
      "payable": false,
      "stateMutability": "nonpayable",
      "type": "function"
    },
    {
      "constant": false,
      "inputs": [
        {
          "name": "_bytes",
          "type": "bytes"
        }
      ],
      "name": "toArray",
      "outputs": [
        {
          "name": "_ptr",
          "type": "uint256[]"
        }
      ],
      "payable": false,
      "stateMutability": "nonpayable",
      "type": "function"
    }
  ],
  "bytecode": "0x608060405234801561001057600080fd5b506103b3806100206000396000f300608060405260043610610057576000357c0100000000000000000000000000000000000000000000000000000000900463ffffffff16806337e3f6b61461005c5780634c2324bb1461011a578063d504ea1d146101f9575b600080fd5b34801561006857600080fd5b506100c3600480360381019080803590602001908201803590602001908080601f0160208091040260200160405190810160405280939291908181526020018383808284378201915050505050509192919290505050610210565b6040518080602001828103825283818151815260200191508051906020019060200280838360005b838110156101065780820151818401526020810190506100eb565b505050509050019250505060405180910390f35b34801561012657600080fd5b5061017e60048036038101908080359060200190820180359060200190808060200260200160405190810160405280939291908181526020018383602002808284378201915050505050509192919290505050610258565b6040518080602001828103825283818151815260200191508051906020019080838360005b838110156101be5780820151818401526020810190506101a3565b50505050905090810190601f1680156101eb5780820380516001836020036101000a031916815260200191505b509250505060405180910390f35b34801561020557600080fd5b5061020e6102ad565b005b6060604082015159915080825260005b8082146102455760208102606001840151602080830201840152600181019050610220565b6040602083020183016040525050919050565b6060815159915060206002820102825260208083015280604083015260005b80821461029d576020810260200184015160606020830201840152600181019050610277565b6020808302016040525050919050565b6000606060405190810160405280600160ff168152602001600260ff168152602001600360ff1681525090806001815401808255809150509060018203906000526020600020016000909192909190915090600361030c929190610310565b5050565b828054828255906000526020600020908101928215610351579160200282015b82811115610350578251829060ff16905591602001919060010190610330565b5b50905061035e9190610362565b5090565b61038491905b80821115610380576000816000905550600101610368565b5090565b905600a165627a7a72305820c35a8ac51d23937d96be217f341ab0733fc621ec97727d1b01b08efed54936ec0029",
  "source": "pragma solidity ^0.4.0;\n\ncontract NestedArrays {\n\n    uint[][] private nested;\n\n    function getArray() public {\n        nested.push([1,2,3]);\n    }\n\n    // [1, 3, 2, 4]\n    function toBytes(uint[] _array)\n        public\n        returns (bytes _ptr) {\n        assembly {\n            let len := mload(_array)\n            _ptr := msize()\n            \n            // Bytes\n            mstore(_ptr, mul(add(len, 2), 0x20))\n            \n            // Array \n            mstore(add(_ptr, 0x20), 0x20)\n            mstore(add(_ptr, 0x40), len)\n            \n            let idx := 0\n            loop:\n            jumpi(end, eq(len, idx))\n            mstore(add(_ptr, add(mul(idx,0x20),0x60)), mload(add(_array, add(0x20, mul(idx, 0x20)))))\n            idx := add(idx, 1)\n            jump(loop)\n            \n            end:\n            // Without return statements memory is overridden\n            mstore(0x40, add(mul(len, 0x20), 0x20))\n        }\n    }\n    \n    // [\"0x00\",\"0x00\",\"0x00\",\"0x00\",\"0x00\",\"0x00\",\"0x00\",\"0x00\",\"0x00\",\"0x00\",\"0x00\",\"0x00\",\"0x00\",\"0x00\",\"0x00\",\"0x00\",\"0x00\",\"0x00\",\"0x00\",\"0x00\",\"0x00\",\"0x00\",\"0x00\",\"0x00\",\"0x00\",\"0x00\",\"0x00\",\"0x00\",\"0x00\",\"0x00\",\"0x00\",\"0x20\",\"0x00\",\"0x00\",\"0x00\",\"0x00\",\"0x00\",\"0x00\",\"0x00\",\"0x00\",\"0x00\",\"0x00\",\"0x00\",\"0x00\",\"0x00\",\"0x00\",\"0x00\",\"0x00\",\"0x00\",\"0x00\",\"0x00\",\"0x00\",\"0x00\",\"0x00\",\"0x00\",\"0x00\",\"0x00\",\"0x00\",\"0x00\",\"0x00\",\"0x00\",\"0x00\",\"0x00\",\"0x04\",\"0x00\",\"0x00\",\"0x00\",\"0x00\",\"0x00\",\"0x00\",\"0x00\",\"0x00\",\"0x00\",\"0x00\",\"0x00\",\"0x00\",\"0x00\",\"0x00\",\"0x00\",\"0x00\",\"0x00\",\"0x00\",\"0x00\",\"0x00\",\"0x00\",\"0x00\",\"0x00\",\"0x00\",\"0x00\",\"0x00\",\"0x00\",\"0x00\",\"0x00\",\"0x00\",\"0x00\",\"0x01\",\"0x00\",\"0x00\",\"0x00\",\"0x00\",\"0x00\",\"0x00\",\"0x00\",\"0x00\",\"0x00\",\"0x00\",\"0x00\",\"0x00\",\"0x00\",\"0x00\",\"0x00\",\"0x00\",\"0x00\",\"0x00\",\"0x00\",\"0x00\",\"0x00\",\"0x00\",\"0x00\",\"0x00\",\"0x00\",\"0x00\",\"0x00\",\"0x00\",\"0x00\",\"0x00\",\"0x00\",\"0x03\",\"0x00\",\"0x00\",\"0x00\",\"0x00\",\"0x00\",\"0x00\",\"0x00\",\"0x00\",\"0x00\",\"0x00\",\"0x00\",\"0x00\",\"0x00\",\"0x00\",\"0x00\",\"0x00\",\"0x00\",\"0x00\",\"0x00\",\"0x00\",\"0x00\",\"0x00\",\"0x00\",\"0x00\",\"0x00\",\"0x00\",\"0x00\",\"0x00\",\"0x00\",\"0x00\",\"0x00\",\"0x02\",\"0x00\",\"0x00\",\"0x00\",\"0x00\",\"0x00\",\"0x00\",\"0x00\",\"0x00\",\"0x00\",\"0x00\",\"0x00\",\"0x00\",\"0x00\",\"0x00\",\"0x00\",\"0x00\",\"0x00\",\"0x00\",\"0x00\",\"0x00\",\"0x00\",\"0x00\",\"0x00\",\"0x00\",\"0x00\",\"0x00\",\"0x00\",\"0x00\",\"0x00\",\"0x00\",\"0x00\",\"0x04\"]\n    function toArray(bytes _bytes)\n        public\n        returns (uint[] _ptr) {\n        assembly {\n            \n            // First 32 bytes are byte array properties\n            // Next 32 bytes are the data size of the array elements\n            let len := mload(add(_bytes, 0x40))\n            _ptr := msize()\n            \n            // Array\n            mstore(_ptr, len)\n            \n            let idx := 0\n            loop:\n            jumpi(end, eq(len, idx))\n            mstore(add(_ptr, add(mul(idx,0x20),0x20)), mload(add(_bytes, add(0x60, mul(idx, 0x20)))))\n            idx := add(idx, 1)\n            jump(loop)\n            \n            end:\n            mstore(0x40, add(_ptr,add(mul(len, 0x20), 0x40)))\n        }\n    }\n  \n}",
  "sourcePath": "/home/liweibo/code/solidity/contracts_library/contracts_library/contracts/willitscale/learning-solidity/tutorial-19/NestedArrays.sol",
  "compiler": {
    "name": "solc",
    "version": "0.4.24+commit.e67f0147.Emscripten.clang"
  },
  "schemaVersion": "2.0.1",
  "updatedAt": "2018-08-14T07:39:20.665Z"
}