{
  "contractName": "Nine",
  "abi": [
    {
      "constant": true,
      "inputs": [],
      "name": "name",
      "outputs": [
        {
          "name": "",
          "type": "string"
        }
      ],
      "payable": false,
      "stateMutability": "view",
      "type": "function"
    },
    {
      "constant": true,
      "inputs": [],
      "name": "God",
      "outputs": [
        {
          "name": "",
          "type": "address"
        }
      ],
      "payable": false,
      "stateMutability": "view",
      "type": "function"
    },
    {
      "constant": true,
      "inputs": [],
      "name": "totalSupply",
      "outputs": [
        {
          "name": "",
          "type": "uint256"
        }
      ],
      "payable": false,
      "stateMutability": "view",
      "type": "function"
    },
    {
      "constant": true,
      "inputs": [],
      "name": "agentAddress",
      "outputs": [
        {
          "name": "",
          "type": "address"
        }
      ],
      "payable": false,
      "stateMutability": "view",
      "type": "function"
    },
    {
      "constant": true,
      "inputs": [],
      "name": "symbol",
      "outputs": [
        {
          "name": "",
          "type": "string"
        }
      ],
      "payable": false,
      "stateMutability": "view",
      "type": "function"
    },
    {
      "constant": true,
      "inputs": [
        {
          "name": "",
          "type": "uint256"
        }
      ],
      "name": "nameIndexToOwner",
      "outputs": [
        {
          "name": "",
          "type": "address"
        }
      ],
      "payable": false,
      "stateMutability": "view",
      "type": "function"
    },
    {
      "constant": true,
      "inputs": [],
      "name": "nameValue",
      "outputs": [
        {
          "name": "",
          "type": "uint256"
        }
      ],
      "payable": false,
      "stateMutability": "view",
      "type": "function"
    },
    {
      "inputs": [],
      "payable": false,
      "stateMutability": "nonpayable",
      "type": "constructor"
    },
    {
      "payable": true,
      "stateMutability": "payable",
      "type": "fallback"
    },
    {
      "anonymous": false,
      "inputs": [
        {
          "indexed": false,
          "name": "from",
          "type": "address"
        },
        {
          "indexed": false,
          "name": "to",
          "type": "address"
        },
        {
          "indexed": false,
          "name": "tokenId",
          "type": "uint256"
        }
      ],
      "name": "Transfer",
      "type": "event"
    },
    {
      "anonymous": false,
      "inputs": [
        {
          "indexed": false,
          "name": "owner",
          "type": "address"
        },
        {
          "indexed": false,
          "name": "nameId",
          "type": "uint256"
        }
      ],
      "name": "Record",
      "type": "event"
    },
    {
      "constant": false,
      "inputs": [
        {
          "name": "_newAgent",
          "type": "address"
        }
      ],
      "name": "setAgent",
      "outputs": [],
      "payable": false,
      "stateMutability": "nonpayable",
      "type": "function"
    },
    {
      "constant": false,
      "inputs": [
        {
          "name": "amount",
          "type": "uint256"
        }
      ],
      "name": "withdrawBalance",
      "outputs": [],
      "payable": false,
      "stateMutability": "nonpayable",
      "type": "function"
    },
    {
      "constant": false,
      "inputs": [
        {
          "name": "val",
          "type": "uint256"
        }
      ],
      "name": "setNameValue",
      "outputs": [],
      "payable": false,
      "stateMutability": "nonpayable",
      "type": "function"
    },
    {
      "constant": true,
      "inputs": [
        {
          "name": "_owner",
          "type": "address"
        }
      ],
      "name": "balanceOf",
      "outputs": [
        {
          "name": "count",
          "type": "uint256"
        }
      ],
      "payable": false,
      "stateMutability": "view",
      "type": "function"
    },
    {
      "constant": false,
      "inputs": [
        {
          "name": "_to",
          "type": "address"
        },
        {
          "name": "_tokenId",
          "type": "uint256"
        }
      ],
      "name": "transfer",
      "outputs": [],
      "payable": false,
      "stateMutability": "nonpayable",
      "type": "function"
    },
    {
      "constant": true,
      "inputs": [],
      "name": "recordNameCount",
      "outputs": [
        {
          "name": "",
          "type": "uint256"
        }
      ],
      "payable": false,
      "stateMutability": "view",
      "type": "function"
    },
    {
      "constant": true,
      "inputs": [
        {
          "name": "_tokenId",
          "type": "uint256"
        }
      ],
      "name": "ownerOf",
      "outputs": [
        {
          "name": "owner",
          "type": "address"
        }
      ],
      "payable": false,
      "stateMutability": "view",
      "type": "function"
    },
    {
      "constant": true,
      "inputs": [
        {
          "name": "_owner",
          "type": "address"
        }
      ],
      "name": "tokensOfOwner",
      "outputs": [
        {
          "name": "ownerTokens",
          "type": "uint256[]"
        }
      ],
      "payable": false,
      "stateMutability": "view",
      "type": "function"
    },
    {
      "constant": true,
      "inputs": [
        {
          "name": "_id",
          "type": "uint256"
        }
      ],
      "name": "getName",
      "outputs": [
        {
          "name": "recordTime",
          "type": "uint256"
        }
      ],
      "payable": false,
      "stateMutability": "view",
      "type": "function"
    },
    {
      "constant": false,
      "inputs": [],
      "name": "recordName",
      "outputs": [],
      "payable": true,
      "stateMutability": "payable",
      "type": "function"
    }
  ],
  "bytecode": "0x6080604052662386f26fc1000060025534801561001b57600080fd5b50336000806101000a81548173ffffffffffffffffffffffffffffffffffffffff021916908373ffffffffffffffffffffffffffffffffffffffff16021790555061108e8061006b6000396000f3006080604052600436106100f1576000357c0100000000000000000000000000000000000000000000000000000000900463ffffffff16806306fdde03146100fd578063101749671461018d57806315f903a3146101e457806318160ddd14610211578063386136901461023c5780634725211b146102935780636352211e146102be5780636b8ff5741461032b57806370a082311461036c5780638462151c146103c357806395d89b411461045b5780639957930d146104eb578063a6fd248714610558578063a9059cbb14610562578063b0799375146105af578063bcf685ed146105da578063da76d5cd1461061d575b6100fb333461064a565b005b34801561010957600080fd5b50610112610687565b6040518080602001828103825283818151815260200191508051906020019080838360005b83811015610152578082015181840152602081019050610137565b50505050905090810190601f16801561017f5780820380516001836020036101000a031916815260200191505b509250505060405180910390f35b34801561019957600080fd5b506101a26106c0565b604051808273ffffffffffffffffffffffffffffffffffffffff1673ffffffffffffffffffffffffffffffffffffffff16815260200191505060405180910390f35b3480156101f057600080fd5b5061020f600480360381019080803590602001909291905050506106e5565b005b34801561021d57600080fd5b5061022661074b565b6040518082815260200191505060405180910390f35b34801561024857600080fd5b50610251610754565b604051808273ffffffffffffffffffffffffffffffffffffffff1673ffffffffffffffffffffffffffffffffffffffff16815260200191505060405180910390f35b34801561029f57600080fd5b506102a861077a565b6040518082815260200191505060405180910390f35b3480156102ca57600080fd5b506102e960048036038101908080359060200190929190505050610787565b604051808273ffffffffffffffffffffffffffffffffffffffff1673ffffffffffffffffffffffffffffffffffffffff16815260200191505060405180910390f35b34801561033757600080fd5b5061035660048036038101908080359060200190929190505050610800565b6040518082815260200191505060405180910390f35b34801561037857600080fd5b506103ad600480360381019080803573ffffffffffffffffffffffffffffffffffffffff169060200190929190505050610844565b6040518082815260200191505060405180910390f35b3480156103cf57600080fd5b50610404600480360381019080803573ffffffffffffffffffffffffffffffffffffffff16906020019092919050505061088d565b6040518080602001828103825283818151815260200191508051906020019060200280838360005b8381101561044757808201518184015260208101905061042c565b505050509050019250505060405180910390f35b34801561046757600080fd5b506104706109d9565b6040518080602001828103825283818151815260200191508051906020019080838360005b838110156104b0578082015181840152602081019050610495565b50505050905090810190601f1680156104dd5780820380516001836020036101000a031916815260200191505b509250505060405180910390f35b3480156104f757600080fd5b5061051660048036038101908080359060200190929190505050610a12565b604051808273ffffffffffffffffffffffffffffffffffffffff1673ffffffffffffffffffffffffffffffffffffffff16815260200191505060405180910390f35b610560610a45565b005b34801561056e57600080fd5b506105ad600480360381019080803573ffffffffffffffffffffffffffffffffffffffff16906020019092919080359060200190929190505050610a51565b005b3480156105bb57600080fd5b506105c4610aec565b6040518082815260200191505060405180910390f35b3480156105e657600080fd5b5061061b600480360381019080803573ffffffffffffffffffffffffffffffffffffffff169060200190929190505050610af2565b005b34801561062957600080fd5b5061064860048036038101908080359060200190929190505050610bcd565b005b6000806002548381151561065a57fe5b049150600090505b818110156106815761067384610c9a565b508080600101915050610662565b50505050565b6040805190810160405280601881526020017f5468654e696e6542696c6c696f6e4e616d65734f66476f64000000000000000081525081565b6000809054906101000a900473ffffffffffffffffffffffffffffffffffffffff1681565b600160009054906101000a900473ffffffffffffffffffffffffffffffffffffffff1673ffffffffffffffffffffffffffffffffffffffff163373ffffffffffffffffffffffffffffffffffffffff1614151561074157600080fd5b8060028190555050565b640218711a0081565b600160009054906101000a900473ffffffffffffffffffffffffffffffffffffffff1681565b6000600380549050905090565b60006004600083815260200190815260200160002060009054906101000a900473ffffffffffffffffffffffffffffffffffffffff169050600073ffffffffffffffffffffffffffffffffffffffff168173ffffffffffffffffffffffffffffffffffffffff16141515156107fb57600080fd5b919050565b600060038281548110151561081157fe5b9060005260206000200160000160009054906101000a900467ffffffffffffffff1667ffffffffffffffff169050919050565b6000600560008373ffffffffffffffffffffffffffffffffffffffff1673ffffffffffffffffffffffffffffffffffffffff168152602001908152602001600020549050919050565b60606000606060008060006108a187610844565b945060008514156108e45760006040519080825280602002602001820160405280156108dc5781602001602082028038833980820191505090505b5095506109cf565b846040519080825280602002602001820160405280156109135781602001602082028038833980820191505090505b50935061091e61077a565b925060009150600190505b828110156109cb578673ffffffffffffffffffffffffffffffffffffffff166004600083815260200190815260200160002060009054906101000a900473ffffffffffffffffffffffffffffffffffffffff1673ffffffffffffffffffffffffffffffffffffffff1614156109be578084838151811015156109a757fe5b906020019060200201818152505081806001019250505b8080600101915050610929565b8395505b5050505050919050565b6040805190810160405280600381526020017f4e4f47000000000000000000000000000000000000000000000000000000000081525081565b60046020528060005260406000206000915054906101000a900473ffffffffffffffffffffffffffffffffffffffff1681565b610a4f333461064a565b565b600073ffffffffffffffffffffffffffffffffffffffff168273ffffffffffffffffffffffffffffffffffffffff1614151515610a8d57600080fd5b3073ffffffffffffffffffffffffffffffffffffffff168273ffffffffffffffffffffffffffffffffffffffff1614151515610ac857600080fd5b610ad23382610dd2565b1515610add57600080fd5b610ae8338383610e3e565b5050565b60025481565b6000809054906101000a900473ffffffffffffffffffffffffffffffffffffffff1673ffffffffffffffffffffffffffffffffffffffff163373ffffffffffffffffffffffffffffffffffffffff16141515610b4d57600080fd5b600073ffffffffffffffffffffffffffffffffffffffff168173ffffffffffffffffffffffffffffffffffffffff1614151515610b8957600080fd5b80600160006101000a81548173ffffffffffffffffffffffffffffffffffffffff021916908373ffffffffffffffffffffffffffffffffffffffff16021790555050565b600160009054906101000a900473ffffffffffffffffffffffffffffffffffffffff1673ffffffffffffffffffffffffffffffffffffffff163373ffffffffffffffffffffffffffffffffffffffff16141515610c2957600080fd5b3373ffffffffffffffffffffffffffffffffffffffff166108fc6000831115610c525782610c6b565b3073ffffffffffffffffffffffffffffffffffffffff16315b9081150290604051600060405180830381858888f19350505050158015610c96573d6000803e3d6000fd5b5050565b6000610ca4611044565b60006020604051908101604052804267ffffffffffffffff168152509150600160038390806001815401808255809150509060018203906000526020600020016000909192909190915060008201518160000160006101000a81548167ffffffffffffffff021916908367ffffffffffffffff16021790555050500390508063ffffffff1681141515610d3657600080fd5b7f5acc7d6c33b8af4107a43f1cb81ee1e7183fb3f576457bb4a822de8130fb1d388482604051808373ffffffffffffffffffffffffffffffffffffffff1673ffffffffffffffffffffffffffffffffffffffff1681526020018281526020019250505060405180910390a1610dad60008583610e3e565b640218711a006003805490501415610dc857610dc761100a565b5b8092505050919050565b60008273ffffffffffffffffffffffffffffffffffffffff166004600084815260200190815260200160002060009054906101000a900473ffffffffffffffffffffffffffffffffffffffff1673ffffffffffffffffffffffffffffffffffffffff1614905092915050565b600560008373ffffffffffffffffffffffffffffffffffffffff1673ffffffffffffffffffffffffffffffffffffffff16815260200190815260200160002060008154809291906001019190505550816004600083815260200190815260200160002060006101000a81548173ffffffffffffffffffffffffffffffffffffffff021916908373ffffffffffffffffffffffffffffffffffffffff160217905550600073ffffffffffffffffffffffffffffffffffffffff168373ffffffffffffffffffffffffffffffffffffffff16141515610f6657600560008473ffffffffffffffffffffffffffffffffffffffff1673ffffffffffffffffffffffffffffffffffffffff16815260200190815260200160002060008154809291906001900391905055505b7fddf252ad1be2c89b69c2b068fc378daa952ba7f163c4a11628f55a4df523b3ef838383604051808473ffffffffffffffffffffffffffffffffffffffff1673ffffffffffffffffffffffffffffffffffffffff1681526020018373ffffffffffffffffffffffffffffffffffffffff1673ffffffffffffffffffffffffffffffffffffffff168152602001828152602001935050505060405180910390a1505050565b6000809054906101000a900473ffffffffffffffffffffffffffffffffffffffff1673ffffffffffffffffffffffffffffffffffffffff16ff5b602060405190810160405280600067ffffffffffffffff16815250905600a165627a7a72305820dfc0d1022ce5fbb9fc9526109d6e3ca852c0e1f01b12a44a7ed6099fceb93af60029",
  "source": "pragma solidity ^0.4.20;\n\ncontract Nine {\n  address public God;\n\n  function Nine() public {\n    God = msg.sender;\n  }\n\n  modifier onlyGod() {\n    require(msg.sender == God);\n    _;\n  }\n\n  function destroyTheUniverse () private {\n    selfdestruct(God);\n  }\n\n  address public agentAddress;\n  uint256 public nameValue = 10 finney;\n\n  function setAgent(address _newAgent) external onlyGod {\n    require(_newAgent != address(0));\n    agentAddress = _newAgent;\n  }\n\n  modifier onlyAgent() {\n    require(msg.sender == agentAddress);\n    _;\n  }\n\n  function withdrawBalance(uint256 amount) external onlyAgent {\n    msg.sender.transfer(amount <= 0 ? address(this).balance : amount);\n  }\n\n  function setNameValue(uint256 val) external onlyAgent {\n    nameValue = val;\n  }\n\n\n  string public constant name = \"TheNineBillionNamesOfGod\";\n  string public constant symbol = \"NOG\";\n  uint256 public constant totalSupply = 9000000000;\n\n  struct Name {\n    uint64 recordTime;\n  }\n\n\n  Name[] names;\n\n  mapping (uint256 => address) public nameIndexToOwner;\n\n  mapping (address => uint256) ownershipTokenCount;\n\n  event Transfer(address from, address to, uint256 tokenId);\n  event Record(address owner, uint256 nameId);\n\n  function _transfer(address _from, address _to, uint256 _tokenId) internal {\n    ownershipTokenCount[_to]++;\n\n    nameIndexToOwner[_tokenId] = _to;\n\n    if (_from != address(0)) {\n      ownershipTokenCount[_from]--;\n    }\n\n    emit Transfer(_from, _to, _tokenId);\n  }\n\n  function _recordName(address _owner)\n    internal\n    returns (uint)\n  {\n    Name memory _name = Name({recordTime: uint64(now)});\n    uint256 newNameId = names.push(_name) - 1;\n\n    require(newNameId == uint256(uint32(newNameId)));\n\n    emit Record(_owner,newNameId);\n\n    _transfer(0, _owner, newNameId);\n\n    if (names.length == totalSupply) {\n      destroyTheUniverse();\n    }\n\n    return newNameId;\n  }\n\n  function _owns(address _claimant, uint256 _tokenId) internal view returns (bool) {\n    return nameIndexToOwner[_tokenId] == _claimant;\n  }\n\n  function balanceOf(address _owner) public view returns (uint256 count) {\n    return ownershipTokenCount[_owner];\n  }\n\n\n  function transfer(\n                    address _to,\n                    uint256 _tokenId\n                    )\n    external\n  {\n    require(_to != address(0));\n\n    require(_to != address(this));\n\n    require(_owns(msg.sender, _tokenId));\n\n    _transfer(msg.sender, _to, _tokenId);\n  }\n\n\n  function recordNameCount() public view returns (uint) {\n    return names.length;\n  }\n\n  function ownerOf(uint256 _tokenId)\n    external\n    view\n    returns (address owner)\n  {\n    owner = nameIndexToOwner[_tokenId];\n\n    require(owner != address(0));\n  }\n\n  function tokensOfOwner(address _owner) external view returns(uint256[] ownerTokens) {\n    uint256 tokenCount = balanceOf(_owner);\n\n    if (tokenCount == 0) {\n      return new uint256[](0);\n    } else {\n      uint256[] memory result = new uint256[](tokenCount);\n      uint256 totalRecord = recordNameCount();\n      uint256 resultIndex = 0;\n\n      uint256 nId;\n\n      for (nId = 1; nId < totalRecord; nId++) {\n        if (nameIndexToOwner[nId] == _owner) {\n          result[resultIndex] = nId;\n          resultIndex++;\n        }\n      }\n\n      return result;\n    }\n  }\n\n\n  function getName(uint256 _id)\n    external\n    view\n    returns (uint256 recordTime) {\n    recordTime = uint256(names[_id].recordTime);\n  }\n\n  function tryToRecord(address _sender, uint256 _value) internal {\n    uint times = _value / nameValue;\n    for (uint i = 0; i < times; i++) {\n      _recordName(_sender);\n    }\n  }\n\n  function recordName() external payable {\n    tryToRecord(msg.sender, msg.value);\n  }\n\n  function() external payable {\n    tryToRecord(msg.sender, msg.value);\n  }\n}\n",
  "sourcePath": "/home/liweibo/code/solidity/contracts_library/contracts_library/contracts/vcinly/TheNineBillionNamesOfGod/Nine.sol",
  "compiler": {
    "name": "solc",
    "version": "0.4.24+commit.e67f0147.Emscripten.clang"
  },
  "schemaVersion": "2.0.1",
  "updatedAt": "2018-08-14T07:39:20.655Z"
}