{
  "contractName": "Random",
  "abi": [
    {
      "constant": false,
      "inputs": [],
      "name": "unsafeBlockRandom",
      "outputs": [
        {
          "name": "",
          "type": "uint256"
        }
      ],
      "payable": false,
      "stateMutability": "nonpayable",
      "type": "function"
    },
    {
      "constant": false,
      "inputs": [],
      "name": "unsafeIncrementRandom",
      "outputs": [
        {
          "name": "",
          "type": "uint256"
        }
      ],
      "payable": false,
      "stateMutability": "nonpayable",
      "type": "function"
    }
  ],
  "bytecode": "0x608060405234801561001057600080fd5b50610120806100206000396000f3006080604052600436106049576000357c0100000000000000000000000000000000000000000000000000000000900463ffffffff168063344aa0df14604e578063c0de286f146076575b600080fd5b348015605957600080fd5b506060609e565b6040518082815260200191505060405180910390f35b348015608157600080fd5b50608860d9565b6040518082815260200191505060405180910390f35b60006064600080815480929190600101919050556040518082815260200191505060405180910390206001900481151560d357fe5b06905090565b6000606460014303406001900481151560ee57fe5b069050905600a165627a7a72305820f28f5011684586d1de5c748db3c24594b1fbe6e56cad69e322aa7268ac326d6f0029",
  "source": "pragma solidity ^0.4.0;\n\ncontract Random {\n\n    function unsafeBlockRandom() \n        public\n        returns (uint) {\n        return uint(block.blockhash(block.number-1)) % 100;\n    }\n    \n    uint private _baseIncrement;\n    \n    function unsafeIncrementRandom() \n        public\n        returns (uint) {\n        return uint(sha3(_baseIncrement++)) % 100;\n    }\n\n}",
  "sourcePath": "/home/liweibo/code/solidity/contracts_library/contracts_library/contracts/willitscale/learning-solidity/tutorial-18/Random.sol",
  "compiler": {
    "name": "solc",
    "version": "0.4.24+commit.e67f0147.Emscripten.clang"
  },
  "schemaVersion": "2.0.1",
  "updatedAt": "2018-08-14T07:39:20.665Z"
}