{
  "contractName": "RefundableCrowdsaleImpl",
  "abi": [
    {
      "constant": true,
      "inputs": [],
      "name": "hasClosed",
      "outputs": [
        {
          "name": "",
          "type": "bool"
        }
      ],
      "payable": false,
      "stateMutability": "view",
      "type": "function"
    },
    {
      "constant": true,
      "inputs": [],
      "name": "rate",
      "outputs": [
        {
          "name": "",
          "type": "uint256"
        }
      ],
      "payable": false,
      "stateMutability": "view",
      "type": "function"
    },
    {
      "constant": true,
      "inputs": [],
      "name": "goal",
      "outputs": [
        {
          "name": "",
          "type": "uint256"
        }
      ],
      "payable": false,
      "stateMutability": "view",
      "type": "function"
    },
    {
      "constant": true,
      "inputs": [],
      "name": "weiRaised",
      "outputs": [
        {
          "name": "",
          "type": "uint256"
        }
      ],
      "payable": false,
      "stateMutability": "view",
      "type": "function"
    },
    {
      "constant": true,
      "inputs": [],
      "name": "closingTime",
      "outputs": [
        {
          "name": "",
          "type": "uint256"
        }
      ],
      "payable": false,
      "stateMutability": "view",
      "type": "function"
    },
    {
      "constant": false,
      "inputs": [],
      "name": "finalize",
      "outputs": [],
      "payable": false,
      "stateMutability": "nonpayable",
      "type": "function"
    },
    {
      "constant": true,
      "inputs": [],
      "name": "wallet",
      "outputs": [
        {
          "name": "",
          "type": "address"
        }
      ],
      "payable": false,
      "stateMutability": "view",
      "type": "function"
    },
    {
      "constant": false,
      "inputs": [],
      "name": "renounceOwnership",
      "outputs": [],
      "payable": false,
      "stateMutability": "nonpayable",
      "type": "function"
    },
    {
      "constant": true,
      "inputs": [],
      "name": "goalReached",
      "outputs": [
        {
          "name": "",
          "type": "bool"
        }
      ],
      "payable": false,
      "stateMutability": "view",
      "type": "function"
    },
    {
      "constant": true,
      "inputs": [],
      "name": "isFinalized",
      "outputs": [
        {
          "name": "",
          "type": "bool"
        }
      ],
      "payable": false,
      "stateMutability": "view",
      "type": "function"
    },
    {
      "constant": true,
      "inputs": [],
      "name": "owner",
      "outputs": [
        {
          "name": "",
          "type": "address"
        }
      ],
      "payable": false,
      "stateMutability": "view",
      "type": "function"
    },
    {
      "constant": false,
      "inputs": [],
      "name": "claimRefund",
      "outputs": [],
      "payable": false,
      "stateMutability": "nonpayable",
      "type": "function"
    },
    {
      "constant": true,
      "inputs": [],
      "name": "openingTime",
      "outputs": [
        {
          "name": "",
          "type": "uint256"
        }
      ],
      "payable": false,
      "stateMutability": "view",
      "type": "function"
    },
    {
      "constant": false,
      "inputs": [
        {
          "name": "_beneficiary",
          "type": "address"
        }
      ],
      "name": "buyTokens",
      "outputs": [],
      "payable": true,
      "stateMutability": "payable",
      "type": "function"
    },
    {
      "constant": false,
      "inputs": [
        {
          "name": "_newOwner",
          "type": "address"
        }
      ],
      "name": "transferOwnership",
      "outputs": [],
      "payable": false,
      "stateMutability": "nonpayable",
      "type": "function"
    },
    {
      "constant": true,
      "inputs": [],
      "name": "token",
      "outputs": [
        {
          "name": "",
          "type": "address"
        }
      ],
      "payable": false,
      "stateMutability": "view",
      "type": "function"
    },
    {
      "inputs": [
        {
          "name": "_openingTime",
          "type": "uint256"
        },
        {
          "name": "_closingTime",
          "type": "uint256"
        },
        {
          "name": "_rate",
          "type": "uint256"
        },
        {
          "name": "_wallet",
          "type": "address"
        },
        {
          "name": "_token",
          "type": "address"
        },
        {
          "name": "_goal",
          "type": "uint256"
        }
      ],
      "payable": false,
      "stateMutability": "nonpayable",
      "type": "constructor"
    },
    {
      "payable": true,
      "stateMutability": "payable",
      "type": "fallback"
    },
    {
      "anonymous": false,
      "inputs": [],
      "name": "Finalized",
      "type": "event"
    },
    {
      "anonymous": false,
      "inputs": [
        {
          "indexed": true,
          "name": "purchaser",
          "type": "address"
        },
        {
          "indexed": true,
          "name": "beneficiary",
          "type": "address"
        },
        {
          "indexed": false,
          "name": "value",
          "type": "uint256"
        },
        {
          "indexed": false,
          "name": "amount",
          "type": "uint256"
        }
      ],
      "name": "TokenPurchase",
      "type": "event"
    },
    {
      "anonymous": false,
      "inputs": [
        {
          "indexed": true,
          "name": "previousOwner",
          "type": "address"
        }
      ],
      "name": "OwnershipRenounced",
      "type": "event"
    },
    {
      "anonymous": false,
      "inputs": [
        {
          "indexed": true,
          "name": "previousOwner",
          "type": "address"
        },
        {
          "indexed": true,
          "name": "newOwner",
          "type": "address"
        }
      ],
      "name": "OwnershipTransferred",
      "type": "event"
    }
  ],
  "bytecode": "0x60806040526000600760006101000a81548160ff02191690831515021790555034801561002b57600080fd5b5060405160c080612013833981018060405281019080805190602001909291908051906020019092919080519060200190929190805190602001909291908051906020019092919080519060200190929190505050808686868686336000806101000a81548173ffffffffffffffffffffffffffffffffffffffff021916908373ffffffffffffffffffffffffffffffffffffffff1602179055506000831115156100d557600080fd5b600073ffffffffffffffffffffffffffffffffffffffff168273ffffffffffffffffffffffffffffffffffffffff161415151561011157600080fd5b600073ffffffffffffffffffffffffffffffffffffffff168173ffffffffffffffffffffffffffffffffffffffff161415151561014d57600080fd5b8260038190555081600260006101000a81548173ffffffffffffffffffffffffffffffffffffffff021916908373ffffffffffffffffffffffffffffffffffffffff16021790555080600160006101000a81548173ffffffffffffffffffffffffffffffffffffffff021916908373ffffffffffffffffffffffffffffffffffffffff1602179055505050504282101515156101e857600080fd5b8181101515156101f757600080fd5b8160058190555080600681905550505060008111151561021657600080fd5b600260009054906101000a900473ffffffffffffffffffffffffffffffffffffffff166102416102e7565b808273ffffffffffffffffffffffffffffffffffffffff1673ffffffffffffffffffffffffffffffffffffffff168152602001915050604051809103906000f080158015610293573d6000803e3d6000fd5b50600960006101000a81548173ffffffffffffffffffffffffffffffffffffffff021916908373ffffffffffffffffffffffffffffffffffffffff16021790555080600881905550505050505050506102f7565b604051610dda8061123983390190565b610f33806103066000396000f3006080604052600436106100e6576000357c0100000000000000000000000000000000000000000000000000000000900463ffffffff1680631515bc2b146100f15780632c4e722e14610120578063401938831461014b5780634042b66f146101765780634b6753bc146101a15780634bb278f3146101cc578063521eb273146101e3578063715018a61461023a5780637d3d6522146102515780638d4e4083146102805780638da5cb5b146102af578063b5545a3c14610306578063b7a8807c1461031d578063ec8ac4d814610348578063f2fde38b1461037e578063fc0c546a146103c1575b6100ef33610418565b005b3480156100fd57600080fd5b506101066104e6565b604051808215151515815260200191505060405180910390f35b34801561012c57600080fd5b506101356104f2565b6040518082815260200191505060405180910390f35b34801561015757600080fd5b506101606104f8565b6040518082815260200191505060405180910390f35b34801561018257600080fd5b5061018b6104fe565b6040518082815260200191505060405180910390f35b3480156101ad57600080fd5b506101b6610504565b6040518082815260200191505060405180910390f35b3480156101d857600080fd5b506101e161050a565b005b3480156101ef57600080fd5b506101f86105e5565b604051808273ffffffffffffffffffffffffffffffffffffffff1673ffffffffffffffffffffffffffffffffffffffff16815260200191505060405180910390f35b34801561024657600080fd5b5061024f61060b565b005b34801561025d57600080fd5b5061026661070d565b604051808215151515815260200191505060405180910390f35b34801561028c57600080fd5b5061029561071c565b604051808215151515815260200191505060405180910390f35b3480156102bb57600080fd5b506102c461072f565b604051808273ffffffffffffffffffffffffffffffffffffffff1673ffffffffffffffffffffffffffffffffffffffff16815260200191505060405180910390f35b34801561031257600080fd5b5061031b610754565b005b34801561032957600080fd5b5061033261085a565b6040518082815260200191505060405180910390f35b61037c600480360381019080803573ffffffffffffffffffffffffffffffffffffffff169060200190929190505050610418565b005b34801561038a57600080fd5b506103bf600480360381019080803573ffffffffffffffffffffffffffffffffffffffff169060200190929190505050610860565b005b3480156103cd57600080fd5b506103d66108c7565b604051808273ffffffffffffffffffffffffffffffffffffffff1673ffffffffffffffffffffffffffffffffffffffff16815260200191505060405180910390f35b60008034915061042883836108ed565b6104318261091a565b90506104488260045461093890919063ffffffff16565b6004819055506104588382610959565b8273ffffffffffffffffffffffffffffffffffffffff163373ffffffffffffffffffffffffffffffffffffffff167f623b3804fa71d67900d064613da8f94b9617215ee90799290593e1745087ad188484604051808381526020018281526020019250505060405180910390a36104cf8383610967565b6104d761096b565b6104e18383610a43565b505050565b60006006544211905090565b60035481565b60085481565b60045481565b60065481565b6000809054906101000a900473ffffffffffffffffffffffffffffffffffffffff1673ffffffffffffffffffffffffffffffffffffffff163373ffffffffffffffffffffffffffffffffffffffff1614151561056557600080fd5b600760009054906101000a900460ff1615151561058157600080fd5b6105896104e6565b151561059457600080fd5b61059c610a47565b7f6823b073d48d6e3a7d385eeb601452d680e74bb46afe3255a7d778f3a9b1768160405160405180910390a16001600760006101000a81548160ff021916908315150217905550565b600260009054906101000a900473ffffffffffffffffffffffffffffffffffffffff1681565b6000809054906101000a900473ffffffffffffffffffffffffffffffffffffffff1673ffffffffffffffffffffffffffffffffffffffff163373ffffffffffffffffffffffffffffffffffffffff1614151561066657600080fd5b6000809054906101000a900473ffffffffffffffffffffffffffffffffffffffff1673ffffffffffffffffffffffffffffffffffffffff167ff8df31144d9c2f0f6b59d69b8b98abd5459d07f2742c4df920b25aae33c6482060405160405180910390a260008060006101000a81548173ffffffffffffffffffffffffffffffffffffffff021916908373ffffffffffffffffffffffffffffffffffffffff160217905550565b60006008546004541015905090565b600760009054906101000a900460ff1681565b6000809054906101000a900473ffffffffffffffffffffffffffffffffffffffff1681565b600760009054906101000a900460ff16151561076f57600080fd5b61077761070d565b15151561078357600080fd5b600960009054906101000a900473ffffffffffffffffffffffffffffffffffffffff1673ffffffffffffffffffffffffffffffffffffffff166351cff8d9336040518263ffffffff167c0100000000000000000000000000000000000000000000000000000000028152600401808273ffffffffffffffffffffffffffffffffffffffff1673ffffffffffffffffffffffffffffffffffffffff168152602001915050600060405180830381600087803b15801561084057600080fd5b505af1158015610854573d6000803e3d6000fd5b50505050565b60055481565b6000809054906101000a900473ffffffffffffffffffffffffffffffffffffffff1673ffffffffffffffffffffffffffffffffffffffff163373ffffffffffffffffffffffffffffffffffffffff161415156108bb57600080fd5b6108c481610c3e565b50565b600160009054906101000a900473ffffffffffffffffffffffffffffffffffffffff1681565b600554421015801561090157506006544211155b151561090c57600080fd5b6109168282610d38565b5050565b600061093160035483610d8890919063ffffffff16565b9050919050565b600080828401905083811015151561094f57600080fd5b8091505092915050565b6109638282610dc6565b5050565b5050565b600960009054906101000a900473ffffffffffffffffffffffffffffffffffffffff1673ffffffffffffffffffffffffffffffffffffffff1663f340fa0134336040518363ffffffff167c0100000000000000000000000000000000000000000000000000000000028152600401808273ffffffffffffffffffffffffffffffffffffffff1673ffffffffffffffffffffffffffffffffffffffff1681526020019150506000604051808303818588803b158015610a2857600080fd5b505af1158015610a3c573d6000803e3d6000fd5b5050505050565b5050565b610a4f61070d565b15610b9557600960009054906101000a900473ffffffffffffffffffffffffffffffffffffffff1673ffffffffffffffffffffffffffffffffffffffff166343d726d66040518163ffffffff167c0100000000000000000000000000000000000000000000000000000000028152600401600060405180830381600087803b158015610ada57600080fd5b505af1158015610aee573d6000803e3d6000fd5b50505050600960009054906101000a900473ffffffffffffffffffffffffffffffffffffffff1673ffffffffffffffffffffffffffffffffffffffff16639af6549a6040518163ffffffff167c0100000000000000000000000000000000000000000000000000000000028152600401600060405180830381600087803b158015610b7857600080fd5b505af1158015610b8c573d6000803e3d6000fd5b50505050610c34565b600960009054906101000a900473ffffffffffffffffffffffffffffffffffffffff1673ffffffffffffffffffffffffffffffffffffffff16638c52dc416040518163ffffffff167c0100000000000000000000000000000000000000000000000000000000028152600401600060405180830381600087803b158015610c1b57600080fd5b505af1158015610c2f573d6000803e3d6000fd5b505050505b610c3c610e17565b565b600073ffffffffffffffffffffffffffffffffffffffff168173ffffffffffffffffffffffffffffffffffffffff1614151515610c7a57600080fd5b8073ffffffffffffffffffffffffffffffffffffffff166000809054906101000a900473ffffffffffffffffffffffffffffffffffffffff1673ffffffffffffffffffffffffffffffffffffffff167f8be0079c531659141344cd1fd0a4f28419497f9722a3daafe3b4186f6b6457e060405160405180910390a3806000806101000a81548173ffffffffffffffffffffffffffffffffffffffff021916908373ffffffffffffffffffffffffffffffffffffffff16021790555050565b600073ffffffffffffffffffffffffffffffffffffffff168273ffffffffffffffffffffffffffffffffffffffff1614151515610d7457600080fd5b60008114151515610d8457600080fd5b5050565b6000806000841415610d9d5760009150610dbf565b8284029050828482811515610dae57fe5b04141515610dbb57600080fd5b8091505b5092915050565b610e138282600160009054906101000a900473ffffffffffffffffffffffffffffffffffffffff1673ffffffffffffffffffffffffffffffffffffffff16610e199092919063ffffffff16565b5050565b565b8273ffffffffffffffffffffffffffffffffffffffff1663a9059cbb83836040518363ffffffff167c0100000000000000000000000000000000000000000000000000000000028152600401808373ffffffffffffffffffffffffffffffffffffffff1673ffffffffffffffffffffffffffffffffffffffff16815260200182815260200192505050602060405180830381600087803b158015610ebc57600080fd5b505af1158015610ed0573d6000803e3d6000fd5b505050506040513d6020811015610ee657600080fd5b81019080805190602001909291905050501515610f0257600080fd5b5050505600a165627a7a72305820056f4eac2da5a7a50dcf89d51a9fa59cca48473ea1b87ead05f99eed434724770029608060405234801561001057600080fd5b50604051602080610dda83398101806040528101908080519060200190929190505050336000806101000a81548173ffffffffffffffffffffffffffffffffffffffff021916908373ffffffffffffffffffffffffffffffffffffffff160217905550600073ffffffffffffffffffffffffffffffffffffffff168173ffffffffffffffffffffffffffffffffffffffff16141515156100af57600080fd5b80600260016101000a81548173ffffffffffffffffffffffffffffffffffffffff021916908373ffffffffffffffffffffffffffffffffffffffff1602179055506000600260006101000a81548160ff0219169083600281111561010f57fe5b021790555050610cb6806101246000396000f3006080604052600436106100ba576000357c0100000000000000000000000000000000000000000000000000000000900463ffffffff16806338af3eed146100bf57806343d726d61461011657806351cff8d91461012d578063685ca19414610170578063715018a6146101cb5780638c52dc41146101e25780638da5cb5b146101f95780639af6549a14610250578063c19d93fb14610267578063e3a9db1a146102a0578063f2fde38b146102f7578063f340fa011461033a575b600080fd5b3480156100cb57600080fd5b506100d4610370565b604051808273ffffffffffffffffffffffffffffffffffffffff1673ffffffffffffffffffffffffffffffffffffffff16815260200191505060405180910390f35b34801561012257600080fd5b5061012b610396565b005b34801561013957600080fd5b5061016e600480360381019080803573ffffffffffffffffffffffffffffffffffffffff169060200190929190505050610476565b005b34801561017c57600080fd5b506101b1600480360381019080803573ffffffffffffffffffffffffffffffffffffffff169060200190929190505050610496565b604051808215151515815260200191505060405180910390f35b3480156101d757600080fd5b506101e06104c8565b005b3480156101ee57600080fd5b506101f76105ca565b005b34801561020557600080fd5b5061020e6106ab565b604051808273ffffffffffffffffffffffffffffffffffffffff1673ffffffffffffffffffffffffffffffffffffffff16815260200191505060405180910390f35b34801561025c57600080fd5b506102656106d0565b005b34801561027357600080fd5b5061027c610785565b6040518082600281111561028c57fe5b60ff16815260200191505060405180910390f35b3480156102ac57600080fd5b506102e1600480360381019080803573ffffffffffffffffffffffffffffffffffffffff169060200190929190505050610798565b6040518082815260200191505060405180910390f35b34801561030357600080fd5b50610338600480360381019080803573ffffffffffffffffffffffffffffffffffffffff1690602001909291905050506107e1565b005b61036e600480360381019080803573ffffffffffffffffffffffffffffffffffffffff169060200190929190505050610848565b005b600260019054906101000a900473ffffffffffffffffffffffffffffffffffffffff1681565b6000809054906101000a900473ffffffffffffffffffffffffffffffffffffffff1673ffffffffffffffffffffffffffffffffffffffff163373ffffffffffffffffffffffffffffffffffffffff161415156103f157600080fd5b600060028111156103fe57fe5b600260009054906101000a900460ff16600281111561041957fe5b14151561042557600080fd5b60028060006101000a81548160ff0219169083600281111561044357fe5b02179055507f1cdde67b72a90f19919ac732a437ac2f7a10fc128d28c2a6e525d89ce5cd9d3a60405160405180910390a1565b61047f81610496565b151561048a57600080fd5b61049381610888565b50565b6000600160028111156104a557fe5b600260009054906101000a900460ff1660028111156104c057fe5b149050919050565b6000809054906101000a900473ffffffffffffffffffffffffffffffffffffffff1673ffffffffffffffffffffffffffffffffffffffff163373ffffffffffffffffffffffffffffffffffffffff1614151561052357600080fd5b6000809054906101000a900473ffffffffffffffffffffffffffffffffffffffff1673ffffffffffffffffffffffffffffffffffffffff167ff8df31144d9c2f0f6b59d69b8b98abd5459d07f2742c4df920b25aae33c6482060405160405180910390a260008060006101000a81548173ffffffffffffffffffffffffffffffffffffffff021916908373ffffffffffffffffffffffffffffffffffffffff160217905550565b6000809054906101000a900473ffffffffffffffffffffffffffffffffffffffff1673ffffffffffffffffffffffffffffffffffffffff163373ffffffffffffffffffffffffffffffffffffffff1614151561062557600080fd5b6000600281111561063257fe5b600260009054906101000a900460ff16600281111561064d57fe5b14151561065957600080fd5b6001600260006101000a81548160ff0219169083600281111561067857fe5b02179055507f599d8e5a83cffb867d051598c4d70e805d59802d8081c1c7d6dffc5b6aca2b8960405160405180910390a1565b6000809054906101000a900473ffffffffffffffffffffffffffffffffffffffff1681565b6002808111156106dc57fe5b600260009054906101000a900460ff1660028111156106f757fe5b14151561070357600080fd5b600260019054906101000a900473ffffffffffffffffffffffffffffffffffffffff1673ffffffffffffffffffffffffffffffffffffffff166108fc3073ffffffffffffffffffffffffffffffffffffffff16319081150290604051600060405180830381858888f19350505050158015610782573d6000803e3d6000fd5b50565b600260009054906101000a900460ff1681565b6000600160008373ffffffffffffffffffffffffffffffffffffffff1673ffffffffffffffffffffffffffffffffffffffff168152602001908152602001600020549050919050565b6000809054906101000a900473ffffffffffffffffffffffffffffffffffffffff1673ffffffffffffffffffffffffffffffffffffffff163373ffffffffffffffffffffffffffffffffffffffff1614151561083c57600080fd5b61084581610a28565b50565b6000600281111561085557fe5b600260009054906101000a900460ff16600281111561087057fe5b14151561087c57600080fd5b61088581610b22565b50565b60008060009054906101000a900473ffffffffffffffffffffffffffffffffffffffff1673ffffffffffffffffffffffffffffffffffffffff163373ffffffffffffffffffffffffffffffffffffffff161415156108e557600080fd5b600160008373ffffffffffffffffffffffffffffffffffffffff1673ffffffffffffffffffffffffffffffffffffffff168152602001908152602001600020549050803073ffffffffffffffffffffffffffffffffffffffff16311015151561094a57fe5b6000600160008473ffffffffffffffffffffffffffffffffffffffff1673ffffffffffffffffffffffffffffffffffffffff168152602001908152602001600020819055508173ffffffffffffffffffffffffffffffffffffffff166108fc829081150290604051600060405180830381858888f193505050501580156109d5573d6000803e3d6000fd5b508173ffffffffffffffffffffffffffffffffffffffff167f7084f5476618d8e60b11ef0d7d3f06914655adb8793e28ff7f018d4c76d505d5826040518082815260200191505060405180910390a25050565b600073ffffffffffffffffffffffffffffffffffffffff168173ffffffffffffffffffffffffffffffffffffffff1614151515610a6457600080fd5b8073ffffffffffffffffffffffffffffffffffffffff166000809054906101000a900473ffffffffffffffffffffffffffffffffffffffff1673ffffffffffffffffffffffffffffffffffffffff167f8be0079c531659141344cd1fd0a4f28419497f9722a3daafe3b4186f6b6457e060405160405180910390a3806000806101000a81548173ffffffffffffffffffffffffffffffffffffffff021916908373ffffffffffffffffffffffffffffffffffffffff16021790555050565b60008060009054906101000a900473ffffffffffffffffffffffffffffffffffffffff1673ffffffffffffffffffffffffffffffffffffffff163373ffffffffffffffffffffffffffffffffffffffff16141515610b7f57600080fd5b349050610bd481600160008573ffffffffffffffffffffffffffffffffffffffff1673ffffffffffffffffffffffffffffffffffffffff16815260200190815260200160002054610c6990919063ffffffff16565b600160008473ffffffffffffffffffffffffffffffffffffffff1673ffffffffffffffffffffffffffffffffffffffff168152602001908152602001600020819055508173ffffffffffffffffffffffffffffffffffffffff167f2da466a7b24304f47e87fa2e1e5a81b9831ce54fec19055ce277ca2f39ba42c4826040518082815260200191505060405180910390a25050565b6000808284019050838110151515610c8057600080fd5b80915050929150505600a165627a7a7230582044602c1347029ea1c652ae2abd21be9670f82328b7d57b4bd437f821f2ab64380029",
  "source": "pragma solidity ^0.4.24;\n\nimport \"../token/ERC20/MintableToken.sol\";\nimport \"../crowdsale/distribution/RefundableCrowdsale.sol\";\n\n\ncontract RefundableCrowdsaleImpl is RefundableCrowdsale {\n\n  constructor (\n    uint256 _openingTime,\n    uint256 _closingTime,\n    uint256 _rate,\n    address _wallet,\n    MintableToken _token,\n    uint256 _goal\n  )\n    public\n    Crowdsale(_rate, _wallet, _token)\n    TimedCrowdsale(_openingTime, _closingTime)\n    RefundableCrowdsale(_goal)\n  {\n  }\n\n}\n",
  "sourcePath": "/home/liweibo/code/solidity/contracts_library/contracts_library/contracts/OpenZeppelin/openzeppelin-solidity/mocks/RefundableCrowdsaleImpl.sol",
  "compiler": {
    "name": "solc",
    "version": "0.4.24+commit.e67f0147.Emscripten.clang"
  },
  "schemaVersion": "2.0.1",
  "updatedAt": "2018-08-14T07:39:20.605Z"
}