{
  "contractName": "RentABook",
  "abi": [
    {
      "constant": true,
      "inputs": [],
      "name": "maxRentalDays",
      "outputs": [
        {
          "name": "",
          "type": "uint256"
        }
      ],
      "payable": false,
      "stateMutability": "view",
      "type": "function"
    },
    {
      "constant": true,
      "inputs": [],
      "name": "available",
      "outputs": [
        {
          "name": "",
          "type": "bool"
        }
      ],
      "payable": false,
      "stateMutability": "view",
      "type": "function"
    },
    {
      "constant": true,
      "inputs": [],
      "name": "minRentalDays",
      "outputs": [
        {
          "name": "",
          "type": "uint256"
        }
      ],
      "payable": false,
      "stateMutability": "view",
      "type": "function"
    },
    {
      "constant": true,
      "inputs": [],
      "name": "student",
      "outputs": [
        {
          "name": "",
          "type": "address"
        }
      ],
      "payable": false,
      "stateMutability": "view",
      "type": "function"
    },
    {
      "constant": true,
      "inputs": [],
      "name": "bookRented",
      "outputs": [
        {
          "name": "",
          "type": "bool"
        }
      ],
      "payable": false,
      "stateMutability": "view",
      "type": "function"
    },
    {
      "constant": true,
      "inputs": [],
      "name": "owner",
      "outputs": [
        {
          "name": "",
          "type": "address"
        }
      ],
      "payable": false,
      "stateMutability": "view",
      "type": "function"
    },
    {
      "constant": true,
      "inputs": [],
      "name": "price",
      "outputs": [
        {
          "name": "",
          "type": "uint256"
        }
      ],
      "payable": false,
      "stateMutability": "view",
      "type": "function"
    },
    {
      "constant": true,
      "inputs": [],
      "name": "rentalDate",
      "outputs": [
        {
          "name": "",
          "type": "uint256"
        }
      ],
      "payable": false,
      "stateMutability": "view",
      "type": "function"
    },
    {
      "constant": true,
      "inputs": [],
      "name": "returnDate",
      "outputs": [
        {
          "name": "",
          "type": "uint256"
        }
      ],
      "payable": false,
      "stateMutability": "view",
      "type": "function"
    },
    {
      "inputs": [],
      "payable": false,
      "stateMutability": "nonpayable",
      "type": "constructor"
    },
    {
      "anonymous": false,
      "inputs": [
        {
          "indexed": true,
          "name": "student",
          "type": "address"
        },
        {
          "indexed": false,
          "name": "rentalDate",
          "type": "uint256"
        },
        {
          "indexed": false,
          "name": "returnDate",
          "type": "uint256"
        },
        {
          "indexed": false,
          "name": "price",
          "type": "uint256"
        }
      ],
      "name": "UpdateRent",
      "type": "event"
    },
    {
      "anonymous": false,
      "inputs": [
        {
          "indexed": true,
          "name": "student",
          "type": "address"
        },
        {
          "indexed": false,
          "name": "returnDate",
          "type": "uint256"
        }
      ],
      "name": "rentBook",
      "type": "event"
    },
    {
      "constant": false,
      "inputs": [
        {
          "name": "_pricePerDay",
          "type": "uint256"
        },
        {
          "name": "_minRentalDays",
          "type": "uint256"
        },
        {
          "name": "_maxRentalDays",
          "type": "uint256"
        }
      ],
      "name": "rentableSetup",
      "outputs": [],
      "payable": false,
      "stateMutability": "nonpayable",
      "type": "function"
    },
    {
      "constant": false,
      "inputs": [
        {
          "name": "_available",
          "type": "bool"
        }
      ],
      "name": "setBookAvailable",
      "outputs": [],
      "payable": false,
      "stateMutability": "nonpayable",
      "type": "function"
    },
    {
      "constant": false,
      "inputs": [
        {
          "name": "_priceCost",
          "type": "uint256"
        }
      ],
      "name": "setRentalPerDay",
      "outputs": [],
      "payable": false,
      "stateMutability": "nonpayable",
      "type": "function"
    },
    {
      "constant": false,
      "inputs": [
        {
          "name": "_priceCost",
          "type": "uint256"
        }
      ],
      "name": "setRentalPerhour",
      "outputs": [],
      "payable": false,
      "stateMutability": "nonpayable",
      "type": "function"
    },
    {
      "constant": false,
      "inputs": [],
      "name": "rent",
      "outputs": [],
      "payable": true,
      "stateMutability": "payable",
      "type": "function"
    },
    {
      "constant": true,
      "inputs": [],
      "name": "remainBalanceDays",
      "outputs": [
        {
          "name": "",
          "type": "uint256"
        }
      ],
      "payable": false,
      "stateMutability": "view",
      "type": "function"
    },
    {
      "constant": true,
      "inputs": [],
      "name": "rentalTotalDays",
      "outputs": [
        {
          "name": "",
          "type": "uint256"
        }
      ],
      "payable": false,
      "stateMutability": "view",
      "type": "function"
    },
    {
      "constant": true,
      "inputs": [],
      "name": "rentalElapsedTime",
      "outputs": [
        {
          "name": "",
          "type": "uint256"
        }
      ],
      "payable": false,
      "stateMutability": "view",
      "type": "function"
    },
    {
      "constant": true,
      "inputs": [],
      "name": "rentalTotalTime",
      "outputs": [
        {
          "name": "",
          "type": "uint256"
        }
      ],
      "payable": false,
      "stateMutability": "view",
      "type": "function"
    },
    {
      "constant": false,
      "inputs": [],
      "name": "returnBook",
      "outputs": [],
      "payable": false,
      "stateMutability": "nonpayable",
      "type": "function"
    }
  ],
  "bytecode": "0x608060405234801561001057600080fd5b50336000806101000a81548173ffffffffffffffffffffffffffffffffffffffff021916908373ffffffffffffffffffffffffffffffffffffffff160217905550610c15806100606000396000f300608060405260043610610106576000357c0100000000000000000000000000000000000000000000000000000000900463ffffffff168062bceb9e1461010b57806311d15d40146101365780632a0f3c35146101615780632e54fb1f146101a257806348a0d754146101cd57806363dc7c16146101fc578063663337241461022b578063699450e8146102565780636a9d69a7146102ad5780637150841a146102d857806374c31fc014610305578063772aaeb51461033457806382996d9f1461034b57806387d5c6b81461035557806389bdd5c1146103805780638da5cb5b146103ad578063a035b1fe14610404578063ac81f6371461042f578063fc590d091461045a575b600080fd5b34801561011757600080fd5b50610120610485565b6040518082815260200191505060405180910390f35b34801561014257600080fd5b5061014b6104bc565b6040518082815260200191505060405180910390f35b34801561016d57600080fd5b506101a06004803603810190808035906020019092919080359060200190929190803590602001909291905050506104f1565b005b3480156101ae57600080fd5b506101b76105c8565b6040518082815260200191505060405180910390f35b3480156101d957600080fd5b506101e26105ce565b604051808215151515815260200191505060405180910390f35b34801561020857600080fd5b506102296004803603810190808035151590602001909291905050506105e1565b005b34801561023757600080fd5b50610240610659565b6040518082815260200191505060405180910390f35b34801561026257600080fd5b5061026b61065f565b604051808273ffffffffffffffffffffffffffffffffffffffff1673ffffffffffffffffffffffffffffffffffffffff16815260200191505060405180910390f35b3480156102b957600080fd5b506102c2610685565b6040518082815260200191505060405180910390f35b3480156102e457600080fd5b50610303600480360381019080803590602001909291905050506106bc565b005b34801561031157600080fd5b5061031a610758565b604051808215151515815260200191505060405180910390f35b34801561034057600080fd5b5061034961076b565b005b6103536108e9565b005b34801561036157600080fd5b5061036a610a72565b6040518082815260200191505060405180910390f35b34801561038c57600080fd5b506103ab60048036038101908080359060200190929190505050610aa7565b005b3480156103b957600080fd5b506103c2610b43565b604051808273ffffffffffffffffffffffffffffffffffffffff1673ffffffffffffffffffffffffffffffffffffffff16815260200191505060405180910390f35b34801561041057600080fd5b50610419610b68565b6040518082815260200191505060405180910390f35b34801561043b57600080fd5b50610444610b6e565b6040518082815260200191505060405180910390f35b34801561046657600080fd5b5061046f610b74565b6040518082815260200191505060405180910390f35b6000600460009054906101000a900460ff1680156104a557506005544211155b15156104b057600080fd5b60025460055403905090565b6000600460009054906101000a900460ff1680156104dc57506005544211155b15156104e757600080fd5b4260055403905090565b6000809054906101000a900473ffffffffffffffffffffffffffffffffffffffff1673ffffffffffffffffffffffffffffffffffffffff163373ffffffffffffffffffffffffffffffffffffffff1614151561054c57600080fd5b600860009054906101000a900460ff1615151561056857600080fd5b6001821015801561057a5750600a8111155b80156105865750808211155b151561059157600080fd5b6001600860006101000a81548160ff02191690831515021790555081600681905550806007819055506105c3836106bc565b505050565b60075481565b600860009054906101000a900460ff1681565b6000809054906101000a900473ffffffffffffffffffffffffffffffffffffffff1673ffffffffffffffffffffffffffffffffffffffff163373ffffffffffffffffffffffffffffffffffffffff1614151561063c57600080fd5b80600860006101000a81548160ff02191690831515021790555050565b60065481565b600160009054906101000a900473ffffffffffffffffffffffffffffffffffffffff1681565b6000600460009054906101000a900460ff1680156106a557506005544211155b15156106b057600080fd5b60025460055403905090565b6000809054906101000a900473ffffffffffffffffffffffffffffffffffffffff1673ffffffffffffffffffffffffffffffffffffffff163373ffffffffffffffffffffffffffffffffffffffff1614151561071757600080fd5b600460009054906101000a900460ff161580610734575060055442115b151561073f57600080fd5b60008111151561074e57600080fd5b8060038190555050565b600460009054906101000a900460ff1681565b6000600160009054906101000a900473ffffffffffffffffffffffffffffffffffffffff1673ffffffffffffffffffffffffffffffffffffffff163373ffffffffffffffffffffffffffffffffffffffff161415156107c957600080fd5b600460009054906101000a900460ff1680156107e757506005544211155b15156107f257600080fd5b600090506001610800610a72565b101561081c576003546001610813610685565b03029050610827565b6108246104bc565b90505b600160009054906101000a900473ffffffffffffffffffffffffffffffffffffffff1673ffffffffffffffffffffffffffffffffffffffff167fd8b8a0fc599ffca3eee5b28efc1aa8f079932565076e918507c16e9aee6f6e36426040518082815260200191505060405180910390a261089f610b7a565b3373ffffffffffffffffffffffffffffffffffffffff166108fc829081150290604051600060405180830381858888f193505050501580156108e5573d6000803e3d6000fd5b5050565b6000600860009054906101000a900460ff16151561090657600080fd5b600460009054906101000a900460ff161580610923575060055442115b151561092e57600080fd5b60003411151561093d57600080fd5b600060035411151561094e57600080fd5b6003543481151561095b57fe5b049050600654811015801561097257506007548111155b151561097d57600080fd5b8042016005819055506001600460006101000a81548160ff02191690831515021790555033600160006101000a81548173ffffffffffffffffffffffffffffffffffffffff021916908373ffffffffffffffffffffffffffffffffffffffff16021790555042600281905550600160009054906101000a900473ffffffffffffffffffffffffffffffffffffffff1673ffffffffffffffffffffffffffffffffffffffff167f9551a81829126ccbaea218fd9fc154a5a58f028493b411b4dcce61fd20c7812e60025460055460035460405180848152602001838152602001828152602001935050505060405180910390a250565b6000600460009054906101000a900460ff168015610a9257506005544211155b1515610a9d57600080fd5b6002544203905090565b6000809054906101000a900473ffffffffffffffffffffffffffffffffffffffff1673ffffffffffffffffffffffffffffffffffffffff163373ffffffffffffffffffffffffffffffffffffffff16141515610b0257600080fd5b600460009054906101000a900460ff161580610b1f575060055442115b1515610b2a57600080fd5b600081111515610b3957600080fd5b8060038190555050565b6000809054906101000a900473ffffffffffffffffffffffffffffffffffffffff1681565b60035481565b60025481565b60055481565b6000600460006101000a81548160ff0219169083151502179055506000600160006101000a81548173ffffffffffffffffffffffffffffffffffffffff021916908373ffffffffffffffffffffffffffffffffffffffff160217905550600060028190555060006005819055505600a165627a7a7230582076c639fae8c4039821b2e70394f5e69cc4932fdd17dcd6f4086e7990cbcd3b1f0029",
  "source": "pragma solidity ^0.4.18;\n\ncontract RentABook {\n    \n   address public owner;\n   \n   address public student;\n   \n   uint public rentalDate;\n   \n  // uint public rentalHours;\n   \n   uint public price;\n   \n   bool public bookRented;\n   \n   uint public returnDate;\n   \n   uint public minRentalDays;\n   \n   uint constant Min_Days = 1;\n   \n   uint public maxRentalDays;\n   \n   uint constant Max_Days = 10;\n   \n   bool public available;\n   \n   \n   event UpdateRent(address indexed student, uint rentalDate, uint returnDate, uint price);\n   \n   event rentBook(address indexed student, uint returnDate);\n   \n   \n   modifier ifOwner {\n      require(msg.sender == owner);\n      _;\n    }\n   \n     modifier ifStudent {\n      require(msg.sender == student);\n      _;\n    }\n    \n     modifier whenBookAvailable {\n      require(!bookRented || now > returnDate);\n      _;\n      \n   }\n   \n    modifier whenBookIsRented {\n      require(bookRented && now <= returnDate);\n      _;\n      \n   }\n   \n    modifier IsAvailable {\n      require(available);\n      _;\n      \n   }\n   \n   function RentABook() public {\n        owner = msg.sender;\n       \n   }\n   \n    function rentableSetup(uint _pricePerDay, uint _minRentalDays, uint _maxRentalDays)\n        public ifOwner {\n            \n            require(!available);\n            require(_minRentalDays >= Min_Days && _maxRentalDays <= Max_Days && \n            _minRentalDays <= _maxRentalDays);\n\n            available = true;\n\n            minRentalDays =_minRentalDays;\n            maxRentalDays = _maxRentalDays;\n\n            setRentalPerDay(_pricePerDay);\n\n        }\n        \n    function setBookAvailable(bool _available) public ifOwner {\n        available = _available;\n    }\n    \n    function setRentalPerDay(uint _priceCost) public ifOwner whenBookAvailable {\n        require(_priceCost > 0);\n        price = _priceCost;\n    }\n    \n    function setRentalPerhour(uint _priceCost) public ifOwner whenBookAvailable {\n        require(_priceCost > 0);\n        price = _priceCost;\n    }\n    \n    function rent() public payable IsAvailable whenBookAvailable {\n\n        require(msg.value > 0);\n        require(price > 0);\n\n        uint rentForNumberOfdays = msg.value/ price;\n\n        require(rentForNumberOfdays >= minRentalDays && rentForNumberOfdays <= maxRentalDays);\n        returnDate = now + rentForNumberOfdays;\n\n        bookRented = true;\n        student = msg.sender;\n        rentalDate = now;\n\n       UpdateRent(student, rentalDate, returnDate,price);\n    }\n        \n    function remainBalanceDays() public view whenBookIsRented returns(uint) {\n        return (returnDate - now);\n    }\n\n    function rentalTotalDays() public view whenBookIsRented returns(uint) {\n        return (returnDate - rentalDate);\n    }    \n\n    function rentalElapsedTime() public view whenBookIsRented returns(uint) {\n        return (now - rentalDate);\n    }\n    \n    function rentalTotalTime() public view whenBookIsRented returns (uint){\n        return (returnDate - rentalDate);\n    }\n\n\n    function returnBook() public ifStudent whenBookIsRented {\n       uint amountPaid = 0;\n        if(rentalElapsedTime() < Min_Days){\n            amountPaid = (rentalTotalTime() - Min_Days) * price ;\n        }else{\n            amountPaid = remainBalanceDays();\n        }\n\n        rentBook(student, now);\n\n        resetBookRent();\n\n        msg.sender.transfer(amountPaid);\n\n   }\n   \n   function resetBookRent () private {\n       bookRented = false;\n       student = address(0);\n       rentalDate = 0;\n       returnDate = 0;\n   }   \n}\n",
  "sourcePath": "/home/liweibo/code/solidity/contracts_library/contracts_library/contracts/ram1991/Solidity-Smart-contracts/RentABook.sol",
  "compiler": {
    "name": "solc",
    "version": "0.4.24+commit.e67f0147.Emscripten.clang"
  },
  "schemaVersion": "2.0.1",
  "updatedAt": "2018-08-14T07:39:20.653Z"
}