{
  "contractName": "SampleCrowdsale",
  "abi": [
    {
      "constant": true,
      "inputs": [],
      "name": "hasClosed",
      "outputs": [
        {
          "name": "",
          "type": "bool"
        }
      ],
      "payable": false,
      "stateMutability": "view",
      "type": "function"
    },
    {
      "constant": true,
      "inputs": [],
      "name": "rate",
      "outputs": [
        {
          "name": "",
          "type": "uint256"
        }
      ],
      "payable": false,
      "stateMutability": "view",
      "type": "function"
    },
    {
      "constant": true,
      "inputs": [],
      "name": "cap",
      "outputs": [
        {
          "name": "",
          "type": "uint256"
        }
      ],
      "payable": false,
      "stateMutability": "view",
      "type": "function"
    },
    {
      "constant": true,
      "inputs": [],
      "name": "goal",
      "outputs": [
        {
          "name": "",
          "type": "uint256"
        }
      ],
      "payable": false,
      "stateMutability": "view",
      "type": "function"
    },
    {
      "constant": true,
      "inputs": [],
      "name": "weiRaised",
      "outputs": [
        {
          "name": "",
          "type": "uint256"
        }
      ],
      "payable": false,
      "stateMutability": "view",
      "type": "function"
    },
    {
      "constant": true,
      "inputs": [],
      "name": "closingTime",
      "outputs": [
        {
          "name": "",
          "type": "uint256"
        }
      ],
      "payable": false,
      "stateMutability": "view",
      "type": "function"
    },
    {
      "constant": false,
      "inputs": [],
      "name": "finalize",
      "outputs": [],
      "payable": false,
      "stateMutability": "nonpayable",
      "type": "function"
    },
    {
      "constant": true,
      "inputs": [],
      "name": "capReached",
      "outputs": [
        {
          "name": "",
          "type": "bool"
        }
      ],
      "payable": false,
      "stateMutability": "view",
      "type": "function"
    },
    {
      "constant": true,
      "inputs": [],
      "name": "wallet",
      "outputs": [
        {
          "name": "",
          "type": "address"
        }
      ],
      "payable": false,
      "stateMutability": "view",
      "type": "function"
    },
    {
      "constant": false,
      "inputs": [],
      "name": "renounceOwnership",
      "outputs": [],
      "payable": false,
      "stateMutability": "nonpayable",
      "type": "function"
    },
    {
      "constant": true,
      "inputs": [],
      "name": "goalReached",
      "outputs": [
        {
          "name": "",
          "type": "bool"
        }
      ],
      "payable": false,
      "stateMutability": "view",
      "type": "function"
    },
    {
      "constant": true,
      "inputs": [],
      "name": "isFinalized",
      "outputs": [
        {
          "name": "",
          "type": "bool"
        }
      ],
      "payable": false,
      "stateMutability": "view",
      "type": "function"
    },
    {
      "constant": true,
      "inputs": [],
      "name": "owner",
      "outputs": [
        {
          "name": "",
          "type": "address"
        }
      ],
      "payable": false,
      "stateMutability": "view",
      "type": "function"
    },
    {
      "constant": false,
      "inputs": [],
      "name": "claimRefund",
      "outputs": [],
      "payable": false,
      "stateMutability": "nonpayable",
      "type": "function"
    },
    {
      "constant": true,
      "inputs": [],
      "name": "openingTime",
      "outputs": [
        {
          "name": "",
          "type": "uint256"
        }
      ],
      "payable": false,
      "stateMutability": "view",
      "type": "function"
    },
    {
      "constant": false,
      "inputs": [
        {
          "name": "_beneficiary",
          "type": "address"
        }
      ],
      "name": "buyTokens",
      "outputs": [],
      "payable": true,
      "stateMutability": "payable",
      "type": "function"
    },
    {
      "constant": false,
      "inputs": [
        {
          "name": "_newOwner",
          "type": "address"
        }
      ],
      "name": "transferOwnership",
      "outputs": [],
      "payable": false,
      "stateMutability": "nonpayable",
      "type": "function"
    },
    {
      "constant": true,
      "inputs": [],
      "name": "token",
      "outputs": [
        {
          "name": "",
          "type": "address"
        }
      ],
      "payable": false,
      "stateMutability": "view",
      "type": "function"
    },
    {
      "inputs": [
        {
          "name": "_openingTime",
          "type": "uint256"
        },
        {
          "name": "_closingTime",
          "type": "uint256"
        },
        {
          "name": "_rate",
          "type": "uint256"
        },
        {
          "name": "_wallet",
          "type": "address"
        },
        {
          "name": "_cap",
          "type": "uint256"
        },
        {
          "name": "_token",
          "type": "address"
        },
        {
          "name": "_goal",
          "type": "uint256"
        }
      ],
      "payable": false,
      "stateMutability": "nonpayable",
      "type": "constructor"
    },
    {
      "payable": true,
      "stateMutability": "payable",
      "type": "fallback"
    },
    {
      "anonymous": false,
      "inputs": [],
      "name": "Finalized",
      "type": "event"
    },
    {
      "anonymous": false,
      "inputs": [
        {
          "indexed": true,
          "name": "purchaser",
          "type": "address"
        },
        {
          "indexed": true,
          "name": "beneficiary",
          "type": "address"
        },
        {
          "indexed": false,
          "name": "value",
          "type": "uint256"
        },
        {
          "indexed": false,
          "name": "amount",
          "type": "uint256"
        }
      ],
      "name": "TokenPurchase",
      "type": "event"
    },
    {
      "anonymous": false,
      "inputs": [
        {
          "indexed": true,
          "name": "previousOwner",
          "type": "address"
        }
      ],
      "name": "OwnershipRenounced",
      "type": "event"
    },
    {
      "anonymous": false,
      "inputs": [
        {
          "indexed": true,
          "name": "previousOwner",
          "type": "address"
        },
        {
          "indexed": true,
          "name": "newOwner",
          "type": "address"
        }
      ],
      "name": "OwnershipTransferred",
      "type": "event"
    }
  ],
  "bytecode": "0x60806040526000600860006101000a81548160ff02191690831515021790555034801561002b57600080fd5b5060405160e080620020d08339810180604052810190808051906020019092919080519060200190929190805190602001909291908051906020019092919080519060200190929190805190602001909291908051906020019092919050505080878785888887336000806101000a81548173ffffffffffffffffffffffffffffffffffffffff021916908373ffffffffffffffffffffffffffffffffffffffff1602179055506000831115156100e157600080fd5b600073ffffffffffffffffffffffffffffffffffffffff168273ffffffffffffffffffffffffffffffffffffffff161415151561011d57600080fd5b600073ffffffffffffffffffffffffffffffffffffffff168173ffffffffffffffffffffffffffffffffffffffff161415151561015957600080fd5b8260038190555081600260006101000a81548173ffffffffffffffffffffffffffffffffffffffff021916908373ffffffffffffffffffffffffffffffffffffffff16021790555080600160006101000a81548173ffffffffffffffffffffffffffffffffffffffff021916908373ffffffffffffffffffffffffffffffffffffffff1602179055505050506000811115156101f457600080fd5b806005819055505042821015151561020b57600080fd5b81811015151561021a57600080fd5b8160068190555080600781905550505060008111151561023957600080fd5b600260009054906101000a900473ffffffffffffffffffffffffffffffffffffffff1661026461031a565b808273ffffffffffffffffffffffffffffffffffffffff1673ffffffffffffffffffffffffffffffffffffffff168152602001915050604051809103906000f0801580156102b6573d6000803e3d6000fd5b50600a60006101000a81548173ffffffffffffffffffffffffffffffffffffffff021916908373ffffffffffffffffffffffffffffffffffffffff160217905550806009819055505082811115151561030e57600080fd5b5050505050505061032b565b604051610dda80620012f683390190565b610fbb806200033b6000396000f3006080604052600436106100fc576000357c0100000000000000000000000000000000000000000000000000000000900463ffffffff1680631515bc2b146101075780632c4e722e14610136578063355274ea14610161578063401938831461018c5780634042b66f146101b75780634b6753bc146101e25780634bb278f31461020d5780634f93594514610224578063521eb27314610253578063715018a6146102aa5780637d3d6522146102c15780638d4e4083146102f05780638da5cb5b1461031f578063b5545a3c14610376578063b7a8807c1461038d578063ec8ac4d8146103b8578063f2fde38b146103ee578063fc0c546a14610431575b61010533610488565b005b34801561011357600080fd5b5061011c610556565b604051808215151515815260200191505060405180910390f35b34801561014257600080fd5b5061014b610562565b6040518082815260200191505060405180910390f35b34801561016d57600080fd5b50610176610568565b6040518082815260200191505060405180910390f35b34801561019857600080fd5b506101a161056e565b6040518082815260200191505060405180910390f35b3480156101c357600080fd5b506101cc610574565b6040518082815260200191505060405180910390f35b3480156101ee57600080fd5b506101f761057a565b6040518082815260200191505060405180910390f35b34801561021957600080fd5b50610222610580565b005b34801561023057600080fd5b5061023961065b565b604051808215151515815260200191505060405180910390f35b34801561025f57600080fd5b5061026861066a565b604051808273ffffffffffffffffffffffffffffffffffffffff1673ffffffffffffffffffffffffffffffffffffffff16815260200191505060405180910390f35b3480156102b657600080fd5b506102bf610690565b005b3480156102cd57600080fd5b506102d6610792565b604051808215151515815260200191505060405180910390f35b3480156102fc57600080fd5b506103056107a1565b604051808215151515815260200191505060405180910390f35b34801561032b57600080fd5b506103346107b4565b604051808273ffffffffffffffffffffffffffffffffffffffff1673ffffffffffffffffffffffffffffffffffffffff16815260200191505060405180910390f35b34801561038257600080fd5b5061038b6107d9565b005b34801561039957600080fd5b506103a26108df565b6040518082815260200191505060405180910390f35b6103ec600480360381019080803573ffffffffffffffffffffffffffffffffffffffff169060200190929190505050610488565b005b3480156103fa57600080fd5b5061042f600480360381019080803573ffffffffffffffffffffffffffffffffffffffff1690602001909291905050506108e5565b005b34801561043d57600080fd5b5061044661094c565b604051808273ffffffffffffffffffffffffffffffffffffffff1673ffffffffffffffffffffffffffffffffffffffff16815260200191505060405180910390f35b6000803491506104988383610972565b6104a18261099f565b90506104b8826004546109bd90919063ffffffff16565b6004819055506104c883826109de565b8273ffffffffffffffffffffffffffffffffffffffff163373ffffffffffffffffffffffffffffffffffffffff167f623b3804fa71d67900d064613da8f94b9617215ee90799290593e1745087ad188484604051808381526020018281526020019250505060405180910390a361053f83836109ec565b6105476109f0565b6105518383610ac8565b505050565b60006007544211905090565b60035481565b60055481565b60095481565b60045481565b60075481565b6000809054906101000a900473ffffffffffffffffffffffffffffffffffffffff1673ffffffffffffffffffffffffffffffffffffffff163373ffffffffffffffffffffffffffffffffffffffff161415156105db57600080fd5b600860009054906101000a900460ff161515156105f757600080fd5b6105ff610556565b151561060a57600080fd5b610612610acc565b7f6823b073d48d6e3a7d385eeb601452d680e74bb46afe3255a7d778f3a9b1768160405160405180910390a16001600860006101000a81548160ff021916908315150217905550565b60006005546004541015905090565b600260009054906101000a900473ffffffffffffffffffffffffffffffffffffffff1681565b6000809054906101000a900473ffffffffffffffffffffffffffffffffffffffff1673ffffffffffffffffffffffffffffffffffffffff163373ffffffffffffffffffffffffffffffffffffffff161415156106eb57600080fd5b6000809054906101000a900473ffffffffffffffffffffffffffffffffffffffff1673ffffffffffffffffffffffffffffffffffffffff167ff8df31144d9c2f0f6b59d69b8b98abd5459d07f2742c4df920b25aae33c6482060405160405180910390a260008060006101000a81548173ffffffffffffffffffffffffffffffffffffffff021916908373ffffffffffffffffffffffffffffffffffffffff160217905550565b60006009546004541015905090565b600860009054906101000a900460ff1681565b6000809054906101000a900473ffffffffffffffffffffffffffffffffffffffff1681565b600860009054906101000a900460ff1615156107f457600080fd5b6107fc610792565b15151561080857600080fd5b600a60009054906101000a900473ffffffffffffffffffffffffffffffffffffffff1673ffffffffffffffffffffffffffffffffffffffff166351cff8d9336040518263ffffffff167c0100000000000000000000000000000000000000000000000000000000028152600401808273ffffffffffffffffffffffffffffffffffffffff1673ffffffffffffffffffffffffffffffffffffffff168152602001915050600060405180830381600087803b1580156108c557600080fd5b505af11580156108d9573d6000803e3d6000fd5b50505050565b60065481565b6000809054906101000a900473ffffffffffffffffffffffffffffffffffffffff1673ffffffffffffffffffffffffffffffffffffffff163373ffffffffffffffffffffffffffffffffffffffff1614151561094057600080fd5b61094981610cc3565b50565b600160009054906101000a900473ffffffffffffffffffffffffffffffffffffffff1681565b600654421015801561098657506007544211155b151561099157600080fd5b61099b8282610dbd565b5050565b60006109b660035483610df090919063ffffffff16565b9050919050565b60008082840190508381101515156109d457600080fd5b8091505092915050565b6109e88282610e2e565b5050565b5050565b600a60009054906101000a900473ffffffffffffffffffffffffffffffffffffffff1673ffffffffffffffffffffffffffffffffffffffff1663f340fa0134336040518363ffffffff167c0100000000000000000000000000000000000000000000000000000000028152600401808273ffffffffffffffffffffffffffffffffffffffff1673ffffffffffffffffffffffffffffffffffffffff1681526020019150506000604051808303818588803b158015610aad57600080fd5b505af1158015610ac1573d6000803e3d6000fd5b5050505050565b5050565b610ad4610792565b15610c1a57600a60009054906101000a900473ffffffffffffffffffffffffffffffffffffffff1673ffffffffffffffffffffffffffffffffffffffff166343d726d66040518163ffffffff167c0100000000000000000000000000000000000000000000000000000000028152600401600060405180830381600087803b158015610b5f57600080fd5b505af1158015610b73573d6000803e3d6000fd5b50505050600a60009054906101000a900473ffffffffffffffffffffffffffffffffffffffff1673ffffffffffffffffffffffffffffffffffffffff16639af6549a6040518163ffffffff167c0100000000000000000000000000000000000000000000000000000000028152600401600060405180830381600087803b158015610bfd57600080fd5b505af1158015610c11573d6000803e3d6000fd5b50505050610cb9565b600a60009054906101000a900473ffffffffffffffffffffffffffffffffffffffff1673ffffffffffffffffffffffffffffffffffffffff16638c52dc416040518163ffffffff167c0100000000000000000000000000000000000000000000000000000000028152600401600060405180830381600087803b158015610ca057600080fd5b505af1158015610cb4573d6000803e3d6000fd5b505050505b610cc1610f3d565b565b600073ffffffffffffffffffffffffffffffffffffffff168173ffffffffffffffffffffffffffffffffffffffff1614151515610cff57600080fd5b8073ffffffffffffffffffffffffffffffffffffffff166000809054906101000a900473ffffffffffffffffffffffffffffffffffffffff1673ffffffffffffffffffffffffffffffffffffffff167f8be0079c531659141344cd1fd0a4f28419497f9722a3daafe3b4186f6b6457e060405160405180910390a3806000806101000a81548173ffffffffffffffffffffffffffffffffffffffff021916908373ffffffffffffffffffffffffffffffffffffffff16021790555050565b610dc78282610f3f565b600554610ddf826004546109bd90919063ffffffff16565b11151515610dec57600080fd5b5050565b6000806000841415610e055760009150610e27565b8284029050828482811515610e1657fe5b04141515610e2357600080fd5b8091505b5092915050565b600160009054906101000a900473ffffffffffffffffffffffffffffffffffffffff1673ffffffffffffffffffffffffffffffffffffffff166340c10f1983836040518363ffffffff167c0100000000000000000000000000000000000000000000000000000000028152600401808373ffffffffffffffffffffffffffffffffffffffff1673ffffffffffffffffffffffffffffffffffffffff16815260200182815260200192505050602060405180830381600087803b158015610ef357600080fd5b505af1158015610f07573d6000803e3d6000fd5b505050506040513d6020811015610f1d57600080fd5b81019080805190602001909291905050501515610f3957600080fd5b5050565b565b600073ffffffffffffffffffffffffffffffffffffffff168273ffffffffffffffffffffffffffffffffffffffff1614151515610f7b57600080fd5b60008114151515610f8b57600080fd5b50505600a165627a7a72305820ae3b5e9afa46b312539e79e34bca6bb02d568a336baf6a5d358e41432248c1ef0029608060405234801561001057600080fd5b50604051602080610dda83398101806040528101908080519060200190929190505050336000806101000a81548173ffffffffffffffffffffffffffffffffffffffff021916908373ffffffffffffffffffffffffffffffffffffffff160217905550600073ffffffffffffffffffffffffffffffffffffffff168173ffffffffffffffffffffffffffffffffffffffff16141515156100af57600080fd5b80600260016101000a81548173ffffffffffffffffffffffffffffffffffffffff021916908373ffffffffffffffffffffffffffffffffffffffff1602179055506000600260006101000a81548160ff0219169083600281111561010f57fe5b021790555050610cb6806101246000396000f3006080604052600436106100ba576000357c0100000000000000000000000000000000000000000000000000000000900463ffffffff16806338af3eed146100bf57806343d726d61461011657806351cff8d91461012d578063685ca19414610170578063715018a6146101cb5780638c52dc41146101e25780638da5cb5b146101f95780639af6549a14610250578063c19d93fb14610267578063e3a9db1a146102a0578063f2fde38b146102f7578063f340fa011461033a575b600080fd5b3480156100cb57600080fd5b506100d4610370565b604051808273ffffffffffffffffffffffffffffffffffffffff1673ffffffffffffffffffffffffffffffffffffffff16815260200191505060405180910390f35b34801561012257600080fd5b5061012b610396565b005b34801561013957600080fd5b5061016e600480360381019080803573ffffffffffffffffffffffffffffffffffffffff169060200190929190505050610476565b005b34801561017c57600080fd5b506101b1600480360381019080803573ffffffffffffffffffffffffffffffffffffffff169060200190929190505050610496565b604051808215151515815260200191505060405180910390f35b3480156101d757600080fd5b506101e06104c8565b005b3480156101ee57600080fd5b506101f76105ca565b005b34801561020557600080fd5b5061020e6106ab565b604051808273ffffffffffffffffffffffffffffffffffffffff1673ffffffffffffffffffffffffffffffffffffffff16815260200191505060405180910390f35b34801561025c57600080fd5b506102656106d0565b005b34801561027357600080fd5b5061027c610785565b6040518082600281111561028c57fe5b60ff16815260200191505060405180910390f35b3480156102ac57600080fd5b506102e1600480360381019080803573ffffffffffffffffffffffffffffffffffffffff169060200190929190505050610798565b6040518082815260200191505060405180910390f35b34801561030357600080fd5b50610338600480360381019080803573ffffffffffffffffffffffffffffffffffffffff1690602001909291905050506107e1565b005b61036e600480360381019080803573ffffffffffffffffffffffffffffffffffffffff169060200190929190505050610848565b005b600260019054906101000a900473ffffffffffffffffffffffffffffffffffffffff1681565b6000809054906101000a900473ffffffffffffffffffffffffffffffffffffffff1673ffffffffffffffffffffffffffffffffffffffff163373ffffffffffffffffffffffffffffffffffffffff161415156103f157600080fd5b600060028111156103fe57fe5b600260009054906101000a900460ff16600281111561041957fe5b14151561042557600080fd5b60028060006101000a81548160ff0219169083600281111561044357fe5b02179055507f1cdde67b72a90f19919ac732a437ac2f7a10fc128d28c2a6e525d89ce5cd9d3a60405160405180910390a1565b61047f81610496565b151561048a57600080fd5b61049381610888565b50565b6000600160028111156104a557fe5b600260009054906101000a900460ff1660028111156104c057fe5b149050919050565b6000809054906101000a900473ffffffffffffffffffffffffffffffffffffffff1673ffffffffffffffffffffffffffffffffffffffff163373ffffffffffffffffffffffffffffffffffffffff1614151561052357600080fd5b6000809054906101000a900473ffffffffffffffffffffffffffffffffffffffff1673ffffffffffffffffffffffffffffffffffffffff167ff8df31144d9c2f0f6b59d69b8b98abd5459d07f2742c4df920b25aae33c6482060405160405180910390a260008060006101000a81548173ffffffffffffffffffffffffffffffffffffffff021916908373ffffffffffffffffffffffffffffffffffffffff160217905550565b6000809054906101000a900473ffffffffffffffffffffffffffffffffffffffff1673ffffffffffffffffffffffffffffffffffffffff163373ffffffffffffffffffffffffffffffffffffffff1614151561062557600080fd5b6000600281111561063257fe5b600260009054906101000a900460ff16600281111561064d57fe5b14151561065957600080fd5b6001600260006101000a81548160ff0219169083600281111561067857fe5b02179055507f599d8e5a83cffb867d051598c4d70e805d59802d8081c1c7d6dffc5b6aca2b8960405160405180910390a1565b6000809054906101000a900473ffffffffffffffffffffffffffffffffffffffff1681565b6002808111156106dc57fe5b600260009054906101000a900460ff1660028111156106f757fe5b14151561070357600080fd5b600260019054906101000a900473ffffffffffffffffffffffffffffffffffffffff1673ffffffffffffffffffffffffffffffffffffffff166108fc3073ffffffffffffffffffffffffffffffffffffffff16319081150290604051600060405180830381858888f19350505050158015610782573d6000803e3d6000fd5b50565b600260009054906101000a900460ff1681565b6000600160008373ffffffffffffffffffffffffffffffffffffffff1673ffffffffffffffffffffffffffffffffffffffff168152602001908152602001600020549050919050565b6000809054906101000a900473ffffffffffffffffffffffffffffffffffffffff1673ffffffffffffffffffffffffffffffffffffffff163373ffffffffffffffffffffffffffffffffffffffff1614151561083c57600080fd5b61084581610a28565b50565b6000600281111561085557fe5b600260009054906101000a900460ff16600281111561087057fe5b14151561087c57600080fd5b61088581610b22565b50565b60008060009054906101000a900473ffffffffffffffffffffffffffffffffffffffff1673ffffffffffffffffffffffffffffffffffffffff163373ffffffffffffffffffffffffffffffffffffffff161415156108e557600080fd5b600160008373ffffffffffffffffffffffffffffffffffffffff1673ffffffffffffffffffffffffffffffffffffffff168152602001908152602001600020549050803073ffffffffffffffffffffffffffffffffffffffff16311015151561094a57fe5b6000600160008473ffffffffffffffffffffffffffffffffffffffff1673ffffffffffffffffffffffffffffffffffffffff168152602001908152602001600020819055508173ffffffffffffffffffffffffffffffffffffffff166108fc829081150290604051600060405180830381858888f193505050501580156109d5573d6000803e3d6000fd5b508173ffffffffffffffffffffffffffffffffffffffff167f7084f5476618d8e60b11ef0d7d3f06914655adb8793e28ff7f018d4c76d505d5826040518082815260200191505060405180910390a25050565b600073ffffffffffffffffffffffffffffffffffffffff168173ffffffffffffffffffffffffffffffffffffffff1614151515610a6457600080fd5b8073ffffffffffffffffffffffffffffffffffffffff166000809054906101000a900473ffffffffffffffffffffffffffffffffffffffff1673ffffffffffffffffffffffffffffffffffffffff167f8be0079c531659141344cd1fd0a4f28419497f9722a3daafe3b4186f6b6457e060405160405180910390a3806000806101000a81548173ffffffffffffffffffffffffffffffffffffffff021916908373ffffffffffffffffffffffffffffffffffffffff16021790555050565b60008060009054906101000a900473ffffffffffffffffffffffffffffffffffffffff1673ffffffffffffffffffffffffffffffffffffffff163373ffffffffffffffffffffffffffffffffffffffff16141515610b7f57600080fd5b349050610bd481600160008573ffffffffffffffffffffffffffffffffffffffff1673ffffffffffffffffffffffffffffffffffffffff16815260200190815260200160002054610c6990919063ffffffff16565b600160008473ffffffffffffffffffffffffffffffffffffffff1673ffffffffffffffffffffffffffffffffffffffff168152602001908152602001600020819055508173ffffffffffffffffffffffffffffffffffffffff167f2da466a7b24304f47e87fa2e1e5a81b9831ce54fec19055ce277ca2f39ba42c4826040518082815260200191505060405180910390a25050565b6000808284019050838110151515610c8057600080fd5b80915050929150505600a165627a7a7230582044602c1347029ea1c652ae2abd21be9670f82328b7d57b4bd437f821f2ab64380029",
  "source": "pragma solidity ^0.4.24;\n\nimport \"../crowdsale/validation/CappedCrowdsale.sol\";\nimport \"../crowdsale/distribution/RefundableCrowdsale.sol\";\nimport \"../crowdsale/emission/MintedCrowdsale.sol\";\nimport \"../token/ERC20/MintableToken.sol\";\n\n\n/**\n * @title SampleCrowdsaleToken\n * @dev Very simple ERC20 Token that can be minted.\n * It is meant to be used in a crowdsale contract.\n */\ncontract SampleCrowdsaleToken is MintableToken {\n\n  string public constant name = \"Sample Crowdsale Token\";\n  string public constant symbol = \"SCT\";\n  uint8 public constant decimals = 18;\n\n}\n\n\n/**\n * @title SampleCrowdsale\n * @dev This is an example of a fully fledged crowdsale.\n * The way to add new features to a base crowdsale is by multiple inheritance.\n * In this example we are providing following extensions:\n * CappedCrowdsale - sets a max boundary for raised funds\n * RefundableCrowdsale - set a min goal to be reached and returns funds if it's not met\n *\n * After adding multiple features it's good practice to run integration tests\n * to ensure that subcontracts works together as intended.\n */\n// XXX There doesn't seem to be a way to split this line that keeps solium\n// happy. See:\n// https://github.com/duaraghav8/Solium/issues/205\n// --elopio - 2018-05-10\n// solium-disable-next-line max-len\ncontract SampleCrowdsale is CappedCrowdsale, RefundableCrowdsale, MintedCrowdsale {\n\n  constructor(\n    uint256 _openingTime,\n    uint256 _closingTime,\n    uint256 _rate,\n    address _wallet,\n    uint256 _cap,\n    MintableToken _token,\n    uint256 _goal\n  )\n    public\n    Crowdsale(_rate, _wallet, _token)\n    CappedCrowdsale(_cap)\n    TimedCrowdsale(_openingTime, _closingTime)\n    RefundableCrowdsale(_goal)\n  {\n    //As goal needs to be met for a successful crowdsale\n    //the value needs to less or equal than a cap which is limit for accepted funds\n    require(_goal <= _cap);\n  }\n}\n",
  "sourcePath": "/home/liweibo/code/solidity/contracts_library/contracts_library/contracts/OpenZeppelin/openzeppelin-solidity/examples/SampleCrowdsale.sol",
  "compiler": {
    "name": "solc",
    "version": "0.4.24+commit.e67f0147.Emscripten.clang"
  },
  "schemaVersion": "2.0.1",
  "updatedAt": "2018-08-14T07:39:20.594Z"
}