{
  "contractName": "SimpleContract",
  "abi": [
    {
      "constant": false,
      "inputs": [
        {
          "name": "_name",
          "type": "string"
        }
      ],
      "name": "setName",
      "outputs": [],
      "payable": false,
      "stateMutability": "nonpayable",
      "type": "function"
    },
    {
      "constant": false,
      "inputs": [
        {
          "name": "_age",
          "type": "uint256"
        }
      ],
      "name": "setAge",
      "outputs": [],
      "payable": false,
      "stateMutability": "nonpayable",
      "type": "function"
    },
    {
      "constant": false,
      "inputs": [],
      "name": "getName",
      "outputs": [
        {
          "name": "",
          "type": "string"
        }
      ],
      "payable": false,
      "stateMutability": "nonpayable",
      "type": "function"
    },
    {
      "constant": false,
      "inputs": [],
      "name": "getAge",
      "outputs": [
        {
          "name": "",
          "type": "uint256"
        }
      ],
      "payable": false,
      "stateMutability": "nonpayable",
      "type": "function"
    }
  ],
  "bytecode": "0x608060405234801561001057600080fd5b50610359806100206000396000f300608060405260043610610062576000357c0100000000000000000000000000000000000000000000000000000000900463ffffffff16806317d7de7c14610067578063967e6e65146100f7578063c47f002714610122578063d5dcf1271461018b575b600080fd5b34801561007357600080fd5b5061007c6101b8565b6040518080602001828103825283818151815260200191508051906020019080838360005b838110156100bc5780820151818401526020810190506100a1565b50505050905090810190601f1680156100e95780820380516001836020036101000a031916815260200191505b509250505060405180910390f35b34801561010357600080fd5b5061010c61025a565b6040518082815260200191505060405180910390f35b34801561012e57600080fd5b50610189600480360381019080803590602001908201803590602001908080601f0160208091040260200160405190810160405280939291908181526020018383808284378201915050505050509192919290505050610264565b005b34801561019757600080fd5b506101b66004803603810190808035906020019092919050505061027e565b005b606060008054600181600116156101000203166002900480601f0160208091040260200160405190810160405280929190818152602001828054600181600116156101000203166002900480156102505780601f1061022557610100808354040283529160200191610250565b820191906000526020600020905b81548152906001019060200180831161023357829003601f168201915b5050505050905090565b6000600154905090565b806000908051906020019061027a929190610288565b5050565b8060018190555050565b828054600181600116156101000203166002900490600052602060002090601f016020900481019282601f106102c957805160ff19168380011785556102f7565b828001600101855582156102f7579182015b828111156102f65782518255916020019190600101906102db565b5b5090506103049190610308565b5090565b61032a91905b8082111561032657600081600090555060010161030e565b5090565b905600a165627a7a723058200b0ccc035cb9d6bfeb0d1d30225853f8095fb946a60605891383478d7544562c0029",
  "source": "pragma solidity ^0.4.0;\n\ncontract SimpleContract {\n    string private name;\n    uint private age;\n    \n    function setName(string _name) {\n        name = _name;\n    }\n    function setAge(uint _age) {\n        age = _age;\n    }\n    function getName() returns(string) {\n        return name;\n    }\n    function getAge() returns(uint) {\n        return age;\n    }\n}\n",
  "sourcePath": "/home/liweibo/code/solidity/contracts_library/contracts_library/contracts/ram1991/Solidity-Smart-contracts/SimpleContract.sol",
  "compiler": {
    "name": "solc",
    "version": "0.4.24+commit.e67f0147.Emscripten.clang"
  },
  "schemaVersion": "2.0.1",
  "updatedAt": "2018-08-14T07:39:20.654Z"
}