{
  "contractName": "TransferCoin",
  "abi": [
    {
      "inputs": [],
      "payable": false,
      "stateMutability": "nonpayable",
      "type": "constructor"
    },
    {
      "constant": false,
      "inputs": [
        {
          "name": "receiverAddress",
          "type": "address"
        },
        {
          "name": "amount",
          "type": "uint256"
        }
      ],
      "name": "transferCoin",
      "outputs": [
        {
          "name": "",
          "type": "bool"
        }
      ],
      "payable": false,
      "stateMutability": "nonpayable",
      "type": "function"
    }
  ],
  "bytecode": "0x608060405234801561001057600080fd5b50600a6000803373ffffffffffffffffffffffffffffffffffffffff1673ffffffffffffffffffffffffffffffffffffffff168152602001908152602001600020819055506101cb806100646000396000f300608060405260043610610041576000357c0100000000000000000000000000000000000000000000000000000000900463ffffffff1680638dde60fa14610046575b600080fd5b34801561005257600080fd5b50610091600480360381019080803573ffffffffffffffffffffffffffffffffffffffff169060200190929190803590602001909291905050506100ab565b604051808215151515815260200191505060405180910390f35b6000816000803373ffffffffffffffffffffffffffffffffffffffff1673ffffffffffffffffffffffffffffffffffffffff1681526020019081526020016000205410156100fc5760009050610199565b816000803373ffffffffffffffffffffffffffffffffffffffff1673ffffffffffffffffffffffffffffffffffffffff16815260200190815260200160002060008282540392505081905550816000808573ffffffffffffffffffffffffffffffffffffffff1673ffffffffffffffffffffffffffffffffffffffff16815260200190815260200160002060008282540192505081905550600190505b929150505600a165627a7a723058202b2d3bb8e37afaa6e366f11c94520d4227bdeecea17072ed51e9207f3d78454d0029",
  "source": "pragma solidity ^0.4.18;\ncontract TransferCoin {\n    mapping (address => uint) balances;\n\n    function TransferCoin() public {\n        balances[msg.sender] = 10;\n    }\n\n    function transferCoin(address receiverAddress, uint amount) public returns(bool) {\n        if(balances[msg.sender] < amount)  return false; \n        balances[msg.sender] -= amount;\n        balances[receiverAddress] += amount;\n        return true;\n    }\n}\n\n\n",
  "sourcePath": "/home/liweibo/code/solidity/contracts_library/contracts_library/contracts/ram1991/Solidity-Smart-contracts/TransferCoin.sol",
  "compiler": {
    "name": "solc",
    "version": "0.4.24+commit.e67f0147.Emscripten.clang"
  },
  "schemaVersion": "2.0.1",
  "updatedAt": "2018-08-14T07:39:20.654Z"
}