{
  "contractName": "ValueIncrementer3",
  "abi": [
    {
      "inputs": [],
      "payable": false,
      "stateMutability": "nonpayable",
      "type": "constructor"
    },
    {
      "constant": false,
      "inputs": [
        {
          "name": "howmuch",
          "type": "int256"
        },
        {
          "name": "_customvalue",
          "type": "int256"
        }
      ],
      "name": "increment",
      "outputs": [],
      "payable": false,
      "stateMutability": "nonpayable",
      "type": "function"
    },
    {
      "constant": true,
      "inputs": [],
      "name": "getCustomValue",
      "outputs": [
        {
          "name": "",
          "type": "int256"
        }
      ],
      "payable": false,
      "stateMutability": "view",
      "type": "function"
    },
    {
      "constant": true,
      "inputs": [],
      "name": "getWhatHappened",
      "outputs": [
        {
          "name": "",
          "type": "string"
        }
      ],
      "payable": false,
      "stateMutability": "view",
      "type": "function"
    },
    {
      "constant": true,
      "inputs": [],
      "name": "getIteration",
      "outputs": [
        {
          "name": "",
          "type": "int256"
        }
      ],
      "payable": false,
      "stateMutability": "view",
      "type": "function"
    },
    {
      "constant": false,
      "inputs": [],
      "name": "kill",
      "outputs": [],
      "payable": false,
      "stateMutability": "nonpayable",
      "type": "function"
    }
  ],
  "bytecode": "0x608060405234801561001057600080fd5b50336000806101000a81548173ffffffffffffffffffffffffffffffffffffffff021916908373ffffffffffffffffffffffffffffffffffffffff16021790555060006001819055506040805190810160405280601481526020017f636f6e7374727563746f72206578656375746564000000000000000000000000815250600290805190602001906100a49291906100aa565b5061014f565b828054600181600116156101000203166002900490600052602060002090601f016020900481019282601f106100eb57805160ff1916838001178555610119565b82800160010185558215610119579182015b828111156101185782518255916020019190600101906100fd565b5b509050610126919061012a565b5090565b61014c91905b80821115610148576000816000905550600101610130565b5090565b90565b6104fa8061015e6000396000f30060806040526004361061006d576000357c0100000000000000000000000000000000000000000000000000000000900463ffffffff168063182db3701461007257806341c0e1b5146101025780637b69db5c14610119578063c7398dd414610150578063fc2c3e081461017b575b600080fd5b34801561007e57600080fd5b506100876101a6565b6040518080602001828103825283818151815260200191508051906020019080838360005b838110156100c75780820151818401526020810190506100ac565b50505050905090810190601f1680156100f45780820380516001836020036101000a031916815260200191505b509250505060405180910390f35b34801561010e57600080fd5b50610117610248565b005b34801561012557600080fd5b5061014e60048036038101908080359060200190929190803590602001909291905050506102d9565b005b34801561015c57600080fd5b50610165610415565b6040518082815260200191505060405180910390f35b34801561018757600080fd5b5061019061041f565b6040518082815260200191505060405180910390f35b606060028054600181600116156101000203166002900480601f01602080910402602001604051908101604052809291908181526020018280546001816001161561010002031660029004801561023e5780601f106102135761010080835404028352916020019161023e565b820191906000526020600020905b81548152906001019060200180831161022157829003601f168201915b5050505050905090565b6000809054906101000a900473ffffffffffffffffffffffffffffffffffffffff1673ffffffffffffffffffffffffffffffffffffffff163373ffffffffffffffffffffffffffffffffffffffff1614156102d7576000809054906101000a900473ffffffffffffffffffffffffffffffffffffffff1673ffffffffffffffffffffffffffffffffffffffff16ff5b565b80600381905550600082141561036c576001805401600181905550606060405190810160405280603981526020017f686f776d75636820776173207a65726f2e20496e6372656d656e74656420627981526020017f20312e20637573746f6d76616c756520616c736f207365742e0000000000000081525060029080519060200190610366929190610429565b50610411565b8160015401600181905550608060405190810160405280604481526020017f686f776d75636820776173206e6f6e7a65726f2e20496e6372656d656e74656481526020017f206279206974732076616c75652e20637573746f6d76616c756520616c736f2081526020017f7365742e000000000000000000000000000000000000000000000000000000008152506002908051906020019061040f929190610429565b505b5050565b6000600354905090565b6000600154905090565b828054600181600116156101000203166002900490600052602060002090601f016020900481019282601f1061046a57805160ff1916838001178555610498565b82800160010185558215610498579182015b8281111561049757825182559160200191906001019061047c565b5b5090506104a591906104a9565b5090565b6104cb91905b808211156104c75760008160009055506001016104af565b5090565b905600a165627a7a72305820192683310a276c5db39f093f994dd502c5c24528c941bec9a2a91d3a17eca4330029",
  "source": "// This contract demonstrates a simple non-constant (transactional) function you can call from geth.\n// increment() takes TWO parameters and increments the interation value by howmuch and also sets an arbitrary customvalue.\n// See below for how to make the call in geth. (ValueIncrementer3.increment.sendTransaction(3,9, {from:eth.coinbase,gas:1000000});)\n// note that we needed more than the (geth) default gas of 90k this time. I chose 1 mil. (unused gas is refunded anyway)\n\ncontract ValueIncrementer3 {\n\n    address creator;\n    int iteration;\n    string whathappened;\n    int customvalue;\n\n    function ValueIncrementer3() \n    {\n        creator = msg.sender; \t\t\t\t\t\t\t\t\n        iteration = 0;\n        whathappened = \"constructor executed\";\n    }\n\n\t// call this in geth like so: > ValueIncrementer3.increment.sendTransaction(3, 8, {from:eth.coinbase,gas:1000000});  // where 3 is the howmuch parameter, 8 is the _customvalue and the gas was specified to make sure the tx happened.\n    function increment(int howmuch, int _customvalue) \n    {\n    \tcustomvalue = _customvalue;\n    \tif(howmuch == 0)\n    \t{\n    \t\titeration = iteration + 1;\n    \t\twhathappened = \"howmuch was zero. Incremented by 1. customvalue also set.\";\n    \t}\n    \telse\n    \t{\n        \titeration = iteration + howmuch;\n        \twhathappened = \"howmuch was nonzero. Incremented by its value. customvalue also set.\";\n        }\n        return;\n    }\n    \n    function getCustomValue() constant returns (int)\n    {\n    \treturn customvalue;\n    }\n    \n    function getWhatHappened() constant returns (string)\n    {\n    \treturn whathappened;\n    }\n    \n    function getIteration() constant returns (int) \n    {\n        return iteration;\n    }\n    \n    /**********\n     Standard kill() function to recover funds \n    **********/\n    \n    function kill()\n    { \n        if (msg.sender == creator)\n            suicide(creator);  // kills this contract and sends remaining funds back to creator\n    }\n    \n}\n\n/*\n\n> ValueIncrementer3.increment.sendTransaction(3,9, {from:eth.coinbase});\n\"0x7731880bef6e5122aead43a1e60ffda7fad0508013a8045c9c256da78fb769b2\"\n> ValueIncrementer3.getIteration();\n0\n> ValueIncrementer3.getWhatHappened();\n\"constructor executed\"\n> var tx = ValueIncrementer3.increment.sendTransaction(4,19, {from:eth.coinbase});\nundefined\n> tx\n\"0x64ddd3334cf86e6f1ec3e07d913d8da842a77758f71f6793eaf876a27caf1e3e\"\n> ValueIncrementer3.getWhatHappened();\n\"constructor executed\"\n> ValueIncrementer3.getIteration();\n0\n> var r = web3.eth.getTransactionReceipt(tx);\nundefined\n> r\n{\n  blockHash: \"0xd6423bbb563808ac91ffdc1c95a0e2965d90cf24e3cc68e6284da45aba4c4ec7\",\n  blockNumber: 179636,\n  contractAddress: null,\n  cumulativeGasUsed: 111000,\t\t\t\t\t\t\t\t\t\t\t\t\t\t\t\t// this is how much gas was needed\n  gasUsed: 90000,\t\t\t\t\t\t\t\t\t\t\t\t\t\t\t\t\t\t\t// it appears that gasUsed defaults to the gas sent if it wasn't enough. more tests below.\n  logs: [],\n  transactionHash: \"0x64ddd3334cf86e6f1ec3e07d913d8da842a77758f71f6793eaf876a27caf1e3e\",\n  transactionIndex: 1\n}\n> ValueIncrementer3.getWhatHappened();\n\"constructor executed\"\n> ValueIncrementer3.getIteration();\n0\n> ValueIncrementer3.getWhatHappened();\n\"constructor executed\"\n> ValueIncrementer3.getWhatHappened();\n\"constructor executed\"\n> ValueIncrementer3.increment.sendTransaction(3,9, {from:eth.coinbase,gas:10000000});\nExceeds block gas limit\n    at InvalidResponse (<anonymous>:-81076:-79)\n    at send (<anonymous>:-154580:-79)\n    at sendTransaction (<anonymous>:-131712:-79)\n    at sendTransaction (<anonymous>:-105847:-79)\n    at <anonymous>:1:1\n\n> ValueIncrementer3.increment.sendTransaction(3,9, {from:eth.coinbase,gas:1000000});\n\"0xca564a1a9890296893abe16ee8a3dcee9166f7a91aed5e0ab3cb182fad57288d\"\n> ValueIncrementer3.getWhatHappened();\n\"constructor executed\"\n> ValueIncrementer3.getWhatHappened();\n\"constructor executed\"\n> ValueIncrementer3.getWhatHappened();\n\"constructor executed\"\n> ValueIncrementer3.getIteration();\n3\n> ValueIncrementer3.getWhatHappened();\n\"howmuch was nonzero. Incremented by its value. customvalue also set.\"\n> ValueIncrementer3.getCustomValue();\n9\n> {nsole.log(e, contract);endTransaction(3,8, {from:eth.coinbase});\n    console.log('Contract mined! address: ' + contract.address + ' transactionHash: ' + contract.transactionHash);\n> ValueIncrementer3.kill.sendTransaction({from: eth.coinbase});\n\"0x35599d37542ff6d1cfffbbccb122eec4d1b7289c35f9f5bfd5ddf9df7502fe69\"\n> var r = web3.eth.getTransactionReceipt('0xca564a1a9890296893abe16ee8a3dcee9166f7a91aed5e0ab3cb182fad57288d'); // this is the 3,9 call, not the kill.\nundefined\n> r\n{\n  blockHash: \"0xd76b3a350b71bea75ab87986465b56aad781d787c98a4344a0e02fef4a6e5e12\",\n  blockNumber: 179674,\n  contractAddress: null,\n  cumulativeGasUsed: 112584,\n  gasUsed: 112584,\n  logs: [],\n  transactionHash: \"0xca564a1a9890296893abe16ee8a3dcee9166f7a91aed5e0ab3cb182fad57288d\",\n  transactionIndex: 0\n}\n\n/*************************** Testing low gas sent. Transaction fails without any error being obvious\n\n> ValueIncrementer3.increment.sendTransaction(13,19, {from:eth.coinbase,gas:25000});\n\"0x3127dfb39dd5ef22bcdaadcf90fb7a5f7b1c16cf632d642624f2c99643dfb252\"\n> var r = web3.eth.getTransactionReceipt('0x3127dfb39dd5ef22bcdaadcf90fb7a5f7b1c16cf632d642624f2c99643dfb252');\nundefined\n> r\n{\n  blockHash: \"0x2fd44040c30bcb9b4853afe90f7604740dcf4d7439205a7bc7f9e7c4a12bd052\",\n  blockNumber: 179703,\n  contractAddress: null,\n  cumulativeGasUsed: 25000,\n  gasUsed: 25000,\t\t\t\t// all gas used, but it wasn't enough\n  logs: [],\n  transactionHash: \"0x3127dfb39dd5ef22bcdaadcf90fb7a5f7b1c16cf632d642624f2c99643dfb252\",\n  transactionIndex: 0\n}\n> {nsole.log(e, contract);endTransaction(13,19, {from:eth.coinbase,gas:25000});\n    console.log('Contract mined! address: ' + contract.address + ' transactionHash: ' + contract.transactionHash);\n> ValueIncrementer3.getWhatHappened();\n\"constructor executed\"\n> ValueIncrementer3.getIteration();\n0\n\n\n*/",
  "sourcePath": "/home/liweibo/code/solidity/contracts_library/contracts_library/contracts/fivedogit/solidity-baby-steps/contracts/ValueIncrementer3.sol",
  "compiler": {
    "name": "solc",
    "version": "0.4.24+commit.e67f0147.Emscripten.clang"
  },
  "schemaVersion": "2.0.1",
  "updatedAt": "2018-08-14T07:39:20.629Z"
}