{
  "contractName": "ValueIncrementer2",
  "abi": [
    {
      "inputs": [],
      "payable": false,
      "stateMutability": "nonpayable",
      "type": "constructor"
    },
    {
      "constant": false,
      "inputs": [
        {
          "name": "howmuch",
          "type": "int256"
        }
      ],
      "name": "increment",
      "outputs": [],
      "payable": false,
      "stateMutability": "nonpayable",
      "type": "function"
    },
    {
      "constant": true,
      "inputs": [],
      "name": "getWhatHappened",
      "outputs": [
        {
          "name": "",
          "type": "string"
        }
      ],
      "payable": false,
      "stateMutability": "view",
      "type": "function"
    },
    {
      "constant": true,
      "inputs": [],
      "name": "getIteration",
      "outputs": [
        {
          "name": "",
          "type": "int256"
        }
      ],
      "payable": false,
      "stateMutability": "view",
      "type": "function"
    },
    {
      "constant": false,
      "inputs": [],
      "name": "kill",
      "outputs": [],
      "payable": false,
      "stateMutability": "nonpayable",
      "type": "function"
    }
  ],
  "bytecode": "0x608060405234801561001057600080fd5b50336000806101000a81548173ffffffffffffffffffffffffffffffffffffffff021916908373ffffffffffffffffffffffffffffffffffffffff16021790555060006001819055506040805190810160405280601481526020017f636f6e7374727563746f72206578656375746564000000000000000000000000815250600290805190602001906100a49291906100aa565b5061014f565b828054600181600116156101000203166002900490600052602060002090601f016020900481019282601f106100eb57805160ff1916838001178555610119565b82800160010185558215610119579182015b828111156101185782518255916020019190600101906100fd565b5b509050610126919061012a565b5090565b61014c91905b80821115610148576000816000905550600101610130565b5090565b90565b6104828061015e6000396000f300608060405260043610610062576000357c0100000000000000000000000000000000000000000000000000000000900463ffffffff168063182db3701461006757806341c0e1b5146100f7578063c03c30031461010e578063fc2c3e081461013b575b600080fd5b34801561007357600080fd5b5061007c610166565b6040518080602001828103825283818151815260200191508051906020019080838360005b838110156100bc5780820151818401526020810190506100a1565b50505050905090810190601f1680156100e95780820380516001836020036101000a031916815260200191505b509250505060405180910390f35b34801561010357600080fd5b5061010c610208565b005b34801561011a57600080fd5b5061013960048036038101908080359060200190929190505050610299565b005b34801561014757600080fd5b506101506103a7565b6040518082815260200191505060405180910390f35b606060028054600181600116156101000203166002900480601f0160208091040260200160405190810160405280929190818152602001828054600181600116156101000203166002900480156101fe5780601f106101d3576101008083540402835291602001916101fe565b820191906000526020600020905b8154815290600101906020018083116101e157829003601f168201915b5050505050905090565b6000809054906101000a900473ffffffffffffffffffffffffffffffffffffffff1673ffffffffffffffffffffffffffffffffffffffff163373ffffffffffffffffffffffffffffffffffffffff161415610297576000809054906101000a900473ffffffffffffffffffffffffffffffffffffffff1673ffffffffffffffffffffffffffffffffffffffff16ff5b565b6000811415610325576001805401600181905550606060405190810160405280602381526020017f686f776d75636820776173207a65726f2e20496e6372656d656e74656420627981526020017f20312e00000000000000000000000000000000000000000000000000000000008152506002908051906020019061031f9291906103b1565b506103a4565b8060015401600181905550606060405190810160405280602e81526020017f686f776d75636820776173206e6f6e7a65726f2e20496e6372656d656e74656481526020017f206279206974732076616c75652e000000000000000000000000000000000000815250600290805190602001906103a29291906103b1565b505b50565b6000600154905090565b828054600181600116156101000203166002900490600052602060002090601f016020900481019282601f106103f257805160ff1916838001178555610420565b82800160010185558215610420579182015b8281111561041f578251825591602001919060010190610404565b5b50905061042d9190610431565b5090565b61045391905b8082111561044f576000816000905550600101610437565b5090565b905600a165627a7a72305820a4f9e2900ab56e5dc7d9201bfad3600236f09f5e0aa1e40d842aa55979cbaad00029",
  "source": "// This contract demonstrates a simple non-constant (transactional) function you can call from geth.\n// increment() takes ONE parameter and merely increments the \"iteration\" value by that much. \n// see below for the geth command to send the parameter to the increment(int howmuch) function. \n\ncontract ValueIncrementer2 {\n\n    address creator;\n    int iteration;\n    string whathappened;\n\n    function ValueIncrementer2() \n    {\n        creator = msg.sender; \t\t\t\t\t\t\t\t\n        iteration = 0;\n        whathappened = \"constructor executed\";\n    }\n\n\t// call this in geth like so: > ValueIncrementer2.increment.sendTransaction(3, {from:eth.coinbase});  // where 3 is the howmuch parameter\n    function increment(int howmuch) \n    {\n    \tif(howmuch == 0)\n    \t{\n    \t\titeration = iteration + 1;\n    \t\twhathappened = \"howmuch was zero. Incremented by 1.\";\n    \t}\n    \telse\n    \t{\n        \titeration = iteration + howmuch;\n        \twhathappened = \"howmuch was nonzero. Incremented by its value.\";\n        }\n        return;\n    }\n    \n    function getWhatHappened() constant returns (string)\n    {\n    \treturn whathappened;\n    }\n    \n    function getIteration() constant returns (int) \n    {\n        return iteration;\n    }\n    \n    /**********\n     Standard kill() function to recover funds \n    **********/\n    \n    function kill()\n    { \n        if (msg.sender == creator)\n            suicide(creator);  // kills this contract and sends remaining funds back to creator\n    }\n    \n}\n\n/*\n\n> ValueIncrementer2.increment.sendTransaction(3, {from:eth.coinbase});\n\"0x9cbceb6f5c3819322f48d0f01d111ac4b6223a2427447e857f493084da886ce5\"\n> ValueIncrementer2.getWhatHappened();\n\"constructor executed\"\n> ValueIncrementer2.getWhatHappened();\n\"howmuch was nonzero. Incremented by its value.\"\n> ValueIncrementer2.getIteration();\n3\n> ValueIncrementer2.increment.sendTransaction(-7, {from:eth.coinbase});\n\"0x4e251eb394e2ba82536cbbb2ab88b9b7da94ffccd106bb3051394cbcc8280f66\"\n> ValueIncrementer2.getIteration();\n-4\n> ValueIncrementer2.increment.sendTransaction({from:eth.coinbase});\nnew BigNumber() not a number: [object Object]\n    at <unknown>\n    at <unknown>\n    at <unknown>\n    at <unknown>\n    at <unknown>\n    at <unknown>\n    at <unknown>\n    at <unknown>\n    at <unknown>\n    at encodeParams (<anonymous>:-13909:-61)\n    at toPayload (<anonymous>:-103977:-61)\n\n> ValueIncrementer2.increment.sendTransaction(.0004, {from:eth.coinbase});\n\"0x5bd69b68afca88f7521b25e55af8bcd6d9b8edff0ec455b3f7fd772ea03c163e\"\n> ValueIncrementer2.getIteration();\n-4\n> ValueIncrementer2.getWhatHappened();\n\"howmuch was zero. Incremented by 1.\"\n> ValueIncrementer2.getIteration();\n-3\n> \n\n*/",
  "sourcePath": "/home/liweibo/code/solidity/contracts_library/contracts_library/contracts/fivedogit/solidity-baby-steps/contracts/ValueIncrementer2.sol",
  "compiler": {
    "name": "solc",
    "version": "0.4.24+commit.e67f0147.Emscripten.clang"
  },
  "schemaVersion": "2.0.1",
  "updatedAt": "2018-08-14T07:39:20.629Z"
}